{
	"EternalJournalism.sol": {
		"EternalJournalismV2": {
			"abi": [
				{
					"inputs": [],
					"stateMutability": "nonpayable",
					"type": "constructor"
				},
				{
					"anonymous": false,
					"inputs": [
						{
							"indexed": true,
							"internalType": "string",
							"name": "id",
							"type": "string"
						},
						{
							"indexed": false,
							"internalType": "string",
							"name": "title",
							"type": "string"
						},
						{
							"indexed": false,
							"internalType": "string",
							"name": "content",
							"type": "string"
						},
						{
							"indexed": false,
							"internalType": "string",
							"name": "ipfsHash",
							"type": "string"
						},
						{
							"indexed": false,
							"internalType": "string",
							"name": "url",
							"type": "string"
						},
						{
							"indexed": false,
							"internalType": "bool",
							"name": "isFullArticle",
							"type": "bool"
						},
						{
							"indexed": false,
							"internalType": "bool",
							"name": "isMultiPart",
							"type": "bool"
						},
						{
							"indexed": false,
							"internalType": "uint256",
							"name": "lastPartNumber",
							"type": "uint256"
						}
					],
					"name": "ArticleStored",
					"type": "event"
				},
				{
					"anonymous": false,
					"inputs": [
						{
							"indexed": true,
							"internalType": "string",
							"name": "id",
							"type": "string"
						},
						{
							"indexed": false,
							"internalType": "string",
							"name": "content",
							"type": "string"
						}
					],
					"name": "ArticleUpdated",
					"type": "event"
				},
				{
					"inputs": [
						{
							"internalType": "string",
							"name": "id",
							"type": "string"
						},
						{
							"internalType": "string",
							"name": "content",
							"type": "string"
						}
					],
					"name": "addArticlePart",
					"outputs": [],
					"stateMutability": "nonpayable",
					"type": "function"
				},
				{
					"inputs": [],
					"name": "articleCount",
					"outputs": [
						{
							"internalType": "uint256",
							"name": "",
							"type": "uint256"
						}
					],
					"stateMutability": "view",
					"type": "function"
				},
				{
					"inputs": [],
					"name": "contractVersion",
					"outputs": [
						{
							"internalType": "string",
							"name": "",
							"type": "string"
						}
					],
					"stateMutability": "view",
					"type": "function"
				},
				{
					"inputs": [
						{
							"internalType": "string",
							"name": "id",
							"type": "string"
						}
					],
					"name": "getArticle",
					"outputs": [
						{
							"internalType": "string",
							"name": "",
							"type": "string"
						},
						{
							"internalType": "string",
							"name": "",
							"type": "string"
						},
						{
							"internalType": "string",
							"name": "",
							"type": "string"
						},
						{
							"internalType": "string",
							"name": "",
							"type": "string"
						},
						{
							"internalType": "string",
							"name": "",
							"type": "string"
						},
						{
							"internalType": "uint256",
							"name": "",
							"type": "uint256"
						},
						{
							"internalType": "bool",
							"name": "",
							"type": "bool"
						},
						{
							"internalType": "bool",
							"name": "",
							"type": "bool"
						},
						{
							"internalType": "uint256",
							"name": "",
							"type": "uint256"
						},
						{
							"internalType": "uint256",
							"name": "",
							"type": "uint256"
						}
					],
					"stateMutability": "view",
					"type": "function"
				},
				{
					"inputs": [],
					"name": "getArticleCount",
					"outputs": [
						{
							"internalType": "uint256",
							"name": "",
							"type": "uint256"
						}
					],
					"stateMutability": "view",
					"type": "function"
				},
				{
					"inputs": [
						{
							"internalType": "string",
							"name": "id",
							"type": "string"
						}
					],
					"name": "getArticleUpdateCount",
					"outputs": [
						{
							"internalType": "uint256",
							"name": "",
							"type": "uint256"
						}
					],
					"stateMutability": "view",
					"type": "function"
				},
				{
					"inputs": [],
					"name": "implementation",
					"outputs": [
						{
							"internalType": "address",
							"name": "",
							"type": "address"
						}
					],
					"stateMutability": "view",
					"type": "function"
				},
				{
					"inputs": [],
					"name": "owner",
					"outputs": [
						{
							"internalType": "address",
							"name": "",
							"type": "address"
						}
					],
					"stateMutability": "view",
					"type": "function"
				},
				{
					"inputs": [],
					"name": "protest",
					"outputs": [
						{
							"internalType": "string",
							"name": "",
							"type": "string"
						}
					],
					"stateMutability": "view",
					"type": "function"
				},
				{
					"inputs": [
						{
							"internalType": "string",
							"name": "id",
							"type": "string"
						},
						{
							"internalType": "string",
							"name": "title",
							"type": "string"
						},
						{
							"internalType": "string",
							"name": "content",
							"type": "string"
						},
						{
							"internalType": "string",
							"name": "url",
							"type": "string"
						},
						{
							"internalType": "bool",
							"name": "isMultiPart",
							"type": "bool"
						},
						{
							"internalType": "uint256",
							"name": "lastPartNumber",
							"type": "uint256"
						}
					],
					"name": "storeFullArticle",
					"outputs": [],
					"stateMutability": "nonpayable",
					"type": "function"
				},
				{
					"inputs": [
						{
							"internalType": "string",
							"name": "id",
							"type": "string"
						},
						{
							"internalType": "string",
							"name": "title",
							"type": "string"
						},
						{
							"internalType": "string",
							"name": "ipfsHash",
							"type": "string"
						},
						{
							"internalType": "string",
							"name": "url",
							"type": "string"
						}
					],
					"name": "storePartialArticle",
					"outputs": [],
					"stateMutability": "nonpayable",
					"type": "function"
				},
				{
					"inputs": [
						{
							"internalType": "address",
							"name": "_newOwner",
							"type": "address"
						}
					],
					"name": "transferOwnership",
					"outputs": [],
					"stateMutability": "nonpayable",
					"type": "function"
				},
				{
					"inputs": [],
					"name": "updateCount",
					"outputs": [
						{
							"internalType": "uint256",
							"name": "",
							"type": "uint256"
						}
					],
					"stateMutability": "view",
					"type": "function"
				},
				{
					"inputs": [
						{
							"internalType": "string",
							"name": "id",
							"type": "string"
						},
						{
							"internalType": "string",
							"name": "content",
							"type": "string"
						}
					],
					"name": "updateFullArticle",
					"outputs": [],
					"stateMutability": "nonpayable",
					"type": "function"
				},
				{
					"inputs": [
						{
							"internalType": "address",
							"name": "_newImplementation",
							"type": "address"
						}
					],
					"name": "upgradeImplementation",
					"outputs": [],
					"stateMutability": "nonpayable",
					"type": "function"
				}
			],
			"devdoc": {
				"kind": "dev",
				"methods": {},
				"version": 1
			},
			"evm": {
				"assembly": "    /* \"EternalJournalism.sol\":57:5333  contract EternalJournalismV2 {... */\n  mstore(0x40, 0x80)\n    /* \"EternalJournalism.sol\":1340:1421  constructor() {... */\n  callvalue\n  dup1\n  iszero\n  tag_1\n  jumpi\n  0x00\n  dup1\n  revert\ntag_1:\n  pop\n    /* \"EternalJournalism.sol\":1364:1369  owner */\n  0x00\n    /* \"EternalJournalism.sol\":1364:1382  owner = msg.sender */\n  dup1\n  sload\n  not(sub(shl(0xa0, 0x01), 0x01))\n  and\n    /* \"EternalJournalism.sol\":1372:1382  msg.sender */\n  caller\n    /* \"EternalJournalism.sol\":1364:1382  owner = msg.sender */\n  or\n  swap1\n  sstore\n    /* \"EternalJournalism.sol\":1392:1414  contractVersion = \"v2\" */\n  0x40\n  dup1\n  mload\n  dup1\n  dup3\n  add\n  swap1\n  swap2\n  mstore\n  0x02\n  dup1\n  dup3\n  mstore\n  shl(0xf1, 0x3b19)\n  0x20\n  dup4\n  add\n  mstore\n  swap1\n  tag_4\n  swap1\n  dup3\n  tag_5\n  jump\t// in\ntag_4:\n  pop\n    /* \"EternalJournalism.sol\":57:5333  contract EternalJournalismV2 {... */\n  jump(tag_12)\n    /* \"#utility.yul\":14:141   */\ntag_7:\n    /* \"#utility.yul\":75:85   */\n  0x4e487b71\n    /* \"#utility.yul\":70:73   */\n  0xe0\n    /* \"#utility.yul\":66:86   */\n  shl\n    /* \"#utility.yul\":63:64   */\n  0x00\n    /* \"#utility.yul\":56:87   */\n  mstore\n    /* \"#utility.yul\":106:110   */\n  0x41\n    /* \"#utility.yul\":103:104   */\n  0x04\n    /* \"#utility.yul\":96:111   */\n  mstore\n    /* \"#utility.yul\":130:134   */\n  0x24\n    /* \"#utility.yul\":127:128   */\n  0x00\n    /* \"#utility.yul\":120:135   */\n  revert\n    /* \"#utility.yul\":146:526   */\ntag_8:\n    /* \"#utility.yul\":225:226   */\n  0x01\n    /* \"#utility.yul\":221:233   */\n  dup2\n  dup2\n  shr\n  swap1\n    /* \"#utility.yul\":268:280   */\n  dup3\n  and\n  dup1\n    /* \"#utility.yul\":289:350   */\n  tag_15\n  jumpi\n    /* \"#utility.yul\":343:347   */\n  0x7f\n    /* \"#utility.yul\":335:341   */\n  dup3\n    /* \"#utility.yul\":331:348   */\n  and\n    /* \"#utility.yul\":321:348   */\n  swap2\n  pop\n    /* \"#utility.yul\":289:350   */\ntag_15:\n    /* \"#utility.yul\":396:398   */\n  0x20\n    /* \"#utility.yul\":388:394   */\n  dup3\n    /* \"#utility.yul\":385:399   */\n  lt\n    /* \"#utility.yul\":365:383   */\n  dup2\n    /* \"#utility.yul\":362:400   */\n  sub\n    /* \"#utility.yul\":359:520   */\n  tag_16\n  jumpi\n    /* \"#utility.yul\":442:452   */\n  0x4e487b71\n    /* \"#utility.yul\":437:440   */\n  0xe0\n    /* \"#utility.yul\":433:453   */\n  shl\n    /* \"#utility.yul\":430:431   */\n  0x00\n    /* \"#utility.yul\":423:454   */\n  mstore\n    /* \"#utility.yul\":477:481   */\n  0x22\n    /* \"#utility.yul\":474:475   */\n  0x04\n    /* \"#utility.yul\":467:482   */\n  mstore\n    /* \"#utility.yul\":505:509   */\n  0x24\n    /* \"#utility.yul\":502:503   */\n  0x00\n    /* \"#utility.yul\":495:510   */\n  revert\n    /* \"#utility.yul\":359:520   */\ntag_16:\n  pop\n    /* \"#utility.yul\":146:526   */\n  swap2\n  swap1\n  pop\n  jump\t// out\n    /* \"#utility.yul\":657:1202   */\ntag_10:\n    /* \"#utility.yul\":759:761   */\n  0x1f\n    /* \"#utility.yul\":754:757   */\n  dup3\n    /* \"#utility.yul\":751:762   */\n  gt\n    /* \"#utility.yul\":748:1196   */\n  iszero\n  tag_19\n  jumpi\n    /* \"#utility.yul\":795:796   */\n  0x00\n    /* \"#utility.yul\":820:825   */\n  dup2\n    /* \"#utility.yul\":816:818   */\n  dup2\n    /* \"#utility.yul\":809:826   */\n  mstore\n    /* \"#utility.yul\":865:869   */\n  0x20\n    /* \"#utility.yul\":861:863   */\n  dup2\n    /* \"#utility.yul\":851:870   */\n  keccak256\n    /* \"#utility.yul\":935:937   */\n  0x1f\n    /* \"#utility.yul\":923:933   */\n  dup6\n    /* \"#utility.yul\":919:938   */\n  add\n    /* \"#utility.yul\":916:917   */\n  0x05\n    /* \"#utility.yul\":912:939   */\n  shr\n    /* \"#utility.yul\":906:910   */\n  dup2\n    /* \"#utility.yul\":902:940   */\n  add\n    /* \"#utility.yul\":971:975   */\n  0x20\n    /* \"#utility.yul\":959:969   */\n  dup7\n    /* \"#utility.yul\":956:976   */\n  lt\n    /* \"#utility.yul\":953:1000   */\n  iszero\n  tag_20\n  jumpi\n  pop\n    /* \"#utility.yul\":994:998   */\n  dup1\n    /* \"#utility.yul\":953:1000   */\ntag_20:\n    /* \"#utility.yul\":1049:1051   */\n  0x1f\n    /* \"#utility.yul\":1044:1047   */\n  dup6\n    /* \"#utility.yul\":1040:1052   */\n  add\n    /* \"#utility.yul\":1037:1038   */\n  0x05\n    /* \"#utility.yul\":1033:1053   */\n  shr\n    /* \"#utility.yul\":1027:1031   */\n  dup3\n    /* \"#utility.yul\":1023:1054   */\n  add\n    /* \"#utility.yul\":1013:1054   */\n  swap2\n  pop\n    /* \"#utility.yul\":1104:1186   */\ntag_21:\n    /* \"#utility.yul\":1122:1124   */\n  dup2\n    /* \"#utility.yul\":1115:1120   */\n  dup2\n    /* \"#utility.yul\":1112:1125   */\n  lt\n    /* \"#utility.yul\":1104:1186   */\n  iszero\n  tag_23\n  jumpi\n    /* \"#utility.yul\":1167:1184   */\n  dup3\n  dup2\n  sstore\n    /* \"#utility.yul\":1148:1149   */\n  0x01\n    /* \"#utility.yul\":1137:1150   */\n  add\n    /* \"#utility.yul\":1104:1186   */\n  jump(tag_21)\ntag_23:\n    /* \"#utility.yul\":1108:1111   */\n  pop\n  pop\n  pop\n    /* \"#utility.yul\":748:1196   */\ntag_19:\n    /* \"#utility.yul\":657:1202   */\n  pop\n  pop\n  pop\n  jump\t// out\n    /* \"#utility.yul\":1378:2730   */\ntag_5:\n    /* \"#utility.yul\":1498:1508   */\n  dup2\n  mload\n  sub(shl(0x40, 0x01), 0x01)\n    /* \"#utility.yul\":1520:1550   */\n  dup2\n  gt\n    /* \"#utility.yul\":1517:1573   */\n  iszero\n  tag_27\n  jumpi\n    /* \"#utility.yul\":1553:1571   */\n  tag_27\n  tag_7\n  jump\t// in\ntag_27:\n    /* \"#utility.yul\":1582:1679   */\n  tag_28\n    /* \"#utility.yul\":1672:1678   */\n  dup2\n    /* \"#utility.yul\":1632:1670   */\n  tag_29\n    /* \"#utility.yul\":1664:1668   */\n  dup5\n    /* \"#utility.yul\":1658:1669   */\n  sload\n    /* \"#utility.yul\":1632:1670   */\n  tag_8\n  jump\t// in\ntag_29:\n    /* \"#utility.yul\":1626:1630   */\n  dup5\n    /* \"#utility.yul\":1582:1679   */\n  tag_10\n  jump\t// in\ntag_28:\n    /* \"#utility.yul\":1734:1738   */\n  0x20\n  dup1\n    /* \"#utility.yul\":1798:1800   */\n  0x1f\n    /* \"#utility.yul\":1787:1801   */\n  dup4\n  gt\n    /* \"#utility.yul\":1815:1816   */\n  0x01\n    /* \"#utility.yul\":1810:2473   */\n  dup2\n  eq\n  tag_31\n  jumpi\n    /* \"#utility.yul\":2517:2518   */\n  0x00\n    /* \"#utility.yul\":2534:2540   */\n  dup5\n    /* \"#utility.yul\":2531:2620   */\n  iszero\n  tag_32\n  jumpi\n  pop\n    /* \"#utility.yul\":2586:2605   */\n  dup6\n  dup4\n  add\n    /* \"#utility.yul\":2580:2606   */\n  mload\n    /* \"#utility.yul\":2531:2620   */\ntag_32:\n  not(0x00)\n    /* \"#utility.yul\":1335:1336   */\n  0x03\n    /* \"#utility.yul\":1331:1342   */\n  dup7\n  swap1\n  shl\n    /* \"#utility.yul\":1327:1351   */\n  shr\n    /* \"#utility.yul\":1323:1352   */\n  not\n    /* \"#utility.yul\":1313:1353   */\n  and\n    /* \"#utility.yul\":1359:1360   */\n  0x01\n    /* \"#utility.yul\":1355:1366   */\n  dup6\n  swap1\n  shl\n    /* \"#utility.yul\":1310:1367   */\n  or\n    /* \"#utility.yul\":2633:2714   */\n  dup6\n  sstore\n    /* \"#utility.yul\":1780:2724   */\n  jump(tag_23)\n    /* \"#utility.yul\":1810:2473   */\ntag_31:\n    /* \"#utility.yul\":604:605   */\n  0x00\n    /* \"#utility.yul\":597:611   */\n  dup6\n  dup2\n  mstore\n    /* \"#utility.yul\":641:645   */\n  0x20\n    /* \"#utility.yul\":628:646   */\n  dup2\n  keccak256\n  not(0x1f)\n    /* \"#utility.yul\":1846:1866   */\n  dup7\n  and\n  swap2\n    /* \"#utility.yul\":1964:2200   */\ntag_35:\n    /* \"#utility.yul\":1978:1985   */\n  dup3\n    /* \"#utility.yul\":1975:1976   */\n  dup2\n    /* \"#utility.yul\":1972:1986   */\n  lt\n    /* \"#utility.yul\":1964:2200   */\n  iszero\n  tag_37\n  jumpi\n    /* \"#utility.yul\":2067:2086   */\n  dup9\n  dup7\n  add\n    /* \"#utility.yul\":2061:2087   */\n  mload\n    /* \"#utility.yul\":2046:2088   */\n  dup3\n  sstore\n    /* \"#utility.yul\":2159:2186   */\n  swap5\n  dup5\n  add\n  swap5\n    /* \"#utility.yul\":2127:2128   */\n  0x01\n    /* \"#utility.yul\":2115:2129   */\n  swap1\n  swap2\n  add\n  swap1\n    /* \"#utility.yul\":1994:2013   */\n  dup5\n  add\n    /* \"#utility.yul\":1964:2200   */\n  jump(tag_35)\ntag_37:\n    /* \"#utility.yul\":1968:1971   */\n  pop\n    /* \"#utility.yul\":2228:2234   */\n  dup6\n    /* \"#utility.yul\":2219:2226   */\n  dup3\n    /* \"#utility.yul\":2216:2235   */\n  lt\n    /* \"#utility.yul\":2213:2414   */\n  iszero\n  tag_38\n  jumpi\n    /* \"#utility.yul\":2289:2308   */\n  dup8\n  dup6\n  add\n    /* \"#utility.yul\":2283:2309   */\n  mload\n  not(0x00)\n    /* \"#utility.yul\":2372:2373   */\n  0x03\n    /* \"#utility.yul\":2368:2382   */\n  dup9\n  swap1\n  shl\n    /* \"#utility.yul\":2384:2387   */\n  0xf8\n    /* \"#utility.yul\":2364:2388   */\n  and\n    /* \"#utility.yul\":2360:2397   */\n  shr\n    /* \"#utility.yul\":2356:2398   */\n  not\n    /* \"#utility.yul\":2341:2399   */\n  and\n    /* \"#utility.yul\":2326:2400   */\n  dup2\n  sstore\n    /* \"#utility.yul\":2213:2414   */\ntag_38:\n  pop\n  pop\n  pop\n  pop\n  pop\n    /* \"#utility.yul\":2460:2461   */\n  0x01\n    /* \"#utility.yul\":2444:2458   */\n  swap1\n  dup2\n  shl\n    /* \"#utility.yul\":2440:2462   */\n  add\n    /* \"#utility.yul\":2427:2463   */\n  swap1\n  sstore\n  pop\n    /* \"#utility.yul\":1378:2730   */\n  jump\t// out\ntag_12:\n    /* \"EternalJournalism.sol\":57:5333  contract EternalJournalismV2 {... */\n  dataSize(sub_0)\n  dup1\n  dataOffset(sub_0)\n  0x00\n  codecopy\n  0x00\n  return\nstop\n\nsub_0: assembly {\n        /* \"EternalJournalism.sol\":57:5333  contract EternalJournalismV2 {... */\n      mstore(0x40, 0x80)\n      callvalue\n      dup1\n      iszero\n      tag_1\n      jumpi\n      0x00\n      dup1\n      revert\n    tag_1:\n      pop\n      jumpi(tag_2, lt(calldatasize, 0x04))\n      shr(0xe0, calldataload(0x00))\n      dup1\n      0x83f94db7\n      gt\n      tag_18\n      jumpi\n      dup1\n      0xa4666665\n      gt\n      tag_19\n      jumpi\n      dup1\n      0xa4666665\n      eq\n      tag_14\n      jumpi\n      dup1\n      0xd8e8ce1f\n      eq\n      tag_15\n      jumpi\n      dup1\n      0xe899d5ff\n      eq\n      tag_16\n      jumpi\n      dup1\n      0xf2fde38b\n      eq\n      tag_17\n      jumpi\n      0x00\n      dup1\n      revert\n    tag_19:\n      dup1\n      0x83f94db7\n      eq\n      tag_10\n      jumpi\n      dup1\n      0x8da5cb5b\n      eq\n      tag_11\n      jumpi\n      dup1\n      0x9c51b39b\n      eq\n      tag_12\n      jumpi\n      dup1\n      0xa0a8e460\n      eq\n      tag_13\n      jumpi\n      0x00\n      dup1\n      revert\n    tag_18:\n      dup1\n      0x5c60da1b\n      gt\n      tag_20\n      jumpi\n      dup1\n      0x5c60da1b\n      eq\n      tag_6\n      jumpi\n      dup1\n      0x683bcdbb\n      eq\n      tag_7\n      jumpi\n      dup1\n      0x69b4ecc9\n      eq\n      tag_8\n      jumpi\n      dup1\n      0x7af48c35\n      eq\n      tag_9\n      jumpi\n      0x00\n      dup1\n      revert\n    tag_20:\n      dup1\n      0x0bd93eb0\n      eq\n      tag_3\n      jumpi\n      dup1\n      0x0e050e76\n      eq\n      tag_4\n      jumpi\n      dup1\n      0x414e28b0\n      eq\n      tag_5\n      jumpi\n    tag_2:\n      0x00\n      dup1\n      revert\n        /* \"EternalJournalism.sol\":4315:5191  function addArticlePart(string memory id, string memory content) external onlyOwner {... */\n    tag_3:\n      tag_21\n      tag_22\n      calldatasize\n      0x04\n      tag_23\n      jump\t// in\n    tag_22:\n      tag_24\n      jump\t// in\n    tag_21:\n      stop\n        /* \"EternalJournalism.sol\":3114:3532  function storePartialArticle(string memory id, string memory title, string memory ipfsHash, string memory url) external onlyOwner {... */\n    tag_4:\n      tag_21\n      tag_26\n      calldatasize\n      0x04\n      tag_27\n      jump\t// in\n    tag_26:\n      tag_28\n      jump\t// in\n        /* \"EternalJournalism.sol\":624:651  uint256 public articleCount */\n    tag_5:\n      tag_29\n      sload(0x05)\n      dup2\n      jump\n    tag_29:\n      mload(0x40)\n        /* \"#utility.yul\":2513:2538   */\n      swap1\n      dup2\n      mstore\n        /* \"#utility.yul\":2501:2503   */\n      0x20\n        /* \"#utility.yul\":2486:2504   */\n      add\n        /* \"EternalJournalism.sol\":624:651  uint256 public articleCount */\n    tag_31:\n      mload(0x40)\n      dup1\n      swap2\n      sub\n      swap1\n      return\n        /* \"EternalJournalism.sol\":118:147  address public implementation */\n    tag_6:\n      sload(0x01)\n      tag_33\n      swap1\n      sub(shl(0xa0, 0x01), 0x01)\n      and\n      dup2\n      jump\n    tag_33:\n      mload(0x40)\n      sub(shl(0xa0, 0x01), 0x01)\n        /* \"#utility.yul\":2713:2745   */\n      swap1\n      swap2\n      and\n        /* \"#utility.yul\":2695:2746   */\n      dup2\n      mstore\n        /* \"#utility.yul\":2683:2685   */\n      0x20\n        /* \"#utility.yul\":2668:2686   */\n      add\n        /* \"EternalJournalism.sol\":118:147  address public implementation */\n      tag_31\n        /* \"#utility.yul\":2549:2752   */\n      jump\n        /* \"EternalJournalism.sol\":3542:4305  function updateFullArticle(string memory id, string memory content) external onlyOwner {... */\n    tag_7:\n      tag_21\n      tag_38\n      calldatasize\n      0x04\n      tag_23\n      jump\t// in\n    tag_38:\n      tag_39\n      jump\t// in\n        /* \"EternalJournalism.sol\":657:683  uint256 public updateCount */\n    tag_8:\n      tag_29\n      sload(0x06)\n      dup2\n      jump\n        /* \"EternalJournalism.sol\":2278:2401  function getArticleUpdateCount(string memory id) external view returns (uint256) {... */\n    tag_9:\n      tag_29\n      tag_44\n      calldatasize\n      0x04\n      tag_45\n      jump\t// in\n    tag_44:\n      tag_46\n      jump\t// in\n        /* \"EternalJournalism.sol\":1603:1822  function upgradeImplementation(address _newImplementation) external onlyOwner {... */\n    tag_10:\n      tag_21\n      tag_49\n      calldatasize\n      0x04\n      tag_50\n      jump\t// in\n    tag_49:\n      tag_51\n      jump\t// in\n        /* \"EternalJournalism.sol\":92:112  address public owner */\n    tag_11:\n      sload(0x00)\n      tag_33\n      swap1\n      sub(shl(0xa0, 0x01), 0x01)\n      and\n      dup2\n      jump\n        /* \"EternalJournalism.sol\":188:504  string public constant protest = \"Eternal Journalism is also a protest to Ethereum's possible plans for ThePurge, which will potentially destroy contracts like Leeroy, social networks like Peepeth/Lens; and every important message written in the blockchain and their gas costs associated possibly without refunding.\" */\n    tag_12:\n      tag_55\n      tag_56\n      jump\t// in\n    tag_55:\n      mload(0x40)\n      tag_31\n      swap2\n      swap1\n      tag_58\n      jump\t// in\n        /* \"EternalJournalism.sol\":153:182  string public contractVersion */\n    tag_13:\n      tag_55\n      tag_60\n      jump\t// in\n        /* \"EternalJournalism.sol\":1832:2268  function getArticle(string memory id) external view returns (string memory, string memory, string memory, string memory, string memory, uint256, bool, bool, uint256, uint256) {... */\n    tag_14:\n      tag_62\n      tag_63\n      calldatasize\n      0x04\n      tag_45\n      jump\t// in\n    tag_63:\n      tag_64\n      jump\t// in\n    tag_62:\n      mload(0x40)\n      tag_31\n      swap11\n      swap10\n      swap9\n      swap8\n      swap7\n      swap6\n      swap5\n      swap4\n      swap3\n      swap2\n      swap1\n      tag_66\n      jump\t// in\n        /* \"EternalJournalism.sol\":2516:3104  function storeFullArticle(string memory id, string memory title, string memory content, string memory url, bool isMultiPart, uint256 lastPartNumber) external onlyOwner {... */\n    tag_15:\n      tag_21\n      tag_68\n      calldatasize\n      0x04\n      tag_69\n      jump\t// in\n    tag_68:\n      tag_70\n      jump\t// in\n        /* \"EternalJournalism.sol\":2411:2506  function getArticleCount() external view returns (uint256) {... */\n    tag_16:\n        /* \"EternalJournalism.sol\":2487:2499  articleCount */\n      sload(0x05)\n        /* \"EternalJournalism.sol\":2411:2506  function getArticleCount() external view returns (uint256) {... */\n      jump(tag_29)\n        /* \"EternalJournalism.sol\":1431:1593  function transferOwnership(address _newOwner) external onlyOwner {... */\n    tag_17:\n      tag_21\n      tag_75\n      calldatasize\n      0x04\n      tag_50\n      jump\t// in\n    tag_75:\n      tag_76\n      jump\t// in\n        /* \"EternalJournalism.sol\":4315:5191  function addArticlePart(string memory id, string memory content) external onlyOwner {... */\n    tag_24:\n        /* \"EternalJournalism.sol\":1256:1261  owner */\n      and(sub(shl(0xa0, 0x01), 0x01), sload(0x00))\n        /* \"EternalJournalism.sol\":1242:1252  msg.sender */\n      caller\n        /* \"EternalJournalism.sol\":1242:1261  msg.sender == owner */\n      eq\n        /* \"EternalJournalism.sol\":1234:1312  require(msg.sender == owner, \"Only the contract owner can call this function\") */\n      tag_78\n      jumpi\n      mload(0x40)\n      shl(0xe5, 0x461bcd)\n      dup2\n      mstore\n      0x04\n      add\n      tag_79\n      swap1\n      tag_80\n      jump\t// in\n    tag_79:\n      mload(0x40)\n      dup1\n      swap2\n      sub\n      swap1\n      revert\n    tag_78:\n        /* \"EternalJournalism.sol\":4409:4432  Article storage article */\n      0x00\n        /* \"EternalJournalism.sol\":4435:4443  articles */\n      0x03\n        /* \"EternalJournalism.sol\":4444:4446  id */\n      dup4\n        /* \"EternalJournalism.sol\":4435:4447  articles[id] */\n      mload(0x40)\n      tag_82\n      swap2\n      swap1\n      tag_83\n      jump\t// in\n    tag_82:\n      swap1\n      dup2\n      mstore\n      0x20\n      add\n      mload(0x40)\n      dup1\n      swap2\n      sub\n      swap1\n      keccak256\n        /* \"EternalJournalism.sol\":4409:4447  Article storage article = articles[id] */\n      swap1\n      pop\n        /* \"EternalJournalism.sol\":4465:4484  isArticleStored(id) */\n      tag_84\n        /* \"EternalJournalism.sol\":4481:4483  id */\n      dup4\n        /* \"EternalJournalism.sol\":4465:4480  isArticleStored */\n      tag_85\n        /* \"EternalJournalism.sol\":4465:4484  isArticleStored(id) */\n      jump\t// in\n    tag_84:\n        /* \"EternalJournalism.sol\":4457:4529  require(isArticleStored(id), \"Article with the given ID does not exist\") */\n      tag_86\n      jumpi\n      mload(0x40)\n      shl(0xe5, 0x461bcd)\n      dup2\n      mstore\n      0x04\n      add\n      tag_79\n      swap1\n      tag_88\n      jump\t// in\n    tag_86:\n        /* \"EternalJournalism.sol\":4547:4568  article.isFullArticle */\n      0x06\n      dup2\n      add\n      sload\n      0xff\n      and\n        /* \"EternalJournalism.sol\":4539:4602  require(article.isFullArticle, \"Article is not a full article\") */\n      tag_89\n      jumpi\n      mload(0x40)\n      shl(0xe5, 0x461bcd)\n      dup2\n      mstore\n        /* \"#utility.yul\":7983:7985   */\n      0x20\n        /* \"EternalJournalism.sol\":4539:4602  require(article.isFullArticle, \"Article is not a full article\") */\n      0x04\n      dup3\n      add\n        /* \"#utility.yul\":7965:7986   */\n      mstore\n        /* \"#utility.yul\":8022:8024   */\n      0x1d\n        /* \"#utility.yul\":8002:8020   */\n      0x24\n      dup3\n      add\n        /* \"#utility.yul\":7995:8025   */\n      mstore\n        /* \"#utility.yul\":8061:8092   */\n      0x41727469636c65206973206e6f7420612066756c6c2061727469636c65000000\n        /* \"#utility.yul\":8041:8059   */\n      0x44\n      dup3\n      add\n        /* \"#utility.yul\":8034:8093   */\n      mstore\n        /* \"#utility.yul\":8110:8128   */\n      0x64\n      add\n        /* \"EternalJournalism.sol\":4539:4602  require(article.isFullArticle, \"Article is not a full article\") */\n      tag_79\n        /* \"#utility.yul\":7781:8134   */\n      jump\n        /* \"EternalJournalism.sol\":4539:4602  require(article.isFullArticle, \"Article is not a full article\") */\n    tag_89:\n        /* \"EternalJournalism.sol\":4620:4639  article.isMultiPart */\n      0x06\n      dup2\n      add\n      sload\n      0x0100\n      swap1\n      div\n      0xff\n      and\n        /* \"EternalJournalism.sol\":4612:4679  require(article.isMultiPart, \"Article is not a multi-part article\") */\n      tag_92\n      jumpi\n      mload(0x40)\n      shl(0xe5, 0x461bcd)\n      dup2\n      mstore\n        /* \"#utility.yul\":8341:8343   */\n      0x20\n        /* \"EternalJournalism.sol\":4612:4679  require(article.isMultiPart, \"Article is not a multi-part article\") */\n      0x04\n      dup3\n      add\n        /* \"#utility.yul\":8323:8344   */\n      mstore\n        /* \"#utility.yul\":8380:8382   */\n      0x23\n        /* \"#utility.yul\":8360:8378   */\n      0x24\n      dup3\n      add\n        /* \"#utility.yul\":8353:8383   */\n      mstore\n        /* \"#utility.yul\":8419:8453   */\n      0x41727469636c65206973206e6f742061206d756c74692d706172742061727469\n        /* \"#utility.yul\":8399:8417   */\n      0x44\n      dup3\n      add\n        /* \"#utility.yul\":8392:8454   */\n      mstore\n      shl(0xe8, 0x636c65)\n        /* \"#utility.yul\":8470:8488   */\n      0x64\n      dup3\n      add\n        /* \"#utility.yul\":8463:8496   */\n      mstore\n        /* \"#utility.yul\":8513:8532   */\n      0x84\n      add\n        /* \"EternalJournalism.sol\":4612:4679  require(article.isMultiPart, \"Article is not a multi-part article\") */\n      tag_79\n        /* \"#utility.yul\":8139:8538   */\n      jump\n        /* \"EternalJournalism.sol\":4612:4679  require(article.isMultiPart, \"Article is not a multi-part article\") */\n    tag_92:\n        /* \"EternalJournalism.sol\":4725:4732  article */\n      dup1\n        /* \"EternalJournalism.sol\":4725:4747  article.lastPartNumber */\n      0x07\n      add\n      sload\n        /* \"EternalJournalism.sol\":4697:4704  article */\n      dup2\n        /* \"EternalJournalism.sol\":4697:4722  article.currentPartNumber */\n      0x08\n      add\n      sload\n        /* \"EternalJournalism.sol\":4697:4747  article.currentPartNumber < article.lastPartNumber */\n      lt\n        /* \"EternalJournalism.sol\":4689:4800  require(article.currentPartNumber < article.lastPartNumber, \"All parts of the article have been already added\") */\n      tag_95\n      jumpi\n      mload(0x40)\n      shl(0xe5, 0x461bcd)\n      dup2\n      mstore\n        /* \"#utility.yul\":8745:8747   */\n      0x20\n        /* \"EternalJournalism.sol\":4689:4800  require(article.currentPartNumber < article.lastPartNumber, \"All parts of the article have been already added\") */\n      0x04\n      dup3\n      add\n        /* \"#utility.yul\":8727:8748   */\n      mstore\n        /* \"#utility.yul\":8784:8786   */\n      0x30\n        /* \"#utility.yul\":8764:8782   */\n      0x24\n      dup3\n      add\n        /* \"#utility.yul\":8757:8787   */\n      mstore\n        /* \"#utility.yul\":8823:8857   */\n      0x416c6c207061727473206f66207468652061727469636c652068617665206265\n        /* \"#utility.yul\":8803:8821   */\n      0x44\n      dup3\n      add\n        /* \"#utility.yul\":8796:8858   */\n      mstore\n      shl(0x82, 0x195b88185b1c9958591e481859191959)\n        /* \"#utility.yul\":8874:8892   */\n      0x64\n      dup3\n      add\n        /* \"#utility.yul\":8867:8913   */\n      mstore\n        /* \"#utility.yul\":8930:8949   */\n      0x84\n      add\n        /* \"EternalJournalism.sol\":4689:4800  require(article.currentPartNumber < article.lastPartNumber, \"All parts of the article have been already added\") */\n      tag_79\n        /* \"#utility.yul\":8543:8955   */\n      jump\n        /* \"EternalJournalism.sol\":4689:4800  require(article.currentPartNumber < article.lastPartNumber, \"All parts of the article have been already added\") */\n    tag_95:\n        /* \"EternalJournalism.sol\":4853:4860  article */\n      dup1\n        /* \"EternalJournalism.sol\":4853:4868  article.content */\n      0x02\n      add\n        /* \"EternalJournalism.sol\":4870:4877  content */\n      dup3\n        /* \"EternalJournalism.sol\":4836:4878  abi.encodePacked(article.content, content) */\n      add(0x20, mload(0x40))\n      tag_98\n      swap3\n      swap2\n      swap1\n      tag_99\n      jump\t// in\n    tag_98:\n      mload(0x40)\n      0x20\n      dup2\n      dup4\n      sub\n      sub\n      dup2\n      mstore\n      swap1\n      0x40\n      mstore\n        /* \"EternalJournalism.sol\":4811:4818  article */\n      dup2\n        /* \"EternalJournalism.sol\":4811:4826  article.content */\n      0x02\n      add\n        /* \"EternalJournalism.sol\":4811:4879  article.content = string(abi.encodePacked(article.content, content)) */\n      swap1\n      dup2\n      tag_100\n      swap2\n      swap1\n      tag_101\n      jump\t// in\n    tag_100:\n      pop\n        /* \"EternalJournalism.sol\":4889:4914  article.currentPartNumber */\n      0x08\n      dup2\n      add\n        /* \"EternalJournalism.sol\":4889:4916  article.currentPartNumber++ */\n      dup1\n      sload\n      swap1\n        /* \"EternalJournalism.sol\":4889:4914  article.currentPartNumber */\n      0x00\n        /* \"EternalJournalism.sol\":4889:4916  article.currentPartNumber++ */\n      tag_102\n      dup4\n      tag_103\n      jump\t// in\n    tag_102:\n      swap1\n      swap2\n      sstore\n      pop\n      pop\n        /* \"EternalJournalism.sol\":4946:4961  block.timestamp */\n      timestamp\n        /* \"EternalJournalism.sol\":4926:4943  article.timestamp */\n      0x05\n      dup3\n      add\n        /* \"EternalJournalism.sol\":4926:4961  article.timestamp = block.timestamp */\n      sstore\n        /* \"EternalJournalism.sol\":4971:4989  articleUpdates[id] */\n      mload(0x40)\n        /* \"EternalJournalism.sol\":4971:4985  articleUpdates */\n      0x04\n      swap1\n        /* \"EternalJournalism.sol\":4971:4989  articleUpdates[id] */\n      tag_104\n      swap1\n        /* \"EternalJournalism.sol\":4986:4988  id */\n      dup6\n      swap1\n        /* \"EternalJournalism.sol\":4971:4989  articleUpdates[id] */\n      tag_83\n      jump\t// in\n    tag_104:\n      swap1\n      dup2\n      mstore\n      mload(0x40)\n      swap1\n      dup2\n      swap1\n      sub\n      0x20\n      add\n      swap1\n      keccak256\n        /* \"EternalJournalism.sol\":4971:4991  articleUpdates[id]++ */\n      dup1\n      sload\n      swap1\n        /* \"EternalJournalism.sol\":4971:4989  articleUpdates[id] */\n      0x00\n        /* \"EternalJournalism.sol\":4971:4991  articleUpdates[id]++ */\n      tag_105\n      dup4\n      tag_103\n      jump\t// in\n    tag_105:\n      swap1\n      swap2\n      sstore\n      pop\n      pop\n        /* \"EternalJournalism.sol\":5001:5012  updateCount */\n      0x06\n        /* \"EternalJournalism.sol\":5001:5014  updateCount++ */\n      dup1\n      sload\n      swap1\n        /* \"EternalJournalism.sol\":5001:5012  updateCount */\n      0x00\n        /* \"EternalJournalism.sol\":5001:5014  updateCount++ */\n      tag_106\n      dup4\n      tag_103\n      jump\t// in\n    tag_106:\n      swap2\n      swap1\n      pop\n      sstore\n      pop\n        /* \"EternalJournalism.sol\":5058:5065  article */\n      dup1\n        /* \"EternalJournalism.sol\":5058:5080  article.lastPartNumber */\n      0x07\n      add\n      sload\n        /* \"EternalJournalism.sol\":5029:5036  article */\n      dup2\n        /* \"EternalJournalism.sol\":5029:5054  article.currentPartNumber */\n      0x08\n      add\n      sload\n        /* \"EternalJournalism.sol\":5029:5080  article.currentPartNumber == article.lastPartNumber */\n      sub\n        /* \"EternalJournalism.sol\":5025:5134  if (article.currentPartNumber == article.lastPartNumber) {... */\n      tag_107\n      jumpi\n        /* \"EternalJournalism.sol\":5096:5115  article.isMultiPart */\n      0x06\n      dup2\n      add\n        /* \"EternalJournalism.sol\":5096:5123  article.isMultiPart = false */\n      dup1\n      sload\n      not(0xff00)\n      and\n      swap1\n      sstore\n        /* \"EternalJournalism.sol\":5025:5134  if (article.currentPartNumber == article.lastPartNumber) {... */\n    tag_107:\n        /* \"EternalJournalism.sol\":5172:5174  id */\n      dup3\n        /* \"EternalJournalism.sol\":5157:5184  ArticleUpdated(id, content) */\n      mload(0x40)\n      tag_108\n      swap2\n      swap1\n      tag_83\n      jump\t// in\n    tag_108:\n      mload(0x40)\n      dup1\n      swap2\n      sub\n      swap1\n      keccak256\n      0xafdae258fc8810613d877811fd188a2d851b061e245cda31052126b649370177\n        /* \"EternalJournalism.sol\":5176:5183  content */\n      dup4\n        /* \"EternalJournalism.sol\":5157:5184  ArticleUpdated(id, content) */\n      mload(0x40)\n      tag_109\n      swap2\n      swap1\n      tag_58\n      jump\t// in\n    tag_109:\n      mload(0x40)\n      dup1\n      swap2\n      sub\n      swap1\n      log2\n        /* \"EternalJournalism.sol\":4399:5191  {... */\n      pop\n        /* \"EternalJournalism.sol\":4315:5191  function addArticlePart(string memory id, string memory content) external onlyOwner {... */\n      pop\n      pop\n      jump\t// out\n        /* \"EternalJournalism.sol\":3114:3532  function storePartialArticle(string memory id, string memory title, string memory ipfsHash, string memory url) external onlyOwner {... */\n    tag_28:\n        /* \"EternalJournalism.sol\":1256:1261  owner */\n      and(sub(shl(0xa0, 0x01), 0x01), sload(0x00))\n        /* \"EternalJournalism.sol\":1242:1252  msg.sender */\n      caller\n        /* \"EternalJournalism.sol\":1242:1261  msg.sender == owner */\n      eq\n        /* \"EternalJournalism.sol\":1234:1312  require(msg.sender == owner, \"Only the contract owner can call this function\") */\n      tag_111\n      jumpi\n      mload(0x40)\n      shl(0xe5, 0x461bcd)\n      dup2\n      mstore\n      0x04\n      add\n      tag_79\n      swap1\n      tag_80\n      jump\t// in\n    tag_111:\n        /* \"EternalJournalism.sol\":3263:3282  isArticleStored(id) */\n      tag_114\n        /* \"EternalJournalism.sol\":3279:3281  id */\n      dup5\n        /* \"EternalJournalism.sol\":3263:3278  isArticleStored */\n      tag_85\n        /* \"EternalJournalism.sol\":3263:3282  isArticleStored(id) */\n      jump\t// in\n    tag_114:\n        /* \"EternalJournalism.sol\":3262:3282  !isArticleStored(id) */\n      iszero\n        /* \"EternalJournalism.sol\":3254:3327  require(!isArticleStored(id), \"Article with the given ID already exists\") */\n      tag_115\n      jumpi\n      mload(0x40)\n      shl(0xe5, 0x461bcd)\n      dup2\n      mstore\n      0x04\n      add\n      tag_79\n      swap1\n      tag_117\n      jump\t// in\n    tag_115:\n        /* \"EternalJournalism.sol\":3352:3426  Article(id, title, \"\", ipfsHash, url, block.timestamp, false, false, 0, 0) */\n      mload(0x40)\n      dup1\n      0x0140\n      add\n      0x40\n      mstore\n      dup1\n        /* \"EternalJournalism.sol\":3360:3362  id */\n      dup6\n        /* \"EternalJournalism.sol\":3352:3426  Article(id, title, \"\", ipfsHash, url, block.timestamp, false, false, 0, 0) */\n      dup2\n      mstore\n      0x20\n      add\n        /* \"EternalJournalism.sol\":3364:3369  title */\n      dup5\n        /* \"EternalJournalism.sol\":3352:3426  Article(id, title, \"\", ipfsHash, url, block.timestamp, false, false, 0, 0) */\n      dup2\n      mstore\n      0x20\n      add\n      mload(0x40)\n      dup1\n      0x20\n      add\n      0x40\n      mstore\n      dup1\n      0x00\n      dup2\n      mstore\n      pop\n      dup2\n      mstore\n      0x20\n      add\n        /* \"EternalJournalism.sol\":3375:3383  ipfsHash */\n      dup4\n        /* \"EternalJournalism.sol\":3352:3426  Article(id, title, \"\", ipfsHash, url, block.timestamp, false, false, 0, 0) */\n      dup2\n      mstore\n      0x20\n      add\n        /* \"EternalJournalism.sol\":3385:3388  url */\n      dup3\n        /* \"EternalJournalism.sol\":3352:3426  Article(id, title, \"\", ipfsHash, url, block.timestamp, false, false, 0, 0) */\n      dup2\n      mstore\n      0x20\n      add\n        /* \"EternalJournalism.sol\":3390:3405  block.timestamp */\n      timestamp\n        /* \"EternalJournalism.sol\":3352:3426  Article(id, title, \"\", ipfsHash, url, block.timestamp, false, false, 0, 0) */\n      dup2\n      mstore\n      0x20\n      add\n        /* \"EternalJournalism.sol\":3407:3412  false */\n      0x00\n        /* \"EternalJournalism.sol\":3352:3426  Article(id, title, \"\", ipfsHash, url, block.timestamp, false, false, 0, 0) */\n      iszero\n      iszero\n      dup2\n      mstore\n      0x20\n      add\n        /* \"EternalJournalism.sol\":3414:3419  false */\n      0x00\n        /* \"EternalJournalism.sol\":3352:3426  Article(id, title, \"\", ipfsHash, url, block.timestamp, false, false, 0, 0) */\n      iszero\n      iszero\n      dup2\n      mstore\n      0x20\n      add\n        /* \"EternalJournalism.sol\":3421:3422  0 */\n      0x00\n        /* \"EternalJournalism.sol\":3352:3426  Article(id, title, \"\", ipfsHash, url, block.timestamp, false, false, 0, 0) */\n      dup2\n      mstore\n      0x20\n      add\n        /* \"EternalJournalism.sol\":3424:3425  0 */\n      0x00\n        /* \"EternalJournalism.sol\":3352:3426  Article(id, title, \"\", ipfsHash, url, block.timestamp, false, false, 0, 0) */\n      dup2\n      mstore\n      pop\n        /* \"EternalJournalism.sol\":3337:3345  articles */\n      0x03\n        /* \"EternalJournalism.sol\":3346:3348  id */\n      dup6\n        /* \"EternalJournalism.sol\":3337:3349  articles[id] */\n      mload(0x40)\n      tag_118\n      swap2\n      swap1\n      tag_83\n      jump\t// in\n    tag_118:\n      swap1\n      dup2\n      mstore\n      mload(0x40)\n      swap1\n      dup2\n      swap1\n      sub\n      0x20\n      add\n      swap1\n      keccak256\n        /* \"EternalJournalism.sol\":3337:3426  articles[id] = Article(id, title, \"\", ipfsHash, url, block.timestamp, false, false, 0, 0) */\n      dup2\n      mload\n        /* \"EternalJournalism.sol\":3337:3349  articles[id] */\n      dup2\n      swap1\n        /* \"EternalJournalism.sol\":3337:3426  articles[id] = Article(id, title, \"\", ipfsHash, url, block.timestamp, false, false, 0, 0) */\n      tag_119\n      swap1\n        /* \"EternalJournalism.sol\":3337:3349  articles[id] */\n      dup3\n        /* \"EternalJournalism.sol\":3337:3426  articles[id] = Article(id, title, \"\", ipfsHash, url, block.timestamp, false, false, 0, 0) */\n      tag_101\n      jump\t// in\n    tag_119:\n      pop\n      0x20\n      dup3\n      add\n      mload\n      0x01\n      dup3\n      add\n      swap1\n      tag_120\n      swap1\n      dup3\n      tag_101\n      jump\t// in\n    tag_120:\n      pop\n      0x40\n      dup3\n      add\n      mload\n      0x02\n      dup3\n      add\n      swap1\n      tag_121\n      swap1\n      dup3\n      tag_101\n      jump\t// in\n    tag_121:\n      pop\n      0x60\n      dup3\n      add\n      mload\n      0x03\n      dup3\n      add\n      swap1\n      tag_122\n      swap1\n      dup3\n      tag_101\n      jump\t// in\n    tag_122:\n      pop\n      0x80\n      dup3\n      add\n      mload\n      0x04\n      dup3\n      add\n      swap1\n      tag_123\n      swap1\n      dup3\n      tag_101\n      jump\t// in\n    tag_123:\n      pop\n      0xa0\n      dup3\n      add\n      mload\n      0x05\n      dup3\n      dup2\n      add\n      swap2\n      swap1\n      swap2\n      sstore\n      0xc0\n      dup4\n      add\n      mload\n      0x06\n      dup4\n      add\n      dup1\n      sload\n      0xe0\n      dup7\n      add\n      mload\n      not(0xffff)\n      swap1\n      swap2\n      and\n      swap3\n      iszero\n      iszero\n      not(0xff00)\n      and\n      swap3\n      swap1\n      swap3\n      or\n      0x0100\n      swap3\n      iszero\n      iszero\n      dup4\n      mul\n      or\n      swap1\n      sstore\n      dup4\n      add\n      mload\n      0x07\n      dup4\n      add\n      sstore\n      0x0120\n      swap1\n      swap3\n      add\n      mload\n      0x08\n      swap1\n      swap2\n      add\n      sstore\n        /* \"EternalJournalism.sol\":3436:3450  articleCount++ */\n      dup1\n      sload\n      swap1\n      0x00\n      tag_124\n      dup4\n      tag_103\n      jump\t// in\n    tag_124:\n      swap2\n      swap1\n      pop\n      sstore\n      pop\n        /* \"EternalJournalism.sol\":3479:3481  id */\n      dup4\n        /* \"EternalJournalism.sol\":3465:3525  ArticleStored(id, title, \"\", ipfsHash, url, false, false, 0) */\n      mload(0x40)\n      tag_125\n      swap2\n      swap1\n      tag_83\n      jump\t// in\n    tag_125:\n      mload(0x40)\n      dup1\n      swap2\n      sub\n      swap1\n      keccak256\n      0x1384a902c2ea3e742ded97dce0076c9a32091b66793d1a6d71d411dfac6ac7f3\n        /* \"EternalJournalism.sol\":3483:3488  title */\n      dup5\n        /* \"EternalJournalism.sol\":3494:3502  ipfsHash */\n      dup5\n        /* \"EternalJournalism.sol\":3504:3507  url */\n      dup5\n        /* \"EternalJournalism.sol\":3509:3514  false */\n      0x00\n        /* \"EternalJournalism.sol\":3516:3521  false */\n      dup1\n        /* \"EternalJournalism.sol\":3523:3524  0 */\n      0x00\n        /* \"EternalJournalism.sol\":3465:3525  ArticleStored(id, title, \"\", ipfsHash, url, false, false, 0) */\n      mload(0x40)\n      tag_126\n      swap7\n      swap6\n      swap5\n      swap4\n      swap3\n      swap2\n      swap1\n      tag_127\n      jump\t// in\n    tag_126:\n      mload(0x40)\n      dup1\n      swap2\n      sub\n      swap1\n      log2\n        /* \"EternalJournalism.sol\":3114:3532  function storePartialArticle(string memory id, string memory title, string memory ipfsHash, string memory url) external onlyOwner {... */\n      pop\n      pop\n      pop\n      pop\n      jump\t// out\n        /* \"EternalJournalism.sol\":3542:4305  function updateFullArticle(string memory id, string memory content) external onlyOwner {... */\n    tag_39:\n        /* \"EternalJournalism.sol\":1256:1261  owner */\n      and(sub(shl(0xa0, 0x01), 0x01), sload(0x00))\n        /* \"EternalJournalism.sol\":1242:1252  msg.sender */\n      caller\n        /* \"EternalJournalism.sol\":1242:1261  msg.sender == owner */\n      eq\n        /* \"EternalJournalism.sol\":1234:1312  require(msg.sender == owner, \"Only the contract owner can call this function\") */\n      tag_129\n      jumpi\n      mload(0x40)\n      shl(0xe5, 0x461bcd)\n      dup2\n      mstore\n      0x04\n      add\n      tag_79\n      swap1\n      tag_80\n      jump\t// in\n    tag_129:\n        /* \"EternalJournalism.sol\":3639:3662  Article storage article */\n      0x00\n        /* \"EternalJournalism.sol\":3665:3673  articles */\n      0x03\n        /* \"EternalJournalism.sol\":3674:3676  id */\n      dup4\n        /* \"EternalJournalism.sol\":3665:3677  articles[id] */\n      mload(0x40)\n      tag_132\n      swap2\n      swap1\n      tag_83\n      jump\t// in\n    tag_132:\n      swap1\n      dup2\n      mstore\n      0x20\n      add\n      mload(0x40)\n      dup1\n      swap2\n      sub\n      swap1\n      keccak256\n        /* \"EternalJournalism.sol\":3639:3677  Article storage article = articles[id] */\n      swap1\n      pop\n        /* \"EternalJournalism.sol\":3695:3714  isArticleStored(id) */\n      tag_133\n        /* \"EternalJournalism.sol\":3711:3713  id */\n      dup4\n        /* \"EternalJournalism.sol\":3695:3710  isArticleStored */\n      tag_85\n        /* \"EternalJournalism.sol\":3695:3714  isArticleStored(id) */\n      jump\t// in\n    tag_133:\n        /* \"EternalJournalism.sol\":3687:3759  require(isArticleStored(id), \"Article with the given ID does not exist\") */\n      tag_134\n      jumpi\n      mload(0x40)\n      shl(0xe5, 0x461bcd)\n      dup2\n      mstore\n      0x04\n      add\n      tag_79\n      swap1\n      tag_88\n      jump\t// in\n    tag_134:\n        /* \"EternalJournalism.sol\":3777:3798  article.isFullArticle */\n      0x06\n      dup2\n      add\n      sload\n      0xff\n      and\n        /* \"EternalJournalism.sol\":3769:3832  require(article.isFullArticle, \"Article is not a full article\") */\n      tag_136\n      jumpi\n      mload(0x40)\n      shl(0xe5, 0x461bcd)\n      dup2\n      mstore\n        /* \"#utility.yul\":7983:7985   */\n      0x20\n        /* \"EternalJournalism.sol\":3769:3832  require(article.isFullArticle, \"Article is not a full article\") */\n      0x04\n      dup3\n      add\n        /* \"#utility.yul\":7965:7986   */\n      mstore\n        /* \"#utility.yul\":8022:8024   */\n      0x1d\n        /* \"#utility.yul\":8002:8020   */\n      0x24\n      dup3\n      add\n        /* \"#utility.yul\":7995:8025   */\n      mstore\n        /* \"#utility.yul\":8061:8092   */\n      0x41727469636c65206973206e6f7420612066756c6c2061727469636c65000000\n        /* \"#utility.yul\":8041:8059   */\n      0x44\n      dup3\n      add\n        /* \"#utility.yul\":8034:8093   */\n      mstore\n        /* \"#utility.yul\":8110:8128   */\n      0x64\n      add\n        /* \"EternalJournalism.sol\":3769:3832  require(article.isFullArticle, \"Article is not a full article\") */\n      tag_79\n        /* \"#utility.yul\":7781:8134   */\n      jump\n        /* \"EternalJournalism.sol\":3769:3832  require(article.isFullArticle, \"Article is not a full article\") */\n    tag_136:\n        /* \"EternalJournalism.sol\":3847:3866  article.isMultiPart */\n      0x06\n      dup2\n      add\n      sload\n      0x0100\n      swap1\n      div\n      0xff\n      and\n        /* \"EternalJournalism.sol\":3843:4000  if (article.isMultiPart) {... */\n      iszero\n      tag_139\n      jumpi\n        /* \"EternalJournalism.sol\":3919:3926  article */\n      dup1\n        /* \"EternalJournalism.sol\":3919:3941  article.lastPartNumber */\n      0x07\n      add\n      sload\n        /* \"EternalJournalism.sol\":3890:3897  article */\n      dup2\n        /* \"EternalJournalism.sol\":3890:3915  article.currentPartNumber */\n      0x08\n      add\n      sload\n        /* \"EternalJournalism.sol\":3890:3941  article.currentPartNumber == article.lastPartNumber */\n      eq\n        /* \"EternalJournalism.sol\":3882:3989  require(article.currentPartNumber == article.lastPartNumber, \"Multi-part article is still accepting parts\") */\n      tag_139\n      jumpi\n      mload(0x40)\n      shl(0xe5, 0x461bcd)\n      dup2\n      mstore\n        /* \"#utility.yul\":14520:14522   */\n      0x20\n        /* \"EternalJournalism.sol\":3882:3989  require(article.currentPartNumber == article.lastPartNumber, \"Multi-part article is still accepting parts\") */\n      0x04\n      dup3\n      add\n        /* \"#utility.yul\":14502:14523   */\n      mstore\n        /* \"#utility.yul\":14559:14561   */\n      0x2b\n        /* \"#utility.yul\":14539:14557   */\n      0x24\n      dup3\n      add\n        /* \"#utility.yul\":14532:14562   */\n      mstore\n        /* \"#utility.yul\":14598:14632   */\n      0x4d756c74692d706172742061727469636c65206973207374696c6c2061636365\n        /* \"#utility.yul\":14578:14596   */\n      0x44\n      dup3\n      add\n        /* \"#utility.yul\":14571:14633   */\n      mstore\n      shl(0xa8, 0x7074696e67207061727473)\n        /* \"#utility.yul\":14649:14667   */\n      0x64\n      dup3\n      add\n        /* \"#utility.yul\":14642:14683   */\n      mstore\n        /* \"#utility.yul\":14700:14719   */\n      0x84\n      add\n        /* \"EternalJournalism.sol\":3882:3989  require(article.currentPartNumber == article.lastPartNumber, \"Multi-part article is still accepting parts\") */\n      tag_79\n        /* \"#utility.yul\":14318:14725   */\n      jump\n        /* \"EternalJournalism.sol\":3882:3989  require(article.currentPartNumber == article.lastPartNumber, \"Multi-part article is still accepting parts\") */\n    tag_139:\n        /* \"EternalJournalism.sol\":4063:4070  article */\n      dup1\n        /* \"EternalJournalism.sol\":4063:4078  article.content */\n      0x02\n      add\n        /* \"EternalJournalism.sol\":4047:4080  keccak256(bytes(article.content)) */\n      mload(0x40)\n      tag_142\n      swap2\n      swap1\n      tag_143\n      jump\t// in\n    tag_142:\n      mload(0x40)\n      dup1\n      swap2\n      sub\n      swap1\n      keccak256\n        /* \"EternalJournalism.sol\":4034:4041  content */\n      dup3\n        /* \"EternalJournalism.sol\":4018:4043  keccak256(bytes(content)) */\n      dup1\n      mload\n      swap1\n      0x20\n      add\n      keccak256\n        /* \"EternalJournalism.sol\":4018:4080  keccak256(bytes(content)) != keccak256(bytes(article.content)) */\n      sub\n        /* \"EternalJournalism.sol\":4010:4113  require(keccak256(bytes(content)) != keccak256(bytes(article.content)), \"Article content is identical\") */\n      tag_144\n      jumpi\n      mload(0x40)\n      shl(0xe5, 0x461bcd)\n      dup2\n      mstore\n        /* \"#utility.yul\":15136:15138   */\n      0x20\n        /* \"EternalJournalism.sol\":4010:4113  require(keccak256(bytes(content)) != keccak256(bytes(article.content)), \"Article content is identical\") */\n      0x04\n      dup3\n      add\n        /* \"#utility.yul\":15118:15139   */\n      mstore\n        /* \"#utility.yul\":15175:15177   */\n      0x1c\n        /* \"#utility.yul\":15155:15173   */\n      0x24\n      dup3\n      add\n        /* \"#utility.yul\":15148:15178   */\n      mstore\n        /* \"#utility.yul\":15214:15244   */\n      0x41727469636c6520636f6e74656e74206973206964656e746963616c00000000\n        /* \"#utility.yul\":15194:15212   */\n      0x44\n      dup3\n      add\n        /* \"#utility.yul\":15187:15245   */\n      mstore\n        /* \"#utility.yul\":15262:15280   */\n      0x64\n      add\n        /* \"EternalJournalism.sol\":4010:4113  require(keccak256(bytes(content)) != keccak256(bytes(article.content)), \"Article content is identical\") */\n      tag_79\n        /* \"#utility.yul\":14934:15286   */\n      jump\n        /* \"EternalJournalism.sol\":4010:4113  require(keccak256(bytes(content)) != keccak256(bytes(article.content)), \"Article content is identical\") */\n    tag_144:\n        /* \"EternalJournalism.sol\":4124:4139  article.content */\n      0x02\n      dup2\n      add\n        /* \"EternalJournalism.sol\":4124:4149  article.content = content */\n      tag_147\n        /* \"EternalJournalism.sol\":4142:4149  content */\n      dup4\n        /* \"EternalJournalism.sol\":4124:4139  article.content */\n      dup3\n        /* \"EternalJournalism.sol\":4124:4149  article.content = content */\n      tag_101\n      jump\t// in\n    tag_147:\n      pop\n        /* \"EternalJournalism.sol\":4179:4194  block.timestamp */\n      timestamp\n        /* \"EternalJournalism.sol\":4159:4176  article.timestamp */\n      0x05\n      dup3\n      add\n        /* \"EternalJournalism.sol\":4159:4194  article.timestamp = block.timestamp */\n      sstore\n        /* \"EternalJournalism.sol\":4204:4222  articleUpdates[id] */\n      mload(0x40)\n        /* \"EternalJournalism.sol\":4204:4218  articleUpdates */\n      0x04\n      swap1\n        /* \"EternalJournalism.sol\":4204:4222  articleUpdates[id] */\n      tag_148\n      swap1\n        /* \"EternalJournalism.sol\":4219:4221  id */\n      dup6\n      swap1\n        /* \"EternalJournalism.sol\":4204:4222  articleUpdates[id] */\n      tag_83\n      jump\t// in\n    tag_148:\n      swap1\n      dup2\n      mstore\n      mload(0x40)\n      swap1\n      dup2\n      swap1\n      sub\n      0x20\n      add\n      swap1\n      keccak256\n        /* \"EternalJournalism.sol\":4204:4224  articleUpdates[id]++ */\n      dup1\n      sload\n      swap1\n        /* \"EternalJournalism.sol\":4204:4222  articleUpdates[id] */\n      0x00\n        /* \"EternalJournalism.sol\":4204:4224  articleUpdates[id]++ */\n      tag_149\n      dup4\n      tag_103\n      jump\t// in\n    tag_149:\n      swap1\n      swap2\n      sstore\n      pop\n      pop\n        /* \"EternalJournalism.sol\":4234:4245  updateCount */\n      0x06\n        /* \"EternalJournalism.sol\":4234:4247  updateCount++ */\n      dup1\n      sload\n      swap1\n        /* \"EternalJournalism.sol\":4234:4245  updateCount */\n      0x00\n        /* \"EternalJournalism.sol\":4234:4247  updateCount++ */\n      tag_150\n      dup4\n      tag_103\n      jump\t// in\n    tag_150:\n      swap2\n      swap1\n      pop\n      sstore\n      pop\n        /* \"EternalJournalism.sol\":4286:4288  id */\n      dup3\n        /* \"EternalJournalism.sol\":4271:4298  ArticleUpdated(id, content) */\n      mload(0x40)\n      tag_108\n      swap2\n      swap1\n      tag_83\n      jump\t// in\n        /* \"EternalJournalism.sol\":2278:2401  function getArticleUpdateCount(string memory id) external view returns (uint256) {... */\n    tag_46:\n        /* \"EternalJournalism.sol\":2350:2357  uint256 */\n      0x00\n        /* \"EternalJournalism.sol\":2376:2390  articleUpdates */\n      0x04\n        /* \"EternalJournalism.sol\":2391:2393  id */\n      dup3\n        /* \"EternalJournalism.sol\":2376:2394  articleUpdates[id] */\n      mload(0x40)\n      tag_154\n      swap2\n      swap1\n      tag_83\n      jump\t// in\n    tag_154:\n      swap1\n      dup2\n      mstore\n      0x20\n      add\n      mload(0x40)\n      dup1\n      swap2\n      sub\n      swap1\n      keccak256\n      sload\n        /* \"EternalJournalism.sol\":2369:2394  return articleUpdates[id] */\n      swap1\n      pop\n        /* \"EternalJournalism.sol\":2278:2401  function getArticleUpdateCount(string memory id) external view returns (uint256) {... */\n      swap2\n      swap1\n      pop\n      jump\t// out\n        /* \"EternalJournalism.sol\":1603:1822  function upgradeImplementation(address _newImplementation) external onlyOwner {... */\n    tag_51:\n        /* \"EternalJournalism.sol\":1256:1261  owner */\n      and(sub(shl(0xa0, 0x01), 0x01), sload(0x00))\n        /* \"EternalJournalism.sol\":1242:1252  msg.sender */\n      caller\n        /* \"EternalJournalism.sol\":1242:1261  msg.sender == owner */\n      eq\n        /* \"EternalJournalism.sol\":1234:1312  require(msg.sender == owner, \"Only the contract owner can call this function\") */\n      tag_156\n      jumpi\n      mload(0x40)\n      shl(0xe5, 0x461bcd)\n      dup2\n      mstore\n      0x04\n      add\n      tag_79\n      swap1\n      tag_80\n      jump\t// in\n    tag_156:\n      sub(shl(0xa0, 0x01), 0x01)\n        /* \"EternalJournalism.sol\":1699:1731  _newImplementation != address(0) */\n      dup2\n      and\n        /* \"EternalJournalism.sol\":1691:1770  require(_newImplementation != address(0), \"Invalid new implementation address\") */\n      tag_159\n      jumpi\n      mload(0x40)\n      shl(0xe5, 0x461bcd)\n      dup2\n      mstore\n        /* \"#utility.yul\":15493:15495   */\n      0x20\n        /* \"EternalJournalism.sol\":1691:1770  require(_newImplementation != address(0), \"Invalid new implementation address\") */\n      0x04\n      dup3\n      add\n        /* \"#utility.yul\":15475:15496   */\n      mstore\n        /* \"#utility.yul\":15532:15534   */\n      0x22\n        /* \"#utility.yul\":15512:15530   */\n      0x24\n      dup3\n      add\n        /* \"#utility.yul\":15505:15535   */\n      mstore\n        /* \"#utility.yul\":15571:15605   */\n      0x496e76616c6964206e657720696d706c656d656e746174696f6e206164647265\n        /* \"#utility.yul\":15551:15569   */\n      0x44\n      dup3\n      add\n        /* \"#utility.yul\":15544:15606   */\n      mstore\n      shl(0xf0, 0x7373)\n        /* \"#utility.yul\":15622:15640   */\n      0x64\n      dup3\n      add\n        /* \"#utility.yul\":15615:15647   */\n      mstore\n        /* \"#utility.yul\":15664:15683   */\n      0x84\n      add\n        /* \"EternalJournalism.sol\":1691:1770  require(_newImplementation != address(0), \"Invalid new implementation address\") */\n      tag_79\n        /* \"#utility.yul\":15291:15689   */\n      jump\n        /* \"EternalJournalism.sol\":1691:1770  require(_newImplementation != address(0), \"Invalid new implementation address\") */\n    tag_159:\n        /* \"EternalJournalism.sol\":1780:1794  implementation */\n      0x01\n        /* \"EternalJournalism.sol\":1780:1815  implementation = _newImplementation */\n      dup1\n      sload\n      not(sub(shl(0xa0, 0x01), 0x01))\n      and\n      sub(shl(0xa0, 0x01), 0x01)\n      swap3\n      swap1\n      swap3\n      and\n      swap2\n      swap1\n      swap2\n      or\n      swap1\n      sstore\n        /* \"EternalJournalism.sol\":1603:1822  function upgradeImplementation(address _newImplementation) external onlyOwner {... */\n      jump\t// out\n        /* \"EternalJournalism.sol\":188:504  string public constant protest = \"Eternal Journalism is also a protest to Ethereum's possible plans for ThePurge, which will potentially destroy contracts like Leeroy, social networks like Peepeth/Lens; and every important message written in the blockchain and their gas costs associated possibly without refunding.\" */\n    tag_56:\n      mload(0x40)\n      dup1\n      0x0140\n      add\n      0x40\n      mstore\n      dup1\n      0x0119\n      dup2\n      mstore\n      0x20\n      add\n      data_a852d146d79341a80c608d13ba9503a0bc9fd5f1aca9b99e2d3e1630b7677a51\n      0x0119\n      swap2\n      codecopy\n      dup2\n      jump\t// out\n        /* \"EternalJournalism.sol\":153:182  string public contractVersion */\n    tag_60:\n      0x02\n      dup1\n      sload\n      tag_162\n      swap1\n      tag_163\n      jump\t// in\n    tag_162:\n      dup1\n      0x1f\n      add\n      0x20\n      dup1\n      swap2\n      div\n      mul\n      0x20\n      add\n      mload(0x40)\n      swap1\n      dup2\n      add\n      0x40\n      mstore\n      dup1\n      swap3\n      swap2\n      swap1\n      dup2\n      dup2\n      mstore\n      0x20\n      add\n      dup3\n      dup1\n      sload\n      tag_164\n      swap1\n      tag_163\n      jump\t// in\n    tag_164:\n      dup1\n      iszero\n      tag_165\n      jumpi\n      dup1\n      0x1f\n      lt\n      tag_166\n      jumpi\n      0x0100\n      dup1\n      dup4\n      sload\n      div\n      mul\n      dup4\n      mstore\n      swap2\n      0x20\n      add\n      swap2\n      jump(tag_165)\n    tag_166:\n      dup3\n      add\n      swap2\n      swap1\n      0x00\n      mstore\n      keccak256(0x00, 0x20)\n      swap1\n    tag_167:\n      dup2\n      sload\n      dup2\n      mstore\n      swap1\n      0x01\n      add\n      swap1\n      0x20\n      add\n      dup1\n      dup4\n      gt\n      tag_167\n      jumpi\n      dup3\n      swap1\n      sub\n      0x1f\n      and\n      dup3\n      add\n      swap2\n    tag_165:\n      pop\n      pop\n      pop\n      pop\n      pop\n      dup2\n      jump\t// out\n        /* \"EternalJournalism.sol\":1832:2268  function getArticle(string memory id) external view returns (string memory, string memory, string memory, string memory, string memory, uint256, bool, bool, uint256, uint256) {... */\n    tag_64:\n        /* \"EternalJournalism.sol\":1893:1906  string memory */\n      0x60\n        /* \"EternalJournalism.sol\":1908:1921  string memory */\n      dup1\n        /* \"EternalJournalism.sol\":1923:1936  string memory */\n      0x60\n        /* \"EternalJournalism.sol\":1938:1951  string memory */\n      dup1\n        /* \"EternalJournalism.sol\":1953:1966  string memory */\n      0x60\n        /* \"EternalJournalism.sol\":1968:1975  uint256 */\n      0x00\n        /* \"EternalJournalism.sol\":1977:1981  bool */\n      dup1\n        /* \"EternalJournalism.sol\":1983:1987  bool */\n      0x00\n        /* \"EternalJournalism.sol\":1989:1996  uint256 */\n      dup1\n        /* \"EternalJournalism.sol\":1998:2005  uint256 */\n      0x00\n        /* \"EternalJournalism.sol\":2017:2040  Article storage article */\n      dup1\n        /* \"EternalJournalism.sol\":2043:2051  articles */\n      0x03\n        /* \"EternalJournalism.sol\":2052:2054  id */\n      dup13\n        /* \"EternalJournalism.sol\":2043:2055  articles[id] */\n      mload(0x40)\n      tag_169\n      swap2\n      swap1\n      tag_83\n      jump\t// in\n    tag_169:\n      swap1\n      dup2\n      mstore\n      mload(0x40)\n      swap1\n      dup2\n      swap1\n      sub\n      0x20\n      add\n      swap1\n      keccak256\n        /* \"EternalJournalism.sol\":2148:2165  article.timestamp */\n      0x05\n      dup2\n      add\n      sload\n        /* \"EternalJournalism.sol\":2167:2188  article.isFullArticle */\n      0x06\n      dup3\n      add\n      sload\n        /* \"EternalJournalism.sol\":2211:2233  article.lastPartNumber */\n      0x07\n      dup4\n      add\n      sload\n        /* \"EternalJournalism.sol\":2235:2260  article.currentPartNumber */\n      0x08\n      dup5\n      add\n      sload\n        /* \"EternalJournalism.sol\":2065:2261  return (article.id, article.title, article.content, article.ipfsHash, article.url, article.timestamp, article.isFullArticle, article.isMultiPart, article.lastPartNumber, article.currentPartNumber) */\n      dup5\n      sload\n        /* \"EternalJournalism.sol\":2043:2055  articles[id] */\n      swap5\n      swap6\n      pop\n      dup6\n      swap5\n        /* \"EternalJournalism.sol\":2085:2098  article.title */\n      0x01\n      dup7\n      add\n      swap5\n        /* \"EternalJournalism.sol\":2100:2115  article.content */\n      0x02\n      dup8\n      add\n      swap5\n        /* \"EternalJournalism.sol\":2117:2133  article.ipfsHash */\n      0x03\n      dup9\n      add\n      swap5\n        /* \"EternalJournalism.sol\":2135:2146  article.url */\n      0x04\n      dup10\n      add\n      swap5\n        /* \"EternalJournalism.sol\":2148:2165  article.timestamp */\n      swap3\n      swap4\n        /* \"EternalJournalism.sol\":2167:2188  article.isFullArticle */\n      0xff\n      dup1\n      dup5\n      and\n      swap5\n      0x0100\n        /* \"EternalJournalism.sol\":2190:2209  article.isMultiPart */\n      swap1\n      swap5\n      div\n      and\n      swap3\n        /* \"EternalJournalism.sol\":2235:2260  article.currentPartNumber */\n      swap1\n        /* \"EternalJournalism.sol\":2043:2055  articles[id] */\n      dup11\n      swap1\n        /* \"EternalJournalism.sol\":2065:2261  return (article.id, article.title, article.content, article.ipfsHash, article.url, article.timestamp, article.isFullArticle, article.isMultiPart, article.lastPartNumber, article.currentPartNumber) */\n      tag_170\n      swap1\n      tag_163\n      jump\t// in\n    tag_170:\n      dup1\n      0x1f\n      add\n      0x20\n      dup1\n      swap2\n      div\n      mul\n      0x20\n      add\n      mload(0x40)\n      swap1\n      dup2\n      add\n      0x40\n      mstore\n      dup1\n      swap3\n      swap2\n      swap1\n      dup2\n      dup2\n      mstore\n      0x20\n      add\n      dup3\n      dup1\n      sload\n      tag_171\n      swap1\n      tag_163\n      jump\t// in\n    tag_171:\n      dup1\n      iszero\n      tag_172\n      jumpi\n      dup1\n      0x1f\n      lt\n      tag_173\n      jumpi\n      0x0100\n      dup1\n      dup4\n      sload\n      div\n      mul\n      dup4\n      mstore\n      swap2\n      0x20\n      add\n      swap2\n      jump(tag_172)\n    tag_173:\n      dup3\n      add\n      swap2\n      swap1\n      0x00\n      mstore\n      keccak256(0x00, 0x20)\n      swap1\n    tag_174:\n      dup2\n      sload\n      dup2\n      mstore\n      swap1\n      0x01\n      add\n      swap1\n      0x20\n      add\n      dup1\n      dup4\n      gt\n      tag_174\n      jumpi\n      dup3\n      swap1\n      sub\n      0x1f\n      and\n      dup3\n      add\n      swap2\n    tag_172:\n      pop\n      pop\n      pop\n      pop\n      pop\n      swap10\n      pop\n      dup9\n      dup1\n      sload\n      tag_175\n      swap1\n      tag_163\n      jump\t// in\n    tag_175:\n      dup1\n      0x1f\n      add\n      0x20\n      dup1\n      swap2\n      div\n      mul\n      0x20\n      add\n      mload(0x40)\n      swap1\n      dup2\n      add\n      0x40\n      mstore\n      dup1\n      swap3\n      swap2\n      swap1\n      dup2\n      dup2\n      mstore\n      0x20\n      add\n      dup3\n      dup1\n      sload\n      tag_176\n      swap1\n      tag_163\n      jump\t// in\n    tag_176:\n      dup1\n      iszero\n      tag_177\n      jumpi\n      dup1\n      0x1f\n      lt\n      tag_178\n      jumpi\n      0x0100\n      dup1\n      dup4\n      sload\n      div\n      mul\n      dup4\n      mstore\n      swap2\n      0x20\n      add\n      swap2\n      jump(tag_177)\n    tag_178:\n      dup3\n      add\n      swap2\n      swap1\n      0x00\n      mstore\n      keccak256(0x00, 0x20)\n      swap1\n    tag_179:\n      dup2\n      sload\n      dup2\n      mstore\n      swap1\n      0x01\n      add\n      swap1\n      0x20\n      add\n      dup1\n      dup4\n      gt\n      tag_179\n      jumpi\n      dup3\n      swap1\n      sub\n      0x1f\n      and\n      dup3\n      add\n      swap2\n    tag_177:\n      pop\n      pop\n      pop\n      pop\n      pop\n      swap9\n      pop\n      dup8\n      dup1\n      sload\n      tag_180\n      swap1\n      tag_163\n      jump\t// in\n    tag_180:\n      dup1\n      0x1f\n      add\n      0x20\n      dup1\n      swap2\n      div\n      mul\n      0x20\n      add\n      mload(0x40)\n      swap1\n      dup2\n      add\n      0x40\n      mstore\n      dup1\n      swap3\n      swap2\n      swap1\n      dup2\n      dup2\n      mstore\n      0x20\n      add\n      dup3\n      dup1\n      sload\n      tag_181\n      swap1\n      tag_163\n      jump\t// in\n    tag_181:\n      dup1\n      iszero\n      tag_182\n      jumpi\n      dup1\n      0x1f\n      lt\n      tag_183\n      jumpi\n      0x0100\n      dup1\n      dup4\n      sload\n      div\n      mul\n      dup4\n      mstore\n      swap2\n      0x20\n      add\n      swap2\n      jump(tag_182)\n    tag_183:\n      dup3\n      add\n      swap2\n      swap1\n      0x00\n      mstore\n      keccak256(0x00, 0x20)\n      swap1\n    tag_184:\n      dup2\n      sload\n      dup2\n      mstore\n      swap1\n      0x01\n      add\n      swap1\n      0x20\n      add\n      dup1\n      dup4\n      gt\n      tag_184\n      jumpi\n      dup3\n      swap1\n      sub\n      0x1f\n      and\n      dup3\n      add\n      swap2\n    tag_182:\n      pop\n      pop\n      pop\n      pop\n      pop\n      swap8\n      pop\n      dup7\n      dup1\n      sload\n      tag_185\n      swap1\n      tag_163\n      jump\t// in\n    tag_185:\n      dup1\n      0x1f\n      add\n      0x20\n      dup1\n      swap2\n      div\n      mul\n      0x20\n      add\n      mload(0x40)\n      swap1\n      dup2\n      add\n      0x40\n      mstore\n      dup1\n      swap3\n      swap2\n      swap1\n      dup2\n      dup2\n      mstore\n      0x20\n      add\n      dup3\n      dup1\n      sload\n      tag_186\n      swap1\n      tag_163\n      jump\t// in\n    tag_186:\n      dup1\n      iszero\n      tag_187\n      jumpi\n      dup1\n      0x1f\n      lt\n      tag_188\n      jumpi\n      0x0100\n      dup1\n      dup4\n      sload\n      div\n      mul\n      dup4\n      mstore\n      swap2\n      0x20\n      add\n      swap2\n      jump(tag_187)\n    tag_188:\n      dup3\n      add\n      swap2\n      swap1\n      0x00\n      mstore\n      keccak256(0x00, 0x20)\n      swap1\n    tag_189:\n      dup2\n      sload\n      dup2\n      mstore\n      swap1\n      0x01\n      add\n      swap1\n      0x20\n      add\n      dup1\n      dup4\n      gt\n      tag_189\n      jumpi\n      dup3\n      swap1\n      sub\n      0x1f\n      and\n      dup3\n      add\n      swap2\n    tag_187:\n      pop\n      pop\n      pop\n      pop\n      pop\n      swap7\n      pop\n      dup6\n      dup1\n      sload\n      tag_190\n      swap1\n      tag_163\n      jump\t// in\n    tag_190:\n      dup1\n      0x1f\n      add\n      0x20\n      dup1\n      swap2\n      div\n      mul\n      0x20\n      add\n      mload(0x40)\n      swap1\n      dup2\n      add\n      0x40\n      mstore\n      dup1\n      swap3\n      swap2\n      swap1\n      dup2\n      dup2\n      mstore\n      0x20\n      add\n      dup3\n      dup1\n      sload\n      tag_191\n      swap1\n      tag_163\n      jump\t// in\n    tag_191:\n      dup1\n      iszero\n      tag_192\n      jumpi\n      dup1\n      0x1f\n      lt\n      tag_193\n      jumpi\n      0x0100\n      dup1\n      dup4\n      sload\n      div\n      mul\n      dup4\n      mstore\n      swap2\n      0x20\n      add\n      swap2\n      jump(tag_192)\n    tag_193:\n      dup3\n      add\n      swap2\n      swap1\n      0x00\n      mstore\n      keccak256(0x00, 0x20)\n      swap1\n    tag_194:\n      dup2\n      sload\n      dup2\n      mstore\n      swap1\n      0x01\n      add\n      swap1\n      0x20\n      add\n      dup1\n      dup4\n      gt\n      tag_194\n      jumpi\n      dup3\n      swap1\n      sub\n      0x1f\n      and\n      dup3\n      add\n      swap2\n    tag_192:\n      pop\n      pop\n      pop\n      pop\n      pop\n      swap6\n      pop\n      swap11\n      pop\n      swap11\n      pop\n      swap11\n      pop\n      swap11\n      pop\n      swap11\n      pop\n      swap11\n      pop\n      swap11\n      pop\n      swap11\n      pop\n      swap11\n      pop\n      swap11\n      pop\n      pop\n        /* \"EternalJournalism.sol\":1832:2268  function getArticle(string memory id) external view returns (string memory, string memory, string memory, string memory, string memory, uint256, bool, bool, uint256, uint256) {... */\n      swap2\n      swap4\n      swap6\n      swap8\n      swap10\n      pop\n      swap2\n      swap4\n      swap6\n      swap8\n      swap10\n      jump\t// out\n        /* \"EternalJournalism.sol\":2516:3104  function storeFullArticle(string memory id, string memory title, string memory content, string memory url, bool isMultiPart, uint256 lastPartNumber) external onlyOwner {... */\n    tag_70:\n        /* \"EternalJournalism.sol\":1256:1261  owner */\n      and(sub(shl(0xa0, 0x01), 0x01), sload(0x00))\n        /* \"EternalJournalism.sol\":1242:1252  msg.sender */\n      caller\n        /* \"EternalJournalism.sol\":1242:1261  msg.sender == owner */\n      eq\n        /* \"EternalJournalism.sol\":1234:1312  require(msg.sender == owner, \"Only the contract owner can call this function\") */\n      tag_196\n      jumpi\n      mload(0x40)\n      shl(0xe5, 0x461bcd)\n      dup2\n      mstore\n      0x04\n      add\n      tag_79\n      swap1\n      tag_80\n      jump\t// in\n    tag_196:\n        /* \"EternalJournalism.sol\":2703:2722  isArticleStored(id) */\n      tag_199\n        /* \"EternalJournalism.sol\":2719:2721  id */\n      dup7\n        /* \"EternalJournalism.sol\":2703:2718  isArticleStored */\n      tag_85\n        /* \"EternalJournalism.sol\":2703:2722  isArticleStored(id) */\n      jump\t// in\n    tag_199:\n        /* \"EternalJournalism.sol\":2702:2722  !isArticleStored(id) */\n      iszero\n        /* \"EternalJournalism.sol\":2694:2767  require(!isArticleStored(id), \"Article with the given ID already exists\") */\n      tag_200\n      jumpi\n      mload(0x40)\n      shl(0xe5, 0x461bcd)\n      dup2\n      mstore\n      0x04\n      add\n      tag_79\n      swap1\n      tag_117\n      jump\t// in\n    tag_200:\n        /* \"EternalJournalism.sol\":2786:2797  isMultiPart */\n      dup2\n        /* \"EternalJournalism.sol\":2785:2797  !isMultiPart */\n      iszero\n        /* \"EternalJournalism.sol\":2785:2836  !isMultiPart || (isMultiPart && lastPartNumber > 0) */\n      dup1\n      tag_203\n      jumpi\n      pop\n        /* \"EternalJournalism.sol\":2802:2813  isMultiPart */\n      dup2\n        /* \"EternalJournalism.sol\":2802:2835  isMultiPart && lastPartNumber > 0 */\n      dup1\n      iszero\n      tag_203\n      jumpi\n      pop\n        /* \"EternalJournalism.sol\":2834:2835  0 */\n      0x00\n        /* \"EternalJournalism.sol\":2817:2831  lastPartNumber */\n      dup2\n        /* \"EternalJournalism.sol\":2817:2835  lastPartNumber > 0 */\n      gt\n        /* \"EternalJournalism.sol\":2802:2835  isMultiPart && lastPartNumber > 0 */\n    tag_203:\n        /* \"EternalJournalism.sol\":2777:2865  require(!isMultiPart || (isMultiPart && lastPartNumber > 0), \"Invalid last part number\") */\n      tag_204\n      jumpi\n      mload(0x40)\n      shl(0xe5, 0x461bcd)\n      dup2\n      mstore\n        /* \"#utility.yul\":15896:15898   */\n      0x20\n        /* \"EternalJournalism.sol\":2777:2865  require(!isMultiPart || (isMultiPart && lastPartNumber > 0), \"Invalid last part number\") */\n      0x04\n      dup3\n      add\n        /* \"#utility.yul\":15878:15899   */\n      mstore\n        /* \"#utility.yul\":15935:15937   */\n      0x18\n        /* \"#utility.yul\":15915:15933   */\n      0x24\n      dup3\n      add\n        /* \"#utility.yul\":15908:15938   */\n      mstore\n        /* \"#utility.yul\":15974:16000   */\n      0x496e76616c6964206c6173742070617274206e756d6265720000000000000000\n        /* \"#utility.yul\":15954:15972   */\n      0x44\n      dup3\n      add\n        /* \"#utility.yul\":15947:16001   */\n      mstore\n        /* \"#utility.yul\":16018:16036   */\n      0x64\n      add\n        /* \"EternalJournalism.sol\":2777:2865  require(!isMultiPart || (isMultiPart && lastPartNumber > 0), \"Invalid last part number\") */\n      tag_79\n        /* \"#utility.yul\":15694:16042   */\n      jump\n        /* \"EternalJournalism.sol\":2777:2865  require(!isMultiPart || (isMultiPart && lastPartNumber > 0), \"Invalid last part number\") */\n    tag_204:\n        /* \"EternalJournalism.sol\":2890:2981  Article(id, title, content, \"\", url, block.timestamp, true, isMultiPart, lastPartNumber, 0) */\n      mload(0x40)\n      dup1\n      0x0140\n      add\n      0x40\n      mstore\n      dup1\n        /* \"EternalJournalism.sol\":2898:2900  id */\n      dup8\n        /* \"EternalJournalism.sol\":2890:2981  Article(id, title, content, \"\", url, block.timestamp, true, isMultiPart, lastPartNumber, 0) */\n      dup2\n      mstore\n      0x20\n      add\n        /* \"EternalJournalism.sol\":2902:2907  title */\n      dup7\n        /* \"EternalJournalism.sol\":2890:2981  Article(id, title, content, \"\", url, block.timestamp, true, isMultiPart, lastPartNumber, 0) */\n      dup2\n      mstore\n      0x20\n      add\n        /* \"EternalJournalism.sol\":2909:2916  content */\n      dup6\n        /* \"EternalJournalism.sol\":2890:2981  Article(id, title, content, \"\", url, block.timestamp, true, isMultiPart, lastPartNumber, 0) */\n      dup2\n      mstore\n      0x20\n      add\n      mload(0x40)\n      dup1\n      0x20\n      add\n      0x40\n      mstore\n      dup1\n      0x00\n      dup2\n      mstore\n      pop\n      dup2\n      mstore\n      0x20\n      add\n        /* \"EternalJournalism.sol\":2922:2925  url */\n      dup5\n        /* \"EternalJournalism.sol\":2890:2981  Article(id, title, content, \"\", url, block.timestamp, true, isMultiPart, lastPartNumber, 0) */\n      dup2\n      mstore\n      0x20\n      add\n        /* \"EternalJournalism.sol\":2927:2942  block.timestamp */\n      timestamp\n        /* \"EternalJournalism.sol\":2890:2981  Article(id, title, content, \"\", url, block.timestamp, true, isMultiPart, lastPartNumber, 0) */\n      dup2\n      mstore\n      0x20\n      add\n        /* \"EternalJournalism.sol\":2944:2948  true */\n      0x01\n        /* \"EternalJournalism.sol\":2890:2981  Article(id, title, content, \"\", url, block.timestamp, true, isMultiPart, lastPartNumber, 0) */\n      iszero\n      iszero\n      dup2\n      mstore\n      0x20\n      add\n        /* \"EternalJournalism.sol\":2950:2961  isMultiPart */\n      dup4\n        /* \"EternalJournalism.sol\":2890:2981  Article(id, title, content, \"\", url, block.timestamp, true, isMultiPart, lastPartNumber, 0) */\n      iszero\n      iszero\n      dup2\n      mstore\n      0x20\n      add\n        /* \"EternalJournalism.sol\":2963:2977  lastPartNumber */\n      dup3\n        /* \"EternalJournalism.sol\":2890:2981  Article(id, title, content, \"\", url, block.timestamp, true, isMultiPart, lastPartNumber, 0) */\n      dup2\n      mstore\n      0x20\n      add\n        /* \"EternalJournalism.sol\":2979:2980  0 */\n      0x00\n        /* \"EternalJournalism.sol\":2890:2981  Article(id, title, content, \"\", url, block.timestamp, true, isMultiPart, lastPartNumber, 0) */\n      dup2\n      mstore\n      pop\n        /* \"EternalJournalism.sol\":2875:2883  articles */\n      0x03\n        /* \"EternalJournalism.sol\":2884:2886  id */\n      dup8\n        /* \"EternalJournalism.sol\":2875:2887  articles[id] */\n      mload(0x40)\n      tag_207\n      swap2\n      swap1\n      tag_83\n      jump\t// in\n    tag_207:\n      swap1\n      dup2\n      mstore\n      mload(0x40)\n      swap1\n      dup2\n      swap1\n      sub\n      0x20\n      add\n      swap1\n      keccak256\n        /* \"EternalJournalism.sol\":2875:2981  articles[id] = Article(id, title, content, \"\", url, block.timestamp, true, isMultiPart, lastPartNumber, 0) */\n      dup2\n      mload\n        /* \"EternalJournalism.sol\":2875:2887  articles[id] */\n      dup2\n      swap1\n        /* \"EternalJournalism.sol\":2875:2981  articles[id] = Article(id, title, content, \"\", url, block.timestamp, true, isMultiPart, lastPartNumber, 0) */\n      tag_208\n      swap1\n        /* \"EternalJournalism.sol\":2875:2887  articles[id] */\n      dup3\n        /* \"EternalJournalism.sol\":2875:2981  articles[id] = Article(id, title, content, \"\", url, block.timestamp, true, isMultiPart, lastPartNumber, 0) */\n      tag_101\n      jump\t// in\n    tag_208:\n      pop\n      0x20\n      dup3\n      add\n      mload\n      0x01\n      dup3\n      add\n      swap1\n      tag_209\n      swap1\n      dup3\n      tag_101\n      jump\t// in\n    tag_209:\n      pop\n      0x40\n      dup3\n      add\n      mload\n      0x02\n      dup3\n      add\n      swap1\n      tag_210\n      swap1\n      dup3\n      tag_101\n      jump\t// in\n    tag_210:\n      pop\n      0x60\n      dup3\n      add\n      mload\n      0x03\n      dup3\n      add\n      swap1\n      tag_211\n      swap1\n      dup3\n      tag_101\n      jump\t// in\n    tag_211:\n      pop\n      0x80\n      dup3\n      add\n      mload\n      0x04\n      dup3\n      add\n      swap1\n      tag_212\n      swap1\n      dup3\n      tag_101\n      jump\t// in\n    tag_212:\n      pop\n      0xa0\n      dup3\n      add\n      mload\n      0x05\n      dup3\n      dup2\n      add\n      swap2\n      swap1\n      swap2\n      sstore\n      0xc0\n      dup4\n      add\n      mload\n      0x06\n      dup4\n      add\n      dup1\n      sload\n      0xe0\n      dup7\n      add\n      mload\n      not(0xffff)\n      swap1\n      swap2\n      and\n      swap3\n      iszero\n      iszero\n      not(0xff00)\n      and\n      swap3\n      swap1\n      swap3\n      or\n      0x0100\n      swap3\n      iszero\n      iszero\n      dup4\n      mul\n      or\n      swap1\n      sstore\n      dup4\n      add\n      mload\n      0x07\n      dup4\n      add\n      sstore\n      0x0120\n      swap1\n      swap3\n      add\n      mload\n      0x08\n      swap1\n      swap2\n      add\n      sstore\n        /* \"EternalJournalism.sol\":2991:3005  articleCount++ */\n      dup1\n      sload\n      swap1\n      0x00\n      tag_213\n      dup4\n      tag_103\n      jump\t// in\n    tag_213:\n      swap2\n      swap1\n      pop\n      sstore\n      pop\n        /* \"EternalJournalism.sol\":3034:3036  id */\n      dup6\n        /* \"EternalJournalism.sol\":3020:3097  ArticleStored(id, title, content, \"\", url, true, isMultiPart, lastPartNumber) */\n      mload(0x40)\n      tag_214\n      swap2\n      swap1\n      tag_83\n      jump\t// in\n    tag_214:\n      mload(0x40)\n      dup1\n      swap2\n      sub\n      swap1\n      keccak256\n      0x1384a902c2ea3e742ded97dce0076c9a32091b66793d1a6d71d411dfac6ac7f3\n        /* \"EternalJournalism.sol\":3038:3043  title */\n      dup7\n        /* \"EternalJournalism.sol\":3045:3052  content */\n      dup7\n        /* \"EternalJournalism.sol\":3058:3061  url */\n      dup7\n        /* \"EternalJournalism.sol\":3063:3067  true */\n      0x01\n        /* \"EternalJournalism.sol\":3069:3080  isMultiPart */\n      dup8\n        /* \"EternalJournalism.sol\":3082:3096  lastPartNumber */\n      dup8\n        /* \"EternalJournalism.sol\":3020:3097  ArticleStored(id, title, content, \"\", url, true, isMultiPart, lastPartNumber) */\n      mload(0x40)\n      tag_215\n      swap7\n      swap6\n      swap5\n      swap4\n      swap3\n      swap2\n      swap1\n      tag_216\n      jump\t// in\n    tag_215:\n      mload(0x40)\n      dup1\n      swap2\n      sub\n      swap1\n      log2\n        /* \"EternalJournalism.sol\":2516:3104  function storeFullArticle(string memory id, string memory title, string memory content, string memory url, bool isMultiPart, uint256 lastPartNumber) external onlyOwner {... */\n      pop\n      pop\n      pop\n      pop\n      pop\n      pop\n      jump\t// out\n        /* \"EternalJournalism.sol\":1431:1593  function transferOwnership(address _newOwner) external onlyOwner {... */\n    tag_76:\n        /* \"EternalJournalism.sol\":1256:1261  owner */\n      and(sub(shl(0xa0, 0x01), 0x01), sload(0x00))\n        /* \"EternalJournalism.sol\":1242:1252  msg.sender */\n      caller\n        /* \"EternalJournalism.sol\":1242:1261  msg.sender == owner */\n      eq\n        /* \"EternalJournalism.sol\":1234:1312  require(msg.sender == owner, \"Only the contract owner can call this function\") */\n      tag_219\n      jumpi\n      mload(0x40)\n      shl(0xe5, 0x461bcd)\n      dup2\n      mstore\n      0x04\n      add\n      tag_79\n      swap1\n      tag_80\n      jump\t// in\n    tag_219:\n      sub(shl(0xa0, 0x01), 0x01)\n        /* \"EternalJournalism.sol\":1514:1537  _newOwner != address(0) */\n      dup2\n      and\n        /* \"EternalJournalism.sol\":1506:1559  require(_newOwner != address(0), \"Invalid new owner\") */\n      tag_222\n      jumpi\n      mload(0x40)\n      shl(0xe5, 0x461bcd)\n      dup2\n      mstore\n        /* \"#utility.yul\":17243:17245   */\n      0x20\n        /* \"EternalJournalism.sol\":1506:1559  require(_newOwner != address(0), \"Invalid new owner\") */\n      0x04\n      dup3\n      add\n        /* \"#utility.yul\":17225:17246   */\n      mstore\n        /* \"#utility.yul\":17282:17284   */\n      0x11\n        /* \"#utility.yul\":17262:17280   */\n      0x24\n      dup3\n      add\n        /* \"#utility.yul\":17255:17285   */\n      mstore\n      shl(0x79, 0x24b73b30b634b2103732bb9037bbb732b9)\n        /* \"#utility.yul\":17301:17319   */\n      0x44\n      dup3\n      add\n        /* \"#utility.yul\":17294:17341   */\n      mstore\n        /* \"#utility.yul\":17358:17376   */\n      0x64\n      add\n        /* \"EternalJournalism.sol\":1506:1559  require(_newOwner != address(0), \"Invalid new owner\") */\n      tag_79\n        /* \"#utility.yul\":17041:17382   */\n      jump\n        /* \"EternalJournalism.sol\":1506:1559  require(_newOwner != address(0), \"Invalid new owner\") */\n    tag_222:\n        /* \"EternalJournalism.sol\":1569:1574  owner */\n      0x00\n        /* \"EternalJournalism.sol\":1569:1586  owner = _newOwner */\n      dup1\n      sload\n      not(sub(shl(0xa0, 0x01), 0x01))\n      and\n      sub(shl(0xa0, 0x01), 0x01)\n      swap3\n      swap1\n      swap3\n      and\n      swap2\n      swap1\n      swap2\n      or\n      swap1\n      sstore\n        /* \"EternalJournalism.sol\":1431:1593  function transferOwnership(address _newOwner) external onlyOwner {... */\n      jump\t// out\n        /* \"EternalJournalism.sol\":5201:5331  function isArticleStored(string memory id) internal view returns (bool) {... */\n    tag_85:\n        /* \"EternalJournalism.sol\":5267:5271  bool */\n      0x00\n        /* \"EternalJournalism.sol\":5296:5304  articles */\n      0x03\n        /* \"EternalJournalism.sol\":5305:5307  id */\n      dup3\n        /* \"EternalJournalism.sol\":5296:5308  articles[id] */\n      mload(0x40)\n      tag_226\n      swap2\n      swap1\n      tag_83\n      jump\t// in\n    tag_226:\n      swap1\n      dup2\n      mstore\n      mload(0x40)\n      swap1\n      dup2\n      swap1\n      sub\n      0x20\n      add\n      swap1\n      keccak256\n        /* \"EternalJournalism.sol\":5290:5319  bytes(articles[id].id).length */\n      dup1\n      sload\n      tag_227\n      swap1\n      tag_163\n      jump\t// in\n    tag_227:\n        /* \"EternalJournalism.sol\":5290:5324  bytes(articles[id].id).length != 0 */\n      iszero\n      iszero\n      swap4\n        /* \"EternalJournalism.sol\":5201:5331  function isArticleStored(string memory id) internal view returns (bool) {... */\n      swap3\n      pop\n      pop\n      pop\n      jump\t// out\n        /* \"#utility.yul\":14:141   */\n    tag_228:\n        /* \"#utility.yul\":75:85   */\n      0x4e487b71\n        /* \"#utility.yul\":70:73   */\n      0xe0\n        /* \"#utility.yul\":66:86   */\n      shl\n        /* \"#utility.yul\":63:64   */\n      0x00\n        /* \"#utility.yul\":56:87   */\n      mstore\n        /* \"#utility.yul\":106:110   */\n      0x41\n        /* \"#utility.yul\":103:104   */\n      0x04\n        /* \"#utility.yul\":96:111   */\n      mstore\n        /* \"#utility.yul\":130:134   */\n      0x24\n        /* \"#utility.yul\":127:128   */\n      0x00\n        /* \"#utility.yul\":120:135   */\n      revert\n        /* \"#utility.yul\":146:865   */\n    tag_229:\n        /* \"#utility.yul\":189:194   */\n      0x00\n        /* \"#utility.yul\":242:245   */\n      dup3\n        /* \"#utility.yul\":235:239   */\n      0x1f\n        /* \"#utility.yul\":227:233   */\n      dup4\n        /* \"#utility.yul\":223:240   */\n      add\n        /* \"#utility.yul\":219:246   */\n      slt\n        /* \"#utility.yul\":209:264   */\n      tag_240\n      jumpi\n        /* \"#utility.yul\":260:261   */\n      0x00\n        /* \"#utility.yul\":257:258   */\n      dup1\n        /* \"#utility.yul\":250:262   */\n      revert\n        /* \"#utility.yul\":209:264   */\n    tag_240:\n        /* \"#utility.yul\":296:302   */\n      dup2\n        /* \"#utility.yul\":283:303   */\n      calldataload\n        /* \"#utility.yul\":322:340   */\n      0xffffffffffffffff\n        /* \"#utility.yul\":359:361   */\n      dup1\n        /* \"#utility.yul\":355:357   */\n      dup3\n        /* \"#utility.yul\":352:362   */\n      gt\n        /* \"#utility.yul\":349:385   */\n      iszero\n      tag_242\n      jumpi\n        /* \"#utility.yul\":365:383   */\n      tag_242\n      tag_228\n      jump\t// in\n    tag_242:\n        /* \"#utility.yul\":440:442   */\n      0x40\n        /* \"#utility.yul\":434:443   */\n      mload\n        /* \"#utility.yul\":408:410   */\n      0x1f\n        /* \"#utility.yul\":494:507   */\n      dup4\n      add\n      not(0x1f)\n        /* \"#utility.yul\":490:512   */\n      swap1\n      dup2\n      and\n        /* \"#utility.yul\":514:516   */\n      0x3f\n        /* \"#utility.yul\":486:517   */\n      add\n        /* \"#utility.yul\":482:522   */\n      and\n        /* \"#utility.yul\":470:523   */\n      dup2\n      add\n      swap1\n        /* \"#utility.yul\":538:556   */\n      dup3\n      dup3\n      gt\n        /* \"#utility.yul\":558:580   */\n      dup2\n      dup4\n      lt\n        /* \"#utility.yul\":535:581   */\n      or\n        /* \"#utility.yul\":532:604   */\n      iszero\n      tag_244\n      jumpi\n        /* \"#utility.yul\":584:602   */\n      tag_244\n      tag_228\n      jump\t// in\n    tag_244:\n        /* \"#utility.yul\":624:634   */\n      dup2\n        /* \"#utility.yul\":620:622   */\n      0x40\n        /* \"#utility.yul\":613:635   */\n      mstore\n        /* \"#utility.yul\":659:661   */\n      dup4\n        /* \"#utility.yul\":651:657   */\n      dup2\n        /* \"#utility.yul\":644:662   */\n      mstore\n        /* \"#utility.yul\":705:708   */\n      dup7\n        /* \"#utility.yul\":698:702   */\n      0x20\n        /* \"#utility.yul\":693:695   */\n      dup6\n        /* \"#utility.yul\":685:691   */\n      dup9\n        /* \"#utility.yul\":681:696   */\n      add\n        /* \"#utility.yul\":677:703   */\n      add\n        /* \"#utility.yul\":674:709   */\n      gt\n        /* \"#utility.yul\":671:726   */\n      iszero\n      tag_245\n      jumpi\n        /* \"#utility.yul\":722:723   */\n      0x00\n        /* \"#utility.yul\":719:720   */\n      dup1\n        /* \"#utility.yul\":712:724   */\n      revert\n        /* \"#utility.yul\":671:726   */\n    tag_245:\n        /* \"#utility.yul\":786:788   */\n      dup4\n        /* \"#utility.yul\":779:783   */\n      0x20\n        /* \"#utility.yul\":771:777   */\n      dup8\n        /* \"#utility.yul\":767:784   */\n      add\n        /* \"#utility.yul\":760:764   */\n      0x20\n        /* \"#utility.yul\":752:758   */\n      dup4\n        /* \"#utility.yul\":748:765   */\n      add\n        /* \"#utility.yul\":735:789   */\n      calldatacopy\n        /* \"#utility.yul\":833:834   */\n      0x00\n        /* \"#utility.yul\":826:830   */\n      0x20\n        /* \"#utility.yul\":821:823   */\n      dup6\n        /* \"#utility.yul\":813:819   */\n      dup4\n        /* \"#utility.yul\":809:824   */\n      add\n        /* \"#utility.yul\":805:831   */\n      add\n        /* \"#utility.yul\":798:835   */\n      mstore\n        /* \"#utility.yul\":853:859   */\n      dup1\n        /* \"#utility.yul\":844:859   */\n      swap5\n      pop\n      pop\n      pop\n      pop\n      pop\n        /* \"#utility.yul\":146:865   */\n      swap3\n      swap2\n      pop\n      pop\n      jump\t// out\n        /* \"#utility.yul\":870:1413   */\n    tag_23:\n        /* \"#utility.yul\":958:964   */\n      0x00\n        /* \"#utility.yul\":966:972   */\n      dup1\n        /* \"#utility.yul\":1019:1021   */\n      0x40\n        /* \"#utility.yul\":1007:1016   */\n      dup4\n        /* \"#utility.yul\":998:1005   */\n      dup6\n        /* \"#utility.yul\":994:1017   */\n      sub\n        /* \"#utility.yul\":990:1022   */\n      slt\n        /* \"#utility.yul\":987:1039   */\n      iszero\n      tag_247\n      jumpi\n        /* \"#utility.yul\":1035:1036   */\n      0x00\n        /* \"#utility.yul\":1032:1033   */\n      dup1\n        /* \"#utility.yul\":1025:1037   */\n      revert\n        /* \"#utility.yul\":987:1039   */\n    tag_247:\n        /* \"#utility.yul\":1075:1084   */\n      dup3\n        /* \"#utility.yul\":1062:1085   */\n      calldataload\n        /* \"#utility.yul\":1104:1122   */\n      0xffffffffffffffff\n        /* \"#utility.yul\":1145:1147   */\n      dup1\n        /* \"#utility.yul\":1137:1143   */\n      dup3\n        /* \"#utility.yul\":1134:1148   */\n      gt\n        /* \"#utility.yul\":1131:1165   */\n      iszero\n      tag_248\n      jumpi\n        /* \"#utility.yul\":1161:1162   */\n      0x00\n        /* \"#utility.yul\":1158:1159   */\n      dup1\n        /* \"#utility.yul\":1151:1163   */\n      revert\n        /* \"#utility.yul\":1131:1165   */\n    tag_248:\n        /* \"#utility.yul\":1184:1234   */\n      tag_249\n        /* \"#utility.yul\":1226:1233   */\n      dup7\n        /* \"#utility.yul\":1217:1223   */\n      dup4\n        /* \"#utility.yul\":1206:1215   */\n      dup8\n        /* \"#utility.yul\":1202:1224   */\n      add\n        /* \"#utility.yul\":1184:1234   */\n      tag_229\n      jump\t// in\n    tag_249:\n        /* \"#utility.yul\":1174:1234   */\n      swap4\n      pop\n        /* \"#utility.yul\":1287:1289   */\n      0x20\n        /* \"#utility.yul\":1276:1285   */\n      dup6\n        /* \"#utility.yul\":1272:1290   */\n      add\n        /* \"#utility.yul\":1259:1291   */\n      calldataload\n        /* \"#utility.yul\":1243:1291   */\n      swap2\n      pop\n        /* \"#utility.yul\":1316:1318   */\n      dup1\n        /* \"#utility.yul\":1306:1314   */\n      dup3\n        /* \"#utility.yul\":1303:1319   */\n      gt\n        /* \"#utility.yul\":1300:1336   */\n      iszero\n      tag_250\n      jumpi\n        /* \"#utility.yul\":1332:1333   */\n      0x00\n        /* \"#utility.yul\":1329:1330   */\n      dup1\n        /* \"#utility.yul\":1322:1334   */\n      revert\n        /* \"#utility.yul\":1300:1336   */\n    tag_250:\n      pop\n        /* \"#utility.yul\":1355:1407   */\n      tag_251\n        /* \"#utility.yul\":1399:1406   */\n      dup6\n        /* \"#utility.yul\":1388:1396   */\n      dup3\n        /* \"#utility.yul\":1377:1386   */\n      dup7\n        /* \"#utility.yul\":1373:1397   */\n      add\n        /* \"#utility.yul\":1355:1407   */\n      tag_229\n      jump\t// in\n    tag_251:\n        /* \"#utility.yul\":1345:1407   */\n      swap2\n      pop\n      pop\n        /* \"#utility.yul\":870:1413   */\n      swap3\n      pop\n      swap3\n      swap1\n      pop\n      jump\t// out\n        /* \"#utility.yul\":1418:2362   */\n    tag_27:\n        /* \"#utility.yul\":1544:1550   */\n      0x00\n        /* \"#utility.yul\":1552:1558   */\n      dup1\n        /* \"#utility.yul\":1560:1566   */\n      0x00\n        /* \"#utility.yul\":1568:1574   */\n      dup1\n        /* \"#utility.yul\":1621:1624   */\n      0x80\n        /* \"#utility.yul\":1609:1618   */\n      dup6\n        /* \"#utility.yul\":1600:1607   */\n      dup8\n        /* \"#utility.yul\":1596:1619   */\n      sub\n        /* \"#utility.yul\":1592:1625   */\n      slt\n        /* \"#utility.yul\":1589:1642   */\n      iszero\n      tag_253\n      jumpi\n        /* \"#utility.yul\":1638:1639   */\n      0x00\n        /* \"#utility.yul\":1635:1636   */\n      dup1\n        /* \"#utility.yul\":1628:1640   */\n      revert\n        /* \"#utility.yul\":1589:1642   */\n    tag_253:\n        /* \"#utility.yul\":1678:1687   */\n      dup5\n        /* \"#utility.yul\":1665:1688   */\n      calldataload\n        /* \"#utility.yul\":1707:1725   */\n      0xffffffffffffffff\n        /* \"#utility.yul\":1748:1750   */\n      dup1\n        /* \"#utility.yul\":1740:1746   */\n      dup3\n        /* \"#utility.yul\":1737:1751   */\n      gt\n        /* \"#utility.yul\":1734:1768   */\n      iszero\n      tag_254\n      jumpi\n        /* \"#utility.yul\":1764:1765   */\n      0x00\n        /* \"#utility.yul\":1761:1762   */\n      dup1\n        /* \"#utility.yul\":1754:1766   */\n      revert\n        /* \"#utility.yul\":1734:1768   */\n    tag_254:\n        /* \"#utility.yul\":1787:1837   */\n      tag_255\n        /* \"#utility.yul\":1829:1836   */\n      dup9\n        /* \"#utility.yul\":1820:1826   */\n      dup4\n        /* \"#utility.yul\":1809:1818   */\n      dup10\n        /* \"#utility.yul\":1805:1827   */\n      add\n        /* \"#utility.yul\":1787:1837   */\n      tag_229\n      jump\t// in\n    tag_255:\n        /* \"#utility.yul\":1777:1837   */\n      swap6\n      pop\n        /* \"#utility.yul\":1890:1892   */\n      0x20\n        /* \"#utility.yul\":1879:1888   */\n      dup8\n        /* \"#utility.yul\":1875:1893   */\n      add\n        /* \"#utility.yul\":1862:1894   */\n      calldataload\n        /* \"#utility.yul\":1846:1894   */\n      swap2\n      pop\n        /* \"#utility.yul\":1919:1921   */\n      dup1\n        /* \"#utility.yul\":1909:1917   */\n      dup3\n        /* \"#utility.yul\":1906:1922   */\n      gt\n        /* \"#utility.yul\":1903:1939   */\n      iszero\n      tag_256\n      jumpi\n        /* \"#utility.yul\":1935:1936   */\n      0x00\n        /* \"#utility.yul\":1932:1933   */\n      dup1\n        /* \"#utility.yul\":1925:1937   */\n      revert\n        /* \"#utility.yul\":1903:1939   */\n    tag_256:\n        /* \"#utility.yul\":1958:2010   */\n      tag_257\n        /* \"#utility.yul\":2002:2009   */\n      dup9\n        /* \"#utility.yul\":1991:1999   */\n      dup4\n        /* \"#utility.yul\":1980:1989   */\n      dup10\n        /* \"#utility.yul\":1976:2000   */\n      add\n        /* \"#utility.yul\":1958:2010   */\n      tag_229\n      jump\t// in\n    tag_257:\n        /* \"#utility.yul\":1948:2010   */\n      swap5\n      pop\n        /* \"#utility.yul\":2063:2065   */\n      0x40\n        /* \"#utility.yul\":2052:2061   */\n      dup8\n        /* \"#utility.yul\":2048:2066   */\n      add\n        /* \"#utility.yul\":2035:2067   */\n      calldataload\n        /* \"#utility.yul\":2019:2067   */\n      swap2\n      pop\n        /* \"#utility.yul\":2092:2094   */\n      dup1\n        /* \"#utility.yul\":2082:2090   */\n      dup3\n        /* \"#utility.yul\":2079:2095   */\n      gt\n        /* \"#utility.yul\":2076:2112   */\n      iszero\n      tag_258\n      jumpi\n        /* \"#utility.yul\":2108:2109   */\n      0x00\n        /* \"#utility.yul\":2105:2106   */\n      dup1\n        /* \"#utility.yul\":2098:2110   */\n      revert\n        /* \"#utility.yul\":2076:2112   */\n    tag_258:\n        /* \"#utility.yul\":2131:2183   */\n      tag_259\n        /* \"#utility.yul\":2175:2182   */\n      dup9\n        /* \"#utility.yul\":2164:2172   */\n      dup4\n        /* \"#utility.yul\":2153:2162   */\n      dup10\n        /* \"#utility.yul\":2149:2173   */\n      add\n        /* \"#utility.yul\":2131:2183   */\n      tag_229\n      jump\t// in\n    tag_259:\n        /* \"#utility.yul\":2121:2183   */\n      swap4\n      pop\n        /* \"#utility.yul\":2236:2238   */\n      0x60\n        /* \"#utility.yul\":2225:2234   */\n      dup8\n        /* \"#utility.yul\":2221:2239   */\n      add\n        /* \"#utility.yul\":2208:2240   */\n      calldataload\n        /* \"#utility.yul\":2192:2240   */\n      swap2\n      pop\n        /* \"#utility.yul\":2265:2267   */\n      dup1\n        /* \"#utility.yul\":2255:2263   */\n      dup3\n        /* \"#utility.yul\":2252:2268   */\n      gt\n        /* \"#utility.yul\":2249:2285   */\n      iszero\n      tag_260\n      jumpi\n        /* \"#utility.yul\":2281:2282   */\n      0x00\n        /* \"#utility.yul\":2278:2279   */\n      dup1\n        /* \"#utility.yul\":2271:2283   */\n      revert\n        /* \"#utility.yul\":2249:2285   */\n    tag_260:\n      pop\n        /* \"#utility.yul\":2304:2356   */\n      tag_261\n        /* \"#utility.yul\":2348:2355   */\n      dup8\n        /* \"#utility.yul\":2337:2345   */\n      dup3\n        /* \"#utility.yul\":2326:2335   */\n      dup9\n        /* \"#utility.yul\":2322:2346   */\n      add\n        /* \"#utility.yul\":2304:2356   */\n      tag_229\n      jump\t// in\n    tag_261:\n        /* \"#utility.yul\":2294:2356   */\n      swap2\n      pop\n      pop\n        /* \"#utility.yul\":1418:2362   */\n      swap3\n      swap6\n      swap2\n      swap5\n      pop\n      swap3\n      pop\n      jump\t// out\n        /* \"#utility.yul\":2757:3079   */\n    tag_45:\n        /* \"#utility.yul\":2826:2832   */\n      0x00\n        /* \"#utility.yul\":2879:2881   */\n      0x20\n        /* \"#utility.yul\":2867:2876   */\n      dup3\n        /* \"#utility.yul\":2858:2865   */\n      dup5\n        /* \"#utility.yul\":2854:2877   */\n      sub\n        /* \"#utility.yul\":2850:2882   */\n      slt\n        /* \"#utility.yul\":2847:2899   */\n      iszero\n      tag_265\n      jumpi\n        /* \"#utility.yul\":2895:2896   */\n      0x00\n        /* \"#utility.yul\":2892:2893   */\n      dup1\n        /* \"#utility.yul\":2885:2897   */\n      revert\n        /* \"#utility.yul\":2847:2899   */\n    tag_265:\n        /* \"#utility.yul\":2935:2944   */\n      dup2\n        /* \"#utility.yul\":2922:2945   */\n      calldataload\n        /* \"#utility.yul\":2968:2986   */\n      0xffffffffffffffff\n        /* \"#utility.yul\":2960:2966   */\n      dup2\n        /* \"#utility.yul\":2957:2987   */\n      gt\n        /* \"#utility.yul\":2954:3004   */\n      iszero\n      tag_266\n      jumpi\n        /* \"#utility.yul\":3000:3001   */\n      0x00\n        /* \"#utility.yul\":2997:2998   */\n      dup1\n        /* \"#utility.yul\":2990:3002   */\n      revert\n        /* \"#utility.yul\":2954:3004   */\n    tag_266:\n        /* \"#utility.yul\":3023:3073   */\n      tag_267\n        /* \"#utility.yul\":3065:3072   */\n      dup5\n        /* \"#utility.yul\":3056:3062   */\n      dup3\n        /* \"#utility.yul\":3045:3054   */\n      dup6\n        /* \"#utility.yul\":3041:3063   */\n      add\n        /* \"#utility.yul\":3023:3073   */\n      tag_229\n      jump\t// in\n    tag_267:\n        /* \"#utility.yul\":3013:3073   */\n      swap5\n        /* \"#utility.yul\":2757:3079   */\n      swap4\n      pop\n      pop\n      pop\n      pop\n      jump\t// out\n        /* \"#utility.yul\":3084:3370   */\n    tag_50:\n        /* \"#utility.yul\":3143:3149   */\n      0x00\n        /* \"#utility.yul\":3196:3198   */\n      0x20\n        /* \"#utility.yul\":3184:3193   */\n      dup3\n        /* \"#utility.yul\":3175:3182   */\n      dup5\n        /* \"#utility.yul\":3171:3194   */\n      sub\n        /* \"#utility.yul\":3167:3199   */\n      slt\n        /* \"#utility.yul\":3164:3216   */\n      iszero\n      tag_269\n      jumpi\n        /* \"#utility.yul\":3212:3213   */\n      0x00\n        /* \"#utility.yul\":3209:3210   */\n      dup1\n        /* \"#utility.yul\":3202:3214   */\n      revert\n        /* \"#utility.yul\":3164:3216   */\n    tag_269:\n        /* \"#utility.yul\":3238:3261   */\n      dup2\n      calldataload\n      sub(shl(0xa0, 0x01), 0x01)\n        /* \"#utility.yul\":3290:3321   */\n      dup2\n      and\n        /* \"#utility.yul\":3280:3322   */\n      dup2\n      eq\n        /* \"#utility.yul\":3270:3340   */\n      tag_270\n      jumpi\n        /* \"#utility.yul\":3336:3337   */\n      0x00\n        /* \"#utility.yul\":3333:3334   */\n      dup1\n        /* \"#utility.yul\":3326:3338   */\n      revert\n        /* \"#utility.yul\":3270:3340   */\n    tag_270:\n        /* \"#utility.yul\":3359:3364   */\n      swap4\n        /* \"#utility.yul\":3084:3370   */\n      swap3\n      pop\n      pop\n      pop\n      jump\t// out\n        /* \"#utility.yul\":3375:3625   */\n    tag_230:\n        /* \"#utility.yul\":3460:3461   */\n      0x00\n        /* \"#utility.yul\":3470:3583   */\n    tag_272:\n        /* \"#utility.yul\":3484:3490   */\n      dup4\n        /* \"#utility.yul\":3481:3482   */\n      dup2\n        /* \"#utility.yul\":3478:3491   */\n      lt\n        /* \"#utility.yul\":3470:3583   */\n      iszero\n      tag_274\n      jumpi\n        /* \"#utility.yul\":3560:3571   */\n      dup2\n      dup2\n      add\n        /* \"#utility.yul\":3554:3572   */\n      mload\n        /* \"#utility.yul\":3541:3552   */\n      dup4\n      dup3\n      add\n        /* \"#utility.yul\":3534:3573   */\n      mstore\n        /* \"#utility.yul\":3506:3508   */\n      0x20\n        /* \"#utility.yul\":3499:3509   */\n      add\n        /* \"#utility.yul\":3470:3583   */\n      jump(tag_272)\n    tag_274:\n      pop\n      pop\n        /* \"#utility.yul\":3617:3618   */\n      0x00\n        /* \"#utility.yul\":3599:3615   */\n      swap2\n      add\n        /* \"#utility.yul\":3592:3619   */\n      mstore\n        /* \"#utility.yul\":3375:3625   */\n      jump\t// out\n        /* \"#utility.yul\":3630:3901   */\n    tag_231:\n        /* \"#utility.yul\":3672:3675   */\n      0x00\n        /* \"#utility.yul\":3710:3715   */\n      dup2\n        /* \"#utility.yul\":3704:3716   */\n      mload\n        /* \"#utility.yul\":3737:3743   */\n      dup1\n        /* \"#utility.yul\":3732:3735   */\n      dup5\n        /* \"#utility.yul\":3725:3744   */\n      mstore\n        /* \"#utility.yul\":3753:3829   */\n      tag_276\n        /* \"#utility.yul\":3822:3828   */\n      dup2\n        /* \"#utility.yul\":3815:3819   */\n      0x20\n        /* \"#utility.yul\":3810:3813   */\n      dup7\n        /* \"#utility.yul\":3806:3820   */\n      add\n        /* \"#utility.yul\":3799:3803   */\n      0x20\n        /* \"#utility.yul\":3792:3797   */\n      dup7\n        /* \"#utility.yul\":3788:3804   */\n      add\n        /* \"#utility.yul\":3753:3829   */\n      tag_230\n      jump\t// in\n    tag_276:\n        /* \"#utility.yul\":3883:3885   */\n      0x1f\n        /* \"#utility.yul\":3862:3877   */\n      add\n      not(0x1f)\n        /* \"#utility.yul\":3858:3887   */\n      and\n        /* \"#utility.yul\":3849:3888   */\n      swap3\n      swap1\n      swap3\n      add\n        /* \"#utility.yul\":3890:3894   */\n      0x20\n        /* \"#utility.yul\":3845:3895   */\n      add\n      swap3\n        /* \"#utility.yul\":3630:3901   */\n      swap2\n      pop\n      pop\n      jump\t// out\n        /* \"#utility.yul\":3906:4126   */\n    tag_58:\n        /* \"#utility.yul\":4055:4057   */\n      0x20\n        /* \"#utility.yul\":4044:4053   */\n      dup2\n        /* \"#utility.yul\":4037:4058   */\n      mstore\n        /* \"#utility.yul\":4018:4022   */\n      0x00\n        /* \"#utility.yul\":4075:4120   */\n      tag_270\n        /* \"#utility.yul\":4116:4118   */\n      0x20\n        /* \"#utility.yul\":4105:4114   */\n      dup4\n        /* \"#utility.yul\":4101:4119   */\n      add\n        /* \"#utility.yul\":4093:4099   */\n      dup5\n        /* \"#utility.yul\":4075:4120   */\n      tag_231\n      jump\t// in\n        /* \"#utility.yul\":4131:5406   */\n    tag_66:\n        /* \"#utility.yul\":4563:4567   */\n      0x00\n        /* \"#utility.yul\":4592:4595   */\n      0x0140\n        /* \"#utility.yul\":4622:4624   */\n      dup1\n        /* \"#utility.yul\":4611:4620   */\n      dup4\n        /* \"#utility.yul\":4604:4625   */\n      mstore\n        /* \"#utility.yul\":4648:4693   */\n      tag_280\n        /* \"#utility.yul\":4689:4691   */\n      dup2\n        /* \"#utility.yul\":4678:4687   */\n      dup5\n        /* \"#utility.yul\":4674:4692   */\n      add\n        /* \"#utility.yul\":4666:4672   */\n      dup15\n        /* \"#utility.yul\":4648:4693   */\n      tag_231\n      jump\t// in\n    tag_280:\n        /* \"#utility.yul\":4634:4693   */\n      swap1\n      pop\n        /* \"#utility.yul\":4741:4750   */\n      dup3\n        /* \"#utility.yul\":4733:4739   */\n      dup2\n        /* \"#utility.yul\":4729:4751   */\n      sub\n        /* \"#utility.yul\":4724:4726   */\n      0x20\n        /* \"#utility.yul\":4713:4722   */\n      dup5\n        /* \"#utility.yul\":4709:4727   */\n      add\n        /* \"#utility.yul\":4702:4752   */\n      mstore\n        /* \"#utility.yul\":4775:4808   */\n      tag_281\n        /* \"#utility.yul\":4801:4807   */\n      dup2\n        /* \"#utility.yul\":4793:4799   */\n      dup14\n        /* \"#utility.yul\":4775:4808   */\n      tag_231\n      jump\t// in\n    tag_281:\n        /* \"#utility.yul\":4761:4808   */\n      swap1\n      pop\n        /* \"#utility.yul\":4856:4865   */\n      dup3\n        /* \"#utility.yul\":4848:4854   */\n      dup2\n        /* \"#utility.yul\":4844:4866   */\n      sub\n        /* \"#utility.yul\":4839:4841   */\n      0x40\n        /* \"#utility.yul\":4828:4837   */\n      dup5\n        /* \"#utility.yul\":4824:4842   */\n      add\n        /* \"#utility.yul\":4817:4867   */\n      mstore\n        /* \"#utility.yul\":4890:4923   */\n      tag_282\n        /* \"#utility.yul\":4916:4922   */\n      dup2\n        /* \"#utility.yul\":4908:4914   */\n      dup13\n        /* \"#utility.yul\":4890:4923   */\n      tag_231\n      jump\t// in\n    tag_282:\n        /* \"#utility.yul\":4876:4923   */\n      swap1\n      pop\n        /* \"#utility.yul\":4971:4980   */\n      dup3\n        /* \"#utility.yul\":4963:4969   */\n      dup2\n        /* \"#utility.yul\":4959:4981   */\n      sub\n        /* \"#utility.yul\":4954:4956   */\n      0x60\n        /* \"#utility.yul\":4943:4952   */\n      dup5\n        /* \"#utility.yul\":4939:4957   */\n      add\n        /* \"#utility.yul\":4932:4982   */\n      mstore\n        /* \"#utility.yul\":5005:5038   */\n      tag_283\n        /* \"#utility.yul\":5031:5037   */\n      dup2\n        /* \"#utility.yul\":5023:5029   */\n      dup12\n        /* \"#utility.yul\":5005:5038   */\n      tag_231\n      jump\t// in\n    tag_283:\n        /* \"#utility.yul\":4991:5038   */\n      swap1\n      pop\n        /* \"#utility.yul\":5087:5096   */\n      dup3\n        /* \"#utility.yul\":5079:5085   */\n      dup2\n        /* \"#utility.yul\":5075:5097   */\n      sub\n        /* \"#utility.yul\":5069:5072   */\n      0x80\n        /* \"#utility.yul\":5058:5067   */\n      dup5\n        /* \"#utility.yul\":5054:5073   */\n      add\n        /* \"#utility.yul\":5047:5098   */\n      mstore\n        /* \"#utility.yul\":5115:5148   */\n      tag_284\n        /* \"#utility.yul\":5141:5147   */\n      dup2\n        /* \"#utility.yul\":5133:5139   */\n      dup11\n        /* \"#utility.yul\":5115:5148   */\n      tag_231\n      jump\t// in\n    tag_284:\n        /* \"#utility.yul\":5179:5182   */\n      0xa0\n        /* \"#utility.yul\":5164:5183   */\n      dup5\n      add\n        /* \"#utility.yul\":5157:5192   */\n      swap9\n      swap1\n      swap9\n      mstore\n      pop\n      pop\n        /* \"#utility.yul\":5236:5250   */\n      swap4\n      iszero\n        /* \"#utility.yul\":5229:5251   */\n      iszero\n        /* \"#utility.yul\":5223:5226   */\n      0xc0\n        /* \"#utility.yul\":5208:5227   */\n      dup6\n      add\n        /* \"#utility.yul\":5201:5252   */\n      mstore\n        /* \"#utility.yul\":5296:5310   */\n      swap2\n      iszero\n        /* \"#utility.yul\":5289:5311   */\n      iszero\n        /* \"#utility.yul\":5283:5286   */\n      0xe0\n        /* \"#utility.yul\":5268:5287   */\n      dup5\n      add\n        /* \"#utility.yul\":5261:5312   */\n      mstore\n        /* \"#utility.yul\":5343:5346   */\n      0x0100\n        /* \"#utility.yul\":5328:5347   */\n      dup4\n      add\n        /* \"#utility.yul\":5321:5356   */\n      mstore\n        /* \"#utility.yul\":5387:5390   */\n      0x0120\n        /* \"#utility.yul\":5372:5391   */\n      swap1\n      swap2\n      add\n        /* \"#utility.yul\":5365:5400   */\n      mstore\n        /* \"#utility.yul\":5107:5148   */\n      swap6\n        /* \"#utility.yul\":4131:5406   */\n      swap5\n      pop\n      pop\n      pop\n      pop\n      pop\n      jump\t// out\n        /* \"#utility.yul\":5411:5571   */\n    tag_232:\n        /* \"#utility.yul\":5476:5496   */\n      dup1\n      calldataload\n        /* \"#utility.yul\":5532:5545   */\n      dup1\n      iszero\n        /* \"#utility.yul\":5525:5546   */\n      iszero\n        /* \"#utility.yul\":5515:5547   */\n      dup2\n      eq\n        /* \"#utility.yul\":5505:5565   */\n      tag_286\n      jumpi\n        /* \"#utility.yul\":5561:5562   */\n      0x00\n        /* \"#utility.yul\":5558:5559   */\n      dup1\n        /* \"#utility.yul\":5551:5563   */\n      revert\n        /* \"#utility.yul\":5505:5565   */\n    tag_286:\n        /* \"#utility.yul\":5411:5571   */\n      swap2\n      swap1\n      pop\n      jump\t// out\n        /* \"#utility.yul\":5576:6658   */\n    tag_69:\n        /* \"#utility.yul\":5717:5723   */\n      0x00\n        /* \"#utility.yul\":5725:5731   */\n      dup1\n        /* \"#utility.yul\":5733:5739   */\n      0x00\n        /* \"#utility.yul\":5741:5747   */\n      dup1\n        /* \"#utility.yul\":5749:5755   */\n      0x00\n        /* \"#utility.yul\":5757:5763   */\n      dup1\n        /* \"#utility.yul\":5810:5813   */\n      0xc0\n        /* \"#utility.yul\":5798:5807   */\n      dup8\n        /* \"#utility.yul\":5789:5796   */\n      dup10\n        /* \"#utility.yul\":5785:5808   */\n      sub\n        /* \"#utility.yul\":5781:5814   */\n      slt\n        /* \"#utility.yul\":5778:5831   */\n      iszero\n      tag_288\n      jumpi\n        /* \"#utility.yul\":5827:5828   */\n      0x00\n        /* \"#utility.yul\":5824:5825   */\n      dup1\n        /* \"#utility.yul\":5817:5829   */\n      revert\n        /* \"#utility.yul\":5778:5831   */\n    tag_288:\n        /* \"#utility.yul\":5867:5876   */\n      dup7\n        /* \"#utility.yul\":5854:5877   */\n      calldataload\n        /* \"#utility.yul\":5896:5914   */\n      0xffffffffffffffff\n        /* \"#utility.yul\":5937:5939   */\n      dup1\n        /* \"#utility.yul\":5929:5935   */\n      dup3\n        /* \"#utility.yul\":5926:5940   */\n      gt\n        /* \"#utility.yul\":5923:5957   */\n      iszero\n      tag_289\n      jumpi\n        /* \"#utility.yul\":5953:5954   */\n      0x00\n        /* \"#utility.yul\":5950:5951   */\n      dup1\n        /* \"#utility.yul\":5943:5955   */\n      revert\n        /* \"#utility.yul\":5923:5957   */\n    tag_289:\n        /* \"#utility.yul\":5976:6026   */\n      tag_290\n        /* \"#utility.yul\":6018:6025   */\n      dup11\n        /* \"#utility.yul\":6009:6015   */\n      dup4\n        /* \"#utility.yul\":5998:6007   */\n      dup12\n        /* \"#utility.yul\":5994:6016   */\n      add\n        /* \"#utility.yul\":5976:6026   */\n      tag_229\n      jump\t// in\n    tag_290:\n        /* \"#utility.yul\":5966:6026   */\n      swap8\n      pop\n        /* \"#utility.yul\":6079:6081   */\n      0x20\n        /* \"#utility.yul\":6068:6077   */\n      dup10\n        /* \"#utility.yul\":6064:6082   */\n      add\n        /* \"#utility.yul\":6051:6083   */\n      calldataload\n        /* \"#utility.yul\":6035:6083   */\n      swap2\n      pop\n        /* \"#utility.yul\":6108:6110   */\n      dup1\n        /* \"#utility.yul\":6098:6106   */\n      dup3\n        /* \"#utility.yul\":6095:6111   */\n      gt\n        /* \"#utility.yul\":6092:6128   */\n      iszero\n      tag_291\n      jumpi\n        /* \"#utility.yul\":6124:6125   */\n      0x00\n        /* \"#utility.yul\":6121:6122   */\n      dup1\n        /* \"#utility.yul\":6114:6126   */\n      revert\n        /* \"#utility.yul\":6092:6128   */\n    tag_291:\n        /* \"#utility.yul\":6147:6199   */\n      tag_292\n        /* \"#utility.yul\":6191:6198   */\n      dup11\n        /* \"#utility.yul\":6180:6188   */\n      dup4\n        /* \"#utility.yul\":6169:6178   */\n      dup12\n        /* \"#utility.yul\":6165:6189   */\n      add\n        /* \"#utility.yul\":6147:6199   */\n      tag_229\n      jump\t// in\n    tag_292:\n        /* \"#utility.yul\":6137:6199   */\n      swap7\n      pop\n        /* \"#utility.yul\":6252:6254   */\n      0x40\n        /* \"#utility.yul\":6241:6250   */\n      dup10\n        /* \"#utility.yul\":6237:6255   */\n      add\n        /* \"#utility.yul\":6224:6256   */\n      calldataload\n        /* \"#utility.yul\":6208:6256   */\n      swap2\n      pop\n        /* \"#utility.yul\":6281:6283   */\n      dup1\n        /* \"#utility.yul\":6271:6279   */\n      dup3\n        /* \"#utility.yul\":6268:6284   */\n      gt\n        /* \"#utility.yul\":6265:6301   */\n      iszero\n      tag_293\n      jumpi\n        /* \"#utility.yul\":6297:6298   */\n      0x00\n        /* \"#utility.yul\":6294:6295   */\n      dup1\n        /* \"#utility.yul\":6287:6299   */\n      revert\n        /* \"#utility.yul\":6265:6301   */\n    tag_293:\n        /* \"#utility.yul\":6320:6372   */\n      tag_294\n        /* \"#utility.yul\":6364:6371   */\n      dup11\n        /* \"#utility.yul\":6353:6361   */\n      dup4\n        /* \"#utility.yul\":6342:6351   */\n      dup12\n        /* \"#utility.yul\":6338:6362   */\n      add\n        /* \"#utility.yul\":6320:6372   */\n      tag_229\n      jump\t// in\n    tag_294:\n        /* \"#utility.yul\":6310:6372   */\n      swap6\n      pop\n        /* \"#utility.yul\":6425:6427   */\n      0x60\n        /* \"#utility.yul\":6414:6423   */\n      dup10\n        /* \"#utility.yul\":6410:6428   */\n      add\n        /* \"#utility.yul\":6397:6429   */\n      calldataload\n        /* \"#utility.yul\":6381:6429   */\n      swap2\n      pop\n        /* \"#utility.yul\":6454:6456   */\n      dup1\n        /* \"#utility.yul\":6444:6452   */\n      dup3\n        /* \"#utility.yul\":6441:6457   */\n      gt\n        /* \"#utility.yul\":6438:6474   */\n      iszero\n      tag_295\n      jumpi\n        /* \"#utility.yul\":6470:6471   */\n      0x00\n        /* \"#utility.yul\":6467:6468   */\n      dup1\n        /* \"#utility.yul\":6460:6472   */\n      revert\n        /* \"#utility.yul\":6438:6474   */\n    tag_295:\n      pop\n        /* \"#utility.yul\":6493:6545   */\n      tag_296\n        /* \"#utility.yul\":6537:6544   */\n      dup10\n        /* \"#utility.yul\":6526:6534   */\n      dup3\n        /* \"#utility.yul\":6515:6524   */\n      dup11\n        /* \"#utility.yul\":6511:6535   */\n      add\n        /* \"#utility.yul\":6493:6545   */\n      tag_229\n      jump\t// in\n    tag_296:\n        /* \"#utility.yul\":6483:6545   */\n      swap4\n      pop\n      pop\n        /* \"#utility.yul\":6564:6600   */\n      tag_297\n        /* \"#utility.yul\":6595:6598   */\n      0x80\n        /* \"#utility.yul\":6584:6593   */\n      dup9\n        /* \"#utility.yul\":6580:6599   */\n      add\n        /* \"#utility.yul\":6564:6600   */\n      tag_232\n      jump\t// in\n    tag_297:\n        /* \"#utility.yul\":6554:6600   */\n      swap2\n      pop\n        /* \"#utility.yul\":6647:6650   */\n      0xa0\n        /* \"#utility.yul\":6636:6645   */\n      dup8\n        /* \"#utility.yul\":6632:6651   */\n      add\n        /* \"#utility.yul\":6619:6652   */\n      calldataload\n        /* \"#utility.yul\":6609:6652   */\n      swap1\n      pop\n        /* \"#utility.yul\":5576:6658   */\n      swap3\n      swap6\n      pop\n      swap3\n      swap6\n      pop\n      swap3\n      swap6\n      jump\t// out\n        /* \"#utility.yul\":6663:7073   */\n    tag_80:\n        /* \"#utility.yul\":6865:6867   */\n      0x20\n        /* \"#utility.yul\":6847:6868   */\n      dup1\n      dup3\n      mstore\n        /* \"#utility.yul\":6904:6906   */\n      0x2e\n        /* \"#utility.yul\":6884:6902   */\n      swap1\n      dup3\n      add\n        /* \"#utility.yul\":6877:6907   */\n      mstore\n        /* \"#utility.yul\":6943:6977   */\n      0x4f6e6c792074686520636f6e7472616374206f776e65722063616e2063616c6c\n        /* \"#utility.yul\":6938:6940   */\n      0x40\n        /* \"#utility.yul\":6923:6941   */\n      dup3\n      add\n        /* \"#utility.yul\":6916:6978   */\n      mstore\n      shl(0x91, 0x103a3434b990333ab731ba34b7b7)\n        /* \"#utility.yul\":7009:7011   */\n      0x60\n        /* \"#utility.yul\":6994:7012   */\n      dup3\n      add\n        /* \"#utility.yul\":6987:7031   */\n      mstore\n        /* \"#utility.yul\":7063:7066   */\n      0x80\n        /* \"#utility.yul\":7048:7067   */\n      add\n      swap1\n        /* \"#utility.yul\":6663:7073   */\n      jump\t// out\n        /* \"#utility.yul\":7078:7367   */\n    tag_83:\n        /* \"#utility.yul\":7209:7212   */\n      0x00\n        /* \"#utility.yul\":7247:7253   */\n      dup3\n        /* \"#utility.yul\":7241:7254   */\n      mload\n        /* \"#utility.yul\":7263:7329   */\n      tag_300\n        /* \"#utility.yul\":7322:7328   */\n      dup2\n        /* \"#utility.yul\":7317:7320   */\n      dup5\n        /* \"#utility.yul\":7310:7314   */\n      0x20\n        /* \"#utility.yul\":7302:7308   */\n      dup8\n        /* \"#utility.yul\":7298:7315   */\n      add\n        /* \"#utility.yul\":7263:7329   */\n      tag_230\n      jump\t// in\n    tag_300:\n        /* \"#utility.yul\":7345:7361   */\n      swap2\n      swap1\n      swap2\n      add\n      swap3\n        /* \"#utility.yul\":7078:7367   */\n      swap2\n      pop\n      pop\n      jump\t// out\n        /* \"#utility.yul\":7372:7776   */\n    tag_88:\n        /* \"#utility.yul\":7574:7576   */\n      0x20\n        /* \"#utility.yul\":7556:7577   */\n      dup1\n      dup3\n      mstore\n        /* \"#utility.yul\":7613:7615   */\n      0x28\n        /* \"#utility.yul\":7593:7611   */\n      swap1\n      dup3\n      add\n        /* \"#utility.yul\":7586:7616   */\n      mstore\n        /* \"#utility.yul\":7652:7686   */\n      0x41727469636c6520776974682074686520676976656e20494420646f6573206e\n        /* \"#utility.yul\":7647:7649   */\n      0x40\n        /* \"#utility.yul\":7632:7650   */\n      dup3\n      add\n        /* \"#utility.yul\":7625:7687   */\n      mstore\n      shl(0xc2, 0x1bdd08195e1a5cdd)\n        /* \"#utility.yul\":7718:7720   */\n      0x60\n        /* \"#utility.yul\":7703:7721   */\n      dup3\n      add\n        /* \"#utility.yul\":7696:7734   */\n      mstore\n        /* \"#utility.yul\":7766:7769   */\n      0x80\n        /* \"#utility.yul\":7751:7770   */\n      add\n      swap1\n        /* \"#utility.yul\":7372:7776   */\n      jump\t// out\n        /* \"#utility.yul\":8960:9340   */\n    tag_163:\n        /* \"#utility.yul\":9039:9040   */\n      0x01\n        /* \"#utility.yul\":9035:9047   */\n      dup2\n      dup2\n      shr\n      swap1\n        /* \"#utility.yul\":9082:9094   */\n      dup3\n      and\n      dup1\n        /* \"#utility.yul\":9103:9164   */\n      tag_306\n      jumpi\n        /* \"#utility.yul\":9157:9161   */\n      0x7f\n        /* \"#utility.yul\":9149:9155   */\n      dup3\n        /* \"#utility.yul\":9145:9162   */\n      and\n        /* \"#utility.yul\":9135:9162   */\n      swap2\n      pop\n        /* \"#utility.yul\":9103:9164   */\n    tag_306:\n        /* \"#utility.yul\":9210:9212   */\n      0x20\n        /* \"#utility.yul\":9202:9208   */\n      dup3\n        /* \"#utility.yul\":9199:9213   */\n      lt\n        /* \"#utility.yul\":9179:9197   */\n      dup2\n        /* \"#utility.yul\":9176:9214   */\n      sub\n        /* \"#utility.yul\":9173:9334   */\n      tag_307\n      jumpi\n        /* \"#utility.yul\":9256:9266   */\n      0x4e487b71\n        /* \"#utility.yul\":9251:9254   */\n      0xe0\n        /* \"#utility.yul\":9247:9267   */\n      shl\n        /* \"#utility.yul\":9244:9245   */\n      0x00\n        /* \"#utility.yul\":9237:9268   */\n      mstore\n        /* \"#utility.yul\":9291:9295   */\n      0x22\n        /* \"#utility.yul\":9288:9289   */\n      0x04\n        /* \"#utility.yul\":9281:9296   */\n      mstore\n        /* \"#utility.yul\":9319:9323   */\n      0x24\n        /* \"#utility.yul\":9316:9317   */\n      0x00\n        /* \"#utility.yul\":9309:9324   */\n      revert\n        /* \"#utility.yul\":9173:9334   */\n    tag_307:\n      pop\n        /* \"#utility.yul\":8960:9340   */\n      swap2\n      swap1\n      pop\n      jump\t// out\n        /* \"#utility.yul\":9471:10193   */\n    tag_234:\n        /* \"#utility.yul\":9521:9524   */\n      0x00\n        /* \"#utility.yul\":9562:9567   */\n      dup2\n        /* \"#utility.yul\":9556:9568   */\n      sload\n        /* \"#utility.yul\":9591:9627   */\n      tag_310\n        /* \"#utility.yul\":9617:9626   */\n      dup2\n        /* \"#utility.yul\":9591:9627   */\n      tag_163\n      jump\t// in\n    tag_310:\n        /* \"#utility.yul\":9646:9647   */\n      0x01\n        /* \"#utility.yul\":9663:9681   */\n      dup3\n      dup2\n      and\n        /* \"#utility.yul\":9690:9823   */\n      dup1\n      iszero\n      tag_312\n      jumpi\n        /* \"#utility.yul\":9837:9838   */\n      0x01\n        /* \"#utility.yul\":9832:10187   */\n      dup2\n      eq\n      tag_313\n      jumpi\n        /* \"#utility.yul\":9656:10187   */\n      jump(tag_311)\n        /* \"#utility.yul\":9690:9823   */\n    tag_312:\n      not(0xff)\n        /* \"#utility.yul\":9723:9747   */\n      dup5\n      and\n        /* \"#utility.yul\":9711:9748   */\n      dup8\n      mstore\n        /* \"#utility.yul\":9796:9810   */\n      dup3\n      iszero\n        /* \"#utility.yul\":9789:9811   */\n      iszero\n        /* \"#utility.yul\":9777:9812   */\n      dup4\n      mul\n        /* \"#utility.yul\":9768:9813   */\n      dup8\n      add\n      swap5\n      pop\n        /* \"#utility.yul\":9690:9823   */\n      jump(tag_311)\n        /* \"#utility.yul\":9832:10187   */\n    tag_313:\n        /* \"#utility.yul\":9863:9868   */\n      dup6\n        /* \"#utility.yul\":9860:9861   */\n      0x00\n        /* \"#utility.yul\":9853:9869   */\n      mstore\n        /* \"#utility.yul\":9892:9896   */\n      0x20\n        /* \"#utility.yul\":9937:9939   */\n      dup1\n        /* \"#utility.yul\":9934:9935   */\n      0x00\n        /* \"#utility.yul\":9924:9940   */\n      keccak256\n        /* \"#utility.yul\":9962:9963   */\n      0x00\n        /* \"#utility.yul\":9976:10141   */\n    tag_314:\n        /* \"#utility.yul\":9990:9996   */\n      dup6\n        /* \"#utility.yul\":9987:9988   */\n      dup2\n        /* \"#utility.yul\":9984:9997   */\n      lt\n        /* \"#utility.yul\":9976:10141   */\n      iszero\n      tag_316\n      jumpi\n        /* \"#utility.yul\":10068:10082   */\n      dup2\n      sload\n        /* \"#utility.yul\":10055:10066   */\n      dup11\n      dup3\n      add\n        /* \"#utility.yul\":10048:10083   */\n      mstore\n        /* \"#utility.yul\":10111:10127   */\n      swap1\n      dup5\n      add\n      swap1\n        /* \"#utility.yul\":10005:10015   */\n      dup3\n      add\n        /* \"#utility.yul\":9976:10141   */\n      jump(tag_314)\n    tag_316:\n        /* \"#utility.yul\":9980:9983   */\n      pop\n      pop\n      pop\n        /* \"#utility.yul\":10170:10176   */\n      dup3\n        /* \"#utility.yul\":10165:10168   */\n      dup8\n        /* \"#utility.yul\":10161:10177   */\n      add\n        /* \"#utility.yul\":10154:10177   */\n      swap5\n      pop\n        /* \"#utility.yul\":9656:10187   */\n    tag_311:\n      pop\n      pop\n      pop\n      pop\n        /* \"#utility.yul\":9471:10193   */\n      swap3\n      swap2\n      pop\n      pop\n      jump\t// out\n        /* \"#utility.yul\":10198:10587   */\n    tag_99:\n        /* \"#utility.yul\":10374:10377   */\n      0x00\n        /* \"#utility.yul\":10402:10440   */\n      tag_318\n        /* \"#utility.yul\":10436:10439   */\n      dup3\n        /* \"#utility.yul\":10428:10434   */\n      dup6\n        /* \"#utility.yul\":10402:10440   */\n      tag_234\n      jump\t// in\n    tag_318:\n        /* \"#utility.yul\":10469:10475   */\n      dup4\n        /* \"#utility.yul\":10463:10476   */\n      mload\n        /* \"#utility.yul\":10485:10550   */\n      tag_319\n        /* \"#utility.yul\":10543:10549   */\n      dup2\n        /* \"#utility.yul\":10539:10541   */\n      dup4\n        /* \"#utility.yul\":10532:10536   */\n      0x20\n        /* \"#utility.yul\":10524:10530   */\n      dup9\n        /* \"#utility.yul\":10520:10537   */\n      add\n        /* \"#utility.yul\":10485:10550   */\n      tag_230\n      jump\t// in\n    tag_319:\n        /* \"#utility.yul\":10566:10581   */\n      add\n      swap5\n        /* \"#utility.yul\":10198:10587   */\n      swap4\n      pop\n      pop\n      pop\n      pop\n      jump\t// out\n        /* \"#utility.yul\":10592:11137   */\n    tag_235:\n        /* \"#utility.yul\":10694:10696   */\n      0x1f\n        /* \"#utility.yul\":10689:10692   */\n      dup3\n        /* \"#utility.yul\":10686:10697   */\n      gt\n        /* \"#utility.yul\":10683:11131   */\n      iszero\n      tag_321\n      jumpi\n        /* \"#utility.yul\":10730:10731   */\n      0x00\n        /* \"#utility.yul\":10755:10760   */\n      dup2\n        /* \"#utility.yul\":10751:10753   */\n      dup2\n        /* \"#utility.yul\":10744:10761   */\n      mstore\n        /* \"#utility.yul\":10800:10804   */\n      0x20\n        /* \"#utility.yul\":10796:10798   */\n      dup2\n        /* \"#utility.yul\":10786:10805   */\n      keccak256\n        /* \"#utility.yul\":10870:10872   */\n      0x1f\n        /* \"#utility.yul\":10858:10868   */\n      dup6\n        /* \"#utility.yul\":10854:10873   */\n      add\n        /* \"#utility.yul\":10851:10852   */\n      0x05\n        /* \"#utility.yul\":10847:10874   */\n      shr\n        /* \"#utility.yul\":10841:10845   */\n      dup2\n        /* \"#utility.yul\":10837:10875   */\n      add\n        /* \"#utility.yul\":10906:10910   */\n      0x20\n        /* \"#utility.yul\":10894:10904   */\n      dup7\n        /* \"#utility.yul\":10891:10911   */\n      lt\n        /* \"#utility.yul\":10888:10935   */\n      iszero\n      tag_322\n      jumpi\n      pop\n        /* \"#utility.yul\":10929:10933   */\n      dup1\n        /* \"#utility.yul\":10888:10935   */\n    tag_322:\n        /* \"#utility.yul\":10984:10986   */\n      0x1f\n        /* \"#utility.yul\":10979:10982   */\n      dup6\n        /* \"#utility.yul\":10975:10987   */\n      add\n        /* \"#utility.yul\":10972:10973   */\n      0x05\n        /* \"#utility.yul\":10968:10988   */\n      shr\n        /* \"#utility.yul\":10962:10966   */\n      dup3\n        /* \"#utility.yul\":10958:10989   */\n      add\n        /* \"#utility.yul\":10948:10989   */\n      swap2\n      pop\n        /* \"#utility.yul\":11039:11121   */\n    tag_323:\n        /* \"#utility.yul\":11057:11059   */\n      dup2\n        /* \"#utility.yul\":11050:11055   */\n      dup2\n        /* \"#utility.yul\":11047:11060   */\n      lt\n        /* \"#utility.yul\":11039:11121   */\n      iszero\n      tag_325\n      jumpi\n        /* \"#utility.yul\":11102:11119   */\n      dup3\n      dup2\n      sstore\n        /* \"#utility.yul\":11083:11084   */\n      0x01\n        /* \"#utility.yul\":11072:11085   */\n      add\n        /* \"#utility.yul\":11039:11121   */\n      jump(tag_323)\n    tag_325:\n        /* \"#utility.yul\":11043:11046   */\n      pop\n      pop\n      pop\n        /* \"#utility.yul\":10683:11131   */\n    tag_321:\n        /* \"#utility.yul\":10592:11137   */\n      pop\n      pop\n      pop\n      jump\t// out\n        /* \"#utility.yul\":11313:12665   */\n    tag_101:\n        /* \"#utility.yul\":11439:11442   */\n      dup2\n        /* \"#utility.yul\":11433:11443   */\n      mload\n        /* \"#utility.yul\":11466:11484   */\n      0xffffffffffffffff\n        /* \"#utility.yul\":11458:11464   */\n      dup2\n        /* \"#utility.yul\":11455:11485   */\n      gt\n        /* \"#utility.yul\":11452:11508   */\n      iszero\n      tag_329\n      jumpi\n        /* \"#utility.yul\":11488:11506   */\n      tag_329\n      tag_228\n      jump\t// in\n    tag_329:\n        /* \"#utility.yul\":11517:11614   */\n      tag_330\n        /* \"#utility.yul\":11607:11613   */\n      dup2\n        /* \"#utility.yul\":11567:11605   */\n      tag_331\n        /* \"#utility.yul\":11599:11603   */\n      dup5\n        /* \"#utility.yul\":11593:11604   */\n      sload\n        /* \"#utility.yul\":11567:11605   */\n      tag_163\n      jump\t// in\n    tag_331:\n        /* \"#utility.yul\":11561:11565   */\n      dup5\n        /* \"#utility.yul\":11517:11614   */\n      tag_235\n      jump\t// in\n    tag_330:\n        /* \"#utility.yul\":11669:11673   */\n      0x20\n      dup1\n        /* \"#utility.yul\":11733:11735   */\n      0x1f\n        /* \"#utility.yul\":11722:11736   */\n      dup4\n      gt\n        /* \"#utility.yul\":11750:11751   */\n      0x01\n        /* \"#utility.yul\":11745:12408   */\n      dup2\n      eq\n      tag_333\n      jumpi\n        /* \"#utility.yul\":12452:12453   */\n      0x00\n        /* \"#utility.yul\":12469:12475   */\n      dup5\n        /* \"#utility.yul\":12466:12555   */\n      iszero\n      tag_334\n      jumpi\n      pop\n        /* \"#utility.yul\":12521:12540   */\n      dup6\n      dup4\n      add\n        /* \"#utility.yul\":12515:12541   */\n      mload\n        /* \"#utility.yul\":12466:12555   */\n    tag_334:\n      not(0x00)\n        /* \"#utility.yul\":11270:11271   */\n      0x03\n        /* \"#utility.yul\":11266:11277   */\n      dup7\n      swap1\n      shl\n        /* \"#utility.yul\":11262:11286   */\n      shr\n        /* \"#utility.yul\":11258:11287   */\n      not\n        /* \"#utility.yul\":11248:11288   */\n      and\n        /* \"#utility.yul\":11294:11295   */\n      0x01\n        /* \"#utility.yul\":11290:11301   */\n      dup6\n      swap1\n      shl\n        /* \"#utility.yul\":11245:11302   */\n      or\n        /* \"#utility.yul\":12568:12649   */\n      dup6\n      sstore\n        /* \"#utility.yul\":11715:12659   */\n      jump(tag_325)\n        /* \"#utility.yul\":11745:12408   */\n    tag_333:\n        /* \"#utility.yul\":9418:9419   */\n      0x00\n        /* \"#utility.yul\":9411:9425   */\n      dup6\n      dup2\n      mstore\n        /* \"#utility.yul\":9455:9459   */\n      0x20\n        /* \"#utility.yul\":9442:9460   */\n      dup2\n      keccak256\n      not(0x1f)\n        /* \"#utility.yul\":11781:11801   */\n      dup7\n      and\n      swap2\n        /* \"#utility.yul\":11899:12135   */\n    tag_337:\n        /* \"#utility.yul\":11913:11920   */\n      dup3\n        /* \"#utility.yul\":11910:11911   */\n      dup2\n        /* \"#utility.yul\":11907:11921   */\n      lt\n        /* \"#utility.yul\":11899:12135   */\n      iszero\n      tag_339\n      jumpi\n        /* \"#utility.yul\":12002:12021   */\n      dup9\n      dup7\n      add\n        /* \"#utility.yul\":11996:12022   */\n      mload\n        /* \"#utility.yul\":11981:12023   */\n      dup3\n      sstore\n        /* \"#utility.yul\":12094:12121   */\n      swap5\n      dup5\n      add\n      swap5\n        /* \"#utility.yul\":12062:12063   */\n      0x01\n        /* \"#utility.yul\":12050:12064   */\n      swap1\n      swap2\n      add\n      swap1\n        /* \"#utility.yul\":11929:11948   */\n      dup5\n      add\n        /* \"#utility.yul\":11899:12135   */\n      jump(tag_337)\n    tag_339:\n        /* \"#utility.yul\":11903:11906   */\n      pop\n        /* \"#utility.yul\":12163:12169   */\n      dup6\n        /* \"#utility.yul\":12154:12161   */\n      dup3\n        /* \"#utility.yul\":12151:12170   */\n      lt\n        /* \"#utility.yul\":12148:12349   */\n      iszero\n      tag_340\n      jumpi\n        /* \"#utility.yul\":12224:12243   */\n      dup8\n      dup6\n      add\n        /* \"#utility.yul\":12218:12244   */\n      mload\n      not(0x00)\n        /* \"#utility.yul\":12307:12308   */\n      0x03\n        /* \"#utility.yul\":12303:12317   */\n      dup9\n      swap1\n      shl\n        /* \"#utility.yul\":12319:12322   */\n      0xf8\n        /* \"#utility.yul\":12299:12323   */\n      and\n        /* \"#utility.yul\":12295:12332   */\n      shr\n        /* \"#utility.yul\":12291:12333   */\n      not\n        /* \"#utility.yul\":12276:12334   */\n      and\n        /* \"#utility.yul\":12261:12335   */\n      dup2\n      sstore\n        /* \"#utility.yul\":12148:12349   */\n    tag_340:\n      pop\n      pop\n      pop\n      pop\n      pop\n        /* \"#utility.yul\":12395:12396   */\n      0x01\n        /* \"#utility.yul\":12379:12393   */\n      swap1\n      dup2\n      shl\n        /* \"#utility.yul\":12375:12397   */\n      add\n        /* \"#utility.yul\":12362:12398   */\n      swap1\n      sstore\n      pop\n        /* \"#utility.yul\":11313:12665   */\n      jump\t// out\n        /* \"#utility.yul\":12670:12902   */\n    tag_103:\n        /* \"#utility.yul\":12709:12712   */\n      0x00\n        /* \"#utility.yul\":12730:12747   */\n      0x01\n      dup3\n      add\n        /* \"#utility.yul\":12727:12867   */\n      tag_342\n      jumpi\n        /* \"#utility.yul\":12789:12799   */\n      0x4e487b71\n        /* \"#utility.yul\":12784:12787   */\n      0xe0\n        /* \"#utility.yul\":12780:12800   */\n      shl\n        /* \"#utility.yul\":12777:12778   */\n      0x00\n        /* \"#utility.yul\":12770:12801   */\n      mstore\n        /* \"#utility.yul\":12824:12828   */\n      0x11\n        /* \"#utility.yul\":12821:12822   */\n      0x04\n        /* \"#utility.yul\":12814:12829   */\n      mstore\n        /* \"#utility.yul\":12852:12856   */\n      0x24\n        /* \"#utility.yul\":12849:12850   */\n      0x00\n        /* \"#utility.yul\":12842:12857   */\n      revert\n        /* \"#utility.yul\":12727:12867   */\n    tag_342:\n      pop\n        /* \"#utility.yul\":12894:12895   */\n      0x01\n        /* \"#utility.yul\":12883:12896   */\n      add\n      swap1\n        /* \"#utility.yul\":12670:12902   */\n      jump\t// out\n        /* \"#utility.yul\":12907:13311   */\n    tag_117:\n        /* \"#utility.yul\":13109:13111   */\n      0x20\n        /* \"#utility.yul\":13091:13112   */\n      dup1\n      dup3\n      mstore\n        /* \"#utility.yul\":13148:13150   */\n      0x28\n        /* \"#utility.yul\":13128:13146   */\n      swap1\n      dup3\n      add\n        /* \"#utility.yul\":13121:13151   */\n      mstore\n        /* \"#utility.yul\":13187:13221   */\n      0x41727469636c6520776974682074686520676976656e20494420616c72656164\n        /* \"#utility.yul\":13182:13184   */\n      0x40\n        /* \"#utility.yul\":13167:13185   */\n      dup3\n      add\n        /* \"#utility.yul\":13160:13222   */\n      mstore\n      shl(0xc0, 0x7920657869737473)\n        /* \"#utility.yul\":13253:13255   */\n      0x60\n        /* \"#utility.yul\":13238:13256   */\n      dup3\n      add\n        /* \"#utility.yul\":13231:13269   */\n      mstore\n        /* \"#utility.yul\":13301:13304   */\n      0x80\n        /* \"#utility.yul\":13286:13305   */\n      add\n      swap1\n        /* \"#utility.yul\":12907:13311   */\n      jump\t// out\n        /* \"#utility.yul\":13316:14313   */\n    tag_127:\n        /* \"#utility.yul\":13742:13745   */\n      0xe0\n        /* \"#utility.yul\":13731:13740   */\n      dup2\n        /* \"#utility.yul\":13724:13746   */\n      mstore\n        /* \"#utility.yul\":13705:13709   */\n      0x00\n        /* \"#utility.yul\":13769:13815   */\n      tag_345\n        /* \"#utility.yul\":13810:13813   */\n      0xe0\n        /* \"#utility.yul\":13799:13808   */\n      dup4\n        /* \"#utility.yul\":13795:13814   */\n      add\n        /* \"#utility.yul\":13787:13793   */\n      dup10\n        /* \"#utility.yul\":13769:13815   */\n      tag_231\n      jump\t// in\n    tag_345:\n        /* \"#utility.yul\":13846:13855   */\n      dup3\n        /* \"#utility.yul\":13838:13844   */\n      dup2\n        /* \"#utility.yul\":13834:13856   */\n      sub\n        /* \"#utility.yul\":13892:13894   */\n      dup1\n        /* \"#utility.yul\":13887:13889   */\n      0x20\n        /* \"#utility.yul\":13876:13885   */\n      dup6\n        /* \"#utility.yul\":13872:13890   */\n      add\n        /* \"#utility.yul\":13865:13895   */\n      mstore\n        /* \"#utility.yul\":13919:13920   */\n      0x00\n        /* \"#utility.yul\":13911:13917   */\n      dup3\n        /* \"#utility.yul\":13904:13921   */\n      mstore\n        /* \"#utility.yul\":13965:13967   */\n      0x20\n        /* \"#utility.yul\":13961:13963   */\n      dup2\n        /* \"#utility.yul\":13957:13968   */\n      add\n        /* \"#utility.yul\":13952:13954   */\n      0x40\n        /* \"#utility.yul\":13941:13950   */\n      dup6\n        /* \"#utility.yul\":13937:13955   */\n      add\n        /* \"#utility.yul\":13930:13969   */\n      mstore\n      pop\n        /* \"#utility.yul\":13992:14034   */\n      tag_346\n        /* \"#utility.yul\":14030:14032   */\n      0x20\n        /* \"#utility.yul\":14022:14028   */\n      dup3\n        /* \"#utility.yul\":14018:14033   */\n      add\n        /* \"#utility.yul\":14010:14016   */\n      dup10\n        /* \"#utility.yul\":13992:14034   */\n      tag_231\n      jump\t// in\n    tag_346:\n        /* \"#utility.yul\":13978:14034   */\n      swap1\n      pop\n        /* \"#utility.yul\":14082:14091   */\n      dup3\n        /* \"#utility.yul\":14074:14080   */\n      dup2\n        /* \"#utility.yul\":14070:14092   */\n      sub\n        /* \"#utility.yul\":14065:14067   */\n      0x60\n        /* \"#utility.yul\":14054:14063   */\n      dup5\n        /* \"#utility.yul\":14050:14068   */\n      add\n        /* \"#utility.yul\":14043:14093   */\n      mstore\n        /* \"#utility.yul\":14110:14143   */\n      tag_347\n        /* \"#utility.yul\":14136:14142   */\n      dup2\n        /* \"#utility.yul\":14128:14134   */\n      dup9\n        /* \"#utility.yul\":14110:14143   */\n      tag_231\n      jump\t// in\n    tag_347:\n        /* \"#utility.yul\":14187:14201   */\n      swap6\n      iszero\n        /* \"#utility.yul\":14180:14202   */\n      iszero\n        /* \"#utility.yul\":14174:14177   */\n      0x80\n        /* \"#utility.yul\":14159:14178   */\n      dup5\n      add\n        /* \"#utility.yul\":14152:14203   */\n      mstore\n      pop\n      pop\n        /* \"#utility.yul\":14247:14261   */\n      swap2\n      iszero\n        /* \"#utility.yul\":14240:14262   */\n      iszero\n        /* \"#utility.yul\":14234:14237   */\n      0xa0\n        /* \"#utility.yul\":14219:14238   */\n      dup4\n      add\n        /* \"#utility.yul\":14212:14263   */\n      mstore\n        /* \"#utility.yul\":14294:14297   */\n      0xc0\n        /* \"#utility.yul\":14279:14298   */\n      swap1\n      swap2\n      add\n        /* \"#utility.yul\":14272:14307   */\n      mstore\n        /* \"#utility.yul\":14102:14143   */\n      swap4\n        /* \"#utility.yul\":13316:14313   */\n      swap3\n      pop\n      pop\n      pop\n      jump\t// out\n        /* \"#utility.yul\":14730:14929   */\n    tag_143:\n        /* \"#utility.yul\":14860:14863   */\n      0x00\n        /* \"#utility.yul\":14885:14923   */\n      tag_270\n        /* \"#utility.yul\":14919:14922   */\n      dup3\n        /* \"#utility.yul\":14911:14917   */\n      dup5\n        /* \"#utility.yul\":14885:14923   */\n      tag_234\n      jump\t// in\n        /* \"#utility.yul\":16047:17036   */\n    tag_216:\n        /* \"#utility.yul\":16465:16468   */\n      0xe0\n        /* \"#utility.yul\":16454:16463   */\n      dup2\n        /* \"#utility.yul\":16447:16469   */\n      mstore\n        /* \"#utility.yul\":16428:16432   */\n      0x00\n        /* \"#utility.yul\":16492:16538   */\n      tag_355\n        /* \"#utility.yul\":16533:16536   */\n      0xe0\n        /* \"#utility.yul\":16522:16531   */\n      dup4\n        /* \"#utility.yul\":16518:16537   */\n      add\n        /* \"#utility.yul\":16510:16516   */\n      dup10\n        /* \"#utility.yul\":16492:16538   */\n      tag_231\n      jump\t// in\n    tag_355:\n        /* \"#utility.yul\":16586:16595   */\n      dup3\n        /* \"#utility.yul\":16578:16584   */\n      dup2\n        /* \"#utility.yul\":16574:16596   */\n      sub\n        /* \"#utility.yul\":16569:16571   */\n      0x20\n        /* \"#utility.yul\":16558:16567   */\n      dup5\n        /* \"#utility.yul\":16554:16572   */\n      add\n        /* \"#utility.yul\":16547:16597   */\n      mstore\n        /* \"#utility.yul\":16620:16653   */\n      tag_356\n        /* \"#utility.yul\":16646:16652   */\n      dup2\n        /* \"#utility.yul\":16638:16644   */\n      dup10\n        /* \"#utility.yul\":16620:16653   */\n      tag_231\n      jump\t// in\n    tag_356:\n        /* \"#utility.yul\":16606:16653   */\n      swap1\n      pop\n        /* \"#utility.yul\":16684:16693   */\n      dup3\n        /* \"#utility.yul\":16676:16682   */\n      dup2\n        /* \"#utility.yul\":16672:16694   */\n      sub\n        /* \"#utility.yul\":16730:16732   */\n      dup1\n        /* \"#utility.yul\":16725:16727   */\n      0x40\n        /* \"#utility.yul\":16714:16723   */\n      dup6\n        /* \"#utility.yul\":16710:16728   */\n      add\n        /* \"#utility.yul\":16703:16733   */\n      mstore\n        /* \"#utility.yul\":16757:16758   */\n      0x00\n        /* \"#utility.yul\":16749:16755   */\n      dup3\n        /* \"#utility.yul\":16742:16759   */\n      mstore\n        /* \"#utility.yul\":16803:16805   */\n      0x20\n        /* \"#utility.yul\":16799:16801   */\n      dup2\n        /* \"#utility.yul\":16795:16806   */\n      add\n        /* \"#utility.yul\":16790:16792   */\n      0x60\n        /* \"#utility.yul\":16779:16788   */\n      dup6\n        /* \"#utility.yul\":16775:16793   */\n      add\n        /* \"#utility.yul\":16768:16807   */\n      mstore\n      pop\n        /* \"#utility.yul\":16824:16866   */\n      tag_347\n        /* \"#utility.yul\":16862:16864   */\n      0x20\n        /* \"#utility.yul\":16854:16860   */\n      dup3\n        /* \"#utility.yul\":16850:16865   */\n      add\n        /* \"#utility.yul\":16842:16848   */\n      dup9\n        /* \"#utility.yul\":16824:16866   */\n      tag_231\n      jump\t// in\n    stop\n    data_a852d146d79341a80c608d13ba9503a0bc9fd5f1aca9b99e2d3e1630b7677a51 457465726e616c204a6f75726e616c69736d20697320616c736f20612070726f7465737420746f20457468657265756d277320706f737369626c6520706c616e7320666f722054686550757267652c2077686963682077696c6c20706f74656e7469616c6c792064657374726f7920636f6e747261637473206c696b65204c6565726f792c20736f6369616c206e6574776f726b73206c696b6520506565706574682f4c656e733b20616e6420657665727920696d706f7274616e74206d657373616765207772697474656e20696e2074686520626c6f636b636861696e20616e642074686569722067617320636f737473206173736f63696174656420706f737369626c7920776974686f757420726566756e64696e672e\n\n    auxdata: 0xa26469706673582212200d249447b5da40ecae0fd8421333e1b1f2e258fa50529b31d7334e0f04ce5ee364736f6c63430008120033\n}\n",
				"bytecode": {
					"linkReferences": {},
					"object": "60806040523480156200001157600080fd5b50600080546001600160a01b03191633179055604080518082019091526002808252613b1960f11b6020830152906200004b9082620000f7565b50620001c3565b634e487b7160e01b600052604160045260246000fd5b600181811c908216806200007d57607f821691505b6020821081036200009e57634e487b7160e01b600052602260045260246000fd5b50919050565b601f821115620000f257600081815260208120601f850160051c81016020861015620000cd5750805b601f850160051c820191505b81811015620000ee57828155600101620000d9565b5050505b505050565b81516001600160401b0381111562000113576200011362000052565b6200012b8162000124845462000068565b84620000a4565b602080601f8311600181146200016357600084156200014a5750858301515b600019600386901b1c1916600185901b178555620000ee565b600085815260208120601f198616915b82811015620001945788860151825594840194600190910190840162000173565b5085821015620001b35787850151600019600388901b60f8161c191681555b5050505050600190811b01905550565b6119dd80620001d36000396000f3fe608060405234801561001057600080fd5b50600436106100f55760003560e01c806383f94db711610097578063a466666511610066578063a4666665146101db578063d8e8ce1f14610204578063e899d5ff14610217578063f2fde38b1461021f57600080fd5b806383f94db7146101985780638da5cb5b146101ab5780639c51b39b146101be578063a0a8e460146101d357600080fd5b80635c60da1b116100d35780635c60da1b1461013e578063683bcdbb1461016957806369b4ecc91461017c5780637af48c351461018557600080fd5b80630bd93eb0146100fa5780630e050e761461010f578063414e28b014610122575b600080fd5b61010d61010836600461117b565b610232565b005b61010d61011d3660046111df565b6104df565b61012b60055481565b6040519081526020015b60405180910390f35b600154610151906001600160a01b031681565b6040516001600160a01b039091168152602001610135565b61010d61017736600461117b565b6106d1565b61012b60065481565b61012b61019336600461128c565b6108ec565b61010d6101a63660046112c9565b610914565b600054610151906001600160a01b031681565b6101c66109c1565b6040516101359190611349565b6101c66109e0565b6101ee6101e936600461128c565b610a6e565b6040516101359a9998979695949392919061135c565b61010d610212366004611405565b610dbb565b60055461012b565b61010d61022d3660046112c9565b61100d565b6000546001600160a01b031633146102655760405162461bcd60e51b815260040161025c906114cb565b60405180910390fd5b60006003836040516102779190611519565b90815260200160405180910390209050610290836110a3565b6102ac5760405162461bcd60e51b815260040161025c90611535565b600681015460ff166103005760405162461bcd60e51b815260206004820152601d60248201527f41727469636c65206973206e6f7420612066756c6c2061727469636c65000000604482015260640161025c565b6006810154610100900460ff166103655760405162461bcd60e51b815260206004820152602360248201527f41727469636c65206973206e6f742061206d756c74692d706172742061727469604482015262636c6560e81b606482015260840161025c565b80600701548160080154106103d55760405162461bcd60e51b815260206004820152603060248201527f416c6c207061727473206f66207468652061727469636c65206861766520626560448201526f195b88185b1c9958591e48185919195960821b606482015260840161025c565b80600201826040516020016103eb92919061162a565b60405160208183030381529060405281600201908161040a919061169e565b5060088101805490600061041d8361175e565b9091555050426005820155604051600490610439908590611519565b90815260405190819003602001902080549060006104568361175e565b90915550506006805490600061046b8361175e565b9190505550806007015481600801540361048d5760068101805461ff00191690555b8260405161049b9190611519565b60405180910390207fafdae258fc8810613d877811fd188a2d851b061e245cda31052126b649370177836040516104d29190611349565b60405180910390a2505050565b6000546001600160a01b031633146105095760405162461bcd60e51b815260040161025c906114cb565b610512846110a3565b1561052f5760405162461bcd60e51b815260040161025c90611785565b60405180610140016040528085815260200184815260200160405180602001604052806000815250815260200183815260200182815260200142815260200160001515815260200160001515815260200160008152602001600081525060038560405161059c9190611519565b908152604051908190036020019020815181906105b9908261169e565b50602082015160018201906105ce908261169e565b50604082015160028201906105e3908261169e565b50606082015160038201906105f8908261169e565b506080820151600482019061060d908261169e565b5060a082015160058281019190915560c083015160068301805460e086015161ffff1990911692151561ff001916929092176101009215158302179055830151600783015561012090920151600890910155805490600061066d8361175e565b9190505550836040516106809190611519565b60405180910390207f1384a902c2ea3e742ded97dce0076c9a32091b66793d1a6d71d411dfac6ac7f384848460008060006040516106c3969594939291906117cd565b60405180910390a250505050565b6000546001600160a01b031633146106fb5760405162461bcd60e51b815260040161025c906114cb565b600060038360405161070d9190611519565b90815260200160405180910390209050610726836110a3565b6107425760405162461bcd60e51b815260040161025c90611535565b600681015460ff166107965760405162461bcd60e51b815260206004820152601d60248201527f41727469636c65206973206e6f7420612066756c6c2061727469636c65000000604482015260640161025c565b6006810154610100900460ff16156108135780600701548160080154146108135760405162461bcd60e51b815260206004820152602b60248201527f4d756c74692d706172742061727469636c65206973207374696c6c206163636560448201526a7074696e6720706172747360a81b606482015260840161025c565b806002016040516108249190611837565b60405180910390208280519060200120036108815760405162461bcd60e51b815260206004820152601c60248201527f41727469636c6520636f6e74656e74206973206964656e746963616c00000000604482015260640161025c565b6002810161088f838261169e565b504260058201556040516004906108a7908590611519565b90815260405190819003602001902080549060006108c48361175e565b9091555050600680549060006108d98361175e565b91905055508260405161049b9190611519565b60006004826040516108fe9190611519565b9081526020016040518091039020549050919050565b6000546001600160a01b0316331461093e5760405162461bcd60e51b815260040161025c906114cb565b6001600160a01b03811661099f5760405162461bcd60e51b815260206004820152602260248201527f496e76616c6964206e657720696d706c656d656e746174696f6e206164647265604482015261737360f01b606482015260840161025c565b600180546001600160a01b0319166001600160a01b0392909216919091179055565b604051806101400160405280610119815260200161188f610119913981565b600280546109ed9061157d565b80601f0160208091040260200160405190810160405280929190818152602001828054610a199061157d565b8015610a665780601f10610a3b57610100808354040283529160200191610a66565b820191906000526020600020905b815481529060010190602001808311610a4957829003601f168201915b505050505081565b606080606080606060008060008060008060038c604051610a8f9190611519565b9081526040519081900360200190206005810154600682015460078301546008840154845494955085946001860194600287019460038801946004890194929360ff808416946101009094041692908a90610ae99061157d565b80601f0160208091040260200160405190810160405280929190818152602001828054610b159061157d565b8015610b625780601f10610b3757610100808354040283529160200191610b62565b820191906000526020600020905b815481529060010190602001808311610b4557829003601f168201915b50505050509950888054610b759061157d565b80601f0160208091040260200160405190810160405280929190818152602001828054610ba19061157d565b8015610bee5780601f10610bc357610100808354040283529160200191610bee565b820191906000526020600020905b815481529060010190602001808311610bd157829003601f168201915b50505050509850878054610c019061157d565b80601f0160208091040260200160405190810160405280929190818152602001828054610c2d9061157d565b8015610c7a5780601f10610c4f57610100808354040283529160200191610c7a565b820191906000526020600020905b815481529060010190602001808311610c5d57829003601f168201915b50505050509750868054610c8d9061157d565b80601f0160208091040260200160405190810160405280929190818152602001828054610cb99061157d565b8015610d065780601f10610cdb57610100808354040283529160200191610d06565b820191906000526020600020905b815481529060010190602001808311610ce957829003601f168201915b50505050509650858054610d199061157d565b80601f0160208091040260200160405190810160405280929190818152602001828054610d459061157d565b8015610d925780601f10610d6757610100808354040283529160200191610d92565b820191906000526020600020905b815481529060010190602001808311610d7557829003601f168201915b505050505095509a509a509a509a509a509a509a509a509a509a50509193959799509193959799565b6000546001600160a01b03163314610de55760405162461bcd60e51b815260040161025c906114cb565b610dee866110a3565b15610e0b5760405162461bcd60e51b815260040161025c90611785565b811580610e205750818015610e205750600081115b610e6c5760405162461bcd60e51b815260206004820152601860248201527f496e76616c6964206c6173742070617274206e756d6265720000000000000000604482015260640161025c565b60405180610140016040528087815260200186815260200185815260200160405180602001604052806000815250815260200184815260200142815260200160011515815260200183151581526020018281526020016000815250600387604051610ed79190611519565b90815260405190819003602001902081518190610ef4908261169e565b5060208201516001820190610f09908261169e565b5060408201516002820190610f1e908261169e565b5060608201516003820190610f33908261169e565b5060808201516004820190610f48908261169e565b5060a082015160058281019190915560c083015160068301805460e086015161ffff1990911692151561ff0019169290921761010092151583021790558301516007830155610120909201516008909101558054906000610fa88361175e565b919050555085604051610fbb9190611519565b60405180910390207f1384a902c2ea3e742ded97dce0076c9a32091b66793d1a6d71d411dfac6ac7f386868660018787604051610ffd96959493929190611843565b60405180910390a2505050505050565b6000546001600160a01b031633146110375760405162461bcd60e51b815260040161025c906114cb565b6001600160a01b0381166110815760405162461bcd60e51b815260206004820152601160248201527024b73b30b634b2103732bb9037bbb732b960791b604482015260640161025c565b600080546001600160a01b0319166001600160a01b0392909216919091179055565b60006003826040516110b59190611519565b90815260405190819003602001902080546110cf9061157d565b15159392505050565b634e487b7160e01b600052604160045260246000fd5b600082601f8301126110ff57600080fd5b813567ffffffffffffffff8082111561111a5761111a6110d8565b604051601f8301601f19908116603f01168101908282118183101715611142576111426110d8565b8160405283815286602085880101111561115b57600080fd5b836020870160208301376000602085830101528094505050505092915050565b6000806040838503121561118e57600080fd5b823567ffffffffffffffff808211156111a657600080fd5b6111b2868387016110ee565b935060208501359150808211156111c857600080fd5b506111d5858286016110ee565b9150509250929050565b600080600080608085870312156111f557600080fd5b843567ffffffffffffffff8082111561120d57600080fd5b611219888389016110ee565b9550602087013591508082111561122f57600080fd5b61123b888389016110ee565b9450604087013591508082111561125157600080fd5b61125d888389016110ee565b9350606087013591508082111561127357600080fd5b50611280878288016110ee565b91505092959194509250565b60006020828403121561129e57600080fd5b813567ffffffffffffffff8111156112b557600080fd5b6112c1848285016110ee565b949350505050565b6000602082840312156112db57600080fd5b81356001600160a01b03811681146112f257600080fd5b9392505050565b60005b838110156113145781810151838201526020016112fc565b50506000910152565b600081518084526113358160208601602086016112f9565b601f01601f19169290920160200192915050565b6020815260006112f2602083018461131d565b60006101408083526113708184018e61131d565b90508281036020840152611384818d61131d565b90508281036040840152611398818c61131d565b905082810360608401526113ac818b61131d565b905082810360808401526113c0818a61131d565b60a0840198909852505093151560c085015291151560e08401526101008301526101209091015295945050505050565b8035801515811461140057600080fd5b919050565b60008060008060008060c0878903121561141e57600080fd5b863567ffffffffffffffff8082111561143657600080fd5b6114428a838b016110ee565b9750602089013591508082111561145857600080fd5b6114648a838b016110ee565b9650604089013591508082111561147a57600080fd5b6114868a838b016110ee565b9550606089013591508082111561149c57600080fd5b506114a989828a016110ee565b9350506114b8608088016113f0565b915060a087013590509295509295509295565b6020808252602e908201527f4f6e6c792074686520636f6e7472616374206f776e65722063616e2063616c6c60408201526d103a3434b990333ab731ba34b7b760911b606082015260800190565b6000825161152b8184602087016112f9565b9190910192915050565b60208082526028908201527f41727469636c6520776974682074686520676976656e20494420646f6573206e6040820152671bdd08195e1a5cdd60c21b606082015260800190565b600181811c9082168061159157607f821691505b6020821081036115b157634e487b7160e01b600052602260045260246000fd5b50919050565b600081546115c48161157d565b600182811680156115dc57600181146115f157611620565b60ff1984168752821515830287019450611620565b8560005260208060002060005b858110156116175781548a8201529084019082016115fe565b50505082870194505b5050505092915050565b600061163682856115b7565b83516116468183602088016112f9565b01949350505050565b601f82111561169957600081815260208120601f850160051c810160208610156116765750805b601f850160051c820191505b8181101561169557828155600101611682565b5050505b505050565b815167ffffffffffffffff8111156116b8576116b86110d8565b6116cc816116c6845461157d565b8461164f565b602080601f83116001811461170157600084156116e95750858301515b600019600386901b1c1916600185901b178555611695565b600085815260208120601f198616915b8281101561173057888601518255948401946001909101908401611711565b508582101561174e5787850151600019600388901b60f8161c191681555b5050505050600190811b01905550565b60006001820161177e57634e487b7160e01b600052601160045260246000fd5b5060010190565b60208082526028908201527f41727469636c6520776974682074686520676976656e20494420616c72656164604082015267792065786973747360c01b606082015260800190565b60e0815260006117e060e083018961131d565b8281038060208501526000825260208101604085015250611804602082018961131d565b90508281036060840152611818818861131d565b9515156080840152505091151560a083015260c0909101529392505050565b60006112f282846115b7565b60e08152600061185660e083018961131d565b8281036020840152611868818961131d565b90508281038060408501526000825260208101606085015250611818602082018861131d56fe457465726e616c204a6f75726e616c69736d20697320616c736f20612070726f7465737420746f20457468657265756d277320706f737369626c6520706c616e7320666f722054686550757267652c2077686963682077696c6c20706f74656e7469616c6c792064657374726f7920636f6e747261637473206c696b65204c6565726f792c20736f6369616c206e6574776f726b73206c696b6520506565706574682f4c656e733b20616e6420657665727920696d706f7274616e74206d657373616765207772697474656e20696e2074686520626c6f636b636861696e20616e642074686569722067617320636f737473206173736f63696174656420706f737369626c7920776974686f757420726566756e64696e672ea26469706673582212200d249447b5da40ecae0fd8421333e1b1f2e258fa50529b31d7334e0f04ce5ee364736f6c63430008120033",
					"opcodes": "PUSH1 0x80 PUSH1 0x40 MSTORE CALLVALUE DUP1 ISZERO PUSH3 0x11 JUMPI PUSH1 0x0 DUP1 REVERT JUMPDEST POP PUSH1 0x0 DUP1 SLOAD PUSH1 0x1 PUSH1 0x1 PUSH1 0xA0 SHL SUB NOT AND CALLER OR SWAP1 SSTORE PUSH1 0x40 DUP1 MLOAD DUP1 DUP3 ADD SWAP1 SWAP2 MSTORE PUSH1 0x2 DUP1 DUP3 MSTORE PUSH2 0x3B19 PUSH1 0xF1 SHL PUSH1 0x20 DUP4 ADD MSTORE SWAP1 PUSH3 0x4B SWAP1 DUP3 PUSH3 0xF7 JUMP JUMPDEST POP PUSH3 0x1C3 JUMP JUMPDEST PUSH4 0x4E487B71 PUSH1 0xE0 SHL PUSH1 0x0 MSTORE PUSH1 0x41 PUSH1 0x4 MSTORE PUSH1 0x24 PUSH1 0x0 REVERT JUMPDEST PUSH1 0x1 DUP2 DUP2 SHR SWAP1 DUP3 AND DUP1 PUSH3 0x7D JUMPI PUSH1 0x7F DUP3 AND SWAP2 POP JUMPDEST PUSH1 0x20 DUP3 LT DUP2 SUB PUSH3 0x9E JUMPI PUSH4 0x4E487B71 PUSH1 0xE0 SHL PUSH1 0x0 MSTORE PUSH1 0x22 PUSH1 0x4 MSTORE PUSH1 0x24 PUSH1 0x0 REVERT JUMPDEST POP SWAP2 SWAP1 POP JUMP JUMPDEST PUSH1 0x1F DUP3 GT ISZERO PUSH3 0xF2 JUMPI PUSH1 0x0 DUP2 DUP2 MSTORE PUSH1 0x20 DUP2 KECCAK256 PUSH1 0x1F DUP6 ADD PUSH1 0x5 SHR DUP2 ADD PUSH1 0x20 DUP7 LT ISZERO PUSH3 0xCD JUMPI POP DUP1 JUMPDEST PUSH1 0x1F DUP6 ADD PUSH1 0x5 SHR DUP3 ADD SWAP2 POP JUMPDEST DUP2 DUP2 LT ISZERO PUSH3 0xEE JUMPI DUP3 DUP2 SSTORE PUSH1 0x1 ADD PUSH3 0xD9 JUMP JUMPDEST POP POP POP JUMPDEST POP POP POP JUMP JUMPDEST DUP2 MLOAD PUSH1 0x1 PUSH1 0x1 PUSH1 0x40 SHL SUB DUP2 GT ISZERO PUSH3 0x113 JUMPI PUSH3 0x113 PUSH3 0x52 JUMP JUMPDEST PUSH3 0x12B DUP2 PUSH3 0x124 DUP5 SLOAD PUSH3 0x68 JUMP JUMPDEST DUP5 PUSH3 0xA4 JUMP JUMPDEST PUSH1 0x20 DUP1 PUSH1 0x1F DUP4 GT PUSH1 0x1 DUP2 EQ PUSH3 0x163 JUMPI PUSH1 0x0 DUP5 ISZERO PUSH3 0x14A JUMPI POP DUP6 DUP4 ADD MLOAD JUMPDEST PUSH1 0x0 NOT PUSH1 0x3 DUP7 SWAP1 SHL SHR NOT AND PUSH1 0x1 DUP6 SWAP1 SHL OR DUP6 SSTORE PUSH3 0xEE JUMP JUMPDEST PUSH1 0x0 DUP6 DUP2 MSTORE PUSH1 0x20 DUP2 KECCAK256 PUSH1 0x1F NOT DUP7 AND SWAP2 JUMPDEST DUP3 DUP2 LT ISZERO PUSH3 0x194 JUMPI DUP9 DUP7 ADD MLOAD DUP3 SSTORE SWAP5 DUP5 ADD SWAP5 PUSH1 0x1 SWAP1 SWAP2 ADD SWAP1 DUP5 ADD PUSH3 0x173 JUMP JUMPDEST POP DUP6 DUP3 LT ISZERO PUSH3 0x1B3 JUMPI DUP8 DUP6 ADD MLOAD PUSH1 0x0 NOT PUSH1 0x3 DUP9 SWAP1 SHL PUSH1 0xF8 AND SHR NOT AND DUP2 SSTORE JUMPDEST POP POP POP POP POP PUSH1 0x1 SWAP1 DUP2 SHL ADD SWAP1 SSTORE POP JUMP JUMPDEST PUSH2 0x19DD DUP1 PUSH3 0x1D3 PUSH1 0x0 CODECOPY PUSH1 0x0 RETURN INVALID PUSH1 0x80 PUSH1 0x40 MSTORE CALLVALUE DUP1 ISZERO PUSH2 0x10 JUMPI PUSH1 0x0 DUP1 REVERT JUMPDEST POP PUSH1 0x4 CALLDATASIZE LT PUSH2 0xF5 JUMPI PUSH1 0x0 CALLDATALOAD PUSH1 0xE0 SHR DUP1 PUSH4 0x83F94DB7 GT PUSH2 0x97 JUMPI DUP1 PUSH4 0xA4666665 GT PUSH2 0x66 JUMPI DUP1 PUSH4 0xA4666665 EQ PUSH2 0x1DB JUMPI DUP1 PUSH4 0xD8E8CE1F EQ PUSH2 0x204 JUMPI DUP1 PUSH4 0xE899D5FF EQ PUSH2 0x217 JUMPI DUP1 PUSH4 0xF2FDE38B EQ PUSH2 0x21F JUMPI PUSH1 0x0 DUP1 REVERT JUMPDEST DUP1 PUSH4 0x83F94DB7 EQ PUSH2 0x198 JUMPI DUP1 PUSH4 0x8DA5CB5B EQ PUSH2 0x1AB JUMPI DUP1 PUSH4 0x9C51B39B EQ PUSH2 0x1BE JUMPI DUP1 PUSH4 0xA0A8E460 EQ PUSH2 0x1D3 JUMPI PUSH1 0x0 DUP1 REVERT JUMPDEST DUP1 PUSH4 0x5C60DA1B GT PUSH2 0xD3 JUMPI DUP1 PUSH4 0x5C60DA1B EQ PUSH2 0x13E JUMPI DUP1 PUSH4 0x683BCDBB EQ PUSH2 0x169 JUMPI DUP1 PUSH4 0x69B4ECC9 EQ PUSH2 0x17C JUMPI DUP1 PUSH4 0x7AF48C35 EQ PUSH2 0x185 JUMPI PUSH1 0x0 DUP1 REVERT JUMPDEST DUP1 PUSH4 0xBD93EB0 EQ PUSH2 0xFA JUMPI DUP1 PUSH4 0xE050E76 EQ PUSH2 0x10F JUMPI DUP1 PUSH4 0x414E28B0 EQ PUSH2 0x122 JUMPI JUMPDEST PUSH1 0x0 DUP1 REVERT JUMPDEST PUSH2 0x10D PUSH2 0x108 CALLDATASIZE PUSH1 0x4 PUSH2 0x117B JUMP JUMPDEST PUSH2 0x232 JUMP JUMPDEST STOP JUMPDEST PUSH2 0x10D PUSH2 0x11D CALLDATASIZE PUSH1 0x4 PUSH2 0x11DF JUMP JUMPDEST PUSH2 0x4DF JUMP JUMPDEST PUSH2 0x12B PUSH1 0x5 SLOAD DUP2 JUMP JUMPDEST PUSH1 0x40 MLOAD SWAP1 DUP2 MSTORE PUSH1 0x20 ADD JUMPDEST PUSH1 0x40 MLOAD DUP1 SWAP2 SUB SWAP1 RETURN JUMPDEST PUSH1 0x1 SLOAD PUSH2 0x151 SWAP1 PUSH1 0x1 PUSH1 0x1 PUSH1 0xA0 SHL SUB AND DUP2 JUMP JUMPDEST PUSH1 0x40 MLOAD PUSH1 0x1 PUSH1 0x1 PUSH1 0xA0 SHL SUB SWAP1 SWAP2 AND DUP2 MSTORE PUSH1 0x20 ADD PUSH2 0x135 JUMP JUMPDEST PUSH2 0x10D PUSH2 0x177 CALLDATASIZE PUSH1 0x4 PUSH2 0x117B JUMP JUMPDEST PUSH2 0x6D1 JUMP JUMPDEST PUSH2 0x12B PUSH1 0x6 SLOAD DUP2 JUMP JUMPDEST PUSH2 0x12B PUSH2 0x193 CALLDATASIZE PUSH1 0x4 PUSH2 0x128C JUMP JUMPDEST PUSH2 0x8EC JUMP JUMPDEST PUSH2 0x10D PUSH2 0x1A6 CALLDATASIZE PUSH1 0x4 PUSH2 0x12C9 JUMP JUMPDEST PUSH2 0x914 JUMP JUMPDEST PUSH1 0x0 SLOAD PUSH2 0x151 SWAP1 PUSH1 0x1 PUSH1 0x1 PUSH1 0xA0 SHL SUB AND DUP2 JUMP JUMPDEST PUSH2 0x1C6 PUSH2 0x9C1 JUMP JUMPDEST PUSH1 0x40 MLOAD PUSH2 0x135 SWAP2 SWAP1 PUSH2 0x1349 JUMP JUMPDEST PUSH2 0x1C6 PUSH2 0x9E0 JUMP JUMPDEST PUSH2 0x1EE PUSH2 0x1E9 CALLDATASIZE PUSH1 0x4 PUSH2 0x128C JUMP JUMPDEST PUSH2 0xA6E JUMP JUMPDEST PUSH1 0x40 MLOAD PUSH2 0x135 SWAP11 SWAP10 SWAP9 SWAP8 SWAP7 SWAP6 SWAP5 SWAP4 SWAP3 SWAP2 SWAP1 PUSH2 0x135C JUMP JUMPDEST PUSH2 0x10D PUSH2 0x212 CALLDATASIZE PUSH1 0x4 PUSH2 0x1405 JUMP JUMPDEST PUSH2 0xDBB JUMP JUMPDEST PUSH1 0x5 SLOAD PUSH2 0x12B JUMP JUMPDEST PUSH2 0x10D PUSH2 0x22D CALLDATASIZE PUSH1 0x4 PUSH2 0x12C9 JUMP JUMPDEST PUSH2 0x100D JUMP JUMPDEST PUSH1 0x0 SLOAD PUSH1 0x1 PUSH1 0x1 PUSH1 0xA0 SHL SUB AND CALLER EQ PUSH2 0x265 JUMPI PUSH1 0x40 MLOAD PUSH3 0x461BCD PUSH1 0xE5 SHL DUP2 MSTORE PUSH1 0x4 ADD PUSH2 0x25C SWAP1 PUSH2 0x14CB JUMP JUMPDEST PUSH1 0x40 MLOAD DUP1 SWAP2 SUB SWAP1 REVERT JUMPDEST PUSH1 0x0 PUSH1 0x3 DUP4 PUSH1 0x40 MLOAD PUSH2 0x277 SWAP2 SWAP1 PUSH2 0x1519 JUMP JUMPDEST SWAP1 DUP2 MSTORE PUSH1 0x20 ADD PUSH1 0x40 MLOAD DUP1 SWAP2 SUB SWAP1 KECCAK256 SWAP1 POP PUSH2 0x290 DUP4 PUSH2 0x10A3 JUMP JUMPDEST PUSH2 0x2AC JUMPI PUSH1 0x40 MLOAD PUSH3 0x461BCD PUSH1 0xE5 SHL DUP2 MSTORE PUSH1 0x4 ADD PUSH2 0x25C SWAP1 PUSH2 0x1535 JUMP JUMPDEST PUSH1 0x6 DUP2 ADD SLOAD PUSH1 0xFF AND PUSH2 0x300 JUMPI PUSH1 0x40 MLOAD PUSH3 0x461BCD PUSH1 0xE5 SHL DUP2 MSTORE PUSH1 0x20 PUSH1 0x4 DUP3 ADD MSTORE PUSH1 0x1D PUSH1 0x24 DUP3 ADD MSTORE PUSH32 0x41727469636C65206973206E6F7420612066756C6C2061727469636C65000000 PUSH1 0x44 DUP3 ADD MSTORE PUSH1 0x64 ADD PUSH2 0x25C JUMP JUMPDEST PUSH1 0x6 DUP2 ADD SLOAD PUSH2 0x100 SWAP1 DIV PUSH1 0xFF AND PUSH2 0x365 JUMPI PUSH1 0x40 MLOAD PUSH3 0x461BCD PUSH1 0xE5 SHL DUP2 MSTORE PUSH1 0x20 PUSH1 0x4 DUP3 ADD MSTORE PUSH1 0x23 PUSH1 0x24 DUP3 ADD MSTORE PUSH32 0x41727469636C65206973206E6F742061206D756C74692D706172742061727469 PUSH1 0x44 DUP3 ADD MSTORE PUSH3 0x636C65 PUSH1 0xE8 SHL PUSH1 0x64 DUP3 ADD MSTORE PUSH1 0x84 ADD PUSH2 0x25C JUMP JUMPDEST DUP1 PUSH1 0x7 ADD SLOAD DUP2 PUSH1 0x8 ADD SLOAD LT PUSH2 0x3D5 JUMPI PUSH1 0x40 MLOAD PUSH3 0x461BCD PUSH1 0xE5 SHL DUP2 MSTORE PUSH1 0x20 PUSH1 0x4 DUP3 ADD MSTORE PUSH1 0x30 PUSH1 0x24 DUP3 ADD MSTORE PUSH32 0x416C6C207061727473206F66207468652061727469636C652068617665206265 PUSH1 0x44 DUP3 ADD MSTORE PUSH16 0x195B88185B1C9958591E481859191959 PUSH1 0x82 SHL PUSH1 0x64 DUP3 ADD MSTORE PUSH1 0x84 ADD PUSH2 0x25C JUMP JUMPDEST DUP1 PUSH1 0x2 ADD DUP3 PUSH1 0x40 MLOAD PUSH1 0x20 ADD PUSH2 0x3EB SWAP3 SWAP2 SWAP1 PUSH2 0x162A JUMP JUMPDEST PUSH1 0x40 MLOAD PUSH1 0x20 DUP2 DUP4 SUB SUB DUP2 MSTORE SWAP1 PUSH1 0x40 MSTORE DUP2 PUSH1 0x2 ADD SWAP1 DUP2 PUSH2 0x40A SWAP2 SWAP1 PUSH2 0x169E JUMP JUMPDEST POP PUSH1 0x8 DUP2 ADD DUP1 SLOAD SWAP1 PUSH1 0x0 PUSH2 0x41D DUP4 PUSH2 0x175E JUMP JUMPDEST SWAP1 SWAP2 SSTORE POP POP TIMESTAMP PUSH1 0x5 DUP3 ADD SSTORE PUSH1 0x40 MLOAD PUSH1 0x4 SWAP1 PUSH2 0x439 SWAP1 DUP6 SWAP1 PUSH2 0x1519 JUMP JUMPDEST SWAP1 DUP2 MSTORE PUSH1 0x40 MLOAD SWAP1 DUP2 SWAP1 SUB PUSH1 0x20 ADD SWAP1 KECCAK256 DUP1 SLOAD SWAP1 PUSH1 0x0 PUSH2 0x456 DUP4 PUSH2 0x175E JUMP JUMPDEST SWAP1 SWAP2 SSTORE POP POP PUSH1 0x6 DUP1 SLOAD SWAP1 PUSH1 0x0 PUSH2 0x46B DUP4 PUSH2 0x175E JUMP JUMPDEST SWAP2 SWAP1 POP SSTORE POP DUP1 PUSH1 0x7 ADD SLOAD DUP2 PUSH1 0x8 ADD SLOAD SUB PUSH2 0x48D JUMPI PUSH1 0x6 DUP2 ADD DUP1 SLOAD PUSH2 0xFF00 NOT AND SWAP1 SSTORE JUMPDEST DUP3 PUSH1 0x40 MLOAD PUSH2 0x49B SWAP2 SWAP1 PUSH2 0x1519 JUMP JUMPDEST PUSH1 0x40 MLOAD DUP1 SWAP2 SUB SWAP1 KECCAK256 PUSH32 0xAFDAE258FC8810613D877811FD188A2D851B061E245CDA31052126B649370177 DUP4 PUSH1 0x40 MLOAD PUSH2 0x4D2 SWAP2 SWAP1 PUSH2 0x1349 JUMP JUMPDEST PUSH1 0x40 MLOAD DUP1 SWAP2 SUB SWAP1 LOG2 POP POP POP JUMP JUMPDEST PUSH1 0x0 SLOAD PUSH1 0x1 PUSH1 0x1 PUSH1 0xA0 SHL SUB AND CALLER EQ PUSH2 0x509 JUMPI PUSH1 0x40 MLOAD PUSH3 0x461BCD PUSH1 0xE5 SHL DUP2 MSTORE PUSH1 0x4 ADD PUSH2 0x25C SWAP1 PUSH2 0x14CB JUMP JUMPDEST PUSH2 0x512 DUP5 PUSH2 0x10A3 JUMP JUMPDEST ISZERO PUSH2 0x52F JUMPI PUSH1 0x40 MLOAD PUSH3 0x461BCD PUSH1 0xE5 SHL DUP2 MSTORE PUSH1 0x4 ADD PUSH2 0x25C SWAP1 PUSH2 0x1785 JUMP JUMPDEST PUSH1 0x40 MLOAD DUP1 PUSH2 0x140 ADD PUSH1 0x40 MSTORE DUP1 DUP6 DUP2 MSTORE PUSH1 0x20 ADD DUP5 DUP2 MSTORE PUSH1 0x20 ADD PUSH1 0x40 MLOAD DUP1 PUSH1 0x20 ADD PUSH1 0x40 MSTORE DUP1 PUSH1 0x0 DUP2 MSTORE POP DUP2 MSTORE PUSH1 0x20 ADD DUP4 DUP2 MSTORE PUSH1 0x20 ADD DUP3 DUP2 MSTORE PUSH1 0x20 ADD TIMESTAMP DUP2 MSTORE PUSH1 0x20 ADD PUSH1 0x0 ISZERO ISZERO DUP2 MSTORE PUSH1 0x20 ADD PUSH1 0x0 ISZERO ISZERO DUP2 MSTORE PUSH1 0x20 ADD PUSH1 0x0 DUP2 MSTORE PUSH1 0x20 ADD PUSH1 0x0 DUP2 MSTORE POP PUSH1 0x3 DUP6 PUSH1 0x40 MLOAD PUSH2 0x59C SWAP2 SWAP1 PUSH2 0x1519 JUMP JUMPDEST SWAP1 DUP2 MSTORE PUSH1 0x40 MLOAD SWAP1 DUP2 SWAP1 SUB PUSH1 0x20 ADD SWAP1 KECCAK256 DUP2 MLOAD DUP2 SWAP1 PUSH2 0x5B9 SWAP1 DUP3 PUSH2 0x169E JUMP JUMPDEST POP PUSH1 0x20 DUP3 ADD MLOAD PUSH1 0x1 DUP3 ADD SWAP1 PUSH2 0x5CE SWAP1 DUP3 PUSH2 0x169E JUMP JUMPDEST POP PUSH1 0x40 DUP3 ADD MLOAD PUSH1 0x2 DUP3 ADD SWAP1 PUSH2 0x5E3 SWAP1 DUP3 PUSH2 0x169E JUMP JUMPDEST POP PUSH1 0x60 DUP3 ADD MLOAD PUSH1 0x3 DUP3 ADD SWAP1 PUSH2 0x5F8 SWAP1 DUP3 PUSH2 0x169E JUMP JUMPDEST POP PUSH1 0x80 DUP3 ADD MLOAD PUSH1 0x4 DUP3 ADD SWAP1 PUSH2 0x60D SWAP1 DUP3 PUSH2 0x169E JUMP JUMPDEST POP PUSH1 0xA0 DUP3 ADD MLOAD PUSH1 0x5 DUP3 DUP2 ADD SWAP2 SWAP1 SWAP2 SSTORE PUSH1 0xC0 DUP4 ADD MLOAD PUSH1 0x6 DUP4 ADD DUP1 SLOAD PUSH1 0xE0 DUP7 ADD MLOAD PUSH2 0xFFFF NOT SWAP1 SWAP2 AND SWAP3 ISZERO ISZERO PUSH2 0xFF00 NOT AND SWAP3 SWAP1 SWAP3 OR PUSH2 0x100 SWAP3 ISZERO ISZERO DUP4 MUL OR SWAP1 SSTORE DUP4 ADD MLOAD PUSH1 0x7 DUP4 ADD SSTORE PUSH2 0x120 SWAP1 SWAP3 ADD MLOAD PUSH1 0x8 SWAP1 SWAP2 ADD SSTORE DUP1 SLOAD SWAP1 PUSH1 0x0 PUSH2 0x66D DUP4 PUSH2 0x175E JUMP JUMPDEST SWAP2 SWAP1 POP SSTORE POP DUP4 PUSH1 0x40 MLOAD PUSH2 0x680 SWAP2 SWAP1 PUSH2 0x1519 JUMP JUMPDEST PUSH1 0x40 MLOAD DUP1 SWAP2 SUB SWAP1 KECCAK256 PUSH32 0x1384A902C2EA3E742DED97DCE0076C9A32091B66793D1A6D71D411DFAC6AC7F3 DUP5 DUP5 DUP5 PUSH1 0x0 DUP1 PUSH1 0x0 PUSH1 0x40 MLOAD PUSH2 0x6C3 SWAP7 SWAP6 SWAP5 SWAP4 SWAP3 SWAP2 SWAP1 PUSH2 0x17CD JUMP JUMPDEST PUSH1 0x40 MLOAD DUP1 SWAP2 SUB SWAP1 LOG2 POP POP POP POP JUMP JUMPDEST PUSH1 0x0 SLOAD PUSH1 0x1 PUSH1 0x1 PUSH1 0xA0 SHL SUB AND CALLER EQ PUSH2 0x6FB JUMPI PUSH1 0x40 MLOAD PUSH3 0x461BCD PUSH1 0xE5 SHL DUP2 MSTORE PUSH1 0x4 ADD PUSH2 0x25C SWAP1 PUSH2 0x14CB JUMP JUMPDEST PUSH1 0x0 PUSH1 0x3 DUP4 PUSH1 0x40 MLOAD PUSH2 0x70D SWAP2 SWAP1 PUSH2 0x1519 JUMP JUMPDEST SWAP1 DUP2 MSTORE PUSH1 0x20 ADD PUSH1 0x40 MLOAD DUP1 SWAP2 SUB SWAP1 KECCAK256 SWAP1 POP PUSH2 0x726 DUP4 PUSH2 0x10A3 JUMP JUMPDEST PUSH2 0x742 JUMPI PUSH1 0x40 MLOAD PUSH3 0x461BCD PUSH1 0xE5 SHL DUP2 MSTORE PUSH1 0x4 ADD PUSH2 0x25C SWAP1 PUSH2 0x1535 JUMP JUMPDEST PUSH1 0x6 DUP2 ADD SLOAD PUSH1 0xFF AND PUSH2 0x796 JUMPI PUSH1 0x40 MLOAD PUSH3 0x461BCD PUSH1 0xE5 SHL DUP2 MSTORE PUSH1 0x20 PUSH1 0x4 DUP3 ADD MSTORE PUSH1 0x1D PUSH1 0x24 DUP3 ADD MSTORE PUSH32 0x41727469636C65206973206E6F7420612066756C6C2061727469636C65000000 PUSH1 0x44 DUP3 ADD MSTORE PUSH1 0x64 ADD PUSH2 0x25C JUMP JUMPDEST PUSH1 0x6 DUP2 ADD SLOAD PUSH2 0x100 SWAP1 DIV PUSH1 0xFF AND ISZERO PUSH2 0x813 JUMPI DUP1 PUSH1 0x7 ADD SLOAD DUP2 PUSH1 0x8 ADD SLOAD EQ PUSH2 0x813 JUMPI PUSH1 0x40 MLOAD PUSH3 0x461BCD PUSH1 0xE5 SHL DUP2 MSTORE PUSH1 0x20 PUSH1 0x4 DUP3 ADD MSTORE PUSH1 0x2B PUSH1 0x24 DUP3 ADD MSTORE PUSH32 0x4D756C74692D706172742061727469636C65206973207374696C6C2061636365 PUSH1 0x44 DUP3 ADD MSTORE PUSH11 0x7074696E67207061727473 PUSH1 0xA8 SHL PUSH1 0x64 DUP3 ADD MSTORE PUSH1 0x84 ADD PUSH2 0x25C JUMP JUMPDEST DUP1 PUSH1 0x2 ADD PUSH1 0x40 MLOAD PUSH2 0x824 SWAP2 SWAP1 PUSH2 0x1837 JUMP JUMPDEST PUSH1 0x40 MLOAD DUP1 SWAP2 SUB SWAP1 KECCAK256 DUP3 DUP1 MLOAD SWAP1 PUSH1 0x20 ADD KECCAK256 SUB PUSH2 0x881 JUMPI PUSH1 0x40 MLOAD PUSH3 0x461BCD PUSH1 0xE5 SHL DUP2 MSTORE PUSH1 0x20 PUSH1 0x4 DUP3 ADD MSTORE PUSH1 0x1C PUSH1 0x24 DUP3 ADD MSTORE PUSH32 0x41727469636C6520636F6E74656E74206973206964656E746963616C00000000 PUSH1 0x44 DUP3 ADD MSTORE PUSH1 0x64 ADD PUSH2 0x25C JUMP JUMPDEST PUSH1 0x2 DUP2 ADD PUSH2 0x88F DUP4 DUP3 PUSH2 0x169E JUMP JUMPDEST POP TIMESTAMP PUSH1 0x5 DUP3 ADD SSTORE PUSH1 0x40 MLOAD PUSH1 0x4 SWAP1 PUSH2 0x8A7 SWAP1 DUP6 SWAP1 PUSH2 0x1519 JUMP JUMPDEST SWAP1 DUP2 MSTORE PUSH1 0x40 MLOAD SWAP1 DUP2 SWAP1 SUB PUSH1 0x20 ADD SWAP1 KECCAK256 DUP1 SLOAD SWAP1 PUSH1 0x0 PUSH2 0x8C4 DUP4 PUSH2 0x175E JUMP JUMPDEST SWAP1 SWAP2 SSTORE POP POP PUSH1 0x6 DUP1 SLOAD SWAP1 PUSH1 0x0 PUSH2 0x8D9 DUP4 PUSH2 0x175E JUMP JUMPDEST SWAP2 SWAP1 POP SSTORE POP DUP3 PUSH1 0x40 MLOAD PUSH2 0x49B SWAP2 SWAP1 PUSH2 0x1519 JUMP JUMPDEST PUSH1 0x0 PUSH1 0x4 DUP3 PUSH1 0x40 MLOAD PUSH2 0x8FE SWAP2 SWAP1 PUSH2 0x1519 JUMP JUMPDEST SWAP1 DUP2 MSTORE PUSH1 0x20 ADD PUSH1 0x40 MLOAD DUP1 SWAP2 SUB SWAP1 KECCAK256 SLOAD SWAP1 POP SWAP2 SWAP1 POP JUMP JUMPDEST PUSH1 0x0 SLOAD PUSH1 0x1 PUSH1 0x1 PUSH1 0xA0 SHL SUB AND CALLER EQ PUSH2 0x93E JUMPI PUSH1 0x40 MLOAD PUSH3 0x461BCD PUSH1 0xE5 SHL DUP2 MSTORE PUSH1 0x4 ADD PUSH2 0x25C SWAP1 PUSH2 0x14CB JUMP JUMPDEST PUSH1 0x1 PUSH1 0x1 PUSH1 0xA0 SHL SUB DUP2 AND PUSH2 0x99F JUMPI PUSH1 0x40 MLOAD PUSH3 0x461BCD PUSH1 0xE5 SHL DUP2 MSTORE PUSH1 0x20 PUSH1 0x4 DUP3 ADD MSTORE PUSH1 0x22 PUSH1 0x24 DUP3 ADD MSTORE PUSH32 0x496E76616C6964206E657720696D706C656D656E746174696F6E206164647265 PUSH1 0x44 DUP3 ADD MSTORE PUSH2 0x7373 PUSH1 0xF0 SHL PUSH1 0x64 DUP3 ADD MSTORE PUSH1 0x84 ADD PUSH2 0x25C JUMP JUMPDEST PUSH1 0x1 DUP1 SLOAD PUSH1 0x1 PUSH1 0x1 PUSH1 0xA0 SHL SUB NOT AND PUSH1 0x1 PUSH1 0x1 PUSH1 0xA0 SHL SUB SWAP3 SWAP1 SWAP3 AND SWAP2 SWAP1 SWAP2 OR SWAP1 SSTORE JUMP JUMPDEST PUSH1 0x40 MLOAD DUP1 PUSH2 0x140 ADD PUSH1 0x40 MSTORE DUP1 PUSH2 0x119 DUP2 MSTORE PUSH1 0x20 ADD PUSH2 0x188F PUSH2 0x119 SWAP2 CODECOPY DUP2 JUMP JUMPDEST PUSH1 0x2 DUP1 SLOAD PUSH2 0x9ED SWAP1 PUSH2 0x157D JUMP JUMPDEST DUP1 PUSH1 0x1F ADD PUSH1 0x20 DUP1 SWAP2 DIV MUL PUSH1 0x20 ADD PUSH1 0x40 MLOAD SWAP1 DUP2 ADD PUSH1 0x40 MSTORE DUP1 SWAP3 SWAP2 SWAP1 DUP2 DUP2 MSTORE PUSH1 0x20 ADD DUP3 DUP1 SLOAD PUSH2 0xA19 SWAP1 PUSH2 0x157D JUMP JUMPDEST DUP1 ISZERO PUSH2 0xA66 JUMPI DUP1 PUSH1 0x1F LT PUSH2 0xA3B JUMPI PUSH2 0x100 DUP1 DUP4 SLOAD DIV MUL DUP4 MSTORE SWAP2 PUSH1 0x20 ADD SWAP2 PUSH2 0xA66 JUMP JUMPDEST DUP3 ADD SWAP2 SWAP1 PUSH1 0x0 MSTORE PUSH1 0x20 PUSH1 0x0 KECCAK256 SWAP1 JUMPDEST DUP2 SLOAD DUP2 MSTORE SWAP1 PUSH1 0x1 ADD SWAP1 PUSH1 0x20 ADD DUP1 DUP4 GT PUSH2 0xA49 JUMPI DUP3 SWAP1 SUB PUSH1 0x1F AND DUP3 ADD SWAP2 JUMPDEST POP POP POP POP POP DUP2 JUMP JUMPDEST PUSH1 0x60 DUP1 PUSH1 0x60 DUP1 PUSH1 0x60 PUSH1 0x0 DUP1 PUSH1 0x0 DUP1 PUSH1 0x0 DUP1 PUSH1 0x3 DUP13 PUSH1 0x40 MLOAD PUSH2 0xA8F SWAP2 SWAP1 PUSH2 0x1519 JUMP JUMPDEST SWAP1 DUP2 MSTORE PUSH1 0x40 MLOAD SWAP1 DUP2 SWAP1 SUB PUSH1 0x20 ADD SWAP1 KECCAK256 PUSH1 0x5 DUP2 ADD SLOAD PUSH1 0x6 DUP3 ADD SLOAD PUSH1 0x7 DUP4 ADD SLOAD PUSH1 0x8 DUP5 ADD SLOAD DUP5 SLOAD SWAP5 SWAP6 POP DUP6 SWAP5 PUSH1 0x1 DUP7 ADD SWAP5 PUSH1 0x2 DUP8 ADD SWAP5 PUSH1 0x3 DUP9 ADD SWAP5 PUSH1 0x4 DUP10 ADD SWAP5 SWAP3 SWAP4 PUSH1 0xFF DUP1 DUP5 AND SWAP5 PUSH2 0x100 SWAP1 SWAP5 DIV AND SWAP3 SWAP1 DUP11 SWAP1 PUSH2 0xAE9 SWAP1 PUSH2 0x157D JUMP JUMPDEST DUP1 PUSH1 0x1F ADD PUSH1 0x20 DUP1 SWAP2 DIV MUL PUSH1 0x20 ADD PUSH1 0x40 MLOAD SWAP1 DUP2 ADD PUSH1 0x40 MSTORE DUP1 SWAP3 SWAP2 SWAP1 DUP2 DUP2 MSTORE PUSH1 0x20 ADD DUP3 DUP1 SLOAD PUSH2 0xB15 SWAP1 PUSH2 0x157D JUMP JUMPDEST DUP1 ISZERO PUSH2 0xB62 JUMPI DUP1 PUSH1 0x1F LT PUSH2 0xB37 JUMPI PUSH2 0x100 DUP1 DUP4 SLOAD DIV MUL DUP4 MSTORE SWAP2 PUSH1 0x20 ADD SWAP2 PUSH2 0xB62 JUMP JUMPDEST DUP3 ADD SWAP2 SWAP1 PUSH1 0x0 MSTORE PUSH1 0x20 PUSH1 0x0 KECCAK256 SWAP1 JUMPDEST DUP2 SLOAD DUP2 MSTORE SWAP1 PUSH1 0x1 ADD SWAP1 PUSH1 0x20 ADD DUP1 DUP4 GT PUSH2 0xB45 JUMPI DUP3 SWAP1 SUB PUSH1 0x1F AND DUP3 ADD SWAP2 JUMPDEST POP POP POP POP POP SWAP10 POP DUP9 DUP1 SLOAD PUSH2 0xB75 SWAP1 PUSH2 0x157D JUMP JUMPDEST DUP1 PUSH1 0x1F ADD PUSH1 0x20 DUP1 SWAP2 DIV MUL PUSH1 0x20 ADD PUSH1 0x40 MLOAD SWAP1 DUP2 ADD PUSH1 0x40 MSTORE DUP1 SWAP3 SWAP2 SWAP1 DUP2 DUP2 MSTORE PUSH1 0x20 ADD DUP3 DUP1 SLOAD PUSH2 0xBA1 SWAP1 PUSH2 0x157D JUMP JUMPDEST DUP1 ISZERO PUSH2 0xBEE JUMPI DUP1 PUSH1 0x1F LT PUSH2 0xBC3 JUMPI PUSH2 0x100 DUP1 DUP4 SLOAD DIV MUL DUP4 MSTORE SWAP2 PUSH1 0x20 ADD SWAP2 PUSH2 0xBEE JUMP JUMPDEST DUP3 ADD SWAP2 SWAP1 PUSH1 0x0 MSTORE PUSH1 0x20 PUSH1 0x0 KECCAK256 SWAP1 JUMPDEST DUP2 SLOAD DUP2 MSTORE SWAP1 PUSH1 0x1 ADD SWAP1 PUSH1 0x20 ADD DUP1 DUP4 GT PUSH2 0xBD1 JUMPI DUP3 SWAP1 SUB PUSH1 0x1F AND DUP3 ADD SWAP2 JUMPDEST POP POP POP POP POP SWAP9 POP DUP8 DUP1 SLOAD PUSH2 0xC01 SWAP1 PUSH2 0x157D JUMP JUMPDEST DUP1 PUSH1 0x1F ADD PUSH1 0x20 DUP1 SWAP2 DIV MUL PUSH1 0x20 ADD PUSH1 0x40 MLOAD SWAP1 DUP2 ADD PUSH1 0x40 MSTORE DUP1 SWAP3 SWAP2 SWAP1 DUP2 DUP2 MSTORE PUSH1 0x20 ADD DUP3 DUP1 SLOAD PUSH2 0xC2D SWAP1 PUSH2 0x157D JUMP JUMPDEST DUP1 ISZERO PUSH2 0xC7A JUMPI DUP1 PUSH1 0x1F LT PUSH2 0xC4F JUMPI PUSH2 0x100 DUP1 DUP4 SLOAD DIV MUL DUP4 MSTORE SWAP2 PUSH1 0x20 ADD SWAP2 PUSH2 0xC7A JUMP JUMPDEST DUP3 ADD SWAP2 SWAP1 PUSH1 0x0 MSTORE PUSH1 0x20 PUSH1 0x0 KECCAK256 SWAP1 JUMPDEST DUP2 SLOAD DUP2 MSTORE SWAP1 PUSH1 0x1 ADD SWAP1 PUSH1 0x20 ADD DUP1 DUP4 GT PUSH2 0xC5D JUMPI DUP3 SWAP1 SUB PUSH1 0x1F AND DUP3 ADD SWAP2 JUMPDEST POP POP POP POP POP SWAP8 POP DUP7 DUP1 SLOAD PUSH2 0xC8D SWAP1 PUSH2 0x157D JUMP JUMPDEST DUP1 PUSH1 0x1F ADD PUSH1 0x20 DUP1 SWAP2 DIV MUL PUSH1 0x20 ADD PUSH1 0x40 MLOAD SWAP1 DUP2 ADD PUSH1 0x40 MSTORE DUP1 SWAP3 SWAP2 SWAP1 DUP2 DUP2 MSTORE PUSH1 0x20 ADD DUP3 DUP1 SLOAD PUSH2 0xCB9 SWAP1 PUSH2 0x157D JUMP JUMPDEST DUP1 ISZERO PUSH2 0xD06 JUMPI DUP1 PUSH1 0x1F LT PUSH2 0xCDB JUMPI PUSH2 0x100 DUP1 DUP4 SLOAD DIV MUL DUP4 MSTORE SWAP2 PUSH1 0x20 ADD SWAP2 PUSH2 0xD06 JUMP JUMPDEST DUP3 ADD SWAP2 SWAP1 PUSH1 0x0 MSTORE PUSH1 0x20 PUSH1 0x0 KECCAK256 SWAP1 JUMPDEST DUP2 SLOAD DUP2 MSTORE SWAP1 PUSH1 0x1 ADD SWAP1 PUSH1 0x20 ADD DUP1 DUP4 GT PUSH2 0xCE9 JUMPI DUP3 SWAP1 SUB PUSH1 0x1F AND DUP3 ADD SWAP2 JUMPDEST POP POP POP POP POP SWAP7 POP DUP6 DUP1 SLOAD PUSH2 0xD19 SWAP1 PUSH2 0x157D JUMP JUMPDEST DUP1 PUSH1 0x1F ADD PUSH1 0x20 DUP1 SWAP2 DIV MUL PUSH1 0x20 ADD PUSH1 0x40 MLOAD SWAP1 DUP2 ADD PUSH1 0x40 MSTORE DUP1 SWAP3 SWAP2 SWAP1 DUP2 DUP2 MSTORE PUSH1 0x20 ADD DUP3 DUP1 SLOAD PUSH2 0xD45 SWAP1 PUSH2 0x157D JUMP JUMPDEST DUP1 ISZERO PUSH2 0xD92 JUMPI DUP1 PUSH1 0x1F LT PUSH2 0xD67 JUMPI PUSH2 0x100 DUP1 DUP4 SLOAD DIV MUL DUP4 MSTORE SWAP2 PUSH1 0x20 ADD SWAP2 PUSH2 0xD92 JUMP JUMPDEST DUP3 ADD SWAP2 SWAP1 PUSH1 0x0 MSTORE PUSH1 0x20 PUSH1 0x0 KECCAK256 SWAP1 JUMPDEST DUP2 SLOAD DUP2 MSTORE SWAP1 PUSH1 0x1 ADD SWAP1 PUSH1 0x20 ADD DUP1 DUP4 GT PUSH2 0xD75 JUMPI DUP3 SWAP1 SUB PUSH1 0x1F AND DUP3 ADD SWAP2 JUMPDEST POP POP POP POP POP SWAP6 POP SWAP11 POP SWAP11 POP SWAP11 POP SWAP11 POP SWAP11 POP SWAP11 POP SWAP11 POP SWAP11 POP SWAP11 POP SWAP11 POP POP SWAP2 SWAP4 SWAP6 SWAP8 SWAP10 POP SWAP2 SWAP4 SWAP6 SWAP8 SWAP10 JUMP JUMPDEST PUSH1 0x0 SLOAD PUSH1 0x1 PUSH1 0x1 PUSH1 0xA0 SHL SUB AND CALLER EQ PUSH2 0xDE5 JUMPI PUSH1 0x40 MLOAD PUSH3 0x461BCD PUSH1 0xE5 SHL DUP2 MSTORE PUSH1 0x4 ADD PUSH2 0x25C SWAP1 PUSH2 0x14CB JUMP JUMPDEST PUSH2 0xDEE DUP7 PUSH2 0x10A3 JUMP JUMPDEST ISZERO PUSH2 0xE0B JUMPI PUSH1 0x40 MLOAD PUSH3 0x461BCD PUSH1 0xE5 SHL DUP2 MSTORE PUSH1 0x4 ADD PUSH2 0x25C SWAP1 PUSH2 0x1785 JUMP JUMPDEST DUP2 ISZERO DUP1 PUSH2 0xE20 JUMPI POP DUP2 DUP1 ISZERO PUSH2 0xE20 JUMPI POP PUSH1 0x0 DUP2 GT JUMPDEST PUSH2 0xE6C JUMPI PUSH1 0x40 MLOAD PUSH3 0x461BCD PUSH1 0xE5 SHL DUP2 MSTORE PUSH1 0x20 PUSH1 0x4 DUP3 ADD MSTORE PUSH1 0x18 PUSH1 0x24 DUP3 ADD MSTORE PUSH32 0x496E76616C6964206C6173742070617274206E756D6265720000000000000000 PUSH1 0x44 DUP3 ADD MSTORE PUSH1 0x64 ADD PUSH2 0x25C JUMP JUMPDEST PUSH1 0x40 MLOAD DUP1 PUSH2 0x140 ADD PUSH1 0x40 MSTORE DUP1 DUP8 DUP2 MSTORE PUSH1 0x20 ADD DUP7 DUP2 MSTORE PUSH1 0x20 ADD DUP6 DUP2 MSTORE PUSH1 0x20 ADD PUSH1 0x40 MLOAD DUP1 PUSH1 0x20 ADD PUSH1 0x40 MSTORE DUP1 PUSH1 0x0 DUP2 MSTORE POP DUP2 MSTORE PUSH1 0x20 ADD DUP5 DUP2 MSTORE PUSH1 0x20 ADD TIMESTAMP DUP2 MSTORE PUSH1 0x20 ADD PUSH1 0x1 ISZERO ISZERO DUP2 MSTORE PUSH1 0x20 ADD DUP4 ISZERO ISZERO DUP2 MSTORE PUSH1 0x20 ADD DUP3 DUP2 MSTORE PUSH1 0x20 ADD PUSH1 0x0 DUP2 MSTORE POP PUSH1 0x3 DUP8 PUSH1 0x40 MLOAD PUSH2 0xED7 SWAP2 SWAP1 PUSH2 0x1519 JUMP JUMPDEST SWAP1 DUP2 MSTORE PUSH1 0x40 MLOAD SWAP1 DUP2 SWAP1 SUB PUSH1 0x20 ADD SWAP1 KECCAK256 DUP2 MLOAD DUP2 SWAP1 PUSH2 0xEF4 SWAP1 DUP3 PUSH2 0x169E JUMP JUMPDEST POP PUSH1 0x20 DUP3 ADD MLOAD PUSH1 0x1 DUP3 ADD SWAP1 PUSH2 0xF09 SWAP1 DUP3 PUSH2 0x169E JUMP JUMPDEST POP PUSH1 0x40 DUP3 ADD MLOAD PUSH1 0x2 DUP3 ADD SWAP1 PUSH2 0xF1E SWAP1 DUP3 PUSH2 0x169E JUMP JUMPDEST POP PUSH1 0x60 DUP3 ADD MLOAD PUSH1 0x3 DUP3 ADD SWAP1 PUSH2 0xF33 SWAP1 DUP3 PUSH2 0x169E JUMP JUMPDEST POP PUSH1 0x80 DUP3 ADD MLOAD PUSH1 0x4 DUP3 ADD SWAP1 PUSH2 0xF48 SWAP1 DUP3 PUSH2 0x169E JUMP JUMPDEST POP PUSH1 0xA0 DUP3 ADD MLOAD PUSH1 0x5 DUP3 DUP2 ADD SWAP2 SWAP1 SWAP2 SSTORE PUSH1 0xC0 DUP4 ADD MLOAD PUSH1 0x6 DUP4 ADD DUP1 SLOAD PUSH1 0xE0 DUP7 ADD MLOAD PUSH2 0xFFFF NOT SWAP1 SWAP2 AND SWAP3 ISZERO ISZERO PUSH2 0xFF00 NOT AND SWAP3 SWAP1 SWAP3 OR PUSH2 0x100 SWAP3 ISZERO ISZERO DUP4 MUL OR SWAP1 SSTORE DUP4 ADD MLOAD PUSH1 0x7 DUP4 ADD SSTORE PUSH2 0x120 SWAP1 SWAP3 ADD MLOAD PUSH1 0x8 SWAP1 SWAP2 ADD SSTORE DUP1 SLOAD SWAP1 PUSH1 0x0 PUSH2 0xFA8 DUP4 PUSH2 0x175E JUMP JUMPDEST SWAP2 SWAP1 POP SSTORE POP DUP6 PUSH1 0x40 MLOAD PUSH2 0xFBB SWAP2 SWAP1 PUSH2 0x1519 JUMP JUMPDEST PUSH1 0x40 MLOAD DUP1 SWAP2 SUB SWAP1 KECCAK256 PUSH32 0x1384A902C2EA3E742DED97DCE0076C9A32091B66793D1A6D71D411DFAC6AC7F3 DUP7 DUP7 DUP7 PUSH1 0x1 DUP8 DUP8 PUSH1 0x40 MLOAD PUSH2 0xFFD SWAP7 SWAP6 SWAP5 SWAP4 SWAP3 SWAP2 SWAP1 PUSH2 0x1843 JUMP JUMPDEST PUSH1 0x40 MLOAD DUP1 SWAP2 SUB SWAP1 LOG2 POP POP POP POP POP POP JUMP JUMPDEST PUSH1 0x0 SLOAD PUSH1 0x1 PUSH1 0x1 PUSH1 0xA0 SHL SUB AND CALLER EQ PUSH2 0x1037 JUMPI PUSH1 0x40 MLOAD PUSH3 0x461BCD PUSH1 0xE5 SHL DUP2 MSTORE PUSH1 0x4 ADD PUSH2 0x25C SWAP1 PUSH2 0x14CB JUMP JUMPDEST PUSH1 0x1 PUSH1 0x1 PUSH1 0xA0 SHL SUB DUP2 AND PUSH2 0x1081 JUMPI PUSH1 0x40 MLOAD PUSH3 0x461BCD PUSH1 0xE5 SHL DUP2 MSTORE PUSH1 0x20 PUSH1 0x4 DUP3 ADD MSTORE PUSH1 0x11 PUSH1 0x24 DUP3 ADD MSTORE PUSH17 0x24B73B30B634B2103732BB9037BBB732B9 PUSH1 0x79 SHL PUSH1 0x44 DUP3 ADD MSTORE PUSH1 0x64 ADD PUSH2 0x25C JUMP JUMPDEST PUSH1 0x0 DUP1 SLOAD PUSH1 0x1 PUSH1 0x1 PUSH1 0xA0 SHL SUB NOT AND PUSH1 0x1 PUSH1 0x1 PUSH1 0xA0 SHL SUB SWAP3 SWAP1 SWAP3 AND SWAP2 SWAP1 SWAP2 OR SWAP1 SSTORE JUMP JUMPDEST PUSH1 0x0 PUSH1 0x3 DUP3 PUSH1 0x40 MLOAD PUSH2 0x10B5 SWAP2 SWAP1 PUSH2 0x1519 JUMP JUMPDEST SWAP1 DUP2 MSTORE PUSH1 0x40 MLOAD SWAP1 DUP2 SWAP1 SUB PUSH1 0x20 ADD SWAP1 KECCAK256 DUP1 SLOAD PUSH2 0x10CF SWAP1 PUSH2 0x157D JUMP JUMPDEST ISZERO ISZERO SWAP4 SWAP3 POP POP POP JUMP JUMPDEST PUSH4 0x4E487B71 PUSH1 0xE0 SHL PUSH1 0x0 MSTORE PUSH1 0x41 PUSH1 0x4 MSTORE PUSH1 0x24 PUSH1 0x0 REVERT JUMPDEST PUSH1 0x0 DUP3 PUSH1 0x1F DUP4 ADD SLT PUSH2 0x10FF JUMPI PUSH1 0x0 DUP1 REVERT JUMPDEST DUP2 CALLDATALOAD PUSH8 0xFFFFFFFFFFFFFFFF DUP1 DUP3 GT ISZERO PUSH2 0x111A JUMPI PUSH2 0x111A PUSH2 0x10D8 JUMP JUMPDEST PUSH1 0x40 MLOAD PUSH1 0x1F DUP4 ADD PUSH1 0x1F NOT SWAP1 DUP2 AND PUSH1 0x3F ADD AND DUP2 ADD SWAP1 DUP3 DUP3 GT DUP2 DUP4 LT OR ISZERO PUSH2 0x1142 JUMPI PUSH2 0x1142 PUSH2 0x10D8 JUMP JUMPDEST DUP2 PUSH1 0x40 MSTORE DUP4 DUP2 MSTORE DUP7 PUSH1 0x20 DUP6 DUP9 ADD ADD GT ISZERO PUSH2 0x115B JUMPI PUSH1 0x0 DUP1 REVERT JUMPDEST DUP4 PUSH1 0x20 DUP8 ADD PUSH1 0x20 DUP4 ADD CALLDATACOPY PUSH1 0x0 PUSH1 0x20 DUP6 DUP4 ADD ADD MSTORE DUP1 SWAP5 POP POP POP POP POP SWAP3 SWAP2 POP POP JUMP JUMPDEST PUSH1 0x0 DUP1 PUSH1 0x40 DUP4 DUP6 SUB SLT ISZERO PUSH2 0x118E JUMPI PUSH1 0x0 DUP1 REVERT JUMPDEST DUP3 CALLDATALOAD PUSH8 0xFFFFFFFFFFFFFFFF DUP1 DUP3 GT ISZERO PUSH2 0x11A6 JUMPI PUSH1 0x0 DUP1 REVERT JUMPDEST PUSH2 0x11B2 DUP7 DUP4 DUP8 ADD PUSH2 0x10EE JUMP JUMPDEST SWAP4 POP PUSH1 0x20 DUP6 ADD CALLDATALOAD SWAP2 POP DUP1 DUP3 GT ISZERO PUSH2 0x11C8 JUMPI PUSH1 0x0 DUP1 REVERT JUMPDEST POP PUSH2 0x11D5 DUP6 DUP3 DUP7 ADD PUSH2 0x10EE JUMP JUMPDEST SWAP2 POP POP SWAP3 POP SWAP3 SWAP1 POP JUMP JUMPDEST PUSH1 0x0 DUP1 PUSH1 0x0 DUP1 PUSH1 0x80 DUP6 DUP8 SUB SLT ISZERO PUSH2 0x11F5 JUMPI PUSH1 0x0 DUP1 REVERT JUMPDEST DUP5 CALLDATALOAD PUSH8 0xFFFFFFFFFFFFFFFF DUP1 DUP3 GT ISZERO PUSH2 0x120D JUMPI PUSH1 0x0 DUP1 REVERT JUMPDEST PUSH2 0x1219 DUP9 DUP4 DUP10 ADD PUSH2 0x10EE JUMP JUMPDEST SWAP6 POP PUSH1 0x20 DUP8 ADD CALLDATALOAD SWAP2 POP DUP1 DUP3 GT ISZERO PUSH2 0x122F JUMPI PUSH1 0x0 DUP1 REVERT JUMPDEST PUSH2 0x123B DUP9 DUP4 DUP10 ADD PUSH2 0x10EE JUMP JUMPDEST SWAP5 POP PUSH1 0x40 DUP8 ADD CALLDATALOAD SWAP2 POP DUP1 DUP3 GT ISZERO PUSH2 0x1251 JUMPI PUSH1 0x0 DUP1 REVERT JUMPDEST PUSH2 0x125D DUP9 DUP4 DUP10 ADD PUSH2 0x10EE JUMP JUMPDEST SWAP4 POP PUSH1 0x60 DUP8 ADD CALLDATALOAD SWAP2 POP DUP1 DUP3 GT ISZERO PUSH2 0x1273 JUMPI PUSH1 0x0 DUP1 REVERT JUMPDEST POP PUSH2 0x1280 DUP8 DUP3 DUP9 ADD PUSH2 0x10EE JUMP JUMPDEST SWAP2 POP POP SWAP3 SWAP6 SWAP2 SWAP5 POP SWAP3 POP JUMP JUMPDEST PUSH1 0x0 PUSH1 0x20 DUP3 DUP5 SUB SLT ISZERO PUSH2 0x129E JUMPI PUSH1 0x0 DUP1 REVERT JUMPDEST DUP2 CALLDATALOAD PUSH8 0xFFFFFFFFFFFFFFFF DUP2 GT ISZERO PUSH2 0x12B5 JUMPI PUSH1 0x0 DUP1 REVERT JUMPDEST PUSH2 0x12C1 DUP5 DUP3 DUP6 ADD PUSH2 0x10EE JUMP JUMPDEST SWAP5 SWAP4 POP POP POP POP JUMP JUMPDEST PUSH1 0x0 PUSH1 0x20 DUP3 DUP5 SUB SLT ISZERO PUSH2 0x12DB JUMPI PUSH1 0x0 DUP1 REVERT JUMPDEST DUP2 CALLDATALOAD PUSH1 0x1 PUSH1 0x1 PUSH1 0xA0 SHL SUB DUP2 AND DUP2 EQ PUSH2 0x12F2 JUMPI PUSH1 0x0 DUP1 REVERT JUMPDEST SWAP4 SWAP3 POP POP POP JUMP JUMPDEST PUSH1 0x0 JUMPDEST DUP4 DUP2 LT ISZERO PUSH2 0x1314 JUMPI DUP2 DUP2 ADD MLOAD DUP4 DUP3 ADD MSTORE PUSH1 0x20 ADD PUSH2 0x12FC JUMP JUMPDEST POP POP PUSH1 0x0 SWAP2 ADD MSTORE JUMP JUMPDEST PUSH1 0x0 DUP2 MLOAD DUP1 DUP5 MSTORE PUSH2 0x1335 DUP2 PUSH1 0x20 DUP7 ADD PUSH1 0x20 DUP7 ADD PUSH2 0x12F9 JUMP JUMPDEST PUSH1 0x1F ADD PUSH1 0x1F NOT AND SWAP3 SWAP1 SWAP3 ADD PUSH1 0x20 ADD SWAP3 SWAP2 POP POP JUMP JUMPDEST PUSH1 0x20 DUP2 MSTORE PUSH1 0x0 PUSH2 0x12F2 PUSH1 0x20 DUP4 ADD DUP5 PUSH2 0x131D JUMP JUMPDEST PUSH1 0x0 PUSH2 0x140 DUP1 DUP4 MSTORE PUSH2 0x1370 DUP2 DUP5 ADD DUP15 PUSH2 0x131D JUMP JUMPDEST SWAP1 POP DUP3 DUP2 SUB PUSH1 0x20 DUP5 ADD MSTORE PUSH2 0x1384 DUP2 DUP14 PUSH2 0x131D JUMP JUMPDEST SWAP1 POP DUP3 DUP2 SUB PUSH1 0x40 DUP5 ADD MSTORE PUSH2 0x1398 DUP2 DUP13 PUSH2 0x131D JUMP JUMPDEST SWAP1 POP DUP3 DUP2 SUB PUSH1 0x60 DUP5 ADD MSTORE PUSH2 0x13AC DUP2 DUP12 PUSH2 0x131D JUMP JUMPDEST SWAP1 POP DUP3 DUP2 SUB PUSH1 0x80 DUP5 ADD MSTORE PUSH2 0x13C0 DUP2 DUP11 PUSH2 0x131D JUMP JUMPDEST PUSH1 0xA0 DUP5 ADD SWAP9 SWAP1 SWAP9 MSTORE POP POP SWAP4 ISZERO ISZERO PUSH1 0xC0 DUP6 ADD MSTORE SWAP2 ISZERO ISZERO PUSH1 0xE0 DUP5 ADD MSTORE PUSH2 0x100 DUP4 ADD MSTORE PUSH2 0x120 SWAP1 SWAP2 ADD MSTORE SWAP6 SWAP5 POP POP POP POP POP JUMP JUMPDEST DUP1 CALLDATALOAD DUP1 ISZERO ISZERO DUP2 EQ PUSH2 0x1400 JUMPI PUSH1 0x0 DUP1 REVERT JUMPDEST SWAP2 SWAP1 POP JUMP JUMPDEST PUSH1 0x0 DUP1 PUSH1 0x0 DUP1 PUSH1 0x0 DUP1 PUSH1 0xC0 DUP8 DUP10 SUB SLT ISZERO PUSH2 0x141E JUMPI PUSH1 0x0 DUP1 REVERT JUMPDEST DUP7 CALLDATALOAD PUSH8 0xFFFFFFFFFFFFFFFF DUP1 DUP3 GT ISZERO PUSH2 0x1436 JUMPI PUSH1 0x0 DUP1 REVERT JUMPDEST PUSH2 0x1442 DUP11 DUP4 DUP12 ADD PUSH2 0x10EE JUMP JUMPDEST SWAP8 POP PUSH1 0x20 DUP10 ADD CALLDATALOAD SWAP2 POP DUP1 DUP3 GT ISZERO PUSH2 0x1458 JUMPI PUSH1 0x0 DUP1 REVERT JUMPDEST PUSH2 0x1464 DUP11 DUP4 DUP12 ADD PUSH2 0x10EE JUMP JUMPDEST SWAP7 POP PUSH1 0x40 DUP10 ADD CALLDATALOAD SWAP2 POP DUP1 DUP3 GT ISZERO PUSH2 0x147A JUMPI PUSH1 0x0 DUP1 REVERT JUMPDEST PUSH2 0x1486 DUP11 DUP4 DUP12 ADD PUSH2 0x10EE JUMP JUMPDEST SWAP6 POP PUSH1 0x60 DUP10 ADD CALLDATALOAD SWAP2 POP DUP1 DUP3 GT ISZERO PUSH2 0x149C JUMPI PUSH1 0x0 DUP1 REVERT JUMPDEST POP PUSH2 0x14A9 DUP10 DUP3 DUP11 ADD PUSH2 0x10EE JUMP JUMPDEST SWAP4 POP POP PUSH2 0x14B8 PUSH1 0x80 DUP9 ADD PUSH2 0x13F0 JUMP JUMPDEST SWAP2 POP PUSH1 0xA0 DUP8 ADD CALLDATALOAD SWAP1 POP SWAP3 SWAP6 POP SWAP3 SWAP6 POP SWAP3 SWAP6 JUMP JUMPDEST PUSH1 0x20 DUP1 DUP3 MSTORE PUSH1 0x2E SWAP1 DUP3 ADD MSTORE PUSH32 0x4F6E6C792074686520636F6E7472616374206F776E65722063616E2063616C6C PUSH1 0x40 DUP3 ADD MSTORE PUSH14 0x103A3434B990333AB731BA34B7B7 PUSH1 0x91 SHL PUSH1 0x60 DUP3 ADD MSTORE PUSH1 0x80 ADD SWAP1 JUMP JUMPDEST PUSH1 0x0 DUP3 MLOAD PUSH2 0x152B DUP2 DUP5 PUSH1 0x20 DUP8 ADD PUSH2 0x12F9 JUMP JUMPDEST SWAP2 SWAP1 SWAP2 ADD SWAP3 SWAP2 POP POP JUMP JUMPDEST PUSH1 0x20 DUP1 DUP3 MSTORE PUSH1 0x28 SWAP1 DUP3 ADD MSTORE PUSH32 0x41727469636C6520776974682074686520676976656E20494420646F6573206E PUSH1 0x40 DUP3 ADD MSTORE PUSH8 0x1BDD08195E1A5CDD PUSH1 0xC2 SHL PUSH1 0x60 DUP3 ADD MSTORE PUSH1 0x80 ADD SWAP1 JUMP JUMPDEST PUSH1 0x1 DUP2 DUP2 SHR SWAP1 DUP3 AND DUP1 PUSH2 0x1591 JUMPI PUSH1 0x7F DUP3 AND SWAP2 POP JUMPDEST PUSH1 0x20 DUP3 LT DUP2 SUB PUSH2 0x15B1 JUMPI PUSH4 0x4E487B71 PUSH1 0xE0 SHL PUSH1 0x0 MSTORE PUSH1 0x22 PUSH1 0x4 MSTORE PUSH1 0x24 PUSH1 0x0 REVERT JUMPDEST POP SWAP2 SWAP1 POP JUMP JUMPDEST PUSH1 0x0 DUP2 SLOAD PUSH2 0x15C4 DUP2 PUSH2 0x157D JUMP JUMPDEST PUSH1 0x1 DUP3 DUP2 AND DUP1 ISZERO PUSH2 0x15DC JUMPI PUSH1 0x1 DUP2 EQ PUSH2 0x15F1 JUMPI PUSH2 0x1620 JUMP JUMPDEST PUSH1 0xFF NOT DUP5 AND DUP8 MSTORE DUP3 ISZERO ISZERO DUP4 MUL DUP8 ADD SWAP5 POP PUSH2 0x1620 JUMP JUMPDEST DUP6 PUSH1 0x0 MSTORE PUSH1 0x20 DUP1 PUSH1 0x0 KECCAK256 PUSH1 0x0 JUMPDEST DUP6 DUP2 LT ISZERO PUSH2 0x1617 JUMPI DUP2 SLOAD DUP11 DUP3 ADD MSTORE SWAP1 DUP5 ADD SWAP1 DUP3 ADD PUSH2 0x15FE JUMP JUMPDEST POP POP POP DUP3 DUP8 ADD SWAP5 POP JUMPDEST POP POP POP POP SWAP3 SWAP2 POP POP JUMP JUMPDEST PUSH1 0x0 PUSH2 0x1636 DUP3 DUP6 PUSH2 0x15B7 JUMP JUMPDEST DUP4 MLOAD PUSH2 0x1646 DUP2 DUP4 PUSH1 0x20 DUP9 ADD PUSH2 0x12F9 JUMP JUMPDEST ADD SWAP5 SWAP4 POP POP POP POP JUMP JUMPDEST PUSH1 0x1F DUP3 GT ISZERO PUSH2 0x1699 JUMPI PUSH1 0x0 DUP2 DUP2 MSTORE PUSH1 0x20 DUP2 KECCAK256 PUSH1 0x1F DUP6 ADD PUSH1 0x5 SHR DUP2 ADD PUSH1 0x20 DUP7 LT ISZERO PUSH2 0x1676 JUMPI POP DUP1 JUMPDEST PUSH1 0x1F DUP6 ADD PUSH1 0x5 SHR DUP3 ADD SWAP2 POP JUMPDEST DUP2 DUP2 LT ISZERO PUSH2 0x1695 JUMPI DUP3 DUP2 SSTORE PUSH1 0x1 ADD PUSH2 0x1682 JUMP JUMPDEST POP POP POP JUMPDEST POP POP POP JUMP JUMPDEST DUP2 MLOAD PUSH8 0xFFFFFFFFFFFFFFFF DUP2 GT ISZERO PUSH2 0x16B8 JUMPI PUSH2 0x16B8 PUSH2 0x10D8 JUMP JUMPDEST PUSH2 0x16CC DUP2 PUSH2 0x16C6 DUP5 SLOAD PUSH2 0x157D JUMP JUMPDEST DUP5 PUSH2 0x164F JUMP JUMPDEST PUSH1 0x20 DUP1 PUSH1 0x1F DUP4 GT PUSH1 0x1 DUP2 EQ PUSH2 0x1701 JUMPI PUSH1 0x0 DUP5 ISZERO PUSH2 0x16E9 JUMPI POP DUP6 DUP4 ADD MLOAD JUMPDEST PUSH1 0x0 NOT PUSH1 0x3 DUP7 SWAP1 SHL SHR NOT AND PUSH1 0x1 DUP6 SWAP1 SHL OR DUP6 SSTORE PUSH2 0x1695 JUMP JUMPDEST PUSH1 0x0 DUP6 DUP2 MSTORE PUSH1 0x20 DUP2 KECCAK256 PUSH1 0x1F NOT DUP7 AND SWAP2 JUMPDEST DUP3 DUP2 LT ISZERO PUSH2 0x1730 JUMPI DUP9 DUP7 ADD MLOAD DUP3 SSTORE SWAP5 DUP5 ADD SWAP5 PUSH1 0x1 SWAP1 SWAP2 ADD SWAP1 DUP5 ADD PUSH2 0x1711 JUMP JUMPDEST POP DUP6 DUP3 LT ISZERO PUSH2 0x174E JUMPI DUP8 DUP6 ADD MLOAD PUSH1 0x0 NOT PUSH1 0x3 DUP9 SWAP1 SHL PUSH1 0xF8 AND SHR NOT AND DUP2 SSTORE JUMPDEST POP POP POP POP POP PUSH1 0x1 SWAP1 DUP2 SHL ADD SWAP1 SSTORE POP JUMP JUMPDEST PUSH1 0x0 PUSH1 0x1 DUP3 ADD PUSH2 0x177E JUMPI PUSH4 0x4E487B71 PUSH1 0xE0 SHL PUSH1 0x0 MSTORE PUSH1 0x11 PUSH1 0x4 MSTORE PUSH1 0x24 PUSH1 0x0 REVERT JUMPDEST POP PUSH1 0x1 ADD SWAP1 JUMP JUMPDEST PUSH1 0x20 DUP1 DUP3 MSTORE PUSH1 0x28 SWAP1 DUP3 ADD MSTORE PUSH32 0x41727469636C6520776974682074686520676976656E20494420616C72656164 PUSH1 0x40 DUP3 ADD MSTORE PUSH8 0x7920657869737473 PUSH1 0xC0 SHL PUSH1 0x60 DUP3 ADD MSTORE PUSH1 0x80 ADD SWAP1 JUMP JUMPDEST PUSH1 0xE0 DUP2 MSTORE PUSH1 0x0 PUSH2 0x17E0 PUSH1 0xE0 DUP4 ADD DUP10 PUSH2 0x131D JUMP JUMPDEST DUP3 DUP2 SUB DUP1 PUSH1 0x20 DUP6 ADD MSTORE PUSH1 0x0 DUP3 MSTORE PUSH1 0x20 DUP2 ADD PUSH1 0x40 DUP6 ADD MSTORE POP PUSH2 0x1804 PUSH1 0x20 DUP3 ADD DUP10 PUSH2 0x131D JUMP JUMPDEST SWAP1 POP DUP3 DUP2 SUB PUSH1 0x60 DUP5 ADD MSTORE PUSH2 0x1818 DUP2 DUP9 PUSH2 0x131D JUMP JUMPDEST SWAP6 ISZERO ISZERO PUSH1 0x80 DUP5 ADD MSTORE POP POP SWAP2 ISZERO ISZERO PUSH1 0xA0 DUP4 ADD MSTORE PUSH1 0xC0 SWAP1 SWAP2 ADD MSTORE SWAP4 SWAP3 POP POP POP JUMP JUMPDEST PUSH1 0x0 PUSH2 0x12F2 DUP3 DUP5 PUSH2 0x15B7 JUMP JUMPDEST PUSH1 0xE0 DUP2 MSTORE PUSH1 0x0 PUSH2 0x1856 PUSH1 0xE0 DUP4 ADD DUP10 PUSH2 0x131D JUMP JUMPDEST DUP3 DUP2 SUB PUSH1 0x20 DUP5 ADD MSTORE PUSH2 0x1868 DUP2 DUP10 PUSH2 0x131D JUMP JUMPDEST SWAP1 POP DUP3 DUP2 SUB DUP1 PUSH1 0x40 DUP6 ADD MSTORE PUSH1 0x0 DUP3 MSTORE PUSH1 0x20 DUP2 ADD PUSH1 0x60 DUP6 ADD MSTORE POP PUSH2 0x1818 PUSH1 0x20 DUP3 ADD DUP9 PUSH2 0x131D JUMP INVALID GASLIMIT PUSH21 0x65726E616C204A6F75726E616C69736D2069732061 PUSH13 0x736F20612070726F7465737420 PUSH21 0x6F20457468657265756D277320706F737369626C65 KECCAK256 PUSH17 0x6C616E7320666F72205468655075726765 0x2C KECCAK256 PUSH24 0x686963682077696C6C20706F74656E7469616C6C79206465 PUSH20 0x74726F7920636F6E747261637473206C696B6520 0x4C PUSH6 0x65726F792C20 PUSH20 0x6F6369616C206E6574776F726B73206C696B6520 POP PUSH6 0x65706574682F 0x4C PUSH6 0x6E733B20616E PUSH5 0x2065766572 PUSH26 0x20696D706F7274616E74206D657373616765207772697474656E KECCAK256 PUSH10 0x6E2074686520626C6F63 PUSH12 0x636861696E20616E64207468 PUSH6 0x697220676173 KECCAK256 PUSH4 0x6F737473 KECCAK256 PUSH2 0x7373 PUSH16 0x63696174656420706F737369626C7920 PUSH24 0x6974686F757420726566756E64696E672EA2646970667358 0x22 SLT KECCAK256 0xD 0x24 SWAP5 SELFBALANCE 0xB5 0xDA BLOCKHASH 0xEC 0xAE 0xF 0xD8 TIMESTAMP SGT CALLER 0xE1 0xB1 CALLCODE 0xE2 PC STATICCALL POP MSTORE SWAP12 BALANCE 0xD7 CALLER 0x4E 0xF DIV 0xCE 0x5E 0xE3 PUSH5 0x736F6C6343 STOP ADDMOD SLT STOP CALLER "
				},
				"gasEstimates": {
					"creation": {
						"codeDepositCost": "1324200",
						"executionCost": "infinite",
						"totalCost": "infinite"
					},
					"external": {
						"addArticlePart(string,string)": "infinite",
						"articleCount()": "2352",
						"contractVersion()": "infinite",
						"getArticle(string)": "infinite",
						"getArticleCount()": "2347",
						"getArticleUpdateCount(string)": "infinite",
						"implementation()": "2360",
						"owner()": "2382",
						"protest()": "infinite",
						"storeFullArticle(string,string,string,string,bool,uint256)": "infinite",
						"storePartialArticle(string,string,string,string)": "infinite",
						"transferOwnership(address)": "26799",
						"updateCount()": "2351",
						"updateFullArticle(string,string)": "infinite",
						"upgradeImplementation(address)": "26734"
					},
					"internal": {
						"isArticleStored(string memory)": "infinite"
					}
				},
				"methodIdentifiers": {
					"addArticlePart(string,string)": "0bd93eb0",
					"articleCount()": "414e28b0",
					"contractVersion()": "a0a8e460",
					"getArticle(string)": "a4666665",
					"getArticleCount()": "e899d5ff",
					"getArticleUpdateCount(string)": "7af48c35",
					"implementation()": "5c60da1b",
					"owner()": "8da5cb5b",
					"protest()": "9c51b39b",
					"storeFullArticle(string,string,string,string,bool,uint256)": "d8e8ce1f",
					"storePartialArticle(string,string,string,string)": "0e050e76",
					"transferOwnership(address)": "f2fde38b",
					"updateCount()": "69b4ecc9",
					"updateFullArticle(string,string)": "683bcdbb",
					"upgradeImplementation(address)": "83f94db7"
				}
			},
			"storageLayout": {
				"storage": [
					{
						"astId": 3,
						"contract": "EternalJournalism.sol:EternalJournalismV2",
						"label": "owner",
						"offset": 0,
						"slot": "0",
						"type": "t_address"
					},
					{
						"astId": 5,
						"contract": "EternalJournalism.sol:EternalJournalismV2",
						"label": "implementation",
						"offset": 0,
						"slot": "1",
						"type": "t_address"
					},
					{
						"astId": 7,
						"contract": "EternalJournalism.sol:EternalJournalismV2",
						"label": "contractVersion",
						"offset": 0,
						"slot": "2",
						"type": "t_string_storage"
					},
					{
						"astId": 15,
						"contract": "EternalJournalism.sol:EternalJournalismV2",
						"label": "articles",
						"offset": 0,
						"slot": "3",
						"type": "t_mapping(t_string_memory_ptr,t_struct(Article)44_storage)"
					},
					{
						"astId": 19,
						"contract": "EternalJournalism.sol:EternalJournalismV2",
						"label": "articleUpdates",
						"offset": 0,
						"slot": "4",
						"type": "t_mapping(t_string_memory_ptr,t_uint256)"
					},
					{
						"astId": 21,
						"contract": "EternalJournalism.sol:EternalJournalismV2",
						"label": "articleCount",
						"offset": 0,
						"slot": "5",
						"type": "t_uint256"
					},
					{
						"astId": 23,
						"contract": "EternalJournalism.sol:EternalJournalismV2",
						"label": "updateCount",
						"offset": 0,
						"slot": "6",
						"type": "t_uint256"
					}
				],
				"types": {
					"t_address": {
						"encoding": "inplace",
						"label": "address",
						"numberOfBytes": "20"
					},
					"t_bool": {
						"encoding": "inplace",
						"label": "bool",
						"numberOfBytes": "1"
					},
					"t_mapping(t_string_memory_ptr,t_struct(Article)44_storage)": {
						"encoding": "mapping",
						"key": "t_string_memory_ptr",
						"label": "mapping(string => struct EternalJournalismV2.Article)",
						"numberOfBytes": "32",
						"value": "t_struct(Article)44_storage"
					},
					"t_mapping(t_string_memory_ptr,t_uint256)": {
						"encoding": "mapping",
						"key": "t_string_memory_ptr",
						"label": "mapping(string => uint256)",
						"numberOfBytes": "32",
						"value": "t_uint256"
					},
					"t_string_memory_ptr": {
						"encoding": "bytes",
						"label": "string",
						"numberOfBytes": "32"
					},
					"t_string_storage": {
						"encoding": "bytes",
						"label": "string",
						"numberOfBytes": "32"
					},
					"t_struct(Article)44_storage": {
						"encoding": "inplace",
						"label": "struct EternalJournalismV2.Article",
						"members": [
							{
								"astId": 25,
								"contract": "EternalJournalism.sol:EternalJournalismV2",
								"label": "id",
								"offset": 0,
								"slot": "0",
								"type": "t_string_storage"
							},
							{
								"astId": 27,
								"contract": "EternalJournalism.sol:EternalJournalismV2",
								"label": "title",
								"offset": 0,
								"slot": "1",
								"type": "t_string_storage"
							},
							{
								"astId": 29,
								"contract": "EternalJournalism.sol:EternalJournalismV2",
								"label": "content",
								"offset": 0,
								"slot": "2",
								"type": "t_string_storage"
							},
							{
								"astId": 31,
								"contract": "EternalJournalism.sol:EternalJournalismV2",
								"label": "ipfsHash",
								"offset": 0,
								"slot": "3",
								"type": "t_string_storage"
							},
							{
								"astId": 33,
								"contract": "EternalJournalism.sol:EternalJournalismV2",
								"label": "url",
								"offset": 0,
								"slot": "4",
								"type": "t_string_storage"
							},
							{
								"astId": 35,
								"contract": "EternalJournalism.sol:EternalJournalismV2",
								"label": "timestamp",
								"offset": 0,
								"slot": "5",
								"type": "t_uint256"
							},
							{
								"astId": 37,
								"contract": "EternalJournalism.sol:EternalJournalismV2",
								"label": "isFullArticle",
								"offset": 0,
								"slot": "6",
								"type": "t_bool"
							},
							{
								"astId": 39,
								"contract": "EternalJournalism.sol:EternalJournalismV2",
								"label": "isMultiPart",
								"offset": 1,
								"slot": "6",
								"type": "t_bool"
							},
							{
								"astId": 41,
								"contract": "EternalJournalism.sol:EternalJournalismV2",
								"label": "lastPartNumber",
								"offset": 0,
								"slot": "7",
								"type": "t_uint256"
							},
							{
								"astId": 43,
								"contract": "EternalJournalism.sol:EternalJournalismV2",
								"label": "currentPartNumber",
								"offset": 0,
								"slot": "8",
								"type": "t_uint256"
							}
						],
						"numberOfBytes": "288"
					},
					"t_uint256": {
						"encoding": "inplace",
						"label": "uint256",
						"numberOfBytes": "32"
					}
				}
			},
			"userdoc": {
				"kind": "user",
				"methods": {},
				"version": 1
			}
		}
	}
}