{
	"EternalJournalism.sol": {
		"EternalJournalism": {
			"abi": [
				{
					"inputs": [],
					"stateMutability": "nonpayable",
					"type": "constructor"
				},
				{
					"anonymous": false,
					"inputs": [
						{
							"indexed": true,
							"internalType": "string",
							"name": "id",
							"type": "string"
						},
						{
							"indexed": false,
							"internalType": "string",
							"name": "title",
							"type": "string"
						},
						{
							"indexed": false,
							"internalType": "string",
							"name": "content",
							"type": "string"
						},
						{
							"indexed": false,
							"internalType": "string",
							"name": "ipfsHash",
							"type": "string"
						},
						{
							"indexed": false,
							"internalType": "bool",
							"name": "isFullArticle",
							"type": "bool"
						}
					],
					"name": "ArticleStored",
					"type": "event"
				},
				{
					"anonymous": false,
					"inputs": [
						{
							"indexed": true,
							"internalType": "string",
							"name": "id",
							"type": "string"
						},
						{
							"indexed": false,
							"internalType": "string",
							"name": "content",
							"type": "string"
						}
					],
					"name": "ArticleUpdated",
					"type": "event"
				},
				{
					"inputs": [
						{
							"internalType": "string",
							"name": "id",
							"type": "string"
						}
					],
					"name": "getArticle",
					"outputs": [
						{
							"internalType": "string",
							"name": "",
							"type": "string"
						},
						{
							"internalType": "string",
							"name": "",
							"type": "string"
						},
						{
							"internalType": "string",
							"name": "",
							"type": "string"
						},
						{
							"internalType": "string",
							"name": "",
							"type": "string"
						},
						{
							"internalType": "uint256",
							"name": "",
							"type": "uint256"
						},
						{
							"internalType": "bool",
							"name": "",
							"type": "bool"
						}
					],
					"stateMutability": "view",
					"type": "function"
				},
				{
					"inputs": [],
					"name": "implementation",
					"outputs": [
						{
							"internalType": "address",
							"name": "",
							"type": "address"
						}
					],
					"stateMutability": "view",
					"type": "function"
				},
				{
					"inputs": [],
					"name": "owner",
					"outputs": [
						{
							"internalType": "address",
							"name": "",
							"type": "address"
						}
					],
					"stateMutability": "view",
					"type": "function"
				},
				{
					"inputs": [
						{
							"internalType": "string",
							"name": "id",
							"type": "string"
						},
						{
							"internalType": "string",
							"name": "title",
							"type": "string"
						},
						{
							"internalType": "string",
							"name": "content",
							"type": "string"
						}
					],
					"name": "storeFullArticle",
					"outputs": [],
					"stateMutability": "nonpayable",
					"type": "function"
				},
				{
					"inputs": [
						{
							"internalType": "string",
							"name": "id",
							"type": "string"
						},
						{
							"internalType": "string",
							"name": "title",
							"type": "string"
						},
						{
							"internalType": "string",
							"name": "ipfsHash",
							"type": "string"
						}
					],
					"name": "storePartialArticle",
					"outputs": [],
					"stateMutability": "nonpayable",
					"type": "function"
				},
				{
					"inputs": [
						{
							"internalType": "string",
							"name": "id",
							"type": "string"
						},
						{
							"internalType": "string",
							"name": "content",
							"type": "string"
						}
					],
					"name": "updateArticle",
					"outputs": [],
					"stateMutability": "nonpayable",
					"type": "function"
				},
				{
					"inputs": [
						{
							"internalType": "address",
							"name": "_newImplementation",
							"type": "address"
						}
					],
					"name": "upgradeImplementation",
					"outputs": [],
					"stateMutability": "nonpayable",
					"type": "function"
				}
			],
			"devdoc": {
				"kind": "dev",
				"methods": {},
				"version": 1
			},
			"evm": {
				"assembly": "    /* \"EternalJournalism.sol\":57:2700  contract EternalJournalism {... */\n  mstore(0x40, 0x80)\n    /* \"EternalJournalism.sol\":689:738  constructor() {... */\n  callvalue\n  dup1\n  iszero\n  tag_1\n  jumpi\n  0x00\n  dup1\n  revert\ntag_1:\n  pop\n    /* \"EternalJournalism.sol\":713:718  owner */\n  0x00\n    /* \"EternalJournalism.sol\":713:731  owner = msg.sender */\n  dup1\n  sload\n  not(sub(shl(0xa0, 0x01), 0x01))\n  and\n    /* \"EternalJournalism.sol\":721:731  msg.sender */\n  caller\n    /* \"EternalJournalism.sol\":713:731  owner = msg.sender */\n  or\n  swap1\n  sstore\n    /* \"EternalJournalism.sol\":57:2700  contract EternalJournalism {... */\n  dataSize(sub_0)\n  dup1\n  dataOffset(sub_0)\n  0x00\n  codecopy\n  0x00\n  return\nstop\n\nsub_0: assembly {\n        /* \"EternalJournalism.sol\":57:2700  contract EternalJournalism {... */\n      mstore(0x40, 0x80)\n      callvalue\n      dup1\n      iszero\n      tag_1\n      jumpi\n      0x00\n      dup1\n      revert\n    tag_1:\n      pop\n      jumpi(tag_2, lt(calldatasize, 0x04))\n      shr(0xe0, calldataload(0x00))\n      dup1\n      0x8da5cb5b\n      gt\n      tag_10\n      jumpi\n      dup1\n      0x8da5cb5b\n      eq\n      tag_6\n      jumpi\n      dup1\n      0x8f79e4f4\n      eq\n      tag_7\n      jumpi\n      dup1\n      0x9f1f1508\n      eq\n      tag_8\n      jumpi\n      dup1\n      0xa4666665\n      eq\n      tag_9\n      jumpi\n      0x00\n      dup1\n      revert\n    tag_10:\n      dup1\n      0x5c60da1b\n      eq\n      tag_3\n      jumpi\n      dup1\n      0x696103c8\n      eq\n      tag_4\n      jumpi\n      dup1\n      0x83f94db7\n      eq\n      tag_5\n      jumpi\n    tag_2:\n      0x00\n      dup1\n      revert\n        /* \"EternalJournalism.sol\":116:145  address public implementation */\n    tag_3:\n      sload(0x01)\n      tag_11\n      swap1\n      sub(shl(0xa0, 0x01), 0x01)\n      and\n      dup2\n      jump\n    tag_11:\n      mload(0x40)\n      sub(shl(0xa0, 0x01), 0x01)\n        /* \"#utility.yul\":178:210   */\n      swap1\n      swap2\n      and\n        /* \"#utility.yul\":160:211   */\n      dup2\n      mstore\n        /* \"#utility.yul\":148:150   */\n      0x20\n        /* \"#utility.yul\":133:151   */\n      add\n        /* \"EternalJournalism.sol\":116:145  address public implementation */\n    tag_13:\n      mload(0x40)\n      dup1\n      swap2\n      sub\n      swap1\n      return\n        /* \"EternalJournalism.sol\":1554:1896  function storePartialArticle(string memory id, string memory title, string memory ipfsHash) external onlyOwner {... */\n    tag_4:\n      tag_15\n      tag_16\n      calldatasize\n      0x04\n      tag_17\n      jump\t// in\n    tag_16:\n      tag_18\n      jump\t// in\n    tag_15:\n      stop\n        /* \"EternalJournalism.sol\":748:878  function upgradeImplementation(address _newImplementation) external onlyOwner {... */\n    tag_5:\n      tag_15\n      tag_20\n      calldatasize\n      0x04\n      tag_21\n      jump\t// in\n    tag_20:\n      tag_22\n      jump\t// in\n        /* \"EternalJournalism.sol\":90:110  address public owner */\n    tag_6:\n      sload(0x00)\n      tag_11\n      swap1\n      sub(shl(0xa0, 0x01), 0x01)\n      and\n      dup2\n      jump\n        /* \"EternalJournalism.sol\":1906:2558  function updateArticle(string memory id, string memory content) external onlyOwner {... */\n    tag_7:\n      tag_15\n      tag_27\n      calldatasize\n      0x04\n      tag_28\n      jump\t// in\n    tag_27:\n      tag_29\n      jump\t// in\n        /* \"EternalJournalism.sol\":1210:1544  function storeFullArticle(string memory id, string memory title, string memory content) external onlyOwner {... */\n    tag_8:\n      tag_15\n      tag_31\n      calldatasize\n      0x04\n      tag_17\n      jump\t// in\n    tag_31:\n      tag_32\n      jump\t// in\n        /* \"EternalJournalism.sol\":888:1200  function getArticle(string memory id) external view returns (string memory, string memory, string memory, string memory, uint256, bool) {... */\n    tag_9:\n      tag_33\n      tag_34\n      calldatasize\n      0x04\n      tag_35\n      jump\t// in\n    tag_34:\n      tag_36\n      jump\t// in\n    tag_33:\n      mload(0x40)\n      tag_13\n      swap7\n      swap6\n      swap5\n      swap4\n      swap3\n      swap2\n      swap1\n      tag_38\n      jump\t// in\n        /* \"EternalJournalism.sol\":1554:1896  function storePartialArticle(string memory id, string memory title, string memory ipfsHash) external onlyOwner {... */\n    tag_18:\n        /* \"EternalJournalism.sol\":605:610  owner */\n      and(sub(shl(0xa0, 0x01), 0x01), sload(0x00))\n        /* \"EternalJournalism.sol\":591:601  msg.sender */\n      caller\n        /* \"EternalJournalism.sol\":591:610  msg.sender == owner */\n      eq\n        /* \"EternalJournalism.sol\":583:661  require(msg.sender == owner, \"Only the contract owner can call this function\") */\n      tag_40\n      jumpi\n      mload(0x40)\n      shl(0xe5, 0x461bcd)\n      dup2\n      mstore\n      0x04\n      add\n      tag_41\n      swap1\n      tag_42\n      jump\t// in\n    tag_41:\n      mload(0x40)\n      dup1\n      swap2\n      sub\n      swap1\n      revert\n    tag_40:\n        /* \"EternalJournalism.sol\":1684:1703  isArticleStored(id) */\n      tag_44\n        /* \"EternalJournalism.sol\":1700:1702  id */\n      dup4\n        /* \"EternalJournalism.sol\":1684:1699  isArticleStored */\n      tag_45\n        /* \"EternalJournalism.sol\":1684:1703  isArticleStored(id) */\n      jump\t// in\n    tag_44:\n        /* \"EternalJournalism.sol\":1683:1703  !isArticleStored(id) */\n      iszero\n        /* \"EternalJournalism.sol\":1675:1748  require(!isArticleStored(id), \"Article with the given ID already exists\") */\n      tag_46\n      jumpi\n      mload(0x40)\n      shl(0xe5, 0x461bcd)\n      dup2\n      mstore\n      0x04\n      add\n      tag_41\n      swap1\n      tag_48\n      jump\t// in\n    tag_46:\n        /* \"EternalJournalism.sol\":1773:1829  Article(id, title, \"\", ipfsHash, block.timestamp, false) */\n      mload(0x40)\n      dup1\n      0xc0\n      add\n      0x40\n      mstore\n      dup1\n        /* \"EternalJournalism.sol\":1781:1783  id */\n      dup5\n        /* \"EternalJournalism.sol\":1773:1829  Article(id, title, \"\", ipfsHash, block.timestamp, false) */\n      dup2\n      mstore\n      0x20\n      add\n        /* \"EternalJournalism.sol\":1785:1790  title */\n      dup4\n        /* \"EternalJournalism.sol\":1773:1829  Article(id, title, \"\", ipfsHash, block.timestamp, false) */\n      dup2\n      mstore\n      0x20\n      add\n      mload(0x40)\n      dup1\n      0x20\n      add\n      0x40\n      mstore\n      dup1\n      0x00\n      dup2\n      mstore\n      pop\n      dup2\n      mstore\n      0x20\n      add\n        /* \"EternalJournalism.sol\":1796:1804  ipfsHash */\n      dup3\n        /* \"EternalJournalism.sol\":1773:1829  Article(id, title, \"\", ipfsHash, block.timestamp, false) */\n      dup2\n      mstore\n      0x20\n      add\n        /* \"EternalJournalism.sol\":1806:1821  block.timestamp */\n      timestamp\n        /* \"EternalJournalism.sol\":1773:1829  Article(id, title, \"\", ipfsHash, block.timestamp, false) */\n      dup2\n      mstore\n      0x20\n      add\n        /* \"EternalJournalism.sol\":1823:1828  false */\n      0x00\n        /* \"EternalJournalism.sol\":1773:1829  Article(id, title, \"\", ipfsHash, block.timestamp, false) */\n      iszero\n      iszero\n      dup2\n      mstore\n      pop\n        /* \"EternalJournalism.sol\":1758:1766  articles */\n      0x02\n        /* \"EternalJournalism.sol\":1767:1769  id */\n      dup5\n        /* \"EternalJournalism.sol\":1758:1770  articles[id] */\n      mload(0x40)\n      tag_49\n      swap2\n      swap1\n      tag_50\n      jump\t// in\n    tag_49:\n      swap1\n      dup2\n      mstore\n      mload(0x40)\n      swap1\n      dup2\n      swap1\n      sub\n      0x20\n      add\n      swap1\n      keccak256\n        /* \"EternalJournalism.sol\":1758:1829  articles[id] = Article(id, title, \"\", ipfsHash, block.timestamp, false) */\n      dup2\n      mload\n        /* \"EternalJournalism.sol\":1758:1770  articles[id] */\n      dup2\n      swap1\n        /* \"EternalJournalism.sol\":1758:1829  articles[id] = Article(id, title, \"\", ipfsHash, block.timestamp, false) */\n      tag_51\n      swap1\n        /* \"EternalJournalism.sol\":1758:1770  articles[id] */\n      dup3\n        /* \"EternalJournalism.sol\":1758:1829  articles[id] = Article(id, title, \"\", ipfsHash, block.timestamp, false) */\n      tag_52\n      jump\t// in\n    tag_51:\n      pop\n      0x20\n      dup3\n      add\n      mload\n      0x01\n      dup3\n      add\n      swap1\n      tag_53\n      swap1\n      dup3\n      tag_52\n      jump\t// in\n    tag_53:\n      pop\n      0x40\n      dup3\n      add\n      mload\n      0x02\n      dup3\n      add\n      swap1\n      tag_54\n      swap1\n      dup3\n      tag_52\n      jump\t// in\n    tag_54:\n      pop\n      0x60\n      dup3\n      add\n      mload\n      0x03\n      dup3\n      add\n      swap1\n      tag_55\n      swap1\n      dup3\n      tag_52\n      jump\t// in\n    tag_55:\n      pop\n      0x80\n      dup3\n      add\n      mload\n      0x04\n      dup3\n      add\n      sstore\n      0xa0\n      swap1\n      swap2\n      add\n      mload\n      0x05\n      swap1\n      swap2\n      add\n      dup1\n      sload\n      not(0xff)\n      and\n      swap2\n      iszero\n      iszero\n      swap2\n      swap1\n      swap2\n      or\n      swap1\n      sstore\n        /* \"EternalJournalism.sol\":1844:1889  ArticleStored(id, title, \"\", ipfsHash, false) */\n      mload(0x40)\n      tag_56\n      swap1\n        /* \"EternalJournalism.sol\":1858:1860  id */\n      dup5\n      swap1\n        /* \"EternalJournalism.sol\":1844:1889  ArticleStored(id, title, \"\", ipfsHash, false) */\n      tag_50\n      jump\t// in\n    tag_56:\n      mload(0x40)\n      dup1\n      swap2\n      sub\n      swap1\n      keccak256\n      0x4ac6791f67e50e34255c7ab38e9ded0323b080f3c4bd2956c8aed38e38d3f0fe\n        /* \"EternalJournalism.sol\":1862:1867  title */\n      dup4\n        /* \"EternalJournalism.sol\":1873:1881  ipfsHash */\n      dup4\n        /* \"EternalJournalism.sol\":1883:1888  false */\n      0x00\n        /* \"EternalJournalism.sol\":1844:1889  ArticleStored(id, title, \"\", ipfsHash, false) */\n      mload(0x40)\n      tag_57\n      swap4\n      swap3\n      swap2\n      swap1\n      tag_58\n      jump\t// in\n    tag_57:\n      mload(0x40)\n      dup1\n      swap2\n      sub\n      swap1\n      log2\n        /* \"EternalJournalism.sol\":1554:1896  function storePartialArticle(string memory id, string memory title, string memory ipfsHash) external onlyOwner {... */\n      pop\n      pop\n      pop\n      jump\t// out\n        /* \"EternalJournalism.sol\":748:878  function upgradeImplementation(address _newImplementation) external onlyOwner {... */\n    tag_22:\n        /* \"EternalJournalism.sol\":605:610  owner */\n      and(sub(shl(0xa0, 0x01), 0x01), sload(0x00))\n        /* \"EternalJournalism.sol\":591:601  msg.sender */\n      caller\n        /* \"EternalJournalism.sol\":591:610  msg.sender == owner */\n      eq\n        /* \"EternalJournalism.sol\":583:661  require(msg.sender == owner, \"Only the contract owner can call this function\") */\n      tag_60\n      jumpi\n      mload(0x40)\n      shl(0xe5, 0x461bcd)\n      dup2\n      mstore\n      0x04\n      add\n      tag_41\n      swap1\n      tag_42\n      jump\t// in\n    tag_60:\n        /* \"EternalJournalism.sol\":836:850  implementation */\n      0x01\n        /* \"EternalJournalism.sol\":836:871  implementation = _newImplementation */\n      dup1\n      sload\n      not(sub(shl(0xa0, 0x01), 0x01))\n      and\n      sub(shl(0xa0, 0x01), 0x01)\n      swap3\n      swap1\n      swap3\n      and\n      swap2\n      swap1\n      swap2\n      or\n      swap1\n      sstore\n        /* \"EternalJournalism.sol\":748:878  function upgradeImplementation(address _newImplementation) external onlyOwner {... */\n      jump\t// out\n        /* \"EternalJournalism.sol\":1906:2558  function updateArticle(string memory id, string memory content) external onlyOwner {... */\n    tag_29:\n        /* \"EternalJournalism.sol\":605:610  owner */\n      and(sub(shl(0xa0, 0x01), 0x01), sload(0x00))\n        /* \"EternalJournalism.sol\":591:601  msg.sender */\n      caller\n        /* \"EternalJournalism.sol\":591:610  msg.sender == owner */\n      eq\n        /* \"EternalJournalism.sol\":583:661  require(msg.sender == owner, \"Only the contract owner can call this function\") */\n      tag_64\n      jumpi\n      mload(0x40)\n      shl(0xe5, 0x461bcd)\n      dup2\n      mstore\n      0x04\n      add\n      tag_41\n      swap1\n      tag_42\n      jump\t// in\n    tag_64:\n        /* \"EternalJournalism.sol\":1999:2022  Article storage article */\n      0x00\n        /* \"EternalJournalism.sol\":2025:2033  articles */\n      0x02\n        /* \"EternalJournalism.sol\":2034:2036  id */\n      dup4\n        /* \"EternalJournalism.sol\":2025:2037  articles[id] */\n      mload(0x40)\n      tag_67\n      swap2\n      swap1\n      tag_50\n      jump\t// in\n    tag_67:\n      swap1\n      dup2\n      mstore\n      0x20\n      add\n      mload(0x40)\n      dup1\n      swap2\n      sub\n      swap1\n      keccak256\n        /* \"EternalJournalism.sol\":1999:2037  Article storage article = articles[id] */\n      swap1\n      pop\n        /* \"EternalJournalism.sol\":2055:2074  isArticleStored(id) */\n      tag_68\n        /* \"EternalJournalism.sol\":2071:2073  id */\n      dup4\n        /* \"EternalJournalism.sol\":2055:2070  isArticleStored */\n      tag_45\n        /* \"EternalJournalism.sol\":2055:2074  isArticleStored(id) */\n      jump\t// in\n    tag_68:\n        /* \"EternalJournalism.sol\":2047:2119  require(isArticleStored(id), \"Article with the given ID does not exist\") */\n      tag_69\n      jumpi\n      mload(0x40)\n      shl(0xe5, 0x461bcd)\n      dup2\n      mstore\n        /* \"#utility.yul\":8978:8980   */\n      0x20\n        /* \"EternalJournalism.sol\":2047:2119  require(isArticleStored(id), \"Article with the given ID does not exist\") */\n      0x04\n      dup3\n      add\n        /* \"#utility.yul\":8960:8981   */\n      mstore\n        /* \"#utility.yul\":9017:9019   */\n      0x28\n        /* \"#utility.yul\":8997:9015   */\n      0x24\n      dup3\n      add\n        /* \"#utility.yul\":8990:9020   */\n      mstore\n        /* \"#utility.yul\":9056:9090   */\n      0x41727469636c6520776974682074686520676976656e20494420646f6573206e\n        /* \"#utility.yul\":9036:9054   */\n      0x44\n      dup3\n      add\n        /* \"#utility.yul\":9029:9091   */\n      mstore\n      shl(0xc2, 0x1bdd08195e1a5cdd)\n        /* \"#utility.yul\":9107:9125   */\n      0x64\n      dup3\n      add\n        /* \"#utility.yul\":9100:9138   */\n      mstore\n        /* \"#utility.yul\":9155:9174   */\n      0x84\n      add\n        /* \"EternalJournalism.sol\":2047:2119  require(isArticleStored(id), \"Article with the given ID does not exist\") */\n      tag_41\n        /* \"#utility.yul\":8776:9180   */\n      jump\n        /* \"EternalJournalism.sol\":2047:2119  require(isArticleStored(id), \"Article with the given ID does not exist\") */\n    tag_69:\n        /* \"EternalJournalism.sol\":2134:2155  article.isFullArticle */\n      0x05\n      dup2\n      add\n      sload\n      0xff\n      and\n        /* \"EternalJournalism.sol\":2130:2420  if (article.isFullArticle) {... */\n      iszero\n      tag_72\n      jumpi\n        /* \"EternalJournalism.sol\":2224:2231  article */\n      dup1\n        /* \"EternalJournalism.sol\":2224:2239  article.content */\n      0x02\n      add\n        /* \"EternalJournalism.sol\":2208:2241  keccak256(bytes(article.content)) */\n      mload(0x40)\n      tag_73\n      swap2\n      swap1\n      tag_74\n      jump\t// in\n    tag_73:\n      mload(0x40)\n      dup1\n      swap2\n      sub\n      swap1\n      keccak256\n        /* \"EternalJournalism.sol\":2195:2202  content */\n      dup3\n        /* \"EternalJournalism.sol\":2179:2204  keccak256(bytes(content)) */\n      dup1\n      mload\n      swap1\n      0x20\n      add\n      keccak256\n        /* \"EternalJournalism.sol\":2179:2241  keccak256(bytes(content)) != keccak256(bytes(article.content)) */\n      sub\n        /* \"EternalJournalism.sol\":2171:2274  require(keccak256(bytes(content)) != keccak256(bytes(article.content)), \"Article content is identical\") */\n      tag_75\n      jumpi\n      mload(0x40)\n      shl(0xe5, 0x461bcd)\n      dup2\n      mstore\n        /* \"#utility.yul\":10236:10238   */\n      0x20\n        /* \"EternalJournalism.sol\":2171:2274  require(keccak256(bytes(content)) != keccak256(bytes(article.content)), \"Article content is identical\") */\n      0x04\n      dup3\n      add\n        /* \"#utility.yul\":10218:10239   */\n      mstore\n        /* \"#utility.yul\":10275:10277   */\n      0x1c\n        /* \"#utility.yul\":10255:10273   */\n      0x24\n      dup3\n      add\n        /* \"#utility.yul\":10248:10278   */\n      mstore\n        /* \"#utility.yul\":10314:10344   */\n      0x41727469636c6520636f6e74656e74206973206964656e746963616c00000000\n        /* \"#utility.yul\":10294:10312   */\n      0x44\n      dup3\n      add\n        /* \"#utility.yul\":10287:10345   */\n      mstore\n        /* \"#utility.yul\":10362:10380   */\n      0x64\n      add\n        /* \"EternalJournalism.sol\":2171:2274  require(keccak256(bytes(content)) != keccak256(bytes(article.content)), \"Article content is identical\") */\n      tag_41\n        /* \"#utility.yul\":10034:10386   */\n      jump\n        /* \"EternalJournalism.sol\":2171:2274  require(keccak256(bytes(content)) != keccak256(bytes(article.content)), \"Article content is identical\") */\n    tag_75:\n        /* \"EternalJournalism.sol\":2130:2420  if (article.isFullArticle) {... */\n      jump(tag_80)\n    tag_72:\n        /* \"EternalJournalism.sol\":2358:2365  article */\n      dup1\n        /* \"EternalJournalism.sol\":2358:2374  article.ipfsHash */\n      0x03\n      add\n        /* \"EternalJournalism.sol\":2342:2376  keccak256(bytes(article.ipfsHash)) */\n      mload(0x40)\n      tag_79\n      swap2\n      swap1\n      tag_74\n      jump\t// in\n    tag_79:\n      mload(0x40)\n      dup1\n      swap2\n      sub\n      swap1\n      keccak256\n        /* \"EternalJournalism.sol\":2329:2336  content */\n      dup3\n        /* \"EternalJournalism.sol\":2313:2338  keccak256(bytes(content)) */\n      dup1\n      mload\n      swap1\n      0x20\n      add\n      keccak256\n        /* \"EternalJournalism.sol\":2313:2376  keccak256(bytes(content)) != keccak256(bytes(article.ipfsHash)) */\n      sub\n        /* \"EternalJournalism.sol\":2305:2409  require(keccak256(bytes(content)) != keccak256(bytes(article.ipfsHash)), \"Article content is identical\") */\n      tag_80\n      jumpi\n      mload(0x40)\n      shl(0xe5, 0x461bcd)\n      dup2\n      mstore\n        /* \"#utility.yul\":10236:10238   */\n      0x20\n        /* \"EternalJournalism.sol\":2305:2409  require(keccak256(bytes(content)) != keccak256(bytes(article.ipfsHash)), \"Article content is identical\") */\n      0x04\n      dup3\n      add\n        /* \"#utility.yul\":10218:10239   */\n      mstore\n        /* \"#utility.yul\":10275:10277   */\n      0x1c\n        /* \"#utility.yul\":10255:10273   */\n      0x24\n      dup3\n      add\n        /* \"#utility.yul\":10248:10278   */\n      mstore\n        /* \"#utility.yul\":10314:10344   */\n      0x41727469636c6520636f6e74656e74206973206964656e746963616c00000000\n        /* \"#utility.yul\":10294:10312   */\n      0x44\n      dup3\n      add\n        /* \"#utility.yul\":10287:10345   */\n      mstore\n        /* \"#utility.yul\":10362:10380   */\n      0x64\n      add\n        /* \"EternalJournalism.sol\":2305:2409  require(keccak256(bytes(content)) != keccak256(bytes(article.ipfsHash)), \"Article content is identical\") */\n      tag_41\n        /* \"#utility.yul\":10034:10386   */\n      jump\n        /* \"EternalJournalism.sol\":2305:2409  require(keccak256(bytes(content)) != keccak256(bytes(article.ipfsHash)), \"Article content is identical\") */\n    tag_80:\n        /* \"EternalJournalism.sol\":2430:2445  article.content */\n      0x02\n      dup2\n      add\n        /* \"EternalJournalism.sol\":2430:2455  article.content = content */\n      tag_82\n        /* \"EternalJournalism.sol\":2448:2455  content */\n      dup4\n        /* \"EternalJournalism.sol\":2430:2445  article.content */\n      dup3\n        /* \"EternalJournalism.sol\":2430:2455  article.content = content */\n      tag_52\n      jump\t// in\n    tag_82:\n      pop\n        /* \"EternalJournalism.sol\":2485:2500  block.timestamp */\n      timestamp\n        /* \"EternalJournalism.sol\":2465:2482  article.timestamp */\n      0x04\n      dup3\n      add\n        /* \"EternalJournalism.sol\":2465:2500  article.timestamp = block.timestamp */\n      sstore\n        /* \"EternalJournalism.sol\":2524:2551  ArticleUpdated(id, content) */\n      mload(0x40)\n      tag_83\n      swap1\n        /* \"EternalJournalism.sol\":2539:2541  id */\n      dup5\n      swap1\n        /* \"EternalJournalism.sol\":2524:2551  ArticleUpdated(id, content) */\n      tag_50\n      jump\t// in\n    tag_83:\n      mload(0x40)\n      dup1\n      swap2\n      sub\n      swap1\n      keccak256\n      0xafdae258fc8810613d877811fd188a2d851b061e245cda31052126b649370177\n        /* \"EternalJournalism.sol\":2543:2550  content */\n      dup4\n        /* \"EternalJournalism.sol\":2524:2551  ArticleUpdated(id, content) */\n      mload(0x40)\n      tag_57\n      swap2\n      swap1\n      tag_85\n      jump\t// in\n        /* \"EternalJournalism.sol\":1210:1544  function storeFullArticle(string memory id, string memory title, string memory content) external onlyOwner {... */\n    tag_32:\n        /* \"EternalJournalism.sol\":605:610  owner */\n      and(sub(shl(0xa0, 0x01), 0x01), sload(0x00))\n        /* \"EternalJournalism.sol\":591:601  msg.sender */\n      caller\n        /* \"EternalJournalism.sol\":591:610  msg.sender == owner */\n      eq\n        /* \"EternalJournalism.sol\":583:661  require(msg.sender == owner, \"Only the contract owner can call this function\") */\n      tag_87\n      jumpi\n      mload(0x40)\n      shl(0xe5, 0x461bcd)\n      dup2\n      mstore\n      0x04\n      add\n      tag_41\n      swap1\n      tag_42\n      jump\t// in\n    tag_87:\n        /* \"EternalJournalism.sol\":1336:1355  isArticleStored(id) */\n      tag_90\n        /* \"EternalJournalism.sol\":1352:1354  id */\n      dup4\n        /* \"EternalJournalism.sol\":1336:1351  isArticleStored */\n      tag_45\n        /* \"EternalJournalism.sol\":1336:1355  isArticleStored(id) */\n      jump\t// in\n    tag_90:\n        /* \"EternalJournalism.sol\":1335:1355  !isArticleStored(id) */\n      iszero\n        /* \"EternalJournalism.sol\":1327:1400  require(!isArticleStored(id), \"Article with the given ID already exists\") */\n      tag_91\n      jumpi\n      mload(0x40)\n      shl(0xe5, 0x461bcd)\n      dup2\n      mstore\n      0x04\n      add\n      tag_41\n      swap1\n      tag_48\n      jump\t// in\n    tag_91:\n        /* \"EternalJournalism.sol\":1425:1479  Article(id, title, content, \"\", block.timestamp, true) */\n      0x40\n      dup1\n      mload\n      0xc0\n      dup2\n      add\n      dup3\n      mstore\n      dup5\n      dup2\n      mstore\n      0x20\n      dup1\n      dup3\n      add\n      dup6\n      swap1\n      mstore\n      dup2\n      dup4\n      add\n      dup5\n      swap1\n      mstore\n      dup3\n      mload\n      swap1\n      dup2\n      add\n      dup4\n      mstore\n      0x00\n      dup2\n      mstore\n      0x60\n      dup3\n      add\n      mstore\n        /* \"EternalJournalism.sol\":1457:1472  block.timestamp */\n      timestamp\n        /* \"EternalJournalism.sol\":1425:1479  Article(id, title, content, \"\", block.timestamp, true) */\n      0x80\n      dup3\n      add\n      mstore\n        /* \"EternalJournalism.sol\":1474:1478  true */\n      0x01\n        /* \"EternalJournalism.sol\":1425:1479  Article(id, title, content, \"\", block.timestamp, true) */\n      0xa0\n      dup3\n      add\n      mstore\n        /* \"EternalJournalism.sol\":1410:1422  articles[id] */\n      swap1\n      mload\n        /* \"EternalJournalism.sol\":1410:1418  articles */\n      0x02\n      swap1\n        /* \"EternalJournalism.sol\":1410:1422  articles[id] */\n      tag_93\n      swap1\n        /* \"EternalJournalism.sol\":1433:1435  id */\n      dup7\n      swap1\n        /* \"EternalJournalism.sol\":1410:1422  articles[id] */\n      tag_50\n      jump\t// in\n    tag_93:\n      swap1\n      dup2\n      mstore\n      mload(0x40)\n      swap1\n      dup2\n      swap1\n      sub\n      0x20\n      add\n      swap1\n      keccak256\n        /* \"EternalJournalism.sol\":1410:1479  articles[id] = Article(id, title, content, \"\", block.timestamp, true) */\n      dup2\n      mload\n        /* \"EternalJournalism.sol\":1410:1422  articles[id] */\n      dup2\n      swap1\n        /* \"EternalJournalism.sol\":1410:1479  articles[id] = Article(id, title, content, \"\", block.timestamp, true) */\n      tag_94\n      swap1\n        /* \"EternalJournalism.sol\":1410:1422  articles[id] */\n      dup3\n        /* \"EternalJournalism.sol\":1410:1479  articles[id] = Article(id, title, content, \"\", block.timestamp, true) */\n      tag_52\n      jump\t// in\n    tag_94:\n      pop\n      0x20\n      dup3\n      add\n      mload\n      0x01\n      dup3\n      add\n      swap1\n      tag_95\n      swap1\n      dup3\n      tag_52\n      jump\t// in\n    tag_95:\n      pop\n      0x40\n      dup3\n      add\n      mload\n      0x02\n      dup3\n      add\n      swap1\n      tag_96\n      swap1\n      dup3\n      tag_52\n      jump\t// in\n    tag_96:\n      pop\n      0x60\n      dup3\n      add\n      mload\n      0x03\n      dup3\n      add\n      swap1\n      tag_97\n      swap1\n      dup3\n      tag_52\n      jump\t// in\n    tag_97:\n      pop\n      0x80\n      dup3\n      add\n      mload\n      0x04\n      dup3\n      add\n      sstore\n      0xa0\n      swap1\n      swap2\n      add\n      mload\n      0x05\n      swap1\n      swap2\n      add\n      dup1\n      sload\n      not(0xff)\n      and\n      swap2\n      iszero\n      iszero\n      swap2\n      swap1\n      swap2\n      or\n      swap1\n      sstore\n        /* \"EternalJournalism.sol\":1494:1537  ArticleStored(id, title, content, \"\", true) */\n      mload(0x40)\n      tag_98\n      swap1\n        /* \"EternalJournalism.sol\":1508:1510  id */\n      dup5\n      swap1\n        /* \"EternalJournalism.sol\":1494:1537  ArticleStored(id, title, content, \"\", true) */\n      tag_50\n      jump\t// in\n    tag_98:\n      mload(0x40)\n      dup1\n      swap2\n      sub\n      swap1\n      keccak256\n      0x4ac6791f67e50e34255c7ab38e9ded0323b080f3c4bd2956c8aed38e38d3f0fe\n        /* \"EternalJournalism.sol\":1512:1517  title */\n      dup4\n        /* \"EternalJournalism.sol\":1519:1526  content */\n      dup4\n        /* \"EternalJournalism.sol\":1532:1536  true */\n      0x01\n        /* \"EternalJournalism.sol\":1494:1537  ArticleStored(id, title, content, \"\", true) */\n      mload(0x40)\n      tag_57\n      swap4\n      swap3\n      swap2\n      swap1\n      tag_100\n      jump\t// in\n        /* \"EternalJournalism.sol\":888:1200  function getArticle(string memory id) external view returns (string memory, string memory, string memory, string memory, uint256, bool) {... */\n    tag_36:\n        /* \"EternalJournalism.sol\":949:962  string memory */\n      0x60\n        /* \"EternalJournalism.sol\":964:977  string memory */\n      dup1\n        /* \"EternalJournalism.sol\":979:992  string memory */\n      0x60\n        /* \"EternalJournalism.sol\":994:1007  string memory */\n      dup1\n        /* \"EternalJournalism.sol\":1009:1016  uint256 */\n      0x00\n        /* \"EternalJournalism.sol\":1018:1022  bool */\n      dup1\n        /* \"EternalJournalism.sol\":1034:1057  Article storage article */\n      0x00\n        /* \"EternalJournalism.sol\":1060:1068  articles */\n      0x02\n        /* \"EternalJournalism.sol\":1069:1071  id */\n      dup9\n        /* \"EternalJournalism.sol\":1060:1072  articles[id] */\n      mload(0x40)\n      tag_102\n      swap2\n      swap1\n      tag_50\n      jump\t// in\n    tag_102:\n      swap1\n      dup2\n      mstore\n      0x20\n      add\n      mload(0x40)\n      dup1\n      swap2\n      sub\n      swap1\n      keccak256\n        /* \"EternalJournalism.sol\":1034:1072  Article storage article = articles[id] */\n      swap1\n      pop\n        /* \"EternalJournalism.sol\":1090:1097  article */\n      dup1\n        /* \"EternalJournalism.sol\":1090:1100  article.id */\n      0x00\n      add\n        /* \"EternalJournalism.sol\":1102:1109  article */\n      dup2\n        /* \"EternalJournalism.sol\":1102:1115  article.title */\n      0x01\n      add\n        /* \"EternalJournalism.sol\":1117:1124  article */\n      dup3\n        /* \"EternalJournalism.sol\":1117:1132  article.content */\n      0x02\n      add\n        /* \"EternalJournalism.sol\":1134:1141  article */\n      dup4\n        /* \"EternalJournalism.sol\":1134:1150  article.ipfsHash */\n      0x03\n      add\n        /* \"EternalJournalism.sol\":1152:1159  article */\n      dup5\n        /* \"EternalJournalism.sol\":1152:1169  article.timestamp */\n      0x04\n      add\n      sload\n        /* \"EternalJournalism.sol\":1171:1178  article */\n      dup6\n        /* \"EternalJournalism.sol\":1171:1192  article.isFullArticle */\n      0x05\n      add\n      0x00\n      swap1\n      sload\n      swap1\n      0x0100\n      exp\n      swap1\n      div\n      0xff\n      and\n        /* \"EternalJournalism.sol\":1082:1193  return (article.id, article.title, article.content, article.ipfsHash, article.timestamp, article.isFullArticle) */\n      dup6\n      dup1\n      sload\n      tag_103\n      swap1\n      tag_104\n      jump\t// in\n    tag_103:\n      dup1\n      0x1f\n      add\n      0x20\n      dup1\n      swap2\n      div\n      mul\n      0x20\n      add\n      mload(0x40)\n      swap1\n      dup2\n      add\n      0x40\n      mstore\n      dup1\n      swap3\n      swap2\n      swap1\n      dup2\n      dup2\n      mstore\n      0x20\n      add\n      dup3\n      dup1\n      sload\n      tag_105\n      swap1\n      tag_104\n      jump\t// in\n    tag_105:\n      dup1\n      iszero\n      tag_106\n      jumpi\n      dup1\n      0x1f\n      lt\n      tag_107\n      jumpi\n      0x0100\n      dup1\n      dup4\n      sload\n      div\n      mul\n      dup4\n      mstore\n      swap2\n      0x20\n      add\n      swap2\n      jump(tag_106)\n    tag_107:\n      dup3\n      add\n      swap2\n      swap1\n      0x00\n      mstore\n      keccak256(0x00, 0x20)\n      swap1\n    tag_108:\n      dup2\n      sload\n      dup2\n      mstore\n      swap1\n      0x01\n      add\n      swap1\n      0x20\n      add\n      dup1\n      dup4\n      gt\n      tag_108\n      jumpi\n      dup3\n      swap1\n      sub\n      0x1f\n      and\n      dup3\n      add\n      swap2\n    tag_106:\n      pop\n      pop\n      pop\n      pop\n      pop\n      swap6\n      pop\n      dup5\n      dup1\n      sload\n      tag_109\n      swap1\n      tag_104\n      jump\t// in\n    tag_109:\n      dup1\n      0x1f\n      add\n      0x20\n      dup1\n      swap2\n      div\n      mul\n      0x20\n      add\n      mload(0x40)\n      swap1\n      dup2\n      add\n      0x40\n      mstore\n      dup1\n      swap3\n      swap2\n      swap1\n      dup2\n      dup2\n      mstore\n      0x20\n      add\n      dup3\n      dup1\n      sload\n      tag_110\n      swap1\n      tag_104\n      jump\t// in\n    tag_110:\n      dup1\n      iszero\n      tag_111\n      jumpi\n      dup1\n      0x1f\n      lt\n      tag_112\n      jumpi\n      0x0100\n      dup1\n      dup4\n      sload\n      div\n      mul\n      dup4\n      mstore\n      swap2\n      0x20\n      add\n      swap2\n      jump(tag_111)\n    tag_112:\n      dup3\n      add\n      swap2\n      swap1\n      0x00\n      mstore\n      keccak256(0x00, 0x20)\n      swap1\n    tag_113:\n      dup2\n      sload\n      dup2\n      mstore\n      swap1\n      0x01\n      add\n      swap1\n      0x20\n      add\n      dup1\n      dup4\n      gt\n      tag_113\n      jumpi\n      dup3\n      swap1\n      sub\n      0x1f\n      and\n      dup3\n      add\n      swap2\n    tag_111:\n      pop\n      pop\n      pop\n      pop\n      pop\n      swap5\n      pop\n      dup4\n      dup1\n      sload\n      tag_114\n      swap1\n      tag_104\n      jump\t// in\n    tag_114:\n      dup1\n      0x1f\n      add\n      0x20\n      dup1\n      swap2\n      div\n      mul\n      0x20\n      add\n      mload(0x40)\n      swap1\n      dup2\n      add\n      0x40\n      mstore\n      dup1\n      swap3\n      swap2\n      swap1\n      dup2\n      dup2\n      mstore\n      0x20\n      add\n      dup3\n      dup1\n      sload\n      tag_115\n      swap1\n      tag_104\n      jump\t// in\n    tag_115:\n      dup1\n      iszero\n      tag_116\n      jumpi\n      dup1\n      0x1f\n      lt\n      tag_117\n      jumpi\n      0x0100\n      dup1\n      dup4\n      sload\n      div\n      mul\n      dup4\n      mstore\n      swap2\n      0x20\n      add\n      swap2\n      jump(tag_116)\n    tag_117:\n      dup3\n      add\n      swap2\n      swap1\n      0x00\n      mstore\n      keccak256(0x00, 0x20)\n      swap1\n    tag_118:\n      dup2\n      sload\n      dup2\n      mstore\n      swap1\n      0x01\n      add\n      swap1\n      0x20\n      add\n      dup1\n      dup4\n      gt\n      tag_118\n      jumpi\n      dup3\n      swap1\n      sub\n      0x1f\n      and\n      dup3\n      add\n      swap2\n    tag_116:\n      pop\n      pop\n      pop\n      pop\n      pop\n      swap4\n      pop\n      dup3\n      dup1\n      sload\n      tag_119\n      swap1\n      tag_104\n      jump\t// in\n    tag_119:\n      dup1\n      0x1f\n      add\n      0x20\n      dup1\n      swap2\n      div\n      mul\n      0x20\n      add\n      mload(0x40)\n      swap1\n      dup2\n      add\n      0x40\n      mstore\n      dup1\n      swap3\n      swap2\n      swap1\n      dup2\n      dup2\n      mstore\n      0x20\n      add\n      dup3\n      dup1\n      sload\n      tag_120\n      swap1\n      tag_104\n      jump\t// in\n    tag_120:\n      dup1\n      iszero\n      tag_121\n      jumpi\n      dup1\n      0x1f\n      lt\n      tag_122\n      jumpi\n      0x0100\n      dup1\n      dup4\n      sload\n      div\n      mul\n      dup4\n      mstore\n      swap2\n      0x20\n      add\n      swap2\n      jump(tag_121)\n    tag_122:\n      dup3\n      add\n      swap2\n      swap1\n      0x00\n      mstore\n      keccak256(0x00, 0x20)\n      swap1\n    tag_123:\n      dup2\n      sload\n      dup2\n      mstore\n      swap1\n      0x01\n      add\n      swap1\n      0x20\n      add\n      dup1\n      dup4\n      gt\n      tag_123\n      jumpi\n      dup3\n      swap1\n      sub\n      0x1f\n      and\n      dup3\n      add\n      swap2\n    tag_121:\n      pop\n      pop\n      pop\n      pop\n      pop\n      swap3\n      pop\n      swap7\n      pop\n      swap7\n      pop\n      swap7\n      pop\n      swap7\n      pop\n      swap7\n      pop\n      swap7\n      pop\n      pop\n        /* \"EternalJournalism.sol\":888:1200  function getArticle(string memory id) external view returns (string memory, string memory, string memory, string memory, uint256, bool) {... */\n      swap2\n      swap4\n      swap6\n      pop\n      swap2\n      swap4\n      swap6\n      jump\t// out\n        /* \"EternalJournalism.sol\":2568:2698  function isArticleStored(string memory id) internal view returns (bool) {... */\n    tag_45:\n        /* \"EternalJournalism.sol\":2634:2638  bool */\n      0x00\n        /* \"EternalJournalism.sol\":2663:2671  articles */\n      0x02\n        /* \"EternalJournalism.sol\":2672:2674  id */\n      dup3\n        /* \"EternalJournalism.sol\":2663:2675  articles[id] */\n      mload(0x40)\n      tag_125\n      swap2\n      swap1\n      tag_50\n      jump\t// in\n    tag_125:\n      swap1\n      dup2\n      mstore\n      mload(0x40)\n      swap1\n      dup2\n      swap1\n      sub\n      0x20\n      add\n      swap1\n      keccak256\n        /* \"EternalJournalism.sol\":2657:2686  bytes(articles[id].id).length */\n      dup1\n      sload\n      tag_126\n      swap1\n      tag_104\n      jump\t// in\n    tag_126:\n        /* \"EternalJournalism.sol\":2657:2691  bytes(articles[id].id).length != 0 */\n      iszero\n      iszero\n      swap4\n        /* \"EternalJournalism.sol\":2568:2698  function isArticleStored(string memory id) internal view returns (bool) {... */\n      swap3\n      pop\n      pop\n      pop\n      jump\t// out\n        /* \"#utility.yul\":222:349   */\n    tag_127:\n        /* \"#utility.yul\":283:293   */\n      0x4e487b71\n        /* \"#utility.yul\":278:281   */\n      0xe0\n        /* \"#utility.yul\":274:294   */\n      shl\n        /* \"#utility.yul\":271:272   */\n      0x00\n        /* \"#utility.yul\":264:295   */\n      mstore\n        /* \"#utility.yul\":314:318   */\n      0x41\n        /* \"#utility.yul\":311:312   */\n      0x04\n        /* \"#utility.yul\":304:319   */\n      mstore\n        /* \"#utility.yul\":338:342   */\n      0x24\n        /* \"#utility.yul\":335:336   */\n      0x00\n        /* \"#utility.yul\":328:343   */\n      revert\n        /* \"#utility.yul\":354:1073   */\n    tag_128:\n        /* \"#utility.yul\":397:402   */\n      0x00\n        /* \"#utility.yul\":450:453   */\n      dup3\n        /* \"#utility.yul\":443:447   */\n      0x1f\n        /* \"#utility.yul\":435:441   */\n      dup4\n        /* \"#utility.yul\":431:448   */\n      add\n        /* \"#utility.yul\":427:454   */\n      slt\n        /* \"#utility.yul\":417:472   */\n      tag_138\n      jumpi\n        /* \"#utility.yul\":468:469   */\n      0x00\n        /* \"#utility.yul\":465:466   */\n      dup1\n        /* \"#utility.yul\":458:470   */\n      revert\n        /* \"#utility.yul\":417:472   */\n    tag_138:\n        /* \"#utility.yul\":504:510   */\n      dup2\n        /* \"#utility.yul\":491:511   */\n      calldataload\n        /* \"#utility.yul\":530:548   */\n      0xffffffffffffffff\n        /* \"#utility.yul\":567:569   */\n      dup1\n        /* \"#utility.yul\":563:565   */\n      dup3\n        /* \"#utility.yul\":560:570   */\n      gt\n        /* \"#utility.yul\":557:593   */\n      iszero\n      tag_140\n      jumpi\n        /* \"#utility.yul\":573:591   */\n      tag_140\n      tag_127\n      jump\t// in\n    tag_140:\n        /* \"#utility.yul\":648:650   */\n      0x40\n        /* \"#utility.yul\":642:651   */\n      mload\n        /* \"#utility.yul\":616:618   */\n      0x1f\n        /* \"#utility.yul\":702:715   */\n      dup4\n      add\n      not(0x1f)\n        /* \"#utility.yul\":698:720   */\n      swap1\n      dup2\n      and\n        /* \"#utility.yul\":722:724   */\n      0x3f\n        /* \"#utility.yul\":694:725   */\n      add\n        /* \"#utility.yul\":690:730   */\n      and\n        /* \"#utility.yul\":678:731   */\n      dup2\n      add\n      swap1\n        /* \"#utility.yul\":746:764   */\n      dup3\n      dup3\n      gt\n        /* \"#utility.yul\":766:788   */\n      dup2\n      dup4\n      lt\n        /* \"#utility.yul\":743:789   */\n      or\n        /* \"#utility.yul\":740:812   */\n      iszero\n      tag_142\n      jumpi\n        /* \"#utility.yul\":792:810   */\n      tag_142\n      tag_127\n      jump\t// in\n    tag_142:\n        /* \"#utility.yul\":832:842   */\n      dup2\n        /* \"#utility.yul\":828:830   */\n      0x40\n        /* \"#utility.yul\":821:843   */\n      mstore\n        /* \"#utility.yul\":867:869   */\n      dup4\n        /* \"#utility.yul\":859:865   */\n      dup2\n        /* \"#utility.yul\":852:870   */\n      mstore\n        /* \"#utility.yul\":913:916   */\n      dup7\n        /* \"#utility.yul\":906:910   */\n      0x20\n        /* \"#utility.yul\":901:903   */\n      dup6\n        /* \"#utility.yul\":893:899   */\n      dup9\n        /* \"#utility.yul\":889:904   */\n      add\n        /* \"#utility.yul\":885:911   */\n      add\n        /* \"#utility.yul\":882:917   */\n      gt\n        /* \"#utility.yul\":879:934   */\n      iszero\n      tag_143\n      jumpi\n        /* \"#utility.yul\":930:931   */\n      0x00\n        /* \"#utility.yul\":927:928   */\n      dup1\n        /* \"#utility.yul\":920:932   */\n      revert\n        /* \"#utility.yul\":879:934   */\n    tag_143:\n        /* \"#utility.yul\":994:996   */\n      dup4\n        /* \"#utility.yul\":987:991   */\n      0x20\n        /* \"#utility.yul\":979:985   */\n      dup8\n        /* \"#utility.yul\":975:992   */\n      add\n        /* \"#utility.yul\":968:972   */\n      0x20\n        /* \"#utility.yul\":960:966   */\n      dup4\n        /* \"#utility.yul\":956:973   */\n      add\n        /* \"#utility.yul\":943:997   */\n      calldatacopy\n        /* \"#utility.yul\":1041:1042   */\n      0x00\n        /* \"#utility.yul\":1034:1038   */\n      0x20\n        /* \"#utility.yul\":1029:1031   */\n      dup6\n        /* \"#utility.yul\":1021:1027   */\n      dup4\n        /* \"#utility.yul\":1017:1032   */\n      add\n        /* \"#utility.yul\":1013:1039   */\n      add\n        /* \"#utility.yul\":1006:1043   */\n      mstore\n        /* \"#utility.yul\":1061:1067   */\n      dup1\n        /* \"#utility.yul\":1052:1067   */\n      swap5\n      pop\n      pop\n      pop\n      pop\n      pop\n        /* \"#utility.yul\":354:1073   */\n      swap3\n      swap2\n      pop\n      pop\n      jump\t// out\n        /* \"#utility.yul\":1078:1821   */\n    tag_17:\n        /* \"#utility.yul\":1185:1191   */\n      0x00\n        /* \"#utility.yul\":1193:1199   */\n      dup1\n        /* \"#utility.yul\":1201:1207   */\n      0x00\n        /* \"#utility.yul\":1254:1256   */\n      0x60\n        /* \"#utility.yul\":1242:1251   */\n      dup5\n        /* \"#utility.yul\":1233:1240   */\n      dup7\n        /* \"#utility.yul\":1229:1252   */\n      sub\n        /* \"#utility.yul\":1225:1257   */\n      slt\n        /* \"#utility.yul\":1222:1274   */\n      iszero\n      tag_145\n      jumpi\n        /* \"#utility.yul\":1270:1271   */\n      0x00\n        /* \"#utility.yul\":1267:1268   */\n      dup1\n        /* \"#utility.yul\":1260:1272   */\n      revert\n        /* \"#utility.yul\":1222:1274   */\n    tag_145:\n        /* \"#utility.yul\":1310:1319   */\n      dup4\n        /* \"#utility.yul\":1297:1320   */\n      calldataload\n        /* \"#utility.yul\":1339:1357   */\n      0xffffffffffffffff\n        /* \"#utility.yul\":1380:1382   */\n      dup1\n        /* \"#utility.yul\":1372:1378   */\n      dup3\n        /* \"#utility.yul\":1369:1383   */\n      gt\n        /* \"#utility.yul\":1366:1400   */\n      iszero\n      tag_146\n      jumpi\n        /* \"#utility.yul\":1396:1397   */\n      0x00\n        /* \"#utility.yul\":1393:1394   */\n      dup1\n        /* \"#utility.yul\":1386:1398   */\n      revert\n        /* \"#utility.yul\":1366:1400   */\n    tag_146:\n        /* \"#utility.yul\":1419:1469   */\n      tag_147\n        /* \"#utility.yul\":1461:1468   */\n      dup8\n        /* \"#utility.yul\":1452:1458   */\n      dup4\n        /* \"#utility.yul\":1441:1450   */\n      dup9\n        /* \"#utility.yul\":1437:1459   */\n      add\n        /* \"#utility.yul\":1419:1469   */\n      tag_128\n      jump\t// in\n    tag_147:\n        /* \"#utility.yul\":1409:1469   */\n      swap5\n      pop\n        /* \"#utility.yul\":1522:1524   */\n      0x20\n        /* \"#utility.yul\":1511:1520   */\n      dup7\n        /* \"#utility.yul\":1507:1525   */\n      add\n        /* \"#utility.yul\":1494:1526   */\n      calldataload\n        /* \"#utility.yul\":1478:1526   */\n      swap2\n      pop\n        /* \"#utility.yul\":1551:1553   */\n      dup1\n        /* \"#utility.yul\":1541:1549   */\n      dup3\n        /* \"#utility.yul\":1538:1554   */\n      gt\n        /* \"#utility.yul\":1535:1571   */\n      iszero\n      tag_148\n      jumpi\n        /* \"#utility.yul\":1567:1568   */\n      0x00\n        /* \"#utility.yul\":1564:1565   */\n      dup1\n        /* \"#utility.yul\":1557:1569   */\n      revert\n        /* \"#utility.yul\":1535:1571   */\n    tag_148:\n        /* \"#utility.yul\":1590:1642   */\n      tag_149\n        /* \"#utility.yul\":1634:1641   */\n      dup8\n        /* \"#utility.yul\":1623:1631   */\n      dup4\n        /* \"#utility.yul\":1612:1621   */\n      dup9\n        /* \"#utility.yul\":1608:1632   */\n      add\n        /* \"#utility.yul\":1590:1642   */\n      tag_128\n      jump\t// in\n    tag_149:\n        /* \"#utility.yul\":1580:1642   */\n      swap4\n      pop\n        /* \"#utility.yul\":1695:1697   */\n      0x40\n        /* \"#utility.yul\":1684:1693   */\n      dup7\n        /* \"#utility.yul\":1680:1698   */\n      add\n        /* \"#utility.yul\":1667:1699   */\n      calldataload\n        /* \"#utility.yul\":1651:1699   */\n      swap2\n      pop\n        /* \"#utility.yul\":1724:1726   */\n      dup1\n        /* \"#utility.yul\":1714:1722   */\n      dup3\n        /* \"#utility.yul\":1711:1727   */\n      gt\n        /* \"#utility.yul\":1708:1744   */\n      iszero\n      tag_150\n      jumpi\n        /* \"#utility.yul\":1740:1741   */\n      0x00\n        /* \"#utility.yul\":1737:1738   */\n      dup1\n        /* \"#utility.yul\":1730:1742   */\n      revert\n        /* \"#utility.yul\":1708:1744   */\n    tag_150:\n      pop\n        /* \"#utility.yul\":1763:1815   */\n      tag_151\n        /* \"#utility.yul\":1807:1814   */\n      dup7\n        /* \"#utility.yul\":1796:1804   */\n      dup3\n        /* \"#utility.yul\":1785:1794   */\n      dup8\n        /* \"#utility.yul\":1781:1805   */\n      add\n        /* \"#utility.yul\":1763:1815   */\n      tag_128\n      jump\t// in\n    tag_151:\n        /* \"#utility.yul\":1753:1815   */\n      swap2\n      pop\n      pop\n        /* \"#utility.yul\":1078:1821   */\n      swap3\n      pop\n      swap3\n      pop\n      swap3\n      jump\t// out\n        /* \"#utility.yul\":1826:2112   */\n    tag_21:\n        /* \"#utility.yul\":1885:1891   */\n      0x00\n        /* \"#utility.yul\":1938:1940   */\n      0x20\n        /* \"#utility.yul\":1926:1935   */\n      dup3\n        /* \"#utility.yul\":1917:1924   */\n      dup5\n        /* \"#utility.yul\":1913:1936   */\n      sub\n        /* \"#utility.yul\":1909:1941   */\n      slt\n        /* \"#utility.yul\":1906:1958   */\n      iszero\n      tag_153\n      jumpi\n        /* \"#utility.yul\":1954:1955   */\n      0x00\n        /* \"#utility.yul\":1951:1952   */\n      dup1\n        /* \"#utility.yul\":1944:1956   */\n      revert\n        /* \"#utility.yul\":1906:1958   */\n    tag_153:\n        /* \"#utility.yul\":1980:2003   */\n      dup2\n      calldataload\n      sub(shl(0xa0, 0x01), 0x01)\n        /* \"#utility.yul\":2032:2063   */\n      dup2\n      and\n        /* \"#utility.yul\":2022:2064   */\n      dup2\n      eq\n        /* \"#utility.yul\":2012:2082   */\n      tag_154\n      jumpi\n        /* \"#utility.yul\":2078:2079   */\n      0x00\n        /* \"#utility.yul\":2075:2076   */\n      dup1\n        /* \"#utility.yul\":2068:2080   */\n      revert\n        /* \"#utility.yul\":2012:2082   */\n    tag_154:\n        /* \"#utility.yul\":2101:2106   */\n      swap4\n        /* \"#utility.yul\":1826:2112   */\n      swap3\n      pop\n      pop\n      pop\n      jump\t// out\n        /* \"#utility.yul\":2117:2660   */\n    tag_28:\n        /* \"#utility.yul\":2205:2211   */\n      0x00\n        /* \"#utility.yul\":2213:2219   */\n      dup1\n        /* \"#utility.yul\":2266:2268   */\n      0x40\n        /* \"#utility.yul\":2254:2263   */\n      dup4\n        /* \"#utility.yul\":2245:2252   */\n      dup6\n        /* \"#utility.yul\":2241:2264   */\n      sub\n        /* \"#utility.yul\":2237:2269   */\n      slt\n        /* \"#utility.yul\":2234:2286   */\n      iszero\n      tag_156\n      jumpi\n        /* \"#utility.yul\":2282:2283   */\n      0x00\n        /* \"#utility.yul\":2279:2280   */\n      dup1\n        /* \"#utility.yul\":2272:2284   */\n      revert\n        /* \"#utility.yul\":2234:2286   */\n    tag_156:\n        /* \"#utility.yul\":2322:2331   */\n      dup3\n        /* \"#utility.yul\":2309:2332   */\n      calldataload\n        /* \"#utility.yul\":2351:2369   */\n      0xffffffffffffffff\n        /* \"#utility.yul\":2392:2394   */\n      dup1\n        /* \"#utility.yul\":2384:2390   */\n      dup3\n        /* \"#utility.yul\":2381:2395   */\n      gt\n        /* \"#utility.yul\":2378:2412   */\n      iszero\n      tag_157\n      jumpi\n        /* \"#utility.yul\":2408:2409   */\n      0x00\n        /* \"#utility.yul\":2405:2406   */\n      dup1\n        /* \"#utility.yul\":2398:2410   */\n      revert\n        /* \"#utility.yul\":2378:2412   */\n    tag_157:\n        /* \"#utility.yul\":2431:2481   */\n      tag_158\n        /* \"#utility.yul\":2473:2480   */\n      dup7\n        /* \"#utility.yul\":2464:2470   */\n      dup4\n        /* \"#utility.yul\":2453:2462   */\n      dup8\n        /* \"#utility.yul\":2449:2471   */\n      add\n        /* \"#utility.yul\":2431:2481   */\n      tag_128\n      jump\t// in\n    tag_158:\n        /* \"#utility.yul\":2421:2481   */\n      swap4\n      pop\n        /* \"#utility.yul\":2534:2536   */\n      0x20\n        /* \"#utility.yul\":2523:2532   */\n      dup6\n        /* \"#utility.yul\":2519:2537   */\n      add\n        /* \"#utility.yul\":2506:2538   */\n      calldataload\n        /* \"#utility.yul\":2490:2538   */\n      swap2\n      pop\n        /* \"#utility.yul\":2563:2565   */\n      dup1\n        /* \"#utility.yul\":2553:2561   */\n      dup3\n        /* \"#utility.yul\":2550:2566   */\n      gt\n        /* \"#utility.yul\":2547:2583   */\n      iszero\n      tag_159\n      jumpi\n        /* \"#utility.yul\":2579:2580   */\n      0x00\n        /* \"#utility.yul\":2576:2577   */\n      dup1\n        /* \"#utility.yul\":2569:2581   */\n      revert\n        /* \"#utility.yul\":2547:2583   */\n    tag_159:\n      pop\n        /* \"#utility.yul\":2602:2654   */\n      tag_160\n        /* \"#utility.yul\":2646:2653   */\n      dup6\n        /* \"#utility.yul\":2635:2643   */\n      dup3\n        /* \"#utility.yul\":2624:2633   */\n      dup7\n        /* \"#utility.yul\":2620:2644   */\n      add\n        /* \"#utility.yul\":2602:2654   */\n      tag_128\n      jump\t// in\n    tag_160:\n        /* \"#utility.yul\":2592:2654   */\n      swap2\n      pop\n      pop\n        /* \"#utility.yul\":2117:2660   */\n      swap3\n      pop\n      swap3\n      swap1\n      pop\n      jump\t// out\n        /* \"#utility.yul\":2665:2987   */\n    tag_35:\n        /* \"#utility.yul\":2734:2740   */\n      0x00\n        /* \"#utility.yul\":2787:2789   */\n      0x20\n        /* \"#utility.yul\":2775:2784   */\n      dup3\n        /* \"#utility.yul\":2766:2773   */\n      dup5\n        /* \"#utility.yul\":2762:2785   */\n      sub\n        /* \"#utility.yul\":2758:2790   */\n      slt\n        /* \"#utility.yul\":2755:2807   */\n      iszero\n      tag_162\n      jumpi\n        /* \"#utility.yul\":2803:2804   */\n      0x00\n        /* \"#utility.yul\":2800:2801   */\n      dup1\n        /* \"#utility.yul\":2793:2805   */\n      revert\n        /* \"#utility.yul\":2755:2807   */\n    tag_162:\n        /* \"#utility.yul\":2843:2852   */\n      dup2\n        /* \"#utility.yul\":2830:2853   */\n      calldataload\n        /* \"#utility.yul\":2876:2894   */\n      0xffffffffffffffff\n        /* \"#utility.yul\":2868:2874   */\n      dup2\n        /* \"#utility.yul\":2865:2895   */\n      gt\n        /* \"#utility.yul\":2862:2912   */\n      iszero\n      tag_163\n      jumpi\n        /* \"#utility.yul\":2908:2909   */\n      0x00\n        /* \"#utility.yul\":2905:2906   */\n      dup1\n        /* \"#utility.yul\":2898:2910   */\n      revert\n        /* \"#utility.yul\":2862:2912   */\n    tag_163:\n        /* \"#utility.yul\":2931:2981   */\n      tag_164\n        /* \"#utility.yul\":2973:2980   */\n      dup5\n        /* \"#utility.yul\":2964:2970   */\n      dup3\n        /* \"#utility.yul\":2953:2962   */\n      dup6\n        /* \"#utility.yul\":2949:2971   */\n      add\n        /* \"#utility.yul\":2931:2981   */\n      tag_128\n      jump\t// in\n    tag_164:\n        /* \"#utility.yul\":2921:2981   */\n      swap5\n        /* \"#utility.yul\":2665:2987   */\n      swap4\n      pop\n      pop\n      pop\n      pop\n      jump\t// out\n        /* \"#utility.yul\":2992:3242   */\n    tag_129:\n        /* \"#utility.yul\":3077:3078   */\n      0x00\n        /* \"#utility.yul\":3087:3200   */\n    tag_166:\n        /* \"#utility.yul\":3101:3107   */\n      dup4\n        /* \"#utility.yul\":3098:3099   */\n      dup2\n        /* \"#utility.yul\":3095:3108   */\n      lt\n        /* \"#utility.yul\":3087:3200   */\n      iszero\n      tag_168\n      jumpi\n        /* \"#utility.yul\":3177:3188   */\n      dup2\n      dup2\n      add\n        /* \"#utility.yul\":3171:3189   */\n      mload\n        /* \"#utility.yul\":3158:3169   */\n      dup4\n      dup3\n      add\n        /* \"#utility.yul\":3151:3190   */\n      mstore\n        /* \"#utility.yul\":3123:3125   */\n      0x20\n        /* \"#utility.yul\":3116:3126   */\n      add\n        /* \"#utility.yul\":3087:3200   */\n      jump(tag_166)\n    tag_168:\n      pop\n      pop\n        /* \"#utility.yul\":3234:3235   */\n      0x00\n        /* \"#utility.yul\":3216:3232   */\n      swap2\n      add\n        /* \"#utility.yul\":3209:3236   */\n      mstore\n        /* \"#utility.yul\":2992:3242   */\n      jump\t// out\n        /* \"#utility.yul\":3247:3518   */\n    tag_130:\n        /* \"#utility.yul\":3289:3292   */\n      0x00\n        /* \"#utility.yul\":3327:3332   */\n      dup2\n        /* \"#utility.yul\":3321:3333   */\n      mload\n        /* \"#utility.yul\":3354:3360   */\n      dup1\n        /* \"#utility.yul\":3349:3352   */\n      dup5\n        /* \"#utility.yul\":3342:3361   */\n      mstore\n        /* \"#utility.yul\":3370:3446   */\n      tag_170\n        /* \"#utility.yul\":3439:3445   */\n      dup2\n        /* \"#utility.yul\":3432:3436   */\n      0x20\n        /* \"#utility.yul\":3427:3430   */\n      dup7\n        /* \"#utility.yul\":3423:3437   */\n      add\n        /* \"#utility.yul\":3416:3420   */\n      0x20\n        /* \"#utility.yul\":3409:3414   */\n      dup7\n        /* \"#utility.yul\":3405:3421   */\n      add\n        /* \"#utility.yul\":3370:3446   */\n      tag_129\n      jump\t// in\n    tag_170:\n        /* \"#utility.yul\":3500:3502   */\n      0x1f\n        /* \"#utility.yul\":3479:3494   */\n      add\n      not(0x1f)\n        /* \"#utility.yul\":3475:3504   */\n      and\n        /* \"#utility.yul\":3466:3505   */\n      swap3\n      swap1\n      swap3\n      add\n        /* \"#utility.yul\":3507:3511   */\n      0x20\n        /* \"#utility.yul\":3462:3512   */\n      add\n      swap3\n        /* \"#utility.yul\":3247:3518   */\n      swap2\n      pop\n      pop\n      jump\t// out\n        /* \"#utility.yul\":3523:4388   */\n    tag_38:\n        /* \"#utility.yul\":3866:3869   */\n      0xc0\n        /* \"#utility.yul\":3855:3864   */\n      dup2\n        /* \"#utility.yul\":3848:3870   */\n      mstore\n        /* \"#utility.yul\":3829:3833   */\n      0x00\n        /* \"#utility.yul\":3893:3939   */\n      tag_172\n        /* \"#utility.yul\":3934:3937   */\n      0xc0\n        /* \"#utility.yul\":3923:3932   */\n      dup4\n        /* \"#utility.yul\":3919:3938   */\n      add\n        /* \"#utility.yul\":3911:3917   */\n      dup10\n        /* \"#utility.yul\":3893:3939   */\n      tag_130\n      jump\t// in\n    tag_172:\n        /* \"#utility.yul\":3987:3996   */\n      dup3\n        /* \"#utility.yul\":3979:3985   */\n      dup2\n        /* \"#utility.yul\":3975:3997   */\n      sub\n        /* \"#utility.yul\":3970:3972   */\n      0x20\n        /* \"#utility.yul\":3959:3968   */\n      dup5\n        /* \"#utility.yul\":3955:3973   */\n      add\n        /* \"#utility.yul\":3948:3998   */\n      mstore\n        /* \"#utility.yul\":4021:4054   */\n      tag_173\n        /* \"#utility.yul\":4047:4053   */\n      dup2\n        /* \"#utility.yul\":4039:4045   */\n      dup10\n        /* \"#utility.yul\":4021:4054   */\n      tag_130\n      jump\t// in\n    tag_173:\n        /* \"#utility.yul\":4007:4054   */\n      swap1\n      pop\n        /* \"#utility.yul\":4102:4111   */\n      dup3\n        /* \"#utility.yul\":4094:4100   */\n      dup2\n        /* \"#utility.yul\":4090:4112   */\n      sub\n        /* \"#utility.yul\":4085:4087   */\n      0x40\n        /* \"#utility.yul\":4074:4083   */\n      dup5\n        /* \"#utility.yul\":4070:4088   */\n      add\n        /* \"#utility.yul\":4063:4113   */\n      mstore\n        /* \"#utility.yul\":4136:4169   */\n      tag_174\n        /* \"#utility.yul\":4162:4168   */\n      dup2\n        /* \"#utility.yul\":4154:4160   */\n      dup9\n        /* \"#utility.yul\":4136:4169   */\n      tag_130\n      jump\t// in\n    tag_174:\n        /* \"#utility.yul\":4122:4169   */\n      swap1\n      pop\n        /* \"#utility.yul\":4217:4226   */\n      dup3\n        /* \"#utility.yul\":4209:4215   */\n      dup2\n        /* \"#utility.yul\":4205:4227   */\n      sub\n        /* \"#utility.yul\":4200:4202   */\n      0x60\n        /* \"#utility.yul\":4189:4198   */\n      dup5\n        /* \"#utility.yul\":4185:4203   */\n      add\n        /* \"#utility.yul\":4178:4228   */\n      mstore\n        /* \"#utility.yul\":4245:4278   */\n      tag_175\n        /* \"#utility.yul\":4271:4277   */\n      dup2\n        /* \"#utility.yul\":4263:4269   */\n      dup8\n        /* \"#utility.yul\":4245:4278   */\n      tag_130\n      jump\t// in\n    tag_175:\n        /* \"#utility.yul\":4309:4312   */\n      0x80\n        /* \"#utility.yul\":4294:4313   */\n      dup5\n      add\n        /* \"#utility.yul\":4287:4322   */\n      swap6\n      swap1\n      swap6\n      mstore\n      pop\n      pop\n        /* \"#utility.yul\":4366:4380   */\n      swap1\n      iszero\n        /* \"#utility.yul\":4359:4381   */\n      iszero\n        /* \"#utility.yul\":4353:4356   */\n      0xa0\n        /* \"#utility.yul\":4338:4357   */\n      swap1\n      swap2\n      add\n        /* \"#utility.yul\":4331:4382   */\n      mstore\n        /* \"#utility.yul\":4237:4278   */\n      swap5\n        /* \"#utility.yul\":3523:4388   */\n      swap4\n      pop\n      pop\n      pop\n      pop\n      jump\t// out\n        /* \"#utility.yul\":4393:4803   */\n    tag_42:\n        /* \"#utility.yul\":4595:4597   */\n      0x20\n        /* \"#utility.yul\":4577:4598   */\n      dup1\n      dup3\n      mstore\n        /* \"#utility.yul\":4634:4636   */\n      0x2e\n        /* \"#utility.yul\":4614:4632   */\n      swap1\n      dup3\n      add\n        /* \"#utility.yul\":4607:4637   */\n      mstore\n        /* \"#utility.yul\":4673:4707   */\n      0x4f6e6c792074686520636f6e7472616374206f776e65722063616e2063616c6c\n        /* \"#utility.yul\":4668:4670   */\n      0x40\n        /* \"#utility.yul\":4653:4671   */\n      dup3\n      add\n        /* \"#utility.yul\":4646:4708   */\n      mstore\n      shl(0x91, 0x103a3434b990333ab731ba34b7b7)\n        /* \"#utility.yul\":4739:4741   */\n      0x60\n        /* \"#utility.yul\":4724:4742   */\n      dup3\n      add\n        /* \"#utility.yul\":4717:4761   */\n      mstore\n        /* \"#utility.yul\":4793:4796   */\n      0x80\n        /* \"#utility.yul\":4778:4797   */\n      add\n      swap1\n        /* \"#utility.yul\":4393:4803   */\n      jump\t// out\n        /* \"#utility.yul\":4808:5212   */\n    tag_48:\n        /* \"#utility.yul\":5010:5012   */\n      0x20\n        /* \"#utility.yul\":4992:5013   */\n      dup1\n      dup3\n      mstore\n        /* \"#utility.yul\":5049:5051   */\n      0x28\n        /* \"#utility.yul\":5029:5047   */\n      swap1\n      dup3\n      add\n        /* \"#utility.yul\":5022:5052   */\n      mstore\n        /* \"#utility.yul\":5088:5122   */\n      0x41727469636c6520776974682074686520676976656e20494420616c72656164\n        /* \"#utility.yul\":5083:5085   */\n      0x40\n        /* \"#utility.yul\":5068:5086   */\n      dup3\n      add\n        /* \"#utility.yul\":5061:5123   */\n      mstore\n      shl(0xc0, 0x7920657869737473)\n        /* \"#utility.yul\":5154:5156   */\n      0x60\n        /* \"#utility.yul\":5139:5157   */\n      dup3\n      add\n        /* \"#utility.yul\":5132:5170   */\n      mstore\n        /* \"#utility.yul\":5202:5205   */\n      0x80\n        /* \"#utility.yul\":5187:5206   */\n      add\n      swap1\n        /* \"#utility.yul\":4808:5212   */\n      jump\t// out\n        /* \"#utility.yul\":5217:5506   */\n    tag_50:\n        /* \"#utility.yul\":5348:5351   */\n      0x00\n        /* \"#utility.yul\":5386:5392   */\n      dup3\n        /* \"#utility.yul\":5380:5393   */\n      mload\n        /* \"#utility.yul\":5402:5468   */\n      tag_179\n        /* \"#utility.yul\":5461:5467   */\n      dup2\n        /* \"#utility.yul\":5456:5459   */\n      dup5\n        /* \"#utility.yul\":5449:5453   */\n      0x20\n        /* \"#utility.yul\":5441:5447   */\n      dup8\n        /* \"#utility.yul\":5437:5454   */\n      add\n        /* \"#utility.yul\":5402:5468   */\n      tag_129\n      jump\t// in\n    tag_179:\n        /* \"#utility.yul\":5484:5500   */\n      swap2\n      swap1\n      swap2\n      add\n      swap3\n        /* \"#utility.yul\":5217:5506   */\n      swap2\n      pop\n      pop\n      jump\t// out\n        /* \"#utility.yul\":5511:5891   */\n    tag_104:\n        /* \"#utility.yul\":5590:5591   */\n      0x01\n        /* \"#utility.yul\":5586:5598   */\n      dup2\n      dup2\n      shr\n      swap1\n        /* \"#utility.yul\":5633:5645   */\n      dup3\n      and\n      dup1\n        /* \"#utility.yul\":5654:5715   */\n      tag_181\n      jumpi\n        /* \"#utility.yul\":5708:5712   */\n      0x7f\n        /* \"#utility.yul\":5700:5706   */\n      dup3\n        /* \"#utility.yul\":5696:5713   */\n      and\n        /* \"#utility.yul\":5686:5713   */\n      swap2\n      pop\n        /* \"#utility.yul\":5654:5715   */\n    tag_181:\n        /* \"#utility.yul\":5761:5763   */\n      0x20\n        /* \"#utility.yul\":5753:5759   */\n      dup3\n        /* \"#utility.yul\":5750:5764   */\n      lt\n        /* \"#utility.yul\":5730:5748   */\n      dup2\n        /* \"#utility.yul\":5727:5765   */\n      sub\n        /* \"#utility.yul\":5724:5885   */\n      tag_182\n      jumpi\n        /* \"#utility.yul\":5807:5817   */\n      0x4e487b71\n        /* \"#utility.yul\":5802:5805   */\n      0xe0\n        /* \"#utility.yul\":5798:5818   */\n      shl\n        /* \"#utility.yul\":5795:5796   */\n      0x00\n        /* \"#utility.yul\":5788:5819   */\n      mstore\n        /* \"#utility.yul\":5842:5846   */\n      0x22\n        /* \"#utility.yul\":5839:5840   */\n      0x04\n        /* \"#utility.yul\":5832:5847   */\n      mstore\n        /* \"#utility.yul\":5870:5874   */\n      0x24\n        /* \"#utility.yul\":5867:5868   */\n      0x00\n        /* \"#utility.yul\":5860:5875   */\n      revert\n        /* \"#utility.yul\":5724:5885   */\n    tag_182:\n      pop\n        /* \"#utility.yul\":5511:5891   */\n      swap2\n      swap1\n      pop\n      jump\t// out\n        /* \"#utility.yul\":6022:6567   */\n    tag_132:\n        /* \"#utility.yul\":6124:6126   */\n      0x1f\n        /* \"#utility.yul\":6119:6122   */\n      dup3\n        /* \"#utility.yul\":6116:6127   */\n      gt\n        /* \"#utility.yul\":6113:6561   */\n      iszero\n      tag_185\n      jumpi\n        /* \"#utility.yul\":6160:6161   */\n      0x00\n        /* \"#utility.yul\":6185:6190   */\n      dup2\n        /* \"#utility.yul\":6181:6183   */\n      dup2\n        /* \"#utility.yul\":6174:6191   */\n      mstore\n        /* \"#utility.yul\":6230:6234   */\n      0x20\n        /* \"#utility.yul\":6226:6228   */\n      dup2\n        /* \"#utility.yul\":6216:6235   */\n      keccak256\n        /* \"#utility.yul\":6300:6302   */\n      0x1f\n        /* \"#utility.yul\":6288:6298   */\n      dup6\n        /* \"#utility.yul\":6284:6303   */\n      add\n        /* \"#utility.yul\":6281:6282   */\n      0x05\n        /* \"#utility.yul\":6277:6304   */\n      shr\n        /* \"#utility.yul\":6271:6275   */\n      dup2\n        /* \"#utility.yul\":6267:6305   */\n      add\n        /* \"#utility.yul\":6336:6340   */\n      0x20\n        /* \"#utility.yul\":6324:6334   */\n      dup7\n        /* \"#utility.yul\":6321:6341   */\n      lt\n        /* \"#utility.yul\":6318:6365   */\n      iszero\n      tag_186\n      jumpi\n      pop\n        /* \"#utility.yul\":6359:6363   */\n      dup1\n        /* \"#utility.yul\":6318:6365   */\n    tag_186:\n        /* \"#utility.yul\":6414:6416   */\n      0x1f\n        /* \"#utility.yul\":6409:6412   */\n      dup6\n        /* \"#utility.yul\":6405:6417   */\n      add\n        /* \"#utility.yul\":6402:6403   */\n      0x05\n        /* \"#utility.yul\":6398:6418   */\n      shr\n        /* \"#utility.yul\":6392:6396   */\n      dup3\n        /* \"#utility.yul\":6388:6419   */\n      add\n        /* \"#utility.yul\":6378:6419   */\n      swap2\n      pop\n        /* \"#utility.yul\":6469:6551   */\n    tag_187:\n        /* \"#utility.yul\":6487:6489   */\n      dup2\n        /* \"#utility.yul\":6480:6485   */\n      dup2\n        /* \"#utility.yul\":6477:6490   */\n      lt\n        /* \"#utility.yul\":6469:6551   */\n      iszero\n      tag_189\n      jumpi\n        /* \"#utility.yul\":6532:6549   */\n      dup3\n      dup2\n      sstore\n        /* \"#utility.yul\":6513:6514   */\n      0x01\n        /* \"#utility.yul\":6502:6515   */\n      add\n        /* \"#utility.yul\":6469:6551   */\n      jump(tag_187)\n    tag_189:\n        /* \"#utility.yul\":6473:6476   */\n      pop\n      pop\n      pop\n        /* \"#utility.yul\":6113:6561   */\n    tag_185:\n        /* \"#utility.yul\":6022:6567   */\n      pop\n      pop\n      pop\n      jump\t// out\n        /* \"#utility.yul\":6743:8095   */\n    tag_52:\n        /* \"#utility.yul\":6869:6872   */\n      dup2\n        /* \"#utility.yul\":6863:6873   */\n      mload\n        /* \"#utility.yul\":6896:6914   */\n      0xffffffffffffffff\n        /* \"#utility.yul\":6888:6894   */\n      dup2\n        /* \"#utility.yul\":6885:6915   */\n      gt\n        /* \"#utility.yul\":6882:6938   */\n      iszero\n      tag_193\n      jumpi\n        /* \"#utility.yul\":6918:6936   */\n      tag_193\n      tag_127\n      jump\t// in\n    tag_193:\n        /* \"#utility.yul\":6947:7044   */\n      tag_194\n        /* \"#utility.yul\":7037:7043   */\n      dup2\n        /* \"#utility.yul\":6997:7035   */\n      tag_195\n        /* \"#utility.yul\":7029:7033   */\n      dup5\n        /* \"#utility.yul\":7023:7034   */\n      sload\n        /* \"#utility.yul\":6997:7035   */\n      tag_104\n      jump\t// in\n    tag_195:\n        /* \"#utility.yul\":6991:6995   */\n      dup5\n        /* \"#utility.yul\":6947:7044   */\n      tag_132\n      jump\t// in\n    tag_194:\n        /* \"#utility.yul\":7099:7103   */\n      0x20\n      dup1\n        /* \"#utility.yul\":7163:7165   */\n      0x1f\n        /* \"#utility.yul\":7152:7166   */\n      dup4\n      gt\n        /* \"#utility.yul\":7180:7181   */\n      0x01\n        /* \"#utility.yul\":7175:7838   */\n      dup2\n      eq\n      tag_197\n      jumpi\n        /* \"#utility.yul\":7882:7883   */\n      0x00\n        /* \"#utility.yul\":7899:7905   */\n      dup5\n        /* \"#utility.yul\":7896:7985   */\n      iszero\n      tag_198\n      jumpi\n      pop\n        /* \"#utility.yul\":7951:7970   */\n      dup6\n      dup4\n      add\n        /* \"#utility.yul\":7945:7971   */\n      mload\n        /* \"#utility.yul\":7896:7985   */\n    tag_198:\n      not(0x00)\n        /* \"#utility.yul\":6700:6701   */\n      0x03\n        /* \"#utility.yul\":6696:6707   */\n      dup7\n      swap1\n      shl\n        /* \"#utility.yul\":6692:6716   */\n      shr\n        /* \"#utility.yul\":6688:6717   */\n      not\n        /* \"#utility.yul\":6678:6718   */\n      and\n        /* \"#utility.yul\":6724:6725   */\n      0x01\n        /* \"#utility.yul\":6720:6731   */\n      dup6\n      swap1\n      shl\n        /* \"#utility.yul\":6675:6732   */\n      or\n        /* \"#utility.yul\":7998:8079   */\n      dup6\n      sstore\n        /* \"#utility.yul\":7145:8089   */\n      jump(tag_189)\n        /* \"#utility.yul\":7175:7838   */\n    tag_197:\n        /* \"#utility.yul\":5969:5970   */\n      0x00\n        /* \"#utility.yul\":5962:5976   */\n      dup6\n      dup2\n      mstore\n        /* \"#utility.yul\":6006:6010   */\n      0x20\n        /* \"#utility.yul\":5993:6011   */\n      dup2\n      keccak256\n      not(0x1f)\n        /* \"#utility.yul\":7211:7231   */\n      dup7\n      and\n      swap2\n        /* \"#utility.yul\":7329:7565   */\n    tag_201:\n        /* \"#utility.yul\":7343:7350   */\n      dup3\n        /* \"#utility.yul\":7340:7341   */\n      dup2\n        /* \"#utility.yul\":7337:7351   */\n      lt\n        /* \"#utility.yul\":7329:7565   */\n      iszero\n      tag_203\n      jumpi\n        /* \"#utility.yul\":7432:7451   */\n      dup9\n      dup7\n      add\n        /* \"#utility.yul\":7426:7452   */\n      mload\n        /* \"#utility.yul\":7411:7453   */\n      dup3\n      sstore\n        /* \"#utility.yul\":7524:7551   */\n      swap5\n      dup5\n      add\n      swap5\n        /* \"#utility.yul\":7492:7493   */\n      0x01\n        /* \"#utility.yul\":7480:7494   */\n      swap1\n      swap2\n      add\n      swap1\n        /* \"#utility.yul\":7359:7378   */\n      dup5\n      add\n        /* \"#utility.yul\":7329:7565   */\n      jump(tag_201)\n    tag_203:\n        /* \"#utility.yul\":7333:7336   */\n      pop\n        /* \"#utility.yul\":7593:7599   */\n      dup6\n        /* \"#utility.yul\":7584:7591   */\n      dup3\n        /* \"#utility.yul\":7581:7600   */\n      lt\n        /* \"#utility.yul\":7578:7779   */\n      iszero\n      tag_204\n      jumpi\n        /* \"#utility.yul\":7654:7673   */\n      dup8\n      dup6\n      add\n        /* \"#utility.yul\":7648:7674   */\n      mload\n      not(0x00)\n        /* \"#utility.yul\":7737:7738   */\n      0x03\n        /* \"#utility.yul\":7733:7747   */\n      dup9\n      swap1\n      shl\n        /* \"#utility.yul\":7749:7752   */\n      0xf8\n        /* \"#utility.yul\":7729:7753   */\n      and\n        /* \"#utility.yul\":7725:7762   */\n      shr\n        /* \"#utility.yul\":7721:7763   */\n      not\n        /* \"#utility.yul\":7706:7764   */\n      and\n        /* \"#utility.yul\":7691:7765   */\n      dup2\n      sstore\n        /* \"#utility.yul\":7578:7779   */\n    tag_204:\n      pop\n      pop\n      pop\n      pop\n      pop\n        /* \"#utility.yul\":7825:7826   */\n      0x01\n        /* \"#utility.yul\":7809:7823   */\n      swap1\n      dup2\n      shl\n        /* \"#utility.yul\":7805:7827   */\n      add\n        /* \"#utility.yul\":7792:7828   */\n      swap1\n      sstore\n      pop\n        /* \"#utility.yul\":6743:8095   */\n      jump\t// out\n        /* \"#utility.yul\":8100:8771   */\n    tag_58:\n        /* \"#utility.yul\":8420:8423   */\n      0x80\n        /* \"#utility.yul\":8409:8418   */\n      dup2\n        /* \"#utility.yul\":8402:8424   */\n      mstore\n        /* \"#utility.yul\":8383:8387   */\n      0x00\n        /* \"#utility.yul\":8447:8493   */\n      tag_206\n        /* \"#utility.yul\":8488:8491   */\n      0x80\n        /* \"#utility.yul\":8477:8486   */\n      dup4\n        /* \"#utility.yul\":8473:8492   */\n      add\n        /* \"#utility.yul\":8465:8471   */\n      dup7\n        /* \"#utility.yul\":8447:8493   */\n      tag_130\n      jump\t// in\n    tag_206:\n        /* \"#utility.yul\":8524:8533   */\n      dup3\n        /* \"#utility.yul\":8516:8522   */\n      dup2\n        /* \"#utility.yul\":8512:8534   */\n      sub\n        /* \"#utility.yul\":8570:8572   */\n      dup1\n        /* \"#utility.yul\":8565:8567   */\n      0x20\n        /* \"#utility.yul\":8554:8563   */\n      dup6\n        /* \"#utility.yul\":8550:8568   */\n      add\n        /* \"#utility.yul\":8543:8573   */\n      mstore\n        /* \"#utility.yul\":8597:8598   */\n      0x00\n        /* \"#utility.yul\":8589:8595   */\n      dup3\n        /* \"#utility.yul\":8582:8599   */\n      mstore\n        /* \"#utility.yul\":8643:8645   */\n      0x20\n        /* \"#utility.yul\":8639:8641   */\n      dup2\n        /* \"#utility.yul\":8635:8646   */\n      add\n        /* \"#utility.yul\":8630:8632   */\n      0x40\n        /* \"#utility.yul\":8619:8628   */\n      dup6\n        /* \"#utility.yul\":8615:8633   */\n      add\n        /* \"#utility.yul\":8608:8647   */\n      mstore\n      pop\n        /* \"#utility.yul\":8664:8706   */\n      tag_207\n        /* \"#utility.yul\":8702:8704   */\n      0x20\n        /* \"#utility.yul\":8694:8700   */\n      dup3\n        /* \"#utility.yul\":8690:8705   */\n      add\n        /* \"#utility.yul\":8682:8688   */\n      dup7\n        /* \"#utility.yul\":8664:8706   */\n      tag_130\n      jump\t// in\n    tag_207:\n        /* \"#utility.yul\":8656:8706   */\n      swap2\n      pop\n      pop\n        /* \"#utility.yul\":8756:8762   */\n      dup3\n        /* \"#utility.yul\":8749:8763   */\n      iszero\n        /* \"#utility.yul\":8742:8764   */\n      iszero\n        /* \"#utility.yul\":8737:8739   */\n      0x60\n        /* \"#utility.yul\":8726:8735   */\n      dup4\n        /* \"#utility.yul\":8722:8740   */\n      add\n        /* \"#utility.yul\":8715:8765   */\n      mstore\n        /* \"#utility.yul\":8100:8771   */\n      swap5\n      swap4\n      pop\n      pop\n      pop\n      pop\n      jump\t// out\n        /* \"#utility.yul\":9185:10029   */\n    tag_74:\n        /* \"#utility.yul\":9315:9318   */\n      0x00\n        /* \"#utility.yul\":9344:9345   */\n      dup1\n        /* \"#utility.yul\":9377:9383   */\n      dup4\n        /* \"#utility.yul\":9371:9384   */\n      sload\n        /* \"#utility.yul\":9407:9443   */\n      tag_210\n        /* \"#utility.yul\":9433:9442   */\n      dup2\n        /* \"#utility.yul\":9407:9443   */\n      tag_104\n      jump\t// in\n    tag_210:\n        /* \"#utility.yul\":9462:9463   */\n      0x01\n        /* \"#utility.yul\":9479:9497   */\n      dup3\n      dup2\n      and\n        /* \"#utility.yul\":9506:9639   */\n      dup1\n      iszero\n      tag_212\n      jumpi\n        /* \"#utility.yul\":9653:9654   */\n      0x01\n        /* \"#utility.yul\":9648:10004   */\n      dup2\n      eq\n      tag_213\n      jumpi\n        /* \"#utility.yul\":9472:10004   */\n      jump(tag_211)\n        /* \"#utility.yul\":9506:9639   */\n    tag_212:\n      not(0xff)\n        /* \"#utility.yul\":9539:9563   */\n      dup5\n      and\n        /* \"#utility.yul\":9527:9564   */\n      dup8\n      mstore\n        /* \"#utility.yul\":9612:9626   */\n      dup3\n      iszero\n        /* \"#utility.yul\":9605:9627   */\n      iszero\n        /* \"#utility.yul\":9593:9628   */\n      dup4\n      mul\n        /* \"#utility.yul\":9584:9629   */\n      dup8\n      add\n      swap5\n      pop\n        /* \"#utility.yul\":9506:9639   */\n      jump(tag_211)\n        /* \"#utility.yul\":9648:10004   */\n    tag_213:\n        /* \"#utility.yul\":9679:9685   */\n      dup8\n        /* \"#utility.yul\":9676:9677   */\n      0x00\n        /* \"#utility.yul\":9669:9686   */\n      mstore\n        /* \"#utility.yul\":9709:9713   */\n      0x20\n        /* \"#utility.yul\":9754:9756   */\n      dup1\n        /* \"#utility.yul\":9751:9752   */\n      0x00\n        /* \"#utility.yul\":9741:9757   */\n      keccak256\n        /* \"#utility.yul\":9779:9780   */\n      0x00\n        /* \"#utility.yul\":9793:9958   */\n    tag_214:\n        /* \"#utility.yul\":9807:9813   */\n      dup6\n        /* \"#utility.yul\":9804:9805   */\n      dup2\n        /* \"#utility.yul\":9801:9814   */\n      lt\n        /* \"#utility.yul\":9793:9958   */\n      iszero\n      tag_216\n      jumpi\n        /* \"#utility.yul\":9885:9899   */\n      dup2\n      sload\n        /* \"#utility.yul\":9872:9883   */\n      dup11\n      dup3\n      add\n        /* \"#utility.yul\":9865:9900   */\n      mstore\n        /* \"#utility.yul\":9928:9944   */\n      swap1\n      dup5\n      add\n      swap1\n        /* \"#utility.yul\":9822:9832   */\n      dup3\n      add\n        /* \"#utility.yul\":9793:9958   */\n      jump(tag_214)\n    tag_216:\n        /* \"#utility.yul\":9797:9800   */\n      pop\n      pop\n      pop\n        /* \"#utility.yul\":9987:9993   */\n      dup3\n        /* \"#utility.yul\":9982:9985   */\n      dup8\n        /* \"#utility.yul\":9978:9994   */\n      add\n        /* \"#utility.yul\":9971:9994   */\n      swap5\n      pop\n        /* \"#utility.yul\":9472:10004   */\n    tag_211:\n      pop\n        /* \"#utility.yul\":10020:10023   */\n      swap3\n      swap7\n        /* \"#utility.yul\":9185:10029   */\n      swap6\n      pop\n      pop\n      pop\n      pop\n      pop\n      pop\n      jump\t// out\n        /* \"#utility.yul\":10391:10611   */\n    tag_85:\n        /* \"#utility.yul\":10540:10542   */\n      0x20\n        /* \"#utility.yul\":10529:10538   */\n      dup2\n        /* \"#utility.yul\":10522:10543   */\n      mstore\n        /* \"#utility.yul\":10503:10507   */\n      0x00\n        /* \"#utility.yul\":10560:10605   */\n      tag_154\n        /* \"#utility.yul\":10601:10603   */\n      0x20\n        /* \"#utility.yul\":10590:10599   */\n      dup4\n        /* \"#utility.yul\":10586:10604   */\n      add\n        /* \"#utility.yul\":10578:10584   */\n      dup5\n        /* \"#utility.yul\":10560:10605   */\n      tag_130\n      jump\t// in\n        /* \"#utility.yul\":10616:11306   */\n    tag_100:\n        /* \"#utility.yul\":10936:10939   */\n      0x80\n        /* \"#utility.yul\":10925:10934   */\n      dup2\n        /* \"#utility.yul\":10918:10940   */\n      mstore\n        /* \"#utility.yul\":10899:10903   */\n      0x00\n        /* \"#utility.yul\":10963:11009   */\n      tag_221\n        /* \"#utility.yul\":11004:11007   */\n      0x80\n        /* \"#utility.yul\":10993:11002   */\n      dup4\n        /* \"#utility.yul\":10989:11008   */\n      add\n        /* \"#utility.yul\":10981:10987   */\n      dup7\n        /* \"#utility.yul\":10963:11009   */\n      tag_130\n      jump\t// in\n    tag_221:\n        /* \"#utility.yul\":11057:11066   */\n      dup3\n        /* \"#utility.yul\":11049:11055   */\n      dup2\n        /* \"#utility.yul\":11045:11067   */\n      sub\n        /* \"#utility.yul\":11040:11042   */\n      0x20\n        /* \"#utility.yul\":11029:11038   */\n      dup5\n        /* \"#utility.yul\":11025:11043   */\n      add\n        /* \"#utility.yul\":11018:11068   */\n      mstore\n        /* \"#utility.yul\":11091:11124   */\n      tag_222\n        /* \"#utility.yul\":11117:11123   */\n      dup2\n        /* \"#utility.yul\":11109:11115   */\n      dup7\n        /* \"#utility.yul\":11091:11124   */\n      tag_130\n      jump\t// in\n    tag_222:\n        /* \"#utility.yul\":11160:11182   */\n      dup4\n      dup2\n      sub\n        /* \"#utility.yul\":11155:11157   */\n      0x40\n        /* \"#utility.yul\":11140:11158   */\n      dup6\n      add\n        /* \"#utility.yul\":11133:11183   */\n      mstore\n        /* \"#utility.yul\":11207:11208   */\n      0x00\n        /* \"#utility.yul\":11192:11209   */\n      dup2\n      mstore\n        /* \"#utility.yul\":11284:11298   */\n      swap4\n      iszero\n        /* \"#utility.yul\":11277:11299   */\n      iszero\n        /* \"#utility.yul\":11272:11274   */\n      0x60\n        /* \"#utility.yul\":11257:11275   */\n      swap1\n      swap4\n      add\n        /* \"#utility.yul\":11250:11300   */\n      swap3\n      swap1\n      swap3\n      mstore\n      pop\n      pop\n        /* \"#utility.yul\":11238:11240   */\n      0x20\n        /* \"#utility.yul\":11226:11241   */\n      add\n      swap3\n        /* \"#utility.yul\":10616:11306   */\n      swap2\n      pop\n      pop\n      jump\t// out\n\n    auxdata: 0xa26469706673582212202364392ed93d07c454d66f138100929471ea407c636d804de3660f6fee54fcc664736f6c63430008120033\n}\n",
				"bytecode": {
					"linkReferences": {},
					"object": "608060405234801561001057600080fd5b50600080546001600160a01b03191633179055610f2e806100326000396000f3fe608060405234801561001057600080fd5b506004361061007d5760003560e01c80638da5cb5b1161005b5780638da5cb5b146100da5780638f79e4f4146100ed5780639f1f150814610100578063a46666651461011357600080fd5b80635c60da1b14610082578063696103c8146100b257806383f94db7146100c7575b600080fd5b600154610095906001600160a01b031681565b6040516001600160a01b0390911681526020015b60405180910390f35b6100c56100c03660046109d1565b610138565b005b6100c56100d5366004610a59565b6102b8565b600054610095906001600160a01b031681565b6100c56100fb366004610a89565b610304565b6100c561010e3660046109d1565b6104fe565b610126610121366004610aed565b610661565b6040516100a996959493929190610b7a565b6000546001600160a01b0316331461016b5760405162461bcd60e51b815260040161016290610be2565b60405180910390fd5b610174836108f9565b156101915760405162461bcd60e51b815260040161016290610c30565b6040518060c00160405280848152602001838152602001604051806020016040528060008152508152602001828152602001428152602001600015158152506002846040516101e09190610c78565b908152604051908190036020019020815181906101fd9082610d1d565b50602082015160018201906102129082610d1d565b50604082015160028201906102279082610d1d565b506060820151600382019061023c9082610d1d565b506080820151600482015560a0909101516005909101805460ff191691151591909117905560405161026f908490610c78565b60405180910390207f4ac6791f67e50e34255c7ab38e9ded0323b080f3c4bd2956c8aed38e38d3f0fe838360006040516102ab93929190610ddd565b60405180910390a2505050565b6000546001600160a01b031633146102e25760405162461bcd60e51b815260040161016290610be2565b600180546001600160a01b0319166001600160a01b0392909216919091179055565b6000546001600160a01b0316331461032e5760405162461bcd60e51b815260040161016290610be2565b60006002836040516103409190610c78565b90815260200160405180910390209050610359836108f9565b6103b65760405162461bcd60e51b815260206004820152602860248201527f41727469636c6520776974682074686520676976656e20494420646f6573206e6044820152671bdd08195e1a5cdd60c21b6064820152608401610162565b600581015460ff161561043657806002016040516103d49190610e27565b60405180910390208280519060200120036104315760405162461bcd60e51b815260206004820152601c60248201527f41727469636c6520636f6e74656e74206973206964656e746963616c000000006044820152606401610162565b6104a4565b806003016040516104479190610e27565b60405180910390208280519060200120036104a45760405162461bcd60e51b815260206004820152601c60248201527f41727469636c6520636f6e74656e74206973206964656e746963616c000000006044820152606401610162565b600281016104b28382610d1d565b504260048201556040516104c7908490610c78565b60405180910390207fafdae258fc8810613d877811fd188a2d851b061e245cda31052126b649370177836040516102ab9190610e9d565b6000546001600160a01b031633146105285760405162461bcd60e51b815260040161016290610be2565b610531836108f9565b1561054e5760405162461bcd60e51b815260040161016290610c30565b6040805160c081018252848152602080820185905281830184905282519081018352600081526060820152426080820152600160a08201529051600290610596908690610c78565b908152604051908190036020019020815181906105b39082610d1d565b50602082015160018201906105c89082610d1d565b50604082015160028201906105dd9082610d1d565b50606082015160038201906105f29082610d1d565b506080820151600482015560a0909101516005909101805460ff1916911515919091179055604051610625908490610c78565b60405180910390207f4ac6791f67e50e34255c7ab38e9ded0323b080f3c4bd2956c8aed38e38d3f0fe838360016040516102ab93929190610eb0565b606080606080600080600060028860405161067c9190610c78565b908152602001604051809103902090508060000181600101826002018360030184600401548560050160009054906101000a900460ff168580546106bf90610c94565b80601f01602080910402602001604051908101604052809291908181526020018280546106eb90610c94565b80156107385780601f1061070d57610100808354040283529160200191610738565b820191906000526020600020905b81548152906001019060200180831161071b57829003601f168201915b5050505050955084805461074b90610c94565b80601f016020809104026020016040519081016040528092919081815260200182805461077790610c94565b80156107c45780601f10610799576101008083540402835291602001916107c4565b820191906000526020600020905b8154815290600101906020018083116107a757829003601f168201915b505050505094508380546107d790610c94565b80601f016020809104026020016040519081016040528092919081815260200182805461080390610c94565b80156108505780601f1061082557610100808354040283529160200191610850565b820191906000526020600020905b81548152906001019060200180831161083357829003601f168201915b5050505050935082805461086390610c94565b80601f016020809104026020016040519081016040528092919081815260200182805461088f90610c94565b80156108dc5780601f106108b1576101008083540402835291602001916108dc565b820191906000526020600020905b8154815290600101906020018083116108bf57829003601f168201915b505050505092509650965096509650965096505091939550919395565b600060028260405161090b9190610c78565b908152604051908190036020019020805461092590610c94565b15159392505050565b634e487b7160e01b600052604160045260246000fd5b600082601f83011261095557600080fd5b813567ffffffffffffffff808211156109705761097061092e565b604051601f8301601f19908116603f011681019082821181831017156109985761099861092e565b816040528381528660208588010111156109b157600080fd5b836020870160208301376000602085830101528094505050505092915050565b6000806000606084860312156109e657600080fd5b833567ffffffffffffffff808211156109fe57600080fd5b610a0a87838801610944565b94506020860135915080821115610a2057600080fd5b610a2c87838801610944565b93506040860135915080821115610a4257600080fd5b50610a4f86828701610944565b9150509250925092565b600060208284031215610a6b57600080fd5b81356001600160a01b0381168114610a8257600080fd5b9392505050565b60008060408385031215610a9c57600080fd5b823567ffffffffffffffff80821115610ab457600080fd5b610ac086838701610944565b93506020850135915080821115610ad657600080fd5b50610ae385828601610944565b9150509250929050565b600060208284031215610aff57600080fd5b813567ffffffffffffffff811115610b1657600080fd5b610b2284828501610944565b949350505050565b60005b83811015610b45578181015183820152602001610b2d565b50506000910152565b60008151808452610b66816020860160208601610b2a565b601f01601f19169290920160200192915050565b60c081526000610b8d60c0830189610b4e565b8281036020840152610b9f8189610b4e565b90508281036040840152610bb38188610b4e565b90508281036060840152610bc78187610b4e565b6080840195909552505090151560a090910152949350505050565b6020808252602e908201527f4f6e6c792074686520636f6e7472616374206f776e65722063616e2063616c6c60408201526d103a3434b990333ab731ba34b7b760911b606082015260800190565b60208082526028908201527f41727469636c6520776974682074686520676976656e20494420616c72656164604082015267792065786973747360c01b606082015260800190565b60008251610c8a818460208701610b2a565b9190910192915050565b600181811c90821680610ca857607f821691505b602082108103610cc857634e487b7160e01b600052602260045260246000fd5b50919050565b601f821115610d1857600081815260208120601f850160051c81016020861015610cf55750805b601f850160051c820191505b81811015610d1457828155600101610d01565b5050505b505050565b815167ffffffffffffffff811115610d3757610d3761092e565b610d4b81610d458454610c94565b84610cce565b602080601f831160018114610d805760008415610d685750858301515b600019600386901b1c1916600185901b178555610d14565b600085815260208120601f198616915b82811015610daf57888601518255948401946001909101908401610d90565b5085821015610dcd5787850151600019600388901b60f8161c191681555b5050505050600190811b01905550565b608081526000610df06080830186610b4e565b8281038060208501526000825260208101604085015250610e146020820186610b4e565b9150508215156060830152949350505050565b6000808354610e3581610c94565b60018281168015610e4d5760018114610e6257610e91565b60ff1984168752821515830287019450610e91565b8760005260208060002060005b85811015610e885781548a820152908401908201610e6f565b50505082870194505b50929695505050505050565b602081526000610a826020830184610b4e565b608081526000610ec36080830186610b4e565b8281036020840152610ed58186610b4e565b83810360408501526000815293151560609093019290925250506020019291505056fea26469706673582212202364392ed93d07c454d66f138100929471ea407c636d804de3660f6fee54fcc664736f6c63430008120033",
					"opcodes": "PUSH1 0x80 PUSH1 0x40 MSTORE CALLVALUE DUP1 ISZERO PUSH2 0x10 JUMPI PUSH1 0x0 DUP1 REVERT JUMPDEST POP PUSH1 0x0 DUP1 SLOAD PUSH1 0x1 PUSH1 0x1 PUSH1 0xA0 SHL SUB NOT AND CALLER OR SWAP1 SSTORE PUSH2 0xF2E DUP1 PUSH2 0x32 PUSH1 0x0 CODECOPY PUSH1 0x0 RETURN INVALID PUSH1 0x80 PUSH1 0x40 MSTORE CALLVALUE DUP1 ISZERO PUSH2 0x10 JUMPI PUSH1 0x0 DUP1 REVERT JUMPDEST POP PUSH1 0x4 CALLDATASIZE LT PUSH2 0x7D JUMPI PUSH1 0x0 CALLDATALOAD PUSH1 0xE0 SHR DUP1 PUSH4 0x8DA5CB5B GT PUSH2 0x5B JUMPI DUP1 PUSH4 0x8DA5CB5B EQ PUSH2 0xDA JUMPI DUP1 PUSH4 0x8F79E4F4 EQ PUSH2 0xED JUMPI DUP1 PUSH4 0x9F1F1508 EQ PUSH2 0x100 JUMPI DUP1 PUSH4 0xA4666665 EQ PUSH2 0x113 JUMPI PUSH1 0x0 DUP1 REVERT JUMPDEST DUP1 PUSH4 0x5C60DA1B EQ PUSH2 0x82 JUMPI DUP1 PUSH4 0x696103C8 EQ PUSH2 0xB2 JUMPI DUP1 PUSH4 0x83F94DB7 EQ PUSH2 0xC7 JUMPI JUMPDEST PUSH1 0x0 DUP1 REVERT JUMPDEST PUSH1 0x1 SLOAD PUSH2 0x95 SWAP1 PUSH1 0x1 PUSH1 0x1 PUSH1 0xA0 SHL SUB AND DUP2 JUMP JUMPDEST PUSH1 0x40 MLOAD PUSH1 0x1 PUSH1 0x1 PUSH1 0xA0 SHL SUB SWAP1 SWAP2 AND DUP2 MSTORE PUSH1 0x20 ADD JUMPDEST PUSH1 0x40 MLOAD DUP1 SWAP2 SUB SWAP1 RETURN JUMPDEST PUSH2 0xC5 PUSH2 0xC0 CALLDATASIZE PUSH1 0x4 PUSH2 0x9D1 JUMP JUMPDEST PUSH2 0x138 JUMP JUMPDEST STOP JUMPDEST PUSH2 0xC5 PUSH2 0xD5 CALLDATASIZE PUSH1 0x4 PUSH2 0xA59 JUMP JUMPDEST PUSH2 0x2B8 JUMP JUMPDEST PUSH1 0x0 SLOAD PUSH2 0x95 SWAP1 PUSH1 0x1 PUSH1 0x1 PUSH1 0xA0 SHL SUB AND DUP2 JUMP JUMPDEST PUSH2 0xC5 PUSH2 0xFB CALLDATASIZE PUSH1 0x4 PUSH2 0xA89 JUMP JUMPDEST PUSH2 0x304 JUMP JUMPDEST PUSH2 0xC5 PUSH2 0x10E CALLDATASIZE PUSH1 0x4 PUSH2 0x9D1 JUMP JUMPDEST PUSH2 0x4FE JUMP JUMPDEST PUSH2 0x126 PUSH2 0x121 CALLDATASIZE PUSH1 0x4 PUSH2 0xAED JUMP JUMPDEST PUSH2 0x661 JUMP JUMPDEST PUSH1 0x40 MLOAD PUSH2 0xA9 SWAP7 SWAP6 SWAP5 SWAP4 SWAP3 SWAP2 SWAP1 PUSH2 0xB7A JUMP JUMPDEST PUSH1 0x0 SLOAD PUSH1 0x1 PUSH1 0x1 PUSH1 0xA0 SHL SUB AND CALLER EQ PUSH2 0x16B JUMPI PUSH1 0x40 MLOAD PUSH3 0x461BCD PUSH1 0xE5 SHL DUP2 MSTORE PUSH1 0x4 ADD PUSH2 0x162 SWAP1 PUSH2 0xBE2 JUMP JUMPDEST PUSH1 0x40 MLOAD DUP1 SWAP2 SUB SWAP1 REVERT JUMPDEST PUSH2 0x174 DUP4 PUSH2 0x8F9 JUMP JUMPDEST ISZERO PUSH2 0x191 JUMPI PUSH1 0x40 MLOAD PUSH3 0x461BCD PUSH1 0xE5 SHL DUP2 MSTORE PUSH1 0x4 ADD PUSH2 0x162 SWAP1 PUSH2 0xC30 JUMP JUMPDEST PUSH1 0x40 MLOAD DUP1 PUSH1 0xC0 ADD PUSH1 0x40 MSTORE DUP1 DUP5 DUP2 MSTORE PUSH1 0x20 ADD DUP4 DUP2 MSTORE PUSH1 0x20 ADD PUSH1 0x40 MLOAD DUP1 PUSH1 0x20 ADD PUSH1 0x40 MSTORE DUP1 PUSH1 0x0 DUP2 MSTORE POP DUP2 MSTORE PUSH1 0x20 ADD DUP3 DUP2 MSTORE PUSH1 0x20 ADD TIMESTAMP DUP2 MSTORE PUSH1 0x20 ADD PUSH1 0x0 ISZERO ISZERO DUP2 MSTORE POP PUSH1 0x2 DUP5 PUSH1 0x40 MLOAD PUSH2 0x1E0 SWAP2 SWAP1 PUSH2 0xC78 JUMP JUMPDEST SWAP1 DUP2 MSTORE PUSH1 0x40 MLOAD SWAP1 DUP2 SWAP1 SUB PUSH1 0x20 ADD SWAP1 KECCAK256 DUP2 MLOAD DUP2 SWAP1 PUSH2 0x1FD SWAP1 DUP3 PUSH2 0xD1D JUMP JUMPDEST POP PUSH1 0x20 DUP3 ADD MLOAD PUSH1 0x1 DUP3 ADD SWAP1 PUSH2 0x212 SWAP1 DUP3 PUSH2 0xD1D JUMP JUMPDEST POP PUSH1 0x40 DUP3 ADD MLOAD PUSH1 0x2 DUP3 ADD SWAP1 PUSH2 0x227 SWAP1 DUP3 PUSH2 0xD1D JUMP JUMPDEST POP PUSH1 0x60 DUP3 ADD MLOAD PUSH1 0x3 DUP3 ADD SWAP1 PUSH2 0x23C SWAP1 DUP3 PUSH2 0xD1D JUMP JUMPDEST POP PUSH1 0x80 DUP3 ADD MLOAD PUSH1 0x4 DUP3 ADD SSTORE PUSH1 0xA0 SWAP1 SWAP2 ADD MLOAD PUSH1 0x5 SWAP1 SWAP2 ADD DUP1 SLOAD PUSH1 0xFF NOT AND SWAP2 ISZERO ISZERO SWAP2 SWAP1 SWAP2 OR SWAP1 SSTORE PUSH1 0x40 MLOAD PUSH2 0x26F SWAP1 DUP5 SWAP1 PUSH2 0xC78 JUMP JUMPDEST PUSH1 0x40 MLOAD DUP1 SWAP2 SUB SWAP1 KECCAK256 PUSH32 0x4AC6791F67E50E34255C7AB38E9DED0323B080F3C4BD2956C8AED38E38D3F0FE DUP4 DUP4 PUSH1 0x0 PUSH1 0x40 MLOAD PUSH2 0x2AB SWAP4 SWAP3 SWAP2 SWAP1 PUSH2 0xDDD JUMP JUMPDEST PUSH1 0x40 MLOAD DUP1 SWAP2 SUB SWAP1 LOG2 POP POP POP JUMP JUMPDEST PUSH1 0x0 SLOAD PUSH1 0x1 PUSH1 0x1 PUSH1 0xA0 SHL SUB AND CALLER EQ PUSH2 0x2E2 JUMPI PUSH1 0x40 MLOAD PUSH3 0x461BCD PUSH1 0xE5 SHL DUP2 MSTORE PUSH1 0x4 ADD PUSH2 0x162 SWAP1 PUSH2 0xBE2 JUMP JUMPDEST PUSH1 0x1 DUP1 SLOAD PUSH1 0x1 PUSH1 0x1 PUSH1 0xA0 SHL SUB NOT AND PUSH1 0x1 PUSH1 0x1 PUSH1 0xA0 SHL SUB SWAP3 SWAP1 SWAP3 AND SWAP2 SWAP1 SWAP2 OR SWAP1 SSTORE JUMP JUMPDEST PUSH1 0x0 SLOAD PUSH1 0x1 PUSH1 0x1 PUSH1 0xA0 SHL SUB AND CALLER EQ PUSH2 0x32E JUMPI PUSH1 0x40 MLOAD PUSH3 0x461BCD PUSH1 0xE5 SHL DUP2 MSTORE PUSH1 0x4 ADD PUSH2 0x162 SWAP1 PUSH2 0xBE2 JUMP JUMPDEST PUSH1 0x0 PUSH1 0x2 DUP4 PUSH1 0x40 MLOAD PUSH2 0x340 SWAP2 SWAP1 PUSH2 0xC78 JUMP JUMPDEST SWAP1 DUP2 MSTORE PUSH1 0x20 ADD PUSH1 0x40 MLOAD DUP1 SWAP2 SUB SWAP1 KECCAK256 SWAP1 POP PUSH2 0x359 DUP4 PUSH2 0x8F9 JUMP JUMPDEST PUSH2 0x3B6 JUMPI PUSH1 0x40 MLOAD PUSH3 0x461BCD PUSH1 0xE5 SHL DUP2 MSTORE PUSH1 0x20 PUSH1 0x4 DUP3 ADD MSTORE PUSH1 0x28 PUSH1 0x24 DUP3 ADD MSTORE PUSH32 0x41727469636C6520776974682074686520676976656E20494420646F6573206E PUSH1 0x44 DUP3 ADD MSTORE PUSH8 0x1BDD08195E1A5CDD PUSH1 0xC2 SHL PUSH1 0x64 DUP3 ADD MSTORE PUSH1 0x84 ADD PUSH2 0x162 JUMP JUMPDEST PUSH1 0x5 DUP2 ADD SLOAD PUSH1 0xFF AND ISZERO PUSH2 0x436 JUMPI DUP1 PUSH1 0x2 ADD PUSH1 0x40 MLOAD PUSH2 0x3D4 SWAP2 SWAP1 PUSH2 0xE27 JUMP JUMPDEST PUSH1 0x40 MLOAD DUP1 SWAP2 SUB SWAP1 KECCAK256 DUP3 DUP1 MLOAD SWAP1 PUSH1 0x20 ADD KECCAK256 SUB PUSH2 0x431 JUMPI PUSH1 0x40 MLOAD PUSH3 0x461BCD PUSH1 0xE5 SHL DUP2 MSTORE PUSH1 0x20 PUSH1 0x4 DUP3 ADD MSTORE PUSH1 0x1C PUSH1 0x24 DUP3 ADD MSTORE PUSH32 0x41727469636C6520636F6E74656E74206973206964656E746963616C00000000 PUSH1 0x44 DUP3 ADD MSTORE PUSH1 0x64 ADD PUSH2 0x162 JUMP JUMPDEST PUSH2 0x4A4 JUMP JUMPDEST DUP1 PUSH1 0x3 ADD PUSH1 0x40 MLOAD PUSH2 0x447 SWAP2 SWAP1 PUSH2 0xE27 JUMP JUMPDEST PUSH1 0x40 MLOAD DUP1 SWAP2 SUB SWAP1 KECCAK256 DUP3 DUP1 MLOAD SWAP1 PUSH1 0x20 ADD KECCAK256 SUB PUSH2 0x4A4 JUMPI PUSH1 0x40 MLOAD PUSH3 0x461BCD PUSH1 0xE5 SHL DUP2 MSTORE PUSH1 0x20 PUSH1 0x4 DUP3 ADD MSTORE PUSH1 0x1C PUSH1 0x24 DUP3 ADD MSTORE PUSH32 0x41727469636C6520636F6E74656E74206973206964656E746963616C00000000 PUSH1 0x44 DUP3 ADD MSTORE PUSH1 0x64 ADD PUSH2 0x162 JUMP JUMPDEST PUSH1 0x2 DUP2 ADD PUSH2 0x4B2 DUP4 DUP3 PUSH2 0xD1D JUMP JUMPDEST POP TIMESTAMP PUSH1 0x4 DUP3 ADD SSTORE PUSH1 0x40 MLOAD PUSH2 0x4C7 SWAP1 DUP5 SWAP1 PUSH2 0xC78 JUMP JUMPDEST PUSH1 0x40 MLOAD DUP1 SWAP2 SUB SWAP1 KECCAK256 PUSH32 0xAFDAE258FC8810613D877811FD188A2D851B061E245CDA31052126B649370177 DUP4 PUSH1 0x40 MLOAD PUSH2 0x2AB SWAP2 SWAP1 PUSH2 0xE9D JUMP JUMPDEST PUSH1 0x0 SLOAD PUSH1 0x1 PUSH1 0x1 PUSH1 0xA0 SHL SUB AND CALLER EQ PUSH2 0x528 JUMPI PUSH1 0x40 MLOAD PUSH3 0x461BCD PUSH1 0xE5 SHL DUP2 MSTORE PUSH1 0x4 ADD PUSH2 0x162 SWAP1 PUSH2 0xBE2 JUMP JUMPDEST PUSH2 0x531 DUP4 PUSH2 0x8F9 JUMP JUMPDEST ISZERO PUSH2 0x54E JUMPI PUSH1 0x40 MLOAD PUSH3 0x461BCD PUSH1 0xE5 SHL DUP2 MSTORE PUSH1 0x4 ADD PUSH2 0x162 SWAP1 PUSH2 0xC30 JUMP JUMPDEST PUSH1 0x40 DUP1 MLOAD PUSH1 0xC0 DUP2 ADD DUP3 MSTORE DUP5 DUP2 MSTORE PUSH1 0x20 DUP1 DUP3 ADD DUP6 SWAP1 MSTORE DUP2 DUP4 ADD DUP5 SWAP1 MSTORE DUP3 MLOAD SWAP1 DUP2 ADD DUP4 MSTORE PUSH1 0x0 DUP2 MSTORE PUSH1 0x60 DUP3 ADD MSTORE TIMESTAMP PUSH1 0x80 DUP3 ADD MSTORE PUSH1 0x1 PUSH1 0xA0 DUP3 ADD MSTORE SWAP1 MLOAD PUSH1 0x2 SWAP1 PUSH2 0x596 SWAP1 DUP7 SWAP1 PUSH2 0xC78 JUMP JUMPDEST SWAP1 DUP2 MSTORE PUSH1 0x40 MLOAD SWAP1 DUP2 SWAP1 SUB PUSH1 0x20 ADD SWAP1 KECCAK256 DUP2 MLOAD DUP2 SWAP1 PUSH2 0x5B3 SWAP1 DUP3 PUSH2 0xD1D JUMP JUMPDEST POP PUSH1 0x20 DUP3 ADD MLOAD PUSH1 0x1 DUP3 ADD SWAP1 PUSH2 0x5C8 SWAP1 DUP3 PUSH2 0xD1D JUMP JUMPDEST POP PUSH1 0x40 DUP3 ADD MLOAD PUSH1 0x2 DUP3 ADD SWAP1 PUSH2 0x5DD SWAP1 DUP3 PUSH2 0xD1D JUMP JUMPDEST POP PUSH1 0x60 DUP3 ADD MLOAD PUSH1 0x3 DUP3 ADD SWAP1 PUSH2 0x5F2 SWAP1 DUP3 PUSH2 0xD1D JUMP JUMPDEST POP PUSH1 0x80 DUP3 ADD MLOAD PUSH1 0x4 DUP3 ADD SSTORE PUSH1 0xA0 SWAP1 SWAP2 ADD MLOAD PUSH1 0x5 SWAP1 SWAP2 ADD DUP1 SLOAD PUSH1 0xFF NOT AND SWAP2 ISZERO ISZERO SWAP2 SWAP1 SWAP2 OR SWAP1 SSTORE PUSH1 0x40 MLOAD PUSH2 0x625 SWAP1 DUP5 SWAP1 PUSH2 0xC78 JUMP JUMPDEST PUSH1 0x40 MLOAD DUP1 SWAP2 SUB SWAP1 KECCAK256 PUSH32 0x4AC6791F67E50E34255C7AB38E9DED0323B080F3C4BD2956C8AED38E38D3F0FE DUP4 DUP4 PUSH1 0x1 PUSH1 0x40 MLOAD PUSH2 0x2AB SWAP4 SWAP3 SWAP2 SWAP1 PUSH2 0xEB0 JUMP JUMPDEST PUSH1 0x60 DUP1 PUSH1 0x60 DUP1 PUSH1 0x0 DUP1 PUSH1 0x0 PUSH1 0x2 DUP9 PUSH1 0x40 MLOAD PUSH2 0x67C SWAP2 SWAP1 PUSH2 0xC78 JUMP JUMPDEST SWAP1 DUP2 MSTORE PUSH1 0x20 ADD PUSH1 0x40 MLOAD DUP1 SWAP2 SUB SWAP1 KECCAK256 SWAP1 POP DUP1 PUSH1 0x0 ADD DUP2 PUSH1 0x1 ADD DUP3 PUSH1 0x2 ADD DUP4 PUSH1 0x3 ADD DUP5 PUSH1 0x4 ADD SLOAD DUP6 PUSH1 0x5 ADD PUSH1 0x0 SWAP1 SLOAD SWAP1 PUSH2 0x100 EXP SWAP1 DIV PUSH1 0xFF AND DUP6 DUP1 SLOAD PUSH2 0x6BF SWAP1 PUSH2 0xC94 JUMP JUMPDEST DUP1 PUSH1 0x1F ADD PUSH1 0x20 DUP1 SWAP2 DIV MUL PUSH1 0x20 ADD PUSH1 0x40 MLOAD SWAP1 DUP2 ADD PUSH1 0x40 MSTORE DUP1 SWAP3 SWAP2 SWAP1 DUP2 DUP2 MSTORE PUSH1 0x20 ADD DUP3 DUP1 SLOAD PUSH2 0x6EB SWAP1 PUSH2 0xC94 JUMP JUMPDEST DUP1 ISZERO PUSH2 0x738 JUMPI DUP1 PUSH1 0x1F LT PUSH2 0x70D JUMPI PUSH2 0x100 DUP1 DUP4 SLOAD DIV MUL DUP4 MSTORE SWAP2 PUSH1 0x20 ADD SWAP2 PUSH2 0x738 JUMP JUMPDEST DUP3 ADD SWAP2 SWAP1 PUSH1 0x0 MSTORE PUSH1 0x20 PUSH1 0x0 KECCAK256 SWAP1 JUMPDEST DUP2 SLOAD DUP2 MSTORE SWAP1 PUSH1 0x1 ADD SWAP1 PUSH1 0x20 ADD DUP1 DUP4 GT PUSH2 0x71B JUMPI DUP3 SWAP1 SUB PUSH1 0x1F AND DUP3 ADD SWAP2 JUMPDEST POP POP POP POP POP SWAP6 POP DUP5 DUP1 SLOAD PUSH2 0x74B SWAP1 PUSH2 0xC94 JUMP JUMPDEST DUP1 PUSH1 0x1F ADD PUSH1 0x20 DUP1 SWAP2 DIV MUL PUSH1 0x20 ADD PUSH1 0x40 MLOAD SWAP1 DUP2 ADD PUSH1 0x40 MSTORE DUP1 SWAP3 SWAP2 SWAP1 DUP2 DUP2 MSTORE PUSH1 0x20 ADD DUP3 DUP1 SLOAD PUSH2 0x777 SWAP1 PUSH2 0xC94 JUMP JUMPDEST DUP1 ISZERO PUSH2 0x7C4 JUMPI DUP1 PUSH1 0x1F LT PUSH2 0x799 JUMPI PUSH2 0x100 DUP1 DUP4 SLOAD DIV MUL DUP4 MSTORE SWAP2 PUSH1 0x20 ADD SWAP2 PUSH2 0x7C4 JUMP JUMPDEST DUP3 ADD SWAP2 SWAP1 PUSH1 0x0 MSTORE PUSH1 0x20 PUSH1 0x0 KECCAK256 SWAP1 JUMPDEST DUP2 SLOAD DUP2 MSTORE SWAP1 PUSH1 0x1 ADD SWAP1 PUSH1 0x20 ADD DUP1 DUP4 GT PUSH2 0x7A7 JUMPI DUP3 SWAP1 SUB PUSH1 0x1F AND DUP3 ADD SWAP2 JUMPDEST POP POP POP POP POP SWAP5 POP DUP4 DUP1 SLOAD PUSH2 0x7D7 SWAP1 PUSH2 0xC94 JUMP JUMPDEST DUP1 PUSH1 0x1F ADD PUSH1 0x20 DUP1 SWAP2 DIV MUL PUSH1 0x20 ADD PUSH1 0x40 MLOAD SWAP1 DUP2 ADD PUSH1 0x40 MSTORE DUP1 SWAP3 SWAP2 SWAP1 DUP2 DUP2 MSTORE PUSH1 0x20 ADD DUP3 DUP1 SLOAD PUSH2 0x803 SWAP1 PUSH2 0xC94 JUMP JUMPDEST DUP1 ISZERO PUSH2 0x850 JUMPI DUP1 PUSH1 0x1F LT PUSH2 0x825 JUMPI PUSH2 0x100 DUP1 DUP4 SLOAD DIV MUL DUP4 MSTORE SWAP2 PUSH1 0x20 ADD SWAP2 PUSH2 0x850 JUMP JUMPDEST DUP3 ADD SWAP2 SWAP1 PUSH1 0x0 MSTORE PUSH1 0x20 PUSH1 0x0 KECCAK256 SWAP1 JUMPDEST DUP2 SLOAD DUP2 MSTORE SWAP1 PUSH1 0x1 ADD SWAP1 PUSH1 0x20 ADD DUP1 DUP4 GT PUSH2 0x833 JUMPI DUP3 SWAP1 SUB PUSH1 0x1F AND DUP3 ADD SWAP2 JUMPDEST POP POP POP POP POP SWAP4 POP DUP3 DUP1 SLOAD PUSH2 0x863 SWAP1 PUSH2 0xC94 JUMP JUMPDEST DUP1 PUSH1 0x1F ADD PUSH1 0x20 DUP1 SWAP2 DIV MUL PUSH1 0x20 ADD PUSH1 0x40 MLOAD SWAP1 DUP2 ADD PUSH1 0x40 MSTORE DUP1 SWAP3 SWAP2 SWAP1 DUP2 DUP2 MSTORE PUSH1 0x20 ADD DUP3 DUP1 SLOAD PUSH2 0x88F SWAP1 PUSH2 0xC94 JUMP JUMPDEST DUP1 ISZERO PUSH2 0x8DC JUMPI DUP1 PUSH1 0x1F LT PUSH2 0x8B1 JUMPI PUSH2 0x100 DUP1 DUP4 SLOAD DIV MUL DUP4 MSTORE SWAP2 PUSH1 0x20 ADD SWAP2 PUSH2 0x8DC JUMP JUMPDEST DUP3 ADD SWAP2 SWAP1 PUSH1 0x0 MSTORE PUSH1 0x20 PUSH1 0x0 KECCAK256 SWAP1 JUMPDEST DUP2 SLOAD DUP2 MSTORE SWAP1 PUSH1 0x1 ADD SWAP1 PUSH1 0x20 ADD DUP1 DUP4 GT PUSH2 0x8BF JUMPI DUP3 SWAP1 SUB PUSH1 0x1F AND DUP3 ADD SWAP2 JUMPDEST POP POP POP POP POP SWAP3 POP SWAP7 POP SWAP7 POP SWAP7 POP SWAP7 POP SWAP7 POP SWAP7 POP POP SWAP2 SWAP4 SWAP6 POP SWAP2 SWAP4 SWAP6 JUMP JUMPDEST PUSH1 0x0 PUSH1 0x2 DUP3 PUSH1 0x40 MLOAD PUSH2 0x90B SWAP2 SWAP1 PUSH2 0xC78 JUMP JUMPDEST SWAP1 DUP2 MSTORE PUSH1 0x40 MLOAD SWAP1 DUP2 SWAP1 SUB PUSH1 0x20 ADD SWAP1 KECCAK256 DUP1 SLOAD PUSH2 0x925 SWAP1 PUSH2 0xC94 JUMP JUMPDEST ISZERO ISZERO SWAP4 SWAP3 POP POP POP JUMP JUMPDEST PUSH4 0x4E487B71 PUSH1 0xE0 SHL PUSH1 0x0 MSTORE PUSH1 0x41 PUSH1 0x4 MSTORE PUSH1 0x24 PUSH1 0x0 REVERT JUMPDEST PUSH1 0x0 DUP3 PUSH1 0x1F DUP4 ADD SLT PUSH2 0x955 JUMPI PUSH1 0x0 DUP1 REVERT JUMPDEST DUP2 CALLDATALOAD PUSH8 0xFFFFFFFFFFFFFFFF DUP1 DUP3 GT ISZERO PUSH2 0x970 JUMPI PUSH2 0x970 PUSH2 0x92E JUMP JUMPDEST PUSH1 0x40 MLOAD PUSH1 0x1F DUP4 ADD PUSH1 0x1F NOT SWAP1 DUP2 AND PUSH1 0x3F ADD AND DUP2 ADD SWAP1 DUP3 DUP3 GT DUP2 DUP4 LT OR ISZERO PUSH2 0x998 JUMPI PUSH2 0x998 PUSH2 0x92E JUMP JUMPDEST DUP2 PUSH1 0x40 MSTORE DUP4 DUP2 MSTORE DUP7 PUSH1 0x20 DUP6 DUP9 ADD ADD GT ISZERO PUSH2 0x9B1 JUMPI PUSH1 0x0 DUP1 REVERT JUMPDEST DUP4 PUSH1 0x20 DUP8 ADD PUSH1 0x20 DUP4 ADD CALLDATACOPY PUSH1 0x0 PUSH1 0x20 DUP6 DUP4 ADD ADD MSTORE DUP1 SWAP5 POP POP POP POP POP SWAP3 SWAP2 POP POP JUMP JUMPDEST PUSH1 0x0 DUP1 PUSH1 0x0 PUSH1 0x60 DUP5 DUP7 SUB SLT ISZERO PUSH2 0x9E6 JUMPI PUSH1 0x0 DUP1 REVERT JUMPDEST DUP4 CALLDATALOAD PUSH8 0xFFFFFFFFFFFFFFFF DUP1 DUP3 GT ISZERO PUSH2 0x9FE JUMPI PUSH1 0x0 DUP1 REVERT JUMPDEST PUSH2 0xA0A DUP8 DUP4 DUP9 ADD PUSH2 0x944 JUMP JUMPDEST SWAP5 POP PUSH1 0x20 DUP7 ADD CALLDATALOAD SWAP2 POP DUP1 DUP3 GT ISZERO PUSH2 0xA20 JUMPI PUSH1 0x0 DUP1 REVERT JUMPDEST PUSH2 0xA2C DUP8 DUP4 DUP9 ADD PUSH2 0x944 JUMP JUMPDEST SWAP4 POP PUSH1 0x40 DUP7 ADD CALLDATALOAD SWAP2 POP DUP1 DUP3 GT ISZERO PUSH2 0xA42 JUMPI PUSH1 0x0 DUP1 REVERT JUMPDEST POP PUSH2 0xA4F DUP7 DUP3 DUP8 ADD PUSH2 0x944 JUMP JUMPDEST SWAP2 POP POP SWAP3 POP SWAP3 POP SWAP3 JUMP JUMPDEST PUSH1 0x0 PUSH1 0x20 DUP3 DUP5 SUB SLT ISZERO PUSH2 0xA6B JUMPI PUSH1 0x0 DUP1 REVERT JUMPDEST DUP2 CALLDATALOAD PUSH1 0x1 PUSH1 0x1 PUSH1 0xA0 SHL SUB DUP2 AND DUP2 EQ PUSH2 0xA82 JUMPI PUSH1 0x0 DUP1 REVERT JUMPDEST SWAP4 SWAP3 POP POP POP JUMP JUMPDEST PUSH1 0x0 DUP1 PUSH1 0x40 DUP4 DUP6 SUB SLT ISZERO PUSH2 0xA9C JUMPI PUSH1 0x0 DUP1 REVERT JUMPDEST DUP3 CALLDATALOAD PUSH8 0xFFFFFFFFFFFFFFFF DUP1 DUP3 GT ISZERO PUSH2 0xAB4 JUMPI PUSH1 0x0 DUP1 REVERT JUMPDEST PUSH2 0xAC0 DUP7 DUP4 DUP8 ADD PUSH2 0x944 JUMP JUMPDEST SWAP4 POP PUSH1 0x20 DUP6 ADD CALLDATALOAD SWAP2 POP DUP1 DUP3 GT ISZERO PUSH2 0xAD6 JUMPI PUSH1 0x0 DUP1 REVERT JUMPDEST POP PUSH2 0xAE3 DUP6 DUP3 DUP7 ADD PUSH2 0x944 JUMP JUMPDEST SWAP2 POP POP SWAP3 POP SWAP3 SWAP1 POP JUMP JUMPDEST PUSH1 0x0 PUSH1 0x20 DUP3 DUP5 SUB SLT ISZERO PUSH2 0xAFF JUMPI PUSH1 0x0 DUP1 REVERT JUMPDEST DUP2 CALLDATALOAD PUSH8 0xFFFFFFFFFFFFFFFF DUP2 GT ISZERO PUSH2 0xB16 JUMPI PUSH1 0x0 DUP1 REVERT JUMPDEST PUSH2 0xB22 DUP5 DUP3 DUP6 ADD PUSH2 0x944 JUMP JUMPDEST SWAP5 SWAP4 POP POP POP POP JUMP JUMPDEST PUSH1 0x0 JUMPDEST DUP4 DUP2 LT ISZERO PUSH2 0xB45 JUMPI DUP2 DUP2 ADD MLOAD DUP4 DUP3 ADD MSTORE PUSH1 0x20 ADD PUSH2 0xB2D JUMP JUMPDEST POP POP PUSH1 0x0 SWAP2 ADD MSTORE JUMP JUMPDEST PUSH1 0x0 DUP2 MLOAD DUP1 DUP5 MSTORE PUSH2 0xB66 DUP2 PUSH1 0x20 DUP7 ADD PUSH1 0x20 DUP7 ADD PUSH2 0xB2A JUMP JUMPDEST PUSH1 0x1F ADD PUSH1 0x1F NOT AND SWAP3 SWAP1 SWAP3 ADD PUSH1 0x20 ADD SWAP3 SWAP2 POP POP JUMP JUMPDEST PUSH1 0xC0 DUP2 MSTORE PUSH1 0x0 PUSH2 0xB8D PUSH1 0xC0 DUP4 ADD DUP10 PUSH2 0xB4E JUMP JUMPDEST DUP3 DUP2 SUB PUSH1 0x20 DUP5 ADD MSTORE PUSH2 0xB9F DUP2 DUP10 PUSH2 0xB4E JUMP JUMPDEST SWAP1 POP DUP3 DUP2 SUB PUSH1 0x40 DUP5 ADD MSTORE PUSH2 0xBB3 DUP2 DUP9 PUSH2 0xB4E JUMP JUMPDEST SWAP1 POP DUP3 DUP2 SUB PUSH1 0x60 DUP5 ADD MSTORE PUSH2 0xBC7 DUP2 DUP8 PUSH2 0xB4E JUMP JUMPDEST PUSH1 0x80 DUP5 ADD SWAP6 SWAP1 SWAP6 MSTORE POP POP SWAP1 ISZERO ISZERO PUSH1 0xA0 SWAP1 SWAP2 ADD MSTORE SWAP5 SWAP4 POP POP POP POP JUMP JUMPDEST PUSH1 0x20 DUP1 DUP3 MSTORE PUSH1 0x2E SWAP1 DUP3 ADD MSTORE PUSH32 0x4F6E6C792074686520636F6E7472616374206F776E65722063616E2063616C6C PUSH1 0x40 DUP3 ADD MSTORE PUSH14 0x103A3434B990333AB731BA34B7B7 PUSH1 0x91 SHL PUSH1 0x60 DUP3 ADD MSTORE PUSH1 0x80 ADD SWAP1 JUMP JUMPDEST PUSH1 0x20 DUP1 DUP3 MSTORE PUSH1 0x28 SWAP1 DUP3 ADD MSTORE PUSH32 0x41727469636C6520776974682074686520676976656E20494420616C72656164 PUSH1 0x40 DUP3 ADD MSTORE PUSH8 0x7920657869737473 PUSH1 0xC0 SHL PUSH1 0x60 DUP3 ADD MSTORE PUSH1 0x80 ADD SWAP1 JUMP JUMPDEST PUSH1 0x0 DUP3 MLOAD PUSH2 0xC8A DUP2 DUP5 PUSH1 0x20 DUP8 ADD PUSH2 0xB2A JUMP JUMPDEST SWAP2 SWAP1 SWAP2 ADD SWAP3 SWAP2 POP POP JUMP JUMPDEST PUSH1 0x1 DUP2 DUP2 SHR SWAP1 DUP3 AND DUP1 PUSH2 0xCA8 JUMPI PUSH1 0x7F DUP3 AND SWAP2 POP JUMPDEST PUSH1 0x20 DUP3 LT DUP2 SUB PUSH2 0xCC8 JUMPI PUSH4 0x4E487B71 PUSH1 0xE0 SHL PUSH1 0x0 MSTORE PUSH1 0x22 PUSH1 0x4 MSTORE PUSH1 0x24 PUSH1 0x0 REVERT JUMPDEST POP SWAP2 SWAP1 POP JUMP JUMPDEST PUSH1 0x1F DUP3 GT ISZERO PUSH2 0xD18 JUMPI PUSH1 0x0 DUP2 DUP2 MSTORE PUSH1 0x20 DUP2 KECCAK256 PUSH1 0x1F DUP6 ADD PUSH1 0x5 SHR DUP2 ADD PUSH1 0x20 DUP7 LT ISZERO PUSH2 0xCF5 JUMPI POP DUP1 JUMPDEST PUSH1 0x1F DUP6 ADD PUSH1 0x5 SHR DUP3 ADD SWAP2 POP JUMPDEST DUP2 DUP2 LT ISZERO PUSH2 0xD14 JUMPI DUP3 DUP2 SSTORE PUSH1 0x1 ADD PUSH2 0xD01 JUMP JUMPDEST POP POP POP JUMPDEST POP POP POP JUMP JUMPDEST DUP2 MLOAD PUSH8 0xFFFFFFFFFFFFFFFF DUP2 GT ISZERO PUSH2 0xD37 JUMPI PUSH2 0xD37 PUSH2 0x92E JUMP JUMPDEST PUSH2 0xD4B DUP2 PUSH2 0xD45 DUP5 SLOAD PUSH2 0xC94 JUMP JUMPDEST DUP5 PUSH2 0xCCE JUMP JUMPDEST PUSH1 0x20 DUP1 PUSH1 0x1F DUP4 GT PUSH1 0x1 DUP2 EQ PUSH2 0xD80 JUMPI PUSH1 0x0 DUP5 ISZERO PUSH2 0xD68 JUMPI POP DUP6 DUP4 ADD MLOAD JUMPDEST PUSH1 0x0 NOT PUSH1 0x3 DUP7 SWAP1 SHL SHR NOT AND PUSH1 0x1 DUP6 SWAP1 SHL OR DUP6 SSTORE PUSH2 0xD14 JUMP JUMPDEST PUSH1 0x0 DUP6 DUP2 MSTORE PUSH1 0x20 DUP2 KECCAK256 PUSH1 0x1F NOT DUP7 AND SWAP2 JUMPDEST DUP3 DUP2 LT ISZERO PUSH2 0xDAF JUMPI DUP9 DUP7 ADD MLOAD DUP3 SSTORE SWAP5 DUP5 ADD SWAP5 PUSH1 0x1 SWAP1 SWAP2 ADD SWAP1 DUP5 ADD PUSH2 0xD90 JUMP JUMPDEST POP DUP6 DUP3 LT ISZERO PUSH2 0xDCD JUMPI DUP8 DUP6 ADD MLOAD PUSH1 0x0 NOT PUSH1 0x3 DUP9 SWAP1 SHL PUSH1 0xF8 AND SHR NOT AND DUP2 SSTORE JUMPDEST POP POP POP POP POP PUSH1 0x1 SWAP1 DUP2 SHL ADD SWAP1 SSTORE POP JUMP JUMPDEST PUSH1 0x80 DUP2 MSTORE PUSH1 0x0 PUSH2 0xDF0 PUSH1 0x80 DUP4 ADD DUP7 PUSH2 0xB4E JUMP JUMPDEST DUP3 DUP2 SUB DUP1 PUSH1 0x20 DUP6 ADD MSTORE PUSH1 0x0 DUP3 MSTORE PUSH1 0x20 DUP2 ADD PUSH1 0x40 DUP6 ADD MSTORE POP PUSH2 0xE14 PUSH1 0x20 DUP3 ADD DUP7 PUSH2 0xB4E JUMP JUMPDEST SWAP2 POP POP DUP3 ISZERO ISZERO PUSH1 0x60 DUP4 ADD MSTORE SWAP5 SWAP4 POP POP POP POP JUMP JUMPDEST PUSH1 0x0 DUP1 DUP4 SLOAD PUSH2 0xE35 DUP2 PUSH2 0xC94 JUMP JUMPDEST PUSH1 0x1 DUP3 DUP2 AND DUP1 ISZERO PUSH2 0xE4D JUMPI PUSH1 0x1 DUP2 EQ PUSH2 0xE62 JUMPI PUSH2 0xE91 JUMP JUMPDEST PUSH1 0xFF NOT DUP5 AND DUP8 MSTORE DUP3 ISZERO ISZERO DUP4 MUL DUP8 ADD SWAP5 POP PUSH2 0xE91 JUMP JUMPDEST DUP8 PUSH1 0x0 MSTORE PUSH1 0x20 DUP1 PUSH1 0x0 KECCAK256 PUSH1 0x0 JUMPDEST DUP6 DUP2 LT ISZERO PUSH2 0xE88 JUMPI DUP2 SLOAD DUP11 DUP3 ADD MSTORE SWAP1 DUP5 ADD SWAP1 DUP3 ADD PUSH2 0xE6F JUMP JUMPDEST POP POP POP DUP3 DUP8 ADD SWAP5 POP JUMPDEST POP SWAP3 SWAP7 SWAP6 POP POP POP POP POP POP JUMP JUMPDEST PUSH1 0x20 DUP2 MSTORE PUSH1 0x0 PUSH2 0xA82 PUSH1 0x20 DUP4 ADD DUP5 PUSH2 0xB4E JUMP JUMPDEST PUSH1 0x80 DUP2 MSTORE PUSH1 0x0 PUSH2 0xEC3 PUSH1 0x80 DUP4 ADD DUP7 PUSH2 0xB4E JUMP JUMPDEST DUP3 DUP2 SUB PUSH1 0x20 DUP5 ADD MSTORE PUSH2 0xED5 DUP2 DUP7 PUSH2 0xB4E JUMP JUMPDEST DUP4 DUP2 SUB PUSH1 0x40 DUP6 ADD MSTORE PUSH1 0x0 DUP2 MSTORE SWAP4 ISZERO ISZERO PUSH1 0x60 SWAP1 SWAP4 ADD SWAP3 SWAP1 SWAP3 MSTORE POP POP PUSH1 0x20 ADD SWAP3 SWAP2 POP POP JUMP INVALID LOG2 PUSH5 0x6970667358 0x22 SLT KECCAK256 0x23 PUSH5 0x392ED93D07 0xC4 SLOAD 0xD6 PUSH16 0x138100929471EA407C636D804DE3660F PUSH16 0xEE54FCC664736F6C6343000812003300 "
				},
				"gasEstimates": {
					"creation": {
						"codeDepositCost": "777200",
						"executionCost": "25047",
						"totalCost": "802247"
					},
					"external": {
						"getArticle(string)": "infinite",
						"implementation()": "2327",
						"owner()": "2326",
						"storeFullArticle(string,string,string)": "infinite",
						"storePartialArticle(string,string,string)": "infinite",
						"updateArticle(string,string)": "infinite",
						"upgradeImplementation(address)": "26721"
					},
					"internal": {
						"isArticleStored(string memory)": "infinite"
					}
				},
				"methodIdentifiers": {
					"getArticle(string)": "a4666665",
					"implementation()": "5c60da1b",
					"owner()": "8da5cb5b",
					"storeFullArticle(string,string,string)": "9f1f1508",
					"storePartialArticle(string,string,string)": "696103c8",
					"updateArticle(string,string)": "8f79e4f4",
					"upgradeImplementation(address)": "83f94db7"
				}
			},
			"storageLayout": {
				"storage": [
					{
						"astId": 3,
						"contract": "EternalJournalism.sol:EternalJournalism",
						"label": "owner",
						"offset": 0,
						"slot": "0",
						"type": "t_address"
					},
					{
						"astId": 5,
						"contract": "EternalJournalism.sol:EternalJournalism",
						"label": "implementation",
						"offset": 0,
						"slot": "1",
						"type": "t_address"
					},
					{
						"astId": 10,
						"contract": "EternalJournalism.sol:EternalJournalism",
						"label": "articles",
						"offset": 0,
						"slot": "2",
						"type": "t_mapping(t_string_memory_ptr,t_struct(Article)23_storage)"
					}
				],
				"types": {
					"t_address": {
						"encoding": "inplace",
						"label": "address",
						"numberOfBytes": "20"
					},
					"t_bool": {
						"encoding": "inplace",
						"label": "bool",
						"numberOfBytes": "1"
					},
					"t_mapping(t_string_memory_ptr,t_struct(Article)23_storage)": {
						"encoding": "mapping",
						"key": "t_string_memory_ptr",
						"label": "mapping(string => struct EternalJournalism.Article)",
						"numberOfBytes": "32",
						"value": "t_struct(Article)23_storage"
					},
					"t_string_memory_ptr": {
						"encoding": "bytes",
						"label": "string",
						"numberOfBytes": "32"
					},
					"t_string_storage": {
						"encoding": "bytes",
						"label": "string",
						"numberOfBytes": "32"
					},
					"t_struct(Article)23_storage": {
						"encoding": "inplace",
						"label": "struct EternalJournalism.Article",
						"members": [
							{
								"astId": 12,
								"contract": "EternalJournalism.sol:EternalJournalism",
								"label": "id",
								"offset": 0,
								"slot": "0",
								"type": "t_string_storage"
							},
							{
								"astId": 14,
								"contract": "EternalJournalism.sol:EternalJournalism",
								"label": "title",
								"offset": 0,
								"slot": "1",
								"type": "t_string_storage"
							},
							{
								"astId": 16,
								"contract": "EternalJournalism.sol:EternalJournalism",
								"label": "content",
								"offset": 0,
								"slot": "2",
								"type": "t_string_storage"
							},
							{
								"astId": 18,
								"contract": "EternalJournalism.sol:EternalJournalism",
								"label": "ipfsHash",
								"offset": 0,
								"slot": "3",
								"type": "t_string_storage"
							},
							{
								"astId": 20,
								"contract": "EternalJournalism.sol:EternalJournalism",
								"label": "timestamp",
								"offset": 0,
								"slot": "4",
								"type": "t_uint256"
							},
							{
								"astId": 22,
								"contract": "EternalJournalism.sol:EternalJournalism",
								"label": "isFullArticle",
								"offset": 0,
								"slot": "5",
								"type": "t_bool"
							}
						],
						"numberOfBytes": "192"
					},
					"t_uint256": {
						"encoding": "inplace",
						"label": "uint256",
						"numberOfBytes": "32"
					}
				}
			},
			"userdoc": {
				"kind": "user",
				"methods": {},
				"version": 1
			}
		}
	}
}